S014000062696E6D6963612F6D61696E2E7372656369
S11300000C9430000C9450000C9450000C9450004C
S11300100C9450000C9450000C9450000C9450001C
S11300200C9450000C9450000C9450000C9450000C
S11300300C9450000C9450000C9450000C94C0018B
S11300400C94FE020C9450000C9450000C9450003C
S11300500C9450000C9450000C9450000C945000DC
S113006011241FBE20E0A89521BD20E025BFE4ECAB
S1130070F6E030E0A0E6B0E020E005C03BBFD89554
S11300803196311D0D92A436B207C1F7A4E6B0E053
S113009020E001C01D92AA38B207E1F70C94EB01ED
S11300A00C945200189510926400DA9AD89AD99A4E
S11300B081E090E00895DA98209164002160209313
S11300C0640081E090E00895DA9A2091640026703B
S11300D02093640081E090E008952091640020FF63
S11300E003C00E94640002C00E945B00992787FD40
S11300F090950895D998209164002260209364001B
S113010081E090E00895D99A2091640025702093AD
S1130110640081E090E008952091640021FF03C011
S11301200E94830002C00E947A00992787FD90955F
S11301300895D8982091640024602093640081E09D
S113014090E00895D89A209164002370209364006D
S113015081E090E008952091640022FF03C00E9492
S1130160A20002C00E949900992787FD90950895E6
S1130170D99A9598DA9ADA98959A0895D99895988B
S1130180DA9ADA98959A08951F93CF93DF93C82F3C
S11301900E94B80011E0173958F40E94B8000E9478
S11301A0B8000E94B8000E94B8001C5F1739A8F379
S11301B010E0DD27C7FDD0951C161D0644F40E94EF
S11301C0BE001F5F212F33272C173D07C4F3D99A94
S11301D0DA9ADF91CF911F9108951F93182F0E94EF
S11301E0C4001093650081E090E01F9108951F936F
S11301F0182F0E94C400109365001F9108950E9457
S1130200BE00D99ADA9A209165002F5F2093650089
S113021008950E94B800D99ADA9A20916500215075
S113022020936500089580916500992787FD909536
S113023008951092770010927600089520E030E03F
S11302405091760040917700541709F421E0932FE0
S1130250822F0895482F592F2FB72078F894E091D2
S11302607700709177007F5F70937700309177000B
S11302703770309377006091770030917600631780
S113028081F0222309F07894FF27EE0FFF1FA7E7E0
S1130290B0E05197EA0FFB1F4083518381E090E067
S11302A007C0E0937700222309F0789480E090E07F
S11302B0089520E030E05091770040917600541783
S11302C009F421E0932F822F089520E030E040913B
S11302D07600E42FFF27E7FDF095EE0FFF1FEA59A4
S11302E0FF4FA081B181AB2B11F421E030E0932FBB
S11302F0822F08953091760020917700321711F102
S113030060917600A62FBB27A7FDB095509176008B
S11303105F5F50937600409176004770409376007B
S1130320AA0FBB1FE6E7F0E07097AE0FBF1F2D9139
S11303303C9111971D921C92E22FF32F099580E0B6
S113034090E002C08FEF9FEF0895382F262F27707B
S113035028606EEF07B6062207BE5DEF07B60522DA
S113036007BE48E000B6042A00BE23BF12BE31BF58
S113037022E007B6022A07BE789481E090E008954F
S113038078941F920F920FB60F9211242F933F93DC
S11303904F935F936F937F938F939F93AF93BF9389
S11303A0EF93FF930E944502FF91EF91BF91AF91AC
S11303B09F918F917F916F915F914F913F912F9179
S11303C00F900FBE0F901F90189580E090E0089555
S11303D080E090E00895CFEFDFE0DEBFCDBF1ABA32
S11303E017BA11BA22E022B923B9D29AD09AD19A73
S11303F08D9A179A8F9A8E9ABB9A1F9AB89AD79AFF
S1130400D39AC09ADA9AD89AD99A149A1C9A1598B7
S11304101D9A8AE00E94ED000E9419010E94460282
S11304200E9494020E945502C0E20E947A01892B24
S1130430E1F305B60C2A05BE889500000000F5CF4F
S1130440FFCF81E090E0089581E090E0089581E09D
S113045090E0089580E490E00E94990208958AE271
S113046092E00E942A010E94600280E094E00E94CF
S11304708802A0917800B09179001196B093790028
S1130480A093780080E090E0089508951092790098
S11304901092780010927B0010927A0010927D00E6
S11304A010927C0081E090E0089566E080E80E946C
S11304B0A5018AE292E00E942A0181E090E0089579
S11304C0A0917C00B0917D00AB2B59F00E94640098
S11304D00E9483000E94A20010927D0010927C0072
S11304E00CC00E945B000E947A000E94990021E0E7
S11304F030E030937D0020937C000895A091880023
S1130500B09189001196B0938900A0938800089552
S1130510CF93DF93D92FC82F02C00E947E02219768
S1130520E2F7DF91CF91089510927E0081E090E090
S11305300895282F392FF8946BB360937F0058B334
S11305405093800045B340938100F2B3F09382004E
S1130550EAB3E0938300B7B3B0938400A1B3A0934C
S1130560850092B19093860073B7709387006DEF06
S113057007B6062207BE58E000B6052A00BE4FE0C3
S113058043BF832F9927880F80937E00322F3195A4
S113059032BF21E007B6022A07BE20B72770E9F769
S11305A01ABA17BA11BA12B8AFEFABBBA8BBA5BB46
S11305B0A2BBD29AD19AD09A8F9A8E9A97989698EB
S11305C08D9A9598179A1F98BB9AC398159A1D9A55
S11305D0B89AC09AD69ADE98149A1C9890E105B6F7
S11305E0092A05BE78E005B6072A05BE30E205B63D
S11305F0032A05BE789481E090E008951F920F923B
S11306000FB60F9211240F922F933F934F935F9342
S11306106F937F938F939F93AF93BF93EF93FF93C6
S113062080917E0018164CF4815080937E0040E83F
S113063042BF50B75770E9F733C027EF05B602221F
S113064005BEFFEE05B60F2205BEE0917F00EBBBB1
S1130650B0918000B8BBA0918100A5BB90918200AD
S113066092BB709183007ABB6091840067BB509108
S1130670850051BB4091860042B93091870033BF59
S11306802EEF07B6022207BE22E007B6022A07BEF3
S113069012BE30B73770E9F7149A1C9A0E942F02E1
S11306A0FF91EF91BF91AF919F918F917F916F9146
S11306B05F914F913F912F910F900F900FBE0F902C
S10706C01F901895D6
S10706C401006600C7
S9030000FC
