S0120000626F6F746C6F616465722E73726563E7
S21401F0000C9446F80C9463F80C9463F80C9463F82B
S21401F0100C9463F80C9463F80C9463F80C9463F8FE
S21401F0200C9463F80C9463F80C9463F80C9463F8EE
S21401F0300C9463F80C9463F80C9463F80C9463F8DE
S21401F0400C9463F80C9463F80C9463F80C9463F8CE
S21401F0500C9463F80C9463F80C9463F80C9463F8BE
S21401F0600C9463F80C9463F80C9463F80C9463F8AE
S21401F0700C9463F80C9463F80C9463F80C9463F89E
S21401F0800C9463F80C9463F80C9463F811241FBE77
S21401F090CFEFD0E1DEBFCDBF11E0A0E0B1E0E0EB05
S21401F0A0FEEF01E00BBF02C007900D92A030B10742
S21401F0B0D9F711E0A0E0B1E001C01D92A030B10780
S21401F0C0E1F70C944DFE0C9400F800000000089542
S21401F0D085B7806285BF88950895D29AD09AD19ACD
S21401F0E0A79AA69AA59AA49AA39AA29AA19AA09A2E
S21401F0F0D6988C9A8F9A8E9ABB989FE787B3892366
S21401F10087BBD498D79A809164008460809364000A
S21401F110BE9AD39A8B9A8D9ADB9ADA9AD89AD99A0A
S21401F12014981598169882B1892382B91298D59A9F
S21401F130BC98BD9813981298A898AA9AAB9AAC98BE
S21401F140AD9AAE9ADD9A8BB389238BBB809165000D
S21401F1508460809365008091640081608093640080
S21401F16080916400826080936400809165008E7F48
S21401F17080936500809165008260809365000895A4
S21401F1801F93182F1295107F1C680E94F7F88CECBD
S21401F1900E9440F989E90E9440F9812F0E9440F9B6
S21401F1A080E00E9440F980E00E9440F980E00E94E1
S21401F1B040F980E00E9440F90E94F7F80E94E2F8C8
S21401F1C01F9108958091640081608093640080910E
S21401F1D06500816080936500809165008E7F8093D5
S21401F1E06500809164008E7F80936400089520E01E
S21401F1F0D49ADC9A84EF91E0000000000000000041
S21401F2000000000000000000019718161906A4F37C
S21401F210DC988CEF90E00000000000000000000089
S21401F220000000000000019718161906A4F3DC9AE6
S21401F230D498DC9A85E290E000000000000000000F
S21401F2400000000000000000019718161906A4F33C
S21401F250CC9B21E088ED90E000000000000000005B
S21401F2600000000000000000019718161906A4F31C
S21401F270213019F481E090E0089580E090E008954F
S21401F280382F20E0832F9927022E02C09595879567
S21401F2900A94E2F780FF21C0D49ADC9883E090E0DC
S21401F2A00000000000000000000000000000000058
S21401F2B0019718161906A4F3D498DC9A82E290E016
S21401F2C00000000000000000000000000000000038
S21401F2D0019718161906A4F320C0D49ADC9880E288
S21401F2E090E00000000000000000000000000000A8
S21401F2F00000019718161906A4F3D498DC9A85E045
S21401F30090E0000000000000000000000000000087
S21401F3100000019718161906A4F32F5F283008F489
S21401F320B1CF0895992780FF02C0DA9801C0DA9A12
S21401F33081FF02C0D99801C0D99A82FF02C0D8982D
S21401F3400895D89A08951F93CF93C7E010E08C2FA5
S21401F3500E9492F920E030E08FEF9FE70000000066
S21401F36000000000000000000000000001971816D1
S21401F3701906A4F32F5F3F4F283031056CF3C6956D
S21401F3801F5F133020F38C2F0E9492F9CF911F91AB
S21401F3900895CF93C0E087E00E9492F920E030E024
S21401F3A08FEF9FE700000000000000000000000053
S21401F3B000000000019718161906A4F32F5F3F4FAF
S21401F3C0243031056CF380E00E9492F920E030E0B1
S21401F3D08FEF9FE700000000000000000000000023
S21401F3E000000000019718161906A4F32F5F3F4F7F
S21401F3F0243031056CF3CF5FC33008F4CCCFCF9106
S21401F400089587FF02C0939A01C09398880F9927A1
S21401F4100895880F82998160992708950F931F9305
S21401F420CF93082FC0E01C2F802F0E9401FA082FCF
S21401F430959A8C2F0E9409FAC82F95981F5F18304D
S21401F44098F39927CF911F910F910895EF92FF920C
S21401F4501F93CF93DF93CDB7DEB724970FB6F894FB
S21401F460DEBF0FBECDBF9C0140E050E088E6898339
S21401F470FE013196C901880F892F881F990B919536
S21401F4808F708183822F880F8B834C839598DB98AE
S21401F490142F7F01F70181917F010E940EFA1F5FF1
S21401F4A01430C0F310E080E00E940EFA1F5F1430A3
S21401F4B0D0F3959A959824960FB6F894DEBF0FBEB2
S21401F4C0CDBFDF91CF911F91FF90EF900895DB9A0A
S21401F4D00895EF92FF920F931F93CF93DF93EC0162
S21401F4E0E880F9800A811B81D801C7019070A0705D
S21401F4F0B0700097A105B10541F40E9467FABB27D9
S21401F500A12F902F8F2D0E9426FA0894E11CF11C42
S21401F510011D111DE882F9820A831B8380E00E9487
S21401F5200EFA9927DF91CF911F910F91FF90EF90DF
S21401F530089588E190E029E00FB6F894A89581BD7A
S21401F5400FBE21BDFFCFAF92BF92CF92DF92EF9257
S21401F550FF920F931F93CF93DF935C016A017B01A8
S21401F560E9014050504F6140704018F080E090E053
S21401F57023C082EF9FE00E943FFF8C0184EF9FE053
S21401F5800E943FFF0817190779F08F5F9F4F61F0C0
S21401F5906FEF84EF9FE00E944CFF6FEF85EF9FE0D7
S21401F5A00E944CFFE199FECF9E01B701A601C5015D
S21401F5B00E94A6FE81E090E0DF91CF911F910F910E
S21401F5C0FF90EF90DF90CF90BF90AF9008952F926D
S21401F5D03F924F925F926F927F928F929F92AF92DD
S21401F5E0BF92CF92DF92EF92FF920F931F93CF932A
S21401F5F0DF93CDB7DEB7C450D1400FB6F894DEBF67
S21401F6000FBECDBFDC01CB01BA2FA92F982F8827BB
S21401F610FE01EF5FFE4F80839183A283B383AA240A
S21401F620BB2465011501260186017501CE018F5F98
S21401F6309E4F0E9469FA9927AA27BB270E2C04C061
S21401F640880F991FAA1FBB1F0A94D2F7282A392AA6
S21401F6504A2A5B2A0894A11CB11CC11CD11C88E053
S21401F66090E0A0E0B0E0E80EF91E0A1F1B1F94E030
S21401F670A916B104C104D104C8F266247724430153
S21401F6806401530184017301CE018F5F9E4F0E9476
S21401F69069FA9927AA27BB270E2C04C0880F991F41
S21401F6A0AA1FBB1F0A94D2F7682A792A8A2A9B2A9C
S21401F6B00894A11CB11CC11CD11C88E090E0A0E0FC
S21401F6C0B0E0E80EF91E0A1F1B1F94E0A916B1044C
S21401F6D0C104D104C8F2611471048104910409F4CF
S21401F6E0DCC0AA24BB246501A614B704C804D90447
S21401F6F008F04AC0A114B104C104D10421F1D20119
S21401F700C1019070A070B0700097A105B105D9F441
S21401F7101127052DF42CE32C0894E108F1080109C2
S21401F72011098E2D0E9492F9B02FAF2D9E2D88279C
S21401F73020E031E0AC01BD01CE0101960E94A3FAA2
S21401F740882309F445C0D201C1019070A070B07041
S21401F7508E010F5F1F4F080F191FCE018F5F9E4F3F
S21401F7600E9469FAD8018C930894A11CB11CC11C93
S21401F770D11C0894211C311C411C511CA614B70431
S21401F780C804D90408F4B6CF1127052DF42CE32CB0
S21401F7908FEF90E0A0E0B0E0282239224A225B22D7
S21401F7A0211431044104510429F40894E108F108B4
S21401F7B001091109B02FAF2D9E2D882720E031E0D9
S21401F7C0AC01BD01CE0101960E94A3FA882319F46B
S21401F7D080E090E066C0AA24BB24650115012601DD
S21401F7E086017501CE018F5F9E4F0E9469FA9927A7
S21401F7F0AA27BB270E2C04C0880F991FAA1FBB1F60
S21401F8000A94D2F7282A392A4A2A5B2A0894A11C84
S21401F810B11CC11CD11C88E090E0A0E0B0E0E80E6D
S21401F820F91E0A1F1B1F94E0A916B104C104D104D6
S21401F830C8F26624772443016401530184017301ED
S21401F840CE018F5F9E4F0E9469FA9927AA27BB2790
S21401F8500E2C04C0880F991FAA1FBB1F0A94D2F74B
S21401F860682A792A8A2A9B2A0894A11CB11CC11CE1
S21401F870D11C88E090E0A0E0B0E0E80EF91E0A1F77
S21401F8801B1F94E0A916B104C104D104C8F2611487
S21401F89071048104910409F024CF0E9467FA81E083
S21401F8A090E0CC5FDE4F0FB6F894DEBF0FBECDBF43
S21401F8B0DF91CF911F910F91FF90EF90DF90CF9046
S21401F8C0BF90AF909F908F907F906F905F904F907A
S21401F8D03F902F9008950F931F93CF93DF938C0142
S21401F8E00E943FFFEC0121968E5F9F4F70F46C2FB4
S21401F8F0C8010E944CFF8D2F99270F5F1F4F682F5D
S21401F900C8010E944CFFE199FECFDF91CF911F9174
S21401F9100F910895FF920F931F93F82E8CEE9FE0A0
S21401F9200E943FFF8C0183E0000F111F8A95E1F7CB
S21401F9308F2D992787709070082B192B602F8CEECE
S21401F9409FE00E944CFF812F9927682F8DEE9FE044
S21401F9500E944CFFE199FECF1F910F91FF900895F1
S21401F9608EEF9FE00E9437FF8460682F8EEF9FE046
S21401F9700E944CFFE199FECF0895EF92FF920F93FC
S21401F9801F93CF93082F81EF9FE00E9437FF8F3F91
S21401F99019F0182F1F5F01C011E080EF9FE00E9451
S21401F9A037FFC82F133018F4002309F44FC0CF3F98
S21401F9B019F16FEF80EF9FE00E944CFFE199FECFB7
S21401F9C084EF9FE00E943FFFAA27BB278F5F9F4FD0
S21401F9D0A040B04049F463E081EF9FE00E944CFFF5
S21401F9E0E199FECF0E9499FA6FEF81EF9FE00E94A6
S21401F9F04CFFE199FECF2AC08EEF9FE00E9437FFB1
S21401FA0080FD24C00E94C9F960E082EF9FE00E9459
S21401FA104CFF60E083EF9FE00E944CFFE199FECF30
S21401FA2060E070E080E090E00E94E7FA882321F42D
S21401FA300E94B0FC0E9499FA60E084EF9FE00E9469
S21401FA404CFF60E085EF9FE00E944CFF612F81EF45
S21401FA509FE00E944CFFE199FECFCF3F59F182EF24
S21401FA609FE00E943FFF7C0100271127C801B701D4
S21401FA700E94E7FA882321F40E94B0FC0E9499FABA
S21401FA806E2D84EF9FE00E944CFFBB27A12F902F85
S21401FA908F2D682F85EF9FE00E944CFF6FEF80EF60
S21401FAA09FE00E944CFF6FEF81EF9FE00E944CFFAA
S21401FAB0E199FECF0E94A3F96FEF81EF9FE00E94CC
S21401FAC04CFFE199FECF87E00E94C0F80C9400003D
S21401FAD0CF911F910F91FF90EF9008951F93CF93B1
S21401FAE0C0E01C2F8CEE9FE00E943FFF8F5F9F4F70
S21401FAF009F049C011E06C2F80EE9FE00E944CFF98
S21401FB006C2F81EE9FE00E944CFF6C2F84EE9FE0ED
S21401FB100E944CFF6C2F85EE9FE00E944CFF6C2FDD
S21401FB2086EE9FE00E944CFF6C2F87EE9FE00E94BE
S21401FB304CFF6C2F82EE9FE00E944CFF6C2F83EEF1
S21401FB409FE00E944CFF6C2F88EE9FE00E944CFFC6
S21401FB506C2F89EE9FE00E944CFF6C2F8AEE9FE08F
S21401FB600E944CFF6C2F8BEE9FE00E944CFF6C2F87
S21401FB708CEE9FE00E944CFF6C2F8DEE9FE00E9462
S21401FB804CFFE199FECF04B603FE13C08EEF9FE053
S21401FB900E9437FF81FD0DC08EEF9FE00E9437FF68
S21401FBA082FD07C080EE9FE00E946BFC81E00E9410
S21401FBB08AFC04B600FE07C084EE9FE00E946BFC40
S21401FBC083E00E948AFC04B602FE08C086EE9FE02F
S21401FBD00E946BFC84E00E948AFCC1E004B601FE30
S21401FBE011C004B600FC0EC08EEF9FE00E9437FFE6
S21401FBF081FD08C082EE9FE00E946BFC82E00E94BD
S21401FC008AFCC1E08EEF9FE00E9437FF81FF07C0AC
S21401FC108AEE9FE00E946BFC86E00E948AFC8EEFD3
S21401FC209FE00E9437FF82FF07C088EE9FE00E9498
S21401FC306BFC85E00E948AFC84B7877F84BF84B70B
S21401FC408E7F84BF84B78B7F84BF84B78D7F84BF4C
S21401FC508EEF9FE00E9437FF8D7F682F8EEF9FE02B
S21401FC600E944CFFE199FECF8EEF9FE00E9437FF86
S21401FC708B7F682F8EEF9FE00E944CFF8CB39927F5
S21401FC809C012270307081FDF9CFC901112311F456
S21401FC90C11181E0CF911F910895CFEFD0E1DEBF72
S21401FCA0CDBFF89488E190E020E00FB6F894A895CF
S21401FCB081BD0FBE21BD0E946DF80E946EFD082F0A
S21401FCC083EA9AEF2C0166247724AA24BB24C6EF84
S21401FCD0DFE0450173016201082C04C0F694E79445
S21401FCE0D794C7940A94D2F7CE010E9437FFC8165C
S21401FCF021F06C2DCE010E944CFF0894A11CB11C72
S21401FD0088E090E0880E991E219694E0A916B10429
S21401FD1008F3802F0E94BDFC80E090E00C9457FF12
S21401FD2084B195B1089500000000089518161906CB
S21401FD3064F4000000000000000000000000000065
S21401FD400000019718161906A4F308958F929F9242
S21401FD50AF92BF92CF92DF92EF92FF920F931F93D3
S21401FD60CF93DF934C017A018B018091680080FD6F
S21401FD70FCCFE199FECF83E0F70100935B0080930F
S21401FD806800E8958091680086FF0EC08091680043
S21401FD9080FDFCCFE199FECF81E180936800E89574
S21401FDA08091680086FDF2CFAA24BB246501E90193
S21401FDB0D695C795CE01AA27BB27A816B906CA06A7
S21401FDC0DB0648F5B801A7018091680080FDFCCFED
S21401FDD0E199FECF21E0F501EA0DFB1DE80DF91DC5
S21401FDE0808191810C01FA0160935B002093680089
S21401FDF0E89511240894A11CB11CC11CD11C4E5FAE
S21401FE005F4F6F4F7F4FCE01AA27BB27A816B906B3
S21401FE10CA06DB06C8F28091680080FDFCCFE19936
S21401FE20FECF85E0F70100935B0080936800E895BC
S21401FE308091680086FF0EC08091680080FDFCCF2F
S21401FE40E199FECF81E180936800E8958091680092
S21401FE5086FDF2CFDF91CF911F910F91FF90EF902A
S21401FE60DF90CF90BF90AF909F908F900895E199CB
S21401FE70FECF9FBB8EBBE09A99278DB30895E1997B
S21401FE80FECF9FBB8EBBE09A01960DB29FBB8EBB89
S21401FE90E09A802D9DB30895E199FECF9FBB8EBB5E
S21401FEA06DBB0FB6F894E29AE19A0FBE0895FFCFA4
S80401F0000A
