S0120000626F6F746C6F616465722E73726563E7
S21401F800CF92DF92EF92FF920F931F936C017A01D2
S21401F8108B010E9474FCC601AA27BB27A801970189
S21401F820BC01CD010E94A2FD88E190E029E00FB65F
S21401F830F894A89581BD0FBE21BD80E090E01F9190
S21401F8400F91FF90EF90DF90CF90089580FF02C058
S21401F850DA9801C0DA9A81FF02C0D89801C0D89A16
S21401F86082FF02C0D9980895D99A0895FFCF1092C1
S21401F87090008FE089B982E08BB986E0809395008D
S21401F88088ED8AB908958FE097E2499797FFFDCFF3
S21401F89008958CB95E9A0E9443FC0895813021F444
S21401F8A0DA9A80E090E00895DA9881E090E0089591
S21401F8B00895D39ADB9A089595988D9A939A8B9A80
S21401F8C092988A980895D29AD09AD19A0895DA9AF7
S21401F8D0D89AD99A08951ABA11BA14BA17BA1BBA8D
S21401F8E012BA15BA18BA0895F8940E9437FC80E047
S21401F8F00E9449FC88E190E020E00FB6F894A895B4
S21401F90081BD0FBE21BD0E946BFC0E9467FC0E9458
S21401F91063FC0E9459FC0E945CFC089587FF02C0AC
S21401F920939A01C09398880F99270895880F829B10
S21401F93002C0816002C000000000992708950F935D
S21401F9401F93CF93082FC0E01C2F802F0E948EFCA0
S21401F950082F959A8C2F0E9496FCC82F95981F5FAA
S21401F960183098F39927CF911F910F910895959A82
S21401F9700000000095980895EF92FF920F931F9351
S21401F980CF93DF93CDB7DEB724970FB6F894DEBFDB
S21401F9900FBECDBF9C0188E68983FE013196C90161
S21401F9A0880F892F881F990B91958F708183822FDD
S21401F9B0880F8B831C82D39ADB988F0184E0E82E14
S21401F9C0F12CEC0EFD1EF80181918F010E949FFC27
S21401F9D0E016F106C4F703E010E08AEA0E949FFCF5
S21401F9E00150104017FFF9CF0E94B7FC80E090E06D
S21401F9F024960FB6F894DEBF0FBECDBFDF91CF9130
S21401FA001F910F91FF90EF90089580E00E949FFC58
S21401FA10992708956F927F928F929F92AF92BF928D
S21401FA20CF92DF92EF92FF920F931F93CF93DF93C4
S21401FA303C016A017B014801590180E00E9449FCB2
S21401FA408091680080FDFCCFE199FECF83E0F6014E
S21401FA50E0925B0080936800E8958091680086FFDD
S21401FA600EC08091680080FDFCCFE199FECF81E158
S21401FA7080936800E8958091680086FDF2CFC0E02B
S21401FA80D0E0B694A7949794879481149104A10426
S21401FA90B10451F18E018091680080FDFCCFE1999F
S21401FAA0FECF61E09801442737FD4095542F2C0D79
S21401FAB03D1D4E1D5F1DF301819191913F010C018A
S21401FAC0F90140935B0060936800E8951124219644
S21401FAD00E5F1F4FCE01AA2797FDA095BA2F881556
S21401FAE09905AA05BB05B8F28091680080FDFCCF98
S21401FAF0E199FECF85E0F601E0925B008093680015
S21401FB00E8958091680086FF0EC08091680080FDB0
S21401FB10FCCFE199FECF81E180936800E895809162
S21401FB20680086FDF2CFDF91CF911F910F91FF9074
S21401FB30EF90DF90CF90BF90AF909F908F907F9087
S21401FB406F9008953F924F925F926F927F928F923D
S21401FB509F92AF92BF92CF92DF92EF92FF920F9356
S21401FB601F93CF93DF93CDB7DEB7C450D1400FB606
S21401FB70F894DEBF0FBECDBFCF5FDE4F68837983BB
S21401FB808A839B83C150D14029013A01CC24DD24CC
S21401FB9076013324C216D306E406F50608F051C0F2
S21401FBA0FFEF8F2E912CA12CB12C8C209D20AE2006
S21401FBB0BF2081149104A104B10481F40E9459FC70
S21401FBC0BB27AF2D9E2D8D2DCF5FDE4F288139812E
S21401FBD0C150D140820F931F0E94BCFCC114D104B6
S21401FBE0E104F104D1F081149104A104B104A9F453
S21401FBF0832D0E944EFC382ED701C601807080509E
S21401FC009140A040B04000E011E020E030E0AC01BF
S21401FC10BD01CE0101960E940AFD8E010F5F1F4FA6
S21401FC20080D191D0E9405FDF80180830894C11C6A
S21401FC30D11CE11CF11CC414D504E604F70408F435
S21401FC40AFCF97018601107020703070BB27AF2DA3
S21401FC509E2D8D2D011511052105310561F40197A4
S21401FC60A109B109BA2FA92F982F882700E011E022
S21401FC7020E030E004C0BA2FA92F982F8827AC01C6
S21401FC80BD01CE0101960E940AFD0E9459FCDA9838
S21401FC90CC5FDE4F0FB6F894DEBF0FBECDBFDF914F
S21401FCA0CF911F910F91FF90EF90DF90CF90BF9073
S21401FCB0AF909F908F907F906F905F904F903F9006
S21401FCC0089584B195B108950000000008951816AE
S21401FCD0190664F4000000000000000000000000A7
S21201FCE000000000019718161906A4F30895F7
S804000000FB
