S0120000626F6F746C6F616465722E73726563E7
S21401F800CF92DF92EF92FF920F931F936C017A01D2
S21401F8108B010E9476FCC601AA27BB27A801970187
S21401F820BC01CD010E94C4FD88E190E029E00FB63D
S21401F830F894A89581BD0FBE21BD0E9438FC80E0DA
S21401F84090E01F910F91FF90EF90DF90CF90089579
S21401F85080FF02C0DA9801C0DA9A81FF02C0D89808
S21401F86001C0D89A82FF02C0D9980895D99A0895FE
S21401F870FFCF109290008FE089B982E08BB986E0C5
S21401F8808093950088ED8AB908958FE097E24997AD
S21401F89097FFFDCF08958CB95E9A0E9445FC0895A6
S21401F8A0813021F4DA9A80E090E00895DA9881E0D8
S21401F8B090E008950895159A1D9A0895DB98D39AB5
S21401F8C0DF9AD79ADE98D6980895D29AD09AD19A86
S21401F8D00895DA9AD89AD99A08951ABA11BA14BA22
S21401F8E017BA1BBA12BA15BA18BA0895F8940E9434
S21401F8F039FC80E00E944BFC81E00E944BFC82E0D8
S21401F9000E944BFC83E00E944BFC84E00E944BFC6F
S21401F91088E190E020E00FB6F894A89581BD0FBE6F
S21401F92021BD0E946DFC0E9469FC0E9465FC0E943C
S21401F9305BFC0E945EFC089587FF02C0DF9A01C04F
S21401F940DF98880F99270895880FCE9B02C08160A3
S21401F95002C000000000992708950F931F93CF93CC
S21401F960082FC0E01C2F802F0E949CFC082FDB9ADA
S21401F9708C2F0E94A4FCC82FDB981F5F183098F3C9
S21401F9809927CF911F910F910895DB9A00000000EF
S21401F990DB980895EF92FF920F931F93CF93DF9317
S21401F9A0CDB7DEB724970FB6F894DEBF0FBECDBF36
S21401F9B09C0188E68983FE013196C901880F892F4B
S21401F9C0881F990B91958F708183822F880F8B8367
S21401F9D01C82159A1D988F0184E0E82EF12CEC0EFE
S21401F9E0FD1EF80181918F010E94ADFCE016F10623
S21401F9F0C4F703E010E08AEA0E94ADFC0150104013
S21401FA0017FFF9CF0E94C5FC80E090E024960FB660
S21401FA10F894DEBF0FBECDBFDF91CF911F910F913E
S21401FA20FF90EF90089580E00E94ADFC992708951D
S21401FA306F927F928F929F92AF92BF92CF92DF92F8
S21401FA40EF92FF920F931F93CF93DF933C016A01CE
S21401FA507B014801590100E010E081149104A104E2
S21401FA60B10481F0EC0189910E944BFC0F5F1F4F9E
S21401FA70C801AA2797FDA095BA2F88159905AA054A
S21401FA80BB0588F38091680080FDFCCFE199FECF2D
S21401FA9083E0F601E0925B0080936800E895809130
S21401FAA0680086FF0EC08091680080FDFCCFE1995A
S21401FAB0FECF81E180936800E8958091680086FD1D
S21401FAC0F2CF00E010E0B694A7949794879481143F
S21401FAD09104A104B10451F1E8018091680080FD10
S21401FAE0FCCFE199FECF61E09E01442737FD4095AA
S21401FAF0542F2C0D3D1D4E1D5F1DF30181919191DB
S21401FB003F010C01F90140935B0060936800E895A2
S21401FB1011240F5F1F4F2296C801AA2797FDA095B3
S21401FB20BA2F88159905AA05BB05B8F28091680019
S21401FB3080FDFCCFE199FECF85E0F601E0925B0007
S21401FB4080936800E8958091680086FF0EC08091DA
S21401FB50680080FDFCCFE199FECF81E180936800CB
S21401FB60E8958091680086FDF2CFDF91CF911F91D5
S21401FB700F91FF90EF90DF90CF90BF90AF909F9046
S21401FB808F907F906F9008953F924F925F926F9201
S21401FB907F928F929F92AF92BF92CF92DF92EF9217
S21401FBA0FF920F931F93CF93DF93CDB7DEB7C45069
S21401FBB0D1400FB6F894DEBF0FBECDBFCF5FDE4F8C
S21401FBC0688379838A839B83C150D14029013A0196
S21401FBD0CC24DD2476013324C216D306E406F506CA
S21401FBE008F051C0FFEF8F2E912CA12CB12C8C2048
S21401FBF09D20AE20BF2081149104A104B10481F49C
S21401FC000E945BFCBB27AF2D9E2D8D2DCF5FDE4F57
S21401FC1028813981C150D140820F931F0E94CAFCAE
S21401FC20C114D104E104F104D1F081149104A104BA
S21401FC30B104A9F4832D0E9450FC382ED701C601C9
S21401FC40807080509140A040B04000E011E020E07C
S21401FC5030E0AC01BD01CE0101960E9418FD8E0177
S21401FC600F5F1F4F080D191D0E9413FDF8018083B9
S21401FC700894C11CD11CE11CF11CC414D504E60473
S21401FC80F70408F4AFCF970186011070207030702A
S21401FC90BB27AF2D9E2D8D2D011511052105310593
S21401FCA061F40197A109B109BA2FA92F982F8827C6
S21401FCB000E011E020E030E004C0BA2FA92F982F11
S21401FCC08827AC01BD01CE0101960E9418FD0E9455
S21401FCD05BFCDA98CC5FDE4F0FB6F894DEBF0FBE42
S21401FCE0CDBFDF91CF911F910F91FF90EF90DF90E5
S21401FCF0CF90BF90AF909F908F907F906F905F90C6
S21401FD004F903F90089584B195B1089500000895ED
S21001FD10009711F00197F1F7089508958F
S804000000FB
