S0120000626F6F746C6F616465722E73726563E7
S21401F0000C9446F80C9463F80C9463F80C9463F82B
S21401F0100C9463F80C9463F80C9463F80C9463F8FE
S21401F0200C9463F80C9463F80C9463F80C9463F8EE
S21401F0300C9463F80C9463F80C9463F80C9463F8DE
S21401F0400C9463F80C9463F80C9463F80C9463F8CE
S21401F0500C9463F80C9463F80C9463F80C9463F8BE
S21401F0600C9463F80C9463F80C9463F80C9463F8AE
S21401F0700C9463F80C9463F80C9463F80C9463F89E
S21401F0800C9463F80C9463F80C9463F811241FBE77
S21401F090CFEFD0E1DEBFCDBF11E0A0E0B1E0E6EBFF
S21401F0A0FCEF01E00BBF02C007900D92A030B10744
S21401F0B0D9F711E0A0E0B1E001C01D92A030B10780
S21401F0C0E1F70C9441FD0C9400F80000000008954F
S21401F0D085B7806285BF88950895D29AD09AD19ACD
S21401F0E0D698A79AA69AA59AA49AA39AA29AA19AFA
S21401F0F0A09A8C9A8F9A8E9ABB98BF98D498DC98CF
S21401F100D39A8B9A8D9ADB9ADA9AD89AD99A0895D5
S21401F110992780FF02C0DA9801C0DA9A81FF02C0FF
S21401F120D99801C0D99A82FF02C0D8980895D89A72
S21401F13008951F93CF93C7E010E08C2F0E9488F8A4
S21401F14020E030E08FEF9FE70000000000000000A5
S21401F1500000000000000000019718161906A4F32D
S21401F1602F5F3F4F283031056CF3C6951F5F133074
S21401F17020F38C2F0E9488F8CF911F910895CF938A
S21401F180C0E087E00E9488F820E030E08FEF9FE73C
S21401F1900000000000000000000000000000000069
S21401F1A0019718161906A4F32F5F3F4F2430310537
S21401F1B06CF380E00E9488F820E030E08FEF9FE754
S21401F1C00000000000000000000000000000000039
S21401F1D0019718161906A4F32F5F3F4F2430310507
S21401F1E06CF3CF5FC33008F4CCCFCF91089587FF7F
S21401F1F002C0939A01C09398880F99270895880FA3
S21401F20082998160992708950F931F93CF93082FB2
S21401F210C0E01C2F802F0E94F7F8082F959A8C2F9C
S21401F2200E94FFF8C82F95981F5F183098F399270A
S21401F230CF911F910F910895EF92FF921F93CF9355
S21401F240DF93CDB7DEB724970FB6F894DEBF0FBEB7
S21401F250CDBF9C0140E050E088E68983FE013196EF
S21401F260C901880F892F881F990B91958F7081830B
S21401F270822F880F8B834C839598DB98142F7F0100
S21401F280F70181917F010E9404F91F5F1430C0F3DA
S21401F29010E080E00E9404F91F5F1430D0F3959AC5
S21401F2A0959824960FB6F894DEBF0FBECDBFDF91BA
S21401F2B0CF911F91FF90EF900895DB9A0895EF92FA
S21401F2C0FF920F931F93CF93DF93EC01E880F980B1
S21401F2D00A811B81D801C7019070A070B070009799
S21401F2E0A105B10541F40E945DF9BB27A12F902F1E
S21401F2F08F2D0E941CF90894E11CF11C011D111DA3
S21401F300E882F9820A831B8380E00E9404F9992728
S21401F310DF91CF911F910F91FF90EF90089588E1B3
S21401F32090E029E00FB6F894A89581BD0FBE21BDE7
S21401F330FFCFAF92BF92CF92DF92EF92FF920F93E1
S21401F3401F93CF93DF935C016A017B01E901405073
S21401F350504F6140704018F080E090E023C082EF8B
S21401F3609FE00E9442FE8C0184EF9FE00E9442FED5
S21401F3700817190779F08F5F9F4F61F06FEF84EFE1
S21401F3809FE00E944FFE6FEF85EF9FE00E944FFEC9
S21401F390E199FECF9E01B701A601C5010E94A9FD14
S21401F3A081E090E0DF91CF911F910F91FF90EF9058
S21401F3B0DF90CF90BF90AF9008952F923F924F92DB
S21401F3C05F926F927F928F929F92AF92BF92CF92EF
S21401F3D0DF92EF92FF920F931F93CF93DF93CDB7F8
S21401F3E0DEB7C450D1400FB6F894DEBF0FBECDBF16
S21401F3F0DC01CB01BA2FA92F982F8827FE01EF5FDA
S21401F400FE4F80839183A283B383AA24BB24650124
S21401F4101501260186017501CE018F5F9E4F0E9460
S21401F4205FF99927AA27BB270E2C04C0880F991FBE
S21401F430AA1FBB1F0A94D2F7282A392A4A2A5B2A0E
S21401F4400894A11CB11CC11CD11C88E090E0A0E06E
S21401F450B0E0E80EF91E0A1F1B1F94E0A916B104BE
S21401F460C104D104C8F26624772443016401530120
S21401F47084017301CE018F5F9E4F0E945FF9992729
S21401F480AA27BB270E2C04C0880F991FAA1FBB1FD3
S21401F4900A94D2F7682A792A8A2A9B2A0894A11CF8
S21401F4A0B11CC11CD11C88E090E0A0E0B0E0E80EE1
S21401F4B0F91E0A1F1B1F94E0A916B104C104D1044A
S21401F4C0C8F2611471048104910409F4DCC0AA2411
S21401F4D0BB246501A614B704C804D90408F04AC0C1
S21401F4E0A114B104C104D10421F1D201C10190706B
S21401F4F0A070B0700097A105B105D9F41127052DAC
S21401F500F42CE32C0894E108F108010911098E2D69
S21401F5100E9488F8B02FAF2D9E2D882720E031E07D
S21401F520AC01BD01CE0101960E9499F9882309F428
S21401F53045C0D201C1019070A070B0708E010F5FFE
S21401F5401F4F080F191FCE018F5F9E4F0E945FF954
S21401F550D8018C930894A11CB11CC11CD11C089421
S21401F560211C311C411C511CA614B704C804D90423
S21401F57008F4B6CF1127052DF42CE32C8FEF90E07D
S21401F580A0E0B0E0282239224A225B22211431046D
S21401F5904104510429F40894E108F108010911090C
S21401F5A0B02FAF2D9E2D882720E031E0AC01BD01A4
S21401F5B0CE0101960E9499F9882319F480E090E023
S21401F5C066C0AA24BB2465011501260186017501C2
S21401F5D0CE018F5F9E4F0E945FF99927AA27BB270E
S21401F5E00E2C04C0880F991FAA1FBB1F0A94D2F7BE
S21401F5F0282A392A4A2A5B2A0894A11CB11CC11C54
S21401F600D11C88E090E0A0E0B0E0E80EF91E0A1FE9
S21401F6101B1F94E0A916B104C104D104C8F26624E4
S21401F620772443016401530184017301CE018F5F86
S21401F6309E4F0E945FF99927AA27BB270E2C04C06C
S21401F640880F991FAA1FBB1F0A94D2F7682A792A26
S21401F6508A2A9B2A0894A11CB11CC11CD11C88E0D3
S21401F66090E0A0E0B0E0E80EF91E0A1F1B1F94E030
S21401F670A916B104C104D104C8F26114710481044D
S21401F680910409F024CF0E945DF981E090E0CC5FFF
S21401F690DE4F0FB6F894DEBF0FBECDBFDF91CF9120
S21401F6A01F910F91FF90EF90DF90CF90BF90AF909A
S21401F6B09F908F907F906F905F904F903F902F908C
S21401F6C008950F931F93CF93DF938C010E9442FE00
S21401F6D0EC0121968E5F9F4F70F46C2FC8010E943B
S21401F6E04FFE8D2F99270F5F1F4F682FC8010E946D
S21401F6F04FFEE199FECFDF91CF911F910F910895B3
S21401F700FF920F931F93F82E8CEE9FE00E9442FE0D
S21401F7108C0183E0000F111F8A95E1F78F2D992741
S21401F72087709070082B192B602F8CEE9FE00E943B
S21401F7304FFE812F9927682F8DEE9FE00E944FFE86
S21401F740E199FECF1F910F91FF9008958EEF9FE0F4
S21401F7500E943AFE8460682F8EEF9FE00E944FFE63
S21401F760E199FECF0895EF92FF920F931F93CF93E7
S21401F770082F81EF9FE00E943AFE8F3F19F0182F65
S21401F7801F5F01C011E080EF9FE00E943AFEC82F84
S21401F790153018F4002309F44FC0CF3F19F16FEF6D
S21401F7A080EF9FE00E944FFEE199FECF84EF9FE03D
S21401F7B00E9442FEAA27BB278F5F9F4FA040B04002
S21401F7C049F465E081EF9FE00E944FFEE199FECF8C
S21401F7D00E948FF96FEF81EF9FE00E944FFEE19943
S21401F7E0FECF2AC08EEF9FE00E943AFE80FD24C025
S21401F7F00E94BFF860E082EF9FE00E944FFE60E04B
S21401F80083EF9FE00E944FFEE199FECF60E070E03B
S21401F81080E090E00E94DDF9882321F40E94A6FB97
S21401F8200E948FF960E084EF9FE00E944FFE60E047
S21401F83085EF9FE00E944FFE612F81EF9FE00E94BF
S21401F8404FFEE199FECFCF3F59F182EF9FE00E9434
S21401F85042FE7C0100271127C801B7010E94DDF98D
S21401F860882321F40E94A6FB0E948FF96E2D84EF57
S21401F8709FE00E944FFEBB27A12F902F8F2D682F50
S21401F88085EF9FE00E944FFE6FEF80EF9FE00E94A2
S21401F8904FFE6FEF81EF9FE00E944FFEE199FECF92
S21401F8A00E9499F86FEF81EF9FE00E944FFEE19969
S21401F8B0FECF0C940000CF911F910F91FF90EF9017
S21401F8C008951F93CF93C0E01C2F8CEE9FE00E94FB
S21401F8D042FE8F5F9F4F09F049C011E06C2F80EE0A
S21401F8E09FE00E944FFE6C2F81EE9FE00E944FFE2C
S21401F8F06C2F84EE9FE00E944FFE6C2F85EE9FE0FA
S21401F9000E944FFE6C2F86EE9FE00E944FFE6C2FEA
S21401F91087EE9FE00E944FFE6C2F82EE9FE00E94D2
S21401F9204FFE6C2F83EE9FE00E944FFE6C2F88EEF9
S21401F9309FE00E944FFE6C2F89EE9FE00E944FFED3
S21401F9406C2F8AEE9FE00E944FFE6C2F8BEE9FE09D
S21401F9500E944FFE6C2F8CEE9FE00E944FFE6C2F94
S21401F9608DEE9FE00E944FFEE199FECF04B603FEA6
S21401F97014C08EEF9FE00E943AFE81FD0EC08EEF0E
S21401F9809FE00E943AFE82FD08C080EE9FE00E9442
S21401F99061FB81E00E9480FBC1E004B600FE07C067
S21401F9A084EE9FE00E9461FB83E00E9480FB04B628
S21401F9B002FE08C086EE9FE00E9461FB84E00E9482
S21401F9C080FBC1E004B601FE11C004B600FC0EC007
S21401F9D08EEF9FE00E943AFE81FD08C082EE9FE016
S21401F9E00E9461FB82E00E9480FBC1E08EEF9FE0F7
S21401F9F00E943AFE81FF07C08AEE9FE00E9461FBEB
S21401FA0086E00E9480FB8EEF9FE00E943AFE82FF16
S21401FA1007C088EE9FE00E9461FB85E00E9480FBA4
S21401FA2084B7877F84BF84B78E7F84BF84B78B7F7C
S21401FA3084BF84B78D7F84BF8EEF9FE00E943AFE1D
S21401FA408D7F682F8EEF9FE00E944FFEE199FECFDB
S21401FA508EEF9FE00E943AFE8B7F682F8EEF9FE02D
S21401FA600E944FFE8CB399279C012270307081FD55
S21401FA70F9CFC901112311F4C11181E0CF911F9172
S21401FA800895CFEFD0E1DEBFCDBFF89488E190E0D6
S21401FA9020E00FB6F894A89581BD0FBE21BD0E9447
S21401FAA06DF88091640081608093640080916500A8
S21401FAB08E7F8093650080916500816080936500EC
S21401FAC00E9461FC082F89E999EF2C0166247724AE
S21401FAD0AA24BB24C6EFDFE0450173016201082CAE
S21401FAE004C0F694E794D794C7940A94D2F7CE014B
S21401FAF00E943AFEC81621F06C2DCE010E944FFEE0
S21401FB000894A11CB11C88E090E0880E991E2196ED
S21401FB1094E0A916B10408F3802F0E94B3FB80E09D
S21401FB2090E00C945AFE84B195B10895000000004F
S21401FB3008951816190664F400000000000000007D
S21401FB400000000000000000019718161906A4F333
S21401FB5008958F929F92AF92BF92CF92DF92EF92CB
S21401FB60FF920F931F93CF93DF934C017A018B0182
S21401FB708091680080FDFCCFE199FECF83E0F7011C
S21401FB8000935B0080936800E8958091680086FF8B
S21401FB900EC08091680080FDFCCFE199FECF81E127
S21401FBA080936800E8958091680086FDF2CFAA24CC
S21401FBB0BB246501E901D695C795CE01AA27BB27C7
S21401FBC0A816B906CA06DB0648F5B801A701809152
S21401FBD0680080FDFCCFE199FECF21E0F501EA0D3A
S21401FBE0FB1DE80DF91D808191810C01FA016093DE
S21401FBF05B0020936800E89511240894A11CB11CB1
S21401FC00C11CD11C4E5F5F4F6F4F7F4FCE01AA279D
S21401FC10BB27A816B906CA06DB06C8F2809168009B
S21401FC2080FDFCCFE199FECF85E0F70100935B00F4
S21401FC3080936800E8958091680086FF0EC08091E9
S21401FC40680080FDFCCFE199FECF81E180936800DA
S21401FC50E8958091680086FDF2CFDF91CF911F91E4
S21401FC600F91FF90EF90DF90CF90BF90AF909F9055
S21401FC708F900895E199FECF9FBB8EBBE09A99279E
S21401FC808DB30895E199FECF9FBB8EBBE09A019696
S21401FC900DB29FBB8EBBE09A802D9DB30895E1996E
S21401FCA0FECF9FBB8EBB6DBB0FB6F894E29AE19A6E
S20A01FCB00FBE0895FFCF10
S80401F0000A
