S01600006275696C642F78736D2F6D61696E2E73726563A3
S11300000C94E3010C9400020C9400020C9417026B
S11300100C9400020C9400020C9400020C94000254
S11300200C9400020C9400020C9400020C94000244
S11300300C9400020C9400020C9400020C944824CA
S11300400C9400020C941F030C9448030C940002BB
S11300500C9472030C9466310C9400020C9400020C
S11300600C9400020C9400020C9400020C94000204
S11300700C9400020C9400020C9400020C940002F4
S11300800C9400020C9400020C94000287429B42E0
S1130090AF42C342D742EB42FF42134328433D439E
S11300A052436B4377437C43844389439443A4433F
S11300B0B443C843DC43F043044418441D4422447D
S11300C027442C44314436443B44404445444E4444
S11300D05C4465446E4477448044934498449D440E
S11300E0B044B744C144D5440008005E00FA01732B
S11300F001EA04BC0A5E000000140055008700B940
S113010001E5043D000808080808083158000057B4
S1130110F685035544020F60E0261C6B5570010000
S113012000000000000000008101317C00007BF928
S1130130AE02388C3280401026A16B5510010000AD
S113014000000000000000F3013151000050F74F9F
S1130150030E44020F58E026A16B55700100000005
S11301600000000000008101315CE0005CDB420122
S1130170AA8C3280301026A16B55100100000000BB
S11301800000000000F301314560004555BB039CAD
S113019080020F68E026A16B54700100000000008B
S11301A00000000081013158000057F68503559086
S11301B0020F60E026A16B557001000000000000F2
S11301C0000000810100002110422063308440A51A
S11301D050C660E770088129914AA16BB18CC1AD0A
S11301E0D1CEE1EFF13112100273325222B55294A2
S11301F042F772D662399318837BB35AA3BDD39C5A
S1130200C3FFF3DEE36224433420040114E664C72D
S113021074A44485546AA54BB528850995EEE5CFA9
S1130220F5ACC58DD55336722611163006D776F641
S1130230669556B4465BB77AA719973887DFF7FEF9
S1130240E79DD7BCC7C448E5588668A778400861CD
S11302501802282338CCC9EDD98EE9AFF948896949
S1130260990AA92BB9F55AD44AB77A966A711A50E1
S11302700A333A122AFDDBDCCBBFFB9EEB799B5899
S11302808B3BBB1AABA66C877CE44CC55C222C036D
S11302903C600C411CAEED8FFDECCDCDDD2AAD0BE9
S11302A0BD688D499D977EB66ED55EF44E133E3281
S11302B02E511E700E9FFFBEEFDDDFFCCF1BBF3A39
S11302C0AF599F788F8891A981CAB1EBA10CD12D28
S11302D0C14EF16FE18010A100C230E3200450252B
S11302E04046706760B9839893FBA3DAB33DC31C9F
S11302F0D37FE35EF3B1029012F322D2323542147B
S11303005277625672EAB5CBA5A89589856EF54FEA
S1130310E52CD50DC5E234C324A0148104667447CA
S11303206424540544DBA7FAB79987B8975FE77E3E
S1130330F71DC73CD7D326F2369106B0165766761A
S113034076154634564CD96DC90EF92FE9C899E98A
S1130350898AB9ABA94458654806782768C018E16A
S1130360088238A3287DCB5CDB3FEB1EFBF98BD8DE
S11303709BBBAB9ABB754A545A376A167AF10AD0BA
S11303801AB32A923A2EFD0FED6CDD4DCDAABD8B2A
S1130390ADE89DC98D267C076C645C454CA23C830A
S11303A02CE01CC10C1FEF3EFF5DCF7CDF9BAFBA7E
S11303B0BFD98FF89F176E367E554E745E932EB25A
S11303C03ED10EF01E0011241FBECFEFD0E1DEBFE0
S11303D0CDBF11E0A0E0B1E0EEEAFEE800E00BBF23
S11303E002C007900D92A032B107D9F717E0A0E23E
S11303F0B1E001C01D92A835B107E1F70C94BD032B
S11304000C940000E1EEF6E0A5E0B7E08FEA93E09B
S11304109F012F5F3F4F8D939D9311928B962E17C3
S11304203F07CCF710920B0710928B0508951F928B
S11304300F920FB60F9211242F933F934F935F9314
S11304406F937F938F939F93AF93BF93EF93FF9398
S113045089B78B7F89BF8DEB98E30E949703FF9147
S1130460EF91BF91AF919F918F917F916F915F9128
S11304704F913F912F910F900FBE0F901F901895A1
S1130480AF92BF92CF92DF92EF92FF920F931F939E
S1130490CF93DF9306EEA0901807B0901907C09091
S11304A01A07D0901B07A114B104C104D104C9F1E7
S11304B010E060EE74E0EE24FF2481E090E0A0E020
S11304C0B0E00E2C04C0880F991FAA1FBB1F0A940A
S11304D0D2F78A219B21AC21BD210097A105B1054A
S11304E079F0202F332744275527FB0185819681F6
S11304F0A781B08582179307A407B5070CF405817B
S11305001F5F0894E11CF11C675F7F4F1E30A8F247
S11305108FB7F894992712B71D5F011728F4012F9C
S113052003C08FB7F894992700938A0601BF1092ED
S1130530DE058FBF0E944F09DF91CF911F910F916C
S1130540FF90EF90DF90CF90BF90AF900895EF921F
S1130550FF921F93CF93DF93EC017C01E0E0A1EEC7
S1130560B6E090E08FB7F894282F33278C91882336
S113057019F481E08C93982F2FBF9130C1F0EF5F75
S11305801196E23070F3EFEFFFEF1E2FEF3F99F477
S113059080914E0190914F012FEF8F3F920709F404
S11305A047C0019690934F0180934E0141C0FF27AD
S11305B0E7FDF095EACF80914A0190914B012FEF2E
S11305C08F3F920729F0019690934B0180934A0143
S11305D0CE010E94DA1F813031F0E12FFF27EF5165
S11305E0F94F108225C0888199814C819E01BC01FC
S11305F084E00E94E91CE12FFF27813049F4EE0FCB
S1130600FF1FEB5FF84FE080F180C083D18310C0FF
S1130610EF51F94F108280914C0190914D012FEFD1
S11306208F3F920729F0019690934D0180934C01DE
S1130630C701DF91CF911F91FF90EF9008951F9212
S11306400F920FB60F9211242F933F934F935F9302
S11306506F937F938F939F93AF93BF93EF93FF9386
S11306609FB1809111048FB9892F0E940333FF91A8
S1130670EF91BF91AF919F918F917F916F915F9116
S11306804F913F912F910F900FBE0F901F9018958F
S11306901F920F920FB60F9211242F933F934F93F3
S11306A05F936F937F938F939F93AF93BF93EF93D6
S11306B0FF935F9B06C08CB140E050E060E00E9475
S11306C00836FF91EF91BF91AF919F918F917F91E8
S11306D06F915F914F913F912F910F900FBE0F90AB
S11306E01F90189578941F920F920FB60F921124B1
S11306F02F933F934F935F936F937F938F939F9326
S1130700AF93BF93EF93FF930E94D437FF91EF9180
S1130710BF91AF919F918F917F916F915F914F9115
S11307203F912F910F900FBE0F901F901895BC0111
S11307308FB7F894482F55272091CB05E22FFF2738
S1130740EE0FFF1FE955FD4F80819181892B51F4F4
S11307502F5F2F772093CB05608371834FBF81E098
S113076090E00895809177048F3F19F08F5F809314
S113077077044FBF80E090E00895CDEFD0E1DEBF75
S1130780CDBFD29AD09AD19AD698A79AA69AA59A6A
S1130790A49AA39AA29AA19AA09A8C9A8F9A8E9AB2
S11307A0BB98BF98D498AA9ADC9AD79ADF98D39A20
S11307B08B9A8D9ADB9ADA9AD89AD99ABC9ABD9A6E
S11307C0BE9ABF9A14981598169817981298D59AA5
S11307D01398C49AC79AA898A99AAD9AAC98DD9A26
S11307E080916400816080936400809164008260E1
S11307F0809364008091640084608093640080919D
S113080065008E7F8093650080916500826080938F
S113081065008091650084608093650083E08C5F4F
S11308208739E8F390E08AE0809310029093CB0537
S113083090933604909377040E9460050E948F057C
S11308400E94A9090E94410A0E94A9091092390430
S11308508FB7F89499271092DF06D29AD09AD19A3A
S1130860DA9AD89AD99A8FBF0E948F050E94A90953
S11308700E94410A0E94A9091092390481E08093E0
S11308801506809316068093170688E08093180651
S11308900E94600541E050E065E876E082EC9FE06C
S11308A00E943C08809185068F3F11F0882319F43B
S11308B081E08093850683E00E941B0B10918506DE
S11308C083E00E94420BFC01892B11F0111111836A
S11308D082E080930B0680930C0680930D06809330
S11308E00E0680930F06809311068093100681E014
S11308F00E941B0B81E08093FC050E94980B0E94D0
S1130900AC0B0E94980B0E94DB0B0E9460051092B6
S1130910CA061092CE01109241071092400710921D
S1130920CC061092CB0682E08093120680931306C5
S113093085E00E941B0B00E010E420E030E040E082
S113094051E064E070E081E00E94180A8093D801CD
S11309500E94D2090E9460050E94DB0B0E94980B42
S11309608FB7F89499271092440710924507109274
S113097046071092470710924807109249071092B1
S11309804A0710924B078FBF0E94600581E0809355
S1130990140684E00E941B0B82E00E941B0B81E082
S11309A08093F7058AE08093F80584E08093F90545
S11309B08093FA0588E08093FB050E9460050E94FD
S11309C0DF050E94EE0B41E050E0BE01640F751F8D
S11309D08EEF9FE00E943C08898199279C01217039
S11309E0307080FD02C0C9010EC010922106109221
S11309F0CA051092C9050E945B2187E291E20E9418
S1130A00970381E090E0892B91F541E050E0BE012D
S1130A106E5F7F4F8CEE9FE00E943C088A8199278D
S1130A2087709070069799F082E080933D0189E089
S1130A3080933E0120E031E040E050E061E085E059
S1130A400E94DF0889E993E00E944B230EC082E0F4
S1130A5080933D0181E080933E0120E031E040E05D
S1130A6050E0682F85E00E94DF080E945B237894A1
S1130A708FB7F894482F552790913604E92FFF2714
S1130A80EE0FFF1FE955FD4F2081318121153105FE
S1130A9019F44FBFF9010BC0108211829F5F9F7739
S1130AA0909336044FBFF9010995E1E0F0E0EE239D
S1130AB0F9F685B7806285BF889500000000D8CF1D
S1130AC0109218071092190710921A0710921B0718
S1130AD01092DE058FEF809343078093C901109233
S1130AE0A30283E08093DF0596EE90938A068FB786
S1130AF0F894282F332787B78E7F87BF87B78D7FDA
S1130B0087BF80B7886080BF8BE083BF12BE91BF70
S1130B1087B7826087BF2FBF81E090E008950F936D
S1130B201F93CF93DF930E946005182F0E94DF0567
S1130B30112311F0992702C080E090E01092CA06B8
S1130B40882319F081E090E002C080E090E0082F53
S1130B5042E050E06CEC75E086ED9FE00E943C08BA
S1130B608091E40587FD03C082E08093E405109240
S1130B706F04109239040E946005182F80E00E94CF
S1130B806C0810923904112319F0C1E0D0E002C0BE
S1130B90C0E0D0E00E94A909CC2311F0992702C03B
S1130BA080E090E0882319F0802F992702C080E02C
S1130BB090E09927DF91CF911F910F9108951F9392
S1130BC0CF93DF930E9460050E9456078FB7F89475
S1130BD099271092E9058FBF8FB7F894282F3327F0
S1130BE081E090E08093050282E08093670148E011
S1130BF04093080284E494E09093D2058093D10555
S1130C001092480482E290E090938D0580938C05C5
S1130C101092550210928A051092360710923507E9
S1130C2010922F0210922E021092A9031092A80380
S1130C3010924C071092E7011092CD011092890591
S1130C408FEF9FEF90931A068093190690931C06DA
S1130C5080931B061092AA031092760410927E06CB
S1130C6088E391E090937204809371042FBFE9EEBE
S1130C70F1E088E391E081939193415047FFF9CFEC
S1130C808FB7F8949927B998BB98BA986B986A98D3
S1130C906F9A6E9A8FBFD6988C9A8E9A8F9A949ADE
S1130CA0979A969A6AE380E00E949A076BE380E041
S1130CB00E949A0780ED97E0000000000000000009
S1130CC00000000000000000019718161906A4F3A4
S1130CD080E880931E04682F8BE00E949A0780E9C5
S1130CE080932004682F84E00E949A0710922204C3
S1130CF08FE68093230485E5809324046091220485
S1130D008FE00E949A0780912304682F80E10E945B
S1130D109A0780912404682F81E10E949A0711E0C8
S1130D2010932604612F83E10E949A0710933104E3
S1130D3083E194E0DC011196ECE0F1E09C01225E99
S1130D403F4F84918D9331962A173B07D4F711E0D6
S1130D50C4E1D4E08991682F812F0E949A071F5F14
S1130D601D30C0F380912504682F82E10E949A0708
S1130D7060E08BE00E949A076FE382E40E949A0786
S1130D8061E180E00E949A0766EA8EE00E949A0779
S1130D908EE00E94BE0783FFFBCF66E28EE00E94D6
S1130DA09A0761EE80E00E949A0780913004682FD0
S1130DB089E00E949A0760E08BE00E949A0766EA45
S1130DC08EE00E949A07CEE08C2F0E94BE0783FF1C
S1130DD0FACF66E28C2F0E949A0780E98093200460
S1130DE0682F8DE00E949A07809131048093FC065D
S1130DF00E94F1078FB7F89499271092E6068FBFE7
S1130E008FB7F894282F332710923D0410923C0496
S1130E101092CF051092CE051092530710925207EC
S1130E201092DE041092DD048DE791E0A0E0B0E0C2
S1130E308093310790933207A0933307B09334071C
S1130E402FBF0E94F1078FB7F8949927C6B917B836
S1130E508FBF0E940C080E94600580910001909150
S1130E60010190930F0780930E071092130782E0FD
S1130E708093EB058093EC058093ED058093EF055B
S1130E808093EE058093F0058093F1058093F2053D
S1130E908093F3058093F4058093F5058093F6051C
S1130EA081E090E0DF91CF911F9108958FB7F8947E
S1130EB0682F80E090E04DE651E09C01F901E80FD5
S1130EC0F91FE854F94F4483558312821382118227
S1130ED001962B5F3F4F455D5F4F8230910574F360
S1130EE01092FB061092900510928F051092070243
S1130EF01092060210926C0110926B011092C801BC
S1130F001092C7011092F406109222061092020762
S1130F1010922702109226021092AD031092AC0395
S1130F208091BC069091BD069093DD068093DC060B
S1130F306FBF0895880F949896E087FF02C0979A30
S1130F4001C097989698969A880F915097FFF5CF7D
S1130F50979A9698969A949A97E067FF02C0979A00
S1130F6001C097989698969A660F915097FFF5CF7F
S1130F70949A979A969A81E090E0089590E0880F69
S1130F80949826E030E087FF02C0979A01C09798B2
S1130F909698969A880F2150304037FFF4CF27E077
S1130FA030E097989698969A8F98949A969840E0FD
S1130FB050E0879941E0892F9927215030404423FC
S1130FC029F0880F991F982F916002C0982F990FCC
S1130FD0969A37FFEBCF949A8F9A979A892F9927ED
S1130FE008958FB7F894282F80911B02882391F4D9
S1130FF080E090E0E6EEF6E0819301968C30910576
S1131000DCF38EE18093F0068FE18093F10681E0BA
S113101080931B022FBF08958FB7F894482F55274C
S1131020209100013091010181E597E3289FB001EF
S1131030299F700D389F700D1124CB018F5A984C45
S11310409093C5068093C40690934E0780934D07F2
S113105085E89FE0289FB001299F700D389F700D8F
S11310601124CB018B57904F90931202809311025D
S11310704FBF81E090E00895CF92DF92EF92FF920C
S11310800F931F93CF93DF938A01EC016B01840FBD
S1131090951F8150904118F080E090E014C0EE2438
S11310A0FF24E416F50668F4CE010E94D946F60141
S11310B081936F0121960894E11CF11CE016F1065E
S11310C098F381E090E0DF91CF911F910F91FF9011
S11310D0EF90DF90CF900895CF93C82F2091CA014D
S11310E0281709F44BC0222309F448C099278330F8
S11310F09105A1F18430910524F4029708F03EC0D3
S113110003C0059759F13AC0223011F0243019F484
S113111080E00E94C208C13089F580916F04882361
S113112069F18091E40587FD03C082E08093E405C2
S1131130C0936F0481E090E00090C10502C0880F65
S1131140991F0A94E2F7AA2797FDA095BA2F9C014C
S1131150AD016C2F80E00E94DF0810C080916F0405
S1131160882361F092E08091E40587FD02C09093AA
S1131170E40590936F0480E00E946109C093CA0162
S1131180CF910895982F823018F020E030E015C0F8
S1131190869586958695E82FFF27E653F94F977035
S11311A021E030E0A90102C0440F551F9A95E2F7EF
S11311B0942F9095808189238083C9010895EF92AB
S11311C0FF920F931F93CF93DF93962F79018A0198
S11311D08E3050F4623044F4662349F423E0E2167E
S11311E0F1040105110518F480E090E051C0682F66
S11311F07727FB0153E0EE0FFF1F5A95E1F7E60F47
S1131200F71FE052FB4FE182F28203831483908341
S11312108FB7F894C82FDD2782B7E80EF11C011DA3
S1131220111DE582F6820783108721E030E040E05B
S113123050E004C0220F331F441F551F6A95D2F794
S11312408091180790911907A0911A07B0911B0774
S1131250822B932BA42BB52B8093180790931907FB
S1131260A0931A07B0931B0780918A069927AA278F
S1131270BB27E816F9060A071B0738F4E0928A062A
S1131280E1BE1092DE050E944F09CFBF81E090E0DD
S1131290DF91CF911F910F91FF90EF90089580916E
S11312A01901882329F487E999E30E94970306C06A
S11312B085B7837E85BF85B7806285BF80E090E077
S11312C00895CF93DF938E3008F03EC041E050E0A4
S11312D060E070E004C0440F551F661F771F8A95B5
S11312E0D2F7C0911807D0911907E0911A07F0912D
S11312F01B07CE01DF0184239523A623B723009780
S1131300A105B10509F18FB7F894282F3327DB0124
S1131310CA0180959095A095B0958C239D23AE230A
S1131320BF238093180790931907A0931A07B093CB
S11313301B072FBF0097A105B10519F481E0809325
S1131340DE0581E090E002C080E090E0DF91CF9183
S113135008950F931F93CF930E94D209C82F81E061
S113136090E08093E30662E080E00E94040AAA27EA
S1131370BB27BA2FA92F982F88278C019D0140E005
S113138050E060E070E080E00E94180A882319F0C1
S11313908C2F992702C080E090E09927CF911F916C
S11313A00F91089510925702109250021092130256
S11313B081E08093EA0580E098E0909309048093AB
S11313C00804909306048093050480910A04909184
S11313D0070482609260827E80930A04927E9093D6
S11313E00704D39ADB9A95988D9A939A8B9A92983C
S11313F08A9889B78B7F89BF80916A0080638093C4
S11314006A0081E090E008956E3F19F480E090E076
S11314100895262F332780E891E0289FA001299F73
S1131420500D389F500D1124CA018F5F9E4F0895AF
S11314300F931F939AE0899FF0011124E35EF84F04
S113144080910D07882339F4011511052105310513
S113145011F0442319F080E090E010C040835183E0
S113146062837383400F511F621F731F448355832C
S113147066837783E087F18781E090E01F910F9185
S11314800895CF93DF93CDB7DEB726970FB6F894C0
S1131490DEBF0FBECDBF42E050E0BE016F5F7F4FA5
S11314A084EF9FE00E943C0842E050E0BE016D5F83
S11314B07F4F80ED9FE00E943C0841E050E0BE0178
S11314C06B5F7F4F82ED9FE00E943C0841E050E05B
S11314D0BE016A5F7F4F84ED9FE00E943C082B8130
S11314E03C814D81842F820F80959E81891759F408
S11314F0409318018FB7F8949927309301012093F2
S113150000018FBF02C00E94B00A89819A812FEF27
S11315108F3F920711F48FEF16C0009719F48EEFE6
S113152090E011C0AA27BB2781509140A040B04051
S1131530BC01CD0120E831E040E050E00E94354795
S1131540DA01C90199278093FD0681E090E026968F
S11315500FB6F894DEBF0FBECDBFDF91CF910895D3
S11315600F931F93CF93DF93CDB7DEB721970FB6B9
S1131570F894DEBF0FBECDBF8091000190910101B0
S113158020911801280F2095298301E010E0A8017B
S113159068E171E082ED9FE00E94E90A42E050E0D8
S11315A060E071E080ED9FE00E94E90AA801BE01BD
S11315B0600F711F84ED9FE00E94E90A21960FB627
S11315C0F894DEBF0FBECDBFDF91CF911F910F9175
S11315D00895CF92DF92EF92FF920F931F93CF93D0
S11315E0DF938A01EC016B01840F951F81509041B8
S11315F018F080E090E016C0EE24FF24E416F5060F
S113160068F4F60161916F01CE010E94E1462196D2
S11316100894E11CF11CE016F10698F3E199FECF61
S113162081E090E0DF91CF911F910F91FF90EF90B7
S1131630DF90CF900895CF93C82F0E94420B892B3F
S113164019F01CC0F9010FC090E02AE532E0F9015D
S1131650808138968823B1F39F5F285F3F4F99308C
S1131660B8F3E0E0F0E0309711F4CF0109C0C08393
S113167081E081831282CF010E94520B81E090E0CD
S1131680CF910895282F90E0EAE5F2E08081821757
S113169011F4CF0108959F5F38969930B8F380E034
S11316A090E00895CF93DF93EC0181E090E00A800D
S11316B002C0880F991F0A94E2F78D839E830497D2
S11316C018F41B821C820BC00E94750B2D813E8175
S11316D036952795B9010E9421478B839C838F817E
S11316E082708F83DF91CF9108958FB7F894482F3C
S11316F055272091C4063091C506832F881F88275B
S1131700881F220F331F882321F08BE090E12827C4
S113171039272F5F3F4F3093C5062093C40680912D
S1131720110290911202282739274FBFC901089549
S11317300F931F931092CA060E94DF05082F1127EA
S11317400E946005002311F0992702C080E090E018
S113175099271F910F9108958FEF9FEF909355074D
S1131760809354078FEF9FE79093D6068093D50616
S11317708FEF90E090937404809373048FE790E06C
S113178090937B0680937A0682E08093020680938E
S1131790030680930406809305068093060691E071
S11317A090930706809308068093090680930A069F
S11317B081E090E008950E9402020E94DF0582E029
S11317C08093FD058093FE058093FF0580930006BA
S11317D0809301060E94AC0B992708956F927F9223
S11317E08F929F92BF92CF92DF92EF92FF920F93CC
S11317F01F93CF93DF9380910D07882309F047C18E
S1131800B82ECC24DD24CDE1D7E088859985892BB9
S113181009F489C061E177E020E030E040E050E085
S11318208091110790911207892B99F1DB01ED91B9
S1131830FC91E080F1800281138188819981AA81E1
S1131840BB8182179307A407B50798F08E159F05EF
S1131850A007B10770F48C819D81AE81BF8182178E
S11318609307A407B50728F0E816F9060A071B072B
S1131870A8F5248135814681578121503F4F4F4F30
S11318805F4F2070BF01685F7F4F80859185892BF2
S113189069F688819981AA81BB8182179307A4077D
S11318A0B50720F180509040A840B040F8F48C81F6
S11318B09D81AE81BF8182179307A407B507B0F05D
S11318C081509040A840B04088F4DB018D919C91F8
S11318D0119788879987CD93DC9305C0E887F987AA
S11318E0FB01C083D18321E030E00AC01C821D8249
S11318F01E821F82188219821A821B8220E030E025
S1131900C114D10429F0F1E0CF16D10431F00BC099
S1131910213049F41092E30606C0222321F08AE420
S11319209DE30E949703B3942A960894C11CD11C8A
S113193021E02B1508F069CFBB24CC24DD240DE174
S113194017E0F80180819181A281B3818F5F9F4F5D
S1131950AF4FBF4F09F08FC0B1E1EB2EB7E0FB2EC4
S113196020E030E040E050E08091110790911207B0
S1131970892B49F1D7016D917C91FB018081918183
S1131980A281B381821B930BA40BB50BF801648075
S113199075808680978086159705A805B905C0F5DA
S11319A0FB01248135814681578121503F4F4F4FA0
S11319B05F4F2070A8E0EA2EF12CE60EF71E80851A
S11319C09185892BB9F680E090E0A8E0B0E0821B15
S11319D0930BA40BB50BF801648075808680978007
S11319E086159705A805B90540F120833183428304
S11319F05383260D371D481D591D24833583468383
S1131A005783D7018D919C9111978087918710C03E
S1131A10F8012083318342835383260D371D481DEB
S1131A20591D248335834683578360877187D70183
S1131A300D931C9321E030E00BC0F8011482158251
S1131A4016821782108211821282138220E030E003
S1131A50C114D10429F0B1E0CB16D10431F00BC08C
S1131A60213049F41092E30606C0222321F08AE4CF
S1131A709DE30E949703B394065F1F4F0894C11C13
S1131A80D11CE1E0EB1508F05CCFE0930D0781E099
S1131A9090E0DF91CF911F910F91FF90EF90DF9035
S1131AA0CF90BF909F908F907F906F9008950F93E9
S1131AB01F93182F8091C706882319F0E0E0F0E007
S1131AC006C010938106812F0E94C60DFC01309739
S1131AD011F4CF0158C085E08093C70680819181BD
S1131AE0A281B381892F9A2FAB2FBB278093CD0678
S1131AF09093CE06A093CF06B093D00684819581AF
S1131B00A681B7810197A109B109892F9A2FAB2F1B
S1131B10BB2780932A0290932B02A0932C02B093AC
S1131B202D02E12FFF27EE0FFF1FEE0FFF1FE45ED4
S1131B30FD4F81E090E0A0E0B0E080839183A28338
S1131B40B38360912A0270912B02809170048823E0
S1131B5019F080E090E005C082E08093700481E099
S1131B6090E0009741F000E010E09801A80184E0C3
S1131B700E9411109927882321F482E59DE30E9495
S1131B80970381E090E01F910F910895682F809151
S1131B900D078823E9F06230D8F4862F9927FC01D9
S1131BA033E0EE0FFF1F3A95E1F7E80FF91FE80F56
S1131BB0F91FE35EF84F2081318142815381848192
S1131BC09581A681B781281739074A075B0719F45D
S1131BD080E090E008958AE0689FC0011124835E4C
S1131BE0984F0895CF92DF92EF92FF920F931F9335
S1131BF0CF93DF93CDB7DEB722970FB6F894DEBF4D
S1131C000FBECDBF182F8091C7061092C706992723
S1131C108330910509F46DC0843091050CF08FC0B8
S1131C20019709F08CC080918106813009F087C04A
S1131C30AE014F5F5F4F6EE476E085E00E94AE0E2A
S1131C406C018091D706882309F479C08091C60677
S1131C5099278130910519F0029731F170C0809174
S1131C60CB069091CC060996AC0166277727F6013E
S1131C7080859927AA27BB277C018D0189E090E004
S1131C80C80ED91E960181E00E94B60E082F1127B6
S1131C90002321F082E00E94042051C0802F0E9482
S1131CA004200093D70621C01123D1F0F6018085CA
S1131CB099270996AC016EE476E085E00E94FE2245
S1131CC0882371F0F60120858091CB069091CC0693
S1131CD0820F911D09969093CC068093CB062FC05A
S1131CE080E00E9404201092D70681E00E94C2087E
S1131CF026C01123F1F080918106E82FFF27EE0F13
S1131D00FF1FEE0FFF1FE45EFD4F80819181A281D2
S1131D10B381209114073091150740911607509113
S1131D201707820F931FA41FB51F80839183A2837B
S1131D30B38380918106813011F41092CE012296F2
S1131D400FB6F894DEBF0FBECDBFDF91CF911F91C8
S1131D500F91FF90EF90DF90CF900895CB01FA019F
S1131D6027E130E0208331830B9608954F925F92F0
S1131D706F927F928F929F92AF92BF92CF92DF9297
S1131D80EF92FF920F931F93CF93DF93982F5A01F3
S1131D906B012901370148018091C706882319F096
S1131DA0A0E0B0E006C090938106892F0E94C60D82
S1131DB0DC01109711F4CD015DC00D911D912D91A1
S1131DC03C911397B901A8014A0D5B1D6C1D7D1D43
S1131DD04093CD065093CE066093CF067093D00601
S1131DE05A016B01A60CB71CC81CD91CA0922A026C
S1131DF0B0922B02C0922C02D0922D0240175107B0
S1131E0062077307A8F014968D919D910D90BC9173
S1131E10A02D481759076A077B0750F40A151B05BC
S1131E202C053D0528F48A159B05AC05BD0518F461
S1131E3080E090E01FC020E0A816B906CA06DB06C1
S1131E4009F421E02093560260921407709215075A
S1131E50809216079092170750922502409224020E
S1131E601092FE061092FF061092000710920107CE
S1131E7081E090E0882319F480E090E007C081E0DD
S1131E808093C7060E94570F81E090E0DF91CF91C5
S1131E901F910F91FF90EF90DF90CF90BF90AF9084
S1131EA09F908F907F906F905F904F900895EF92E6
S1131EB0FF920F931F93CF93DF93E090CD06F090A2
S1131EC0CE060091CF061091D006BB27A12F902FEC
S1131ED08F2DBC0120912A0230912B0240912C02BB
S1131EE050912D02BB27A52F942F832FE216F306C2
S1131EF00407150729F48EE49DE30E9497038AC022
S1131F002091CD063091CE06A9015070681779074B
S1131F1039F4C0912A02D0912B02C21BD30B04C006
S1131F20C0E0D1E0C41BD50B8091C706E82FFF2782
S1131F30E130F10539F0E130F1050CF440C034979B
S1131F40F4F51AC020912402309125028091FE06F6
S1131F509091FF06280F391F80917004882319F08F
S1131F6080E090E004C082E080937004CF01009789
S1131F7001F18E0181E01AC02091240230912502E2
S1131F808091FE069091FF06280F391F80917004FE
S1131F90882319F080E090E005C082E0809370040B
S1131FA081E090E0009729F08E0183E00E941110F7
S1131FB09927882321F482E59DE30E949703CE01AB
S1131FC0AA27BB272091FE063091FF064091000707
S1131FD050910107280F391F4A1F5B1F2093FE06EB
S1131FE03093FF0640930007509301072091CD06DC
S1131FF03091CE064091CF065091D006280F391F5C
S11320004A1F5B1F2093CD063093CE064093CF0624
S11320105093D006DF91CF911F910F91FF90EF90D5
S113202008950F931F93E82F88E06030780790F4A9
S1132030F1E048305F0770F481E00930180750F48C
S1132040CA01800F911F8950914020F4809157025A
S1132050882319F080E090E03CC0E0935702E091BF
S11320608006EE2329F080EB98E30E9497032FC0AB
S113207030933B0420933A04109369010093680160
S113208070930A02609309025093500740934F07DC
S113209080910504909106046817790719F4E09378
S11320A0E80113C080910804909109046817790726
S11320B021F481E08093E80108C09E2F8091E8011B
S11320C0882309F491E09093E8010E945D1781E070
S11320D090E01F910F910895CF92DF92EF92FF92BB
S11320E00F931F93CF93282F80915702109257027A
S11320F099278430910509F481C1853091055CF4F8
S11321008230910509F480C0833091050CF07FC0C2
S1132110019749F0C4C1873091050CF424C1099793
S11321200CF0BDC143C180917004109270048150C1
S11321309927009721F0019709F462C0B0C12223C6
S113214009F431C18091E30699278730910509F498
S113215035C08830910524F4029709F41FC149C0A1
S11321608830910521F0099709F043C017C1C0E0F8
S11321701DC02091D1013091D201E091CF01F091A5
S1132180D001E00FF11F8081E5ECF1E08327880F97
S1132190F11DE80FF11DC895322F202D3196C895F9
S11321A030253093D2012093D101CF5F0C2F11271A
S11321B00E94E81608171907E0F21BC0E091CF014E
S11321C0F091D0018081282F33274091D101509183
S11321D0D201CA0190702817390709F0E4C081813F
S11321E0282F3327852F99272817390709F4D8C0B2
S11321F0DAC081E00E94D315882309F050C1D3C00E
S1132200222309F00FC108C11092700448C18091C3
S113221070041092700481509927009719F0019767
S113222081F13DC1222309F4BEC08091E3069927C0
S113223085309105F9F0863091051CF4049721F05E
S11322402EC10A9709F02BC180917004882319F0DC
S113225080E090E005C08F5F8093700481E090E09F
S1132260009721F086E00E9424179927882309F01B
S113227016C199C081E00E94D315882309F00FC1CB
S113228092C0222309F4C8C08091C706833009F0A4
S1132290C9C08091CD06882309F0C4C0809156023C
S11322A08823B1F02091CD063091CE064091CF061F
S11322B05091D00680912A0290912B02A0912C0279
S11322C0B0912D02281739074A075B0709F4AAC001
S11322D08091CD069091CE06A091CF06B091D00604
S11322E0892F9A2FAB2FBB279C012150304082E0CD
S11322F08093700487E080935702409180064423C2
S113230019F080EB98E317C08091050490910604BE
S11323108217930719F44093E80110C080910804D0
S1132320909109048217930721F481E08093E801D6
S113233005C08CEA98E30E9497030FC08091E801DE
S11323409927FC01EE0FFF1FE80FF91FE95FFB4F10
S11323508081877E80830E945D1781E090E0892BD5
S113236009F09DC098C0809170041092700481504F
S11323709927009721F0019709F44EC090C08091ED
S1132380E30699278630910549F0873091051CF4BE
S1132390049721F084C00A9709F081C0213019F410
S11323A084EA98E37AC088EA98E377C0809170045D
S11323B01092700481509927009709F470C0019716
S11323C009F06DC08091CD069091CE06A091CF0604
S11323D0B091D006C92EDA2EEB2EFF2482E0809332
S11323E0700400E010E0980142E050E0B60184E09F
S11323F00E941110882309F052C04DC080917004CE
S11324001092700481509927009709F448C00197ED
S113241009F045C0222311F4822F1DC08091C70604
S1132420833019F40E94570F3AC08091CD069091E1
S1132430CE06A091CF06B091D00620912A02309109
S11324402B0240912C0250912D0282179307A4076E
S1132450B50721F481E00E94F20D21C021503040E3
S11324604040504020932A0230932B0240932C0288
S113247050932D0280912A0290912B0222E0209306
S1132480700400E010E09801A801BC0184E00E94FF
S11324901110882321F482E59DE30E949703CF91D4
S11324A01F910F91FF90EF90DF90CF9008958F923E
S11324B09F92AF92BF92CF92DF92EF92FF920F93CF
S11324C01F93CF93DF93CDB7DEB725970FB6F8945C
S11324D0DEBF0FBECDBFD82E8091E3061092E30677
S11324E099278630910509F476C08730910594F4D4
S11324F08330910509F442C1843091051CF402979C
S1132500A9F0F6C18430910509F461C0059709F476
S113251066C1EEC18930910509F430C18930910555
S11325200CF4D7C00A9709F45AC1E2C120E030E0A4
S1132530A2E006ED15E0F80181918F0145EC51E030
S1132540FA018327880FF11DE80FF11DC895722F3A
S1132550602D3196C89570259B01AF5FAA3058F362
S11325608091D4059091D5058617970771F1A0E065
S1132570E4EDF5E08FEF9FEF82839383158214825D
S1132580AF5F3496A230B0F3A2E01092D50510925A
S1132590D40566ED75E02091D4053091D505FB0195
S11325A08191BF01FA018327880FF11DE80FF11D06
S11325B0C895322F202D3196C89530253093D505F6
S11325C02093D405AF5FAA3030F30E948B148D2D75
S11325D00E94A1148DC18091D406E82EFF24F1E05D
S11325E0EF16F10409F44BC042E0E416F1040CF0D8
S11325F07FC1E114F10409F07BC1DD2009F40BC1B2
S11326008E010F5F1F4F41E050E0B8018EEF9FE055
S11326100E943C0889818E7F898341E050E0B801A3
S11326208EEF9FE00E94E90A85E0898341E050E053
S1132630B80181EF9FE00E94E90AEA82FB8242E04E
S113264050E0BE01640F751F82EF9FE00E94E90A0B
S11326508FB7F89408E110E080E00FB6F894A895DD
S113266001BD0FBE81BD0E94B00A0E94151B89E006
S11326700FB6F894A89501BD0FBE81BDFFCF809120
S11326808E05882E99242091420790917D0688E139
S1132690989F800111240E561A4F822F9927AA273A
S11326A0BB27BC01CD012EE434E040E050E00E94A1
S11326B00247DC01CB0159016A0178018C019D01BB
S11326C0482D61E088E00E949315882309F010C129
S11326D00BC18091D406813009F00AC181E0D8167B
S11326E049F580913904813029F5E0918E05EF3F59
S11326F009F1FF27EE0FFF1FEE0FFF1FEC52FA4FF9
S113270085818F5F85830E948B14E0918E05EF3F56
S113271051F0FF27EE0FFF1FEE0FFF1FEC52FA4F91
S11327208581837039F483E0809339048BE49BE1E1
S11327300E9497032FEF30E0E7E3F7E085E090E0B5
S1132740219301974FEF8F3F9407D1F78091CA01EE
S1132750882319F081E00E946C0881E0D81609F002
S1132760C7C01092750482E080936A0180916F045F
S1132770813009F0BDC00E947F15BAC08091D40693
S1132780813009F0B5C08091CA01823009F0B0C02F
S1132790E1E0DE1601F580912C068F3231F480E3FE
S11327A080932C060E94A11BA3C0803319F48FE2EE
S11327B080932C0688E296E09C01255030404CE141
S11327C06FEF7FEF83EA0E94E91C882309F090C031
S11327D08CE790E28BC081E00E946C0889C08091F4
S11327E0D406992781309105B9F1823091050CF016
S11327F07FC0892B09F07CC0DD2059F18091C90587
S11328009091CA0501969093CA058093C905809159
S11328102106882319F082EF9AE168C08091C905E6
S11328209FB7F89487708093DF0681FF02C0D99820
S113283001C0D99A8091DF0682FF02C0D89801C0F6
S1132840D89A80FF02C0DA9801C0DA9A9FBF0E942A
S11328505B2187E291E24AC0DD20A1F080917D06F0
S1132860282F332788E190E0289FF001299FF00D5D
S1132870389FF00D1124EF56FA4F80818F3229F4DE
S11328808F5F80838FE890E231C04091E00644235B
S113289061F02F5F3F4FC9012E7F3370821B930B72
S11328A080937D0641504093E0068091E0068823A2
S11328B049F720E330E047E357E060E070E0CE0101
S11328C004960E94A61C482F5527442389F4AA2461
S11328D0BB246501EE24FF249601850161E086E0B6
S11328E00E949315882321F48FEC9AE10E949703A8
S11328F025960FB6F894DEBF0FBECDBFDF91CF9102
S11329001F910F91FF90EF90DF90CF90BF90AF9009
S11329109F908F90089520E0E4EDF5E08481958107
S1132920891729F020938E059093420708952F5F0D
S11329303496223098F38FEF80938E05809342076C
S11329400895CF939091390481E080933904892FBD
S113295099278330910511F1843091051CF4029775
S113296021F04BC00497E9F048C080916F0488239C
S113297089F00E94011580913904882339F482E09A
S11329808093390484ED95E00E9417150E94EE0BA4
S11329900E94491581E0882349F52BC081E090E02D
S11329A02EC021E030E0C22F80916F048823E1F033
S11329B08091E40587FD03C082E08093E4052093C1
S11329C06F04109275040E947F150E940115809176
S11329D03904882339F482E08093390484ED95E046
S11329E00E9417150E94EE0BCC2319F081E090E0B1
S11329F002C080E090E0992702C080E090E0CF918F
S1132A0008951092E00610927D062FEF30E0E7E380
S1132A10F7E085E090E0219301974FEF8F3F940713
S1132A20D1F781E00E946C0881E090E008950F9353
S1132A301F939C018091E306882319F582E080931B
S1132A40E30680917004882319F040E050E005C04B
S1132A508F5F8093700441E050E04115510511F4FB
S1132A60CA010AC00AE010E040E050E060E071E012
S1132A7081E00E94111099279927882329F48093D3
S1132A80E30680E090E002C081E090E01F910F91A6
S1132A900895EF92FF920F931F9380E00E946109C3
S1132AA081E090E00090C10502C0880F991F0A944C
S1132AB0E2F77C010027F7FC0095102F0E94750BAC
S1132AC0AA27BB270894E108F108010911098E21FE
S1132AD09F21A023B1230894E11CF11C011D111DA9
S1132AE0E80EF91E0A1F1B1FA801970161E080E090
S1132AF00E94DF081F910F91FF90EF90089580E0EE
S1132B000E9461090E94750BAA27BB279370A070CD
S1132B10B0704096A11DB11D9C01AD0161E080E043
S1132B200E94DF080895AF92BF92CF92DF92EF9296
S1132B30FF920F931F93982F8091E306882329F522
S1132B40423010F04E3F09F56093D4064093D30110
S1132B50F092D001E092CF010093F5061093F606AF
S1132B602093F7063093F806B092D306A092D206CB
S1132B701092D2011092D1019093E30680E00E945A
S1132B80D315882329F48093E30680E090E002C003
S1132B9081E090E01F910F91FF90EF90DF90CF9034
S1132BA0BF90AF900895BF92CF92DF92EF92FF92C1
S1132BB00F931F93CF93DF93182F0E94E816BC0145
S1132BC0BB24112309F43FC08091D2069091D3060F
S1132BD0E091E3066817790768F0E83021F487E0AC
S1132BE08093E30630C084EA98E30E94970381E06F
S1132BF090E0E4C0861B970B9093D3068093D20693
S1132C009B01442755278091F5069091F606A091E3
S1132C10F706B091F806820F931FA41FB51F809387
S1132C20F5069093F606A093F706B093F806E830FD
S1132C3051F08091CF019091D001860F971F90930E
S1132C40D0018093CF016091D3018091D4060E947A
S1132C50040AEC018091F5069091F606A091F7061E
S1132C60B091F806292F3A2F4B2F5527C20FD31FA7
S1132C703FEFE32EF12C012D112DE822F9220A2336
S1132C801B2367018091E30699278730910589F119
S1132C90883091055CF48530910509F444C0863090
S1132CA091050CF076C0039759F086C089309105E0
S1132CB001F18930910524F00A9709F44FC07CC0D2
S1132CC0E090CF01F090D0010E94E8168C01209191
S1132CD07004222319F020E030E005C02F5F209318
S1132CE0700421E030E02115310599F19701A60126
S1132CF017C02091CF013091D001809170048823B6
S1132D0019F080E090E005C08F5F8093700481E04B
S1132D1090E0009709F44FC002E010E040E051E079
S1132D20BE0181E033C0C090CF01D090D0010E9499
S1132D30E816A70120917004222319F020E030E066
S1132D4005C02F5F2093700421E030E02115310588
S1132D5011F4C90130C08C01960116C02091CF0135
S1132D603091D00180917004882319F080E090E0C4
S1132D7005C08F5F8093700481E090E00097D9F0E4
S1132D8002E010E040E051E0BE0183E00E94111037
S1132D9011C080917004882319F080E090E005C090
S1132DA08F5F8093700481E090E0009721F086E0CB
S1132DB00E9424179927B82E8B2D9927DF91CF9144
S1132DC01F910F91FF90EF90DF90CF90BF900895E7
S1132DD0EF92FF920F931F938091F5069091F60660
S1132DE0A091F706B091F8069070A070B070FC0145
S1132DF06091D2067091D3067B01002711279C01B4
S1132E004427552780E091E0A0E0B0E0821B930BBB
S1132E10A40BB50BE816F9060A071B0710F49B016F
S1132E2004C020E031E02E1B3F0B8091E306883084
S1132E3029F42831310510F027E130E0C9011F9150
S1132E400F91FF90EF900895982F80915702882357
S1132E5019F080E090E008959093570280918006E5
S1132E60882319F080EB98E313C080910704982F0E
S1132E70927081FD03C09093E8010FC080910A0411
S1132E8081FD04C081E08093E80107C08CEA98E3E7
S1132E900E94970381E090E008958091E8019927CA
S1132EA0FC01EE0FFF1FE80FF91FE95FFB4F808164
S1132EB0877E80830E945D17EDCF0F931F9340910F
S1132EC0E801842F9927FC01EE0FFF1FE80FF91F7B
S1132ED0DF01AB5FBB4F2091090230910A028D9153
S1132EE09C9111972817390709F0E8C050915702AF
S1132EF0852F992784309105B1F08530910564F4CC
S1132F008230910509F488C0833091050CF0A5C086
S1132F10019709F458C0FCC08730910574F10997F2
S1132F200CF0F6C035C080914F0790915007813066
S1132F30910599F08130910518F0029749F0E8C0A5
S1132F4086E08093DC0400E010E040E061E8DDC04E
S1132F50E95FFB4F808184608083842F9927FC0183
S1132F60EE0FFF1FE80FF91FE95FFB4F80818260BE
S1132F70808381E00E946C10CBC0E95FFB4F8081AD
S1132F8081FF06C0869586958695837009F0A3C057
S1132F90842F9927FC01EE0FFF1FE80FF91FE95F4B
S1132FA0FB4F808181FF8FC0573011F0553029F4D9
S1132FB08CEA98E30E949703ABC010925702852FC6
S1132FC00E942417A5C080913A0490913B049093E9
S1132FD0FA068093F90680916801909169019093B3
S1132FE059028093580281E08093DC04442311F059
S1132FF064ED01C066ED20914F0730915007842F96
S11330009927FC01EE0FFF1FE80FF91FE95FFB4F43
S11330108081817089011DC080916801909169014E
S1133020909359028093580282E08093DC044423F5
S113303011F064ED01C066ED842F9927FC01EE0FB9
S1133040FF1FE80FF91FE95FFB4F8081817000E0EB
S113305010E020E030E042E059C080913A049091C1
S11330603B049093FA068093F9068091680190914D
S11330706901909359028093580283E08093DC04A1
S1133080E95FFB4F8081857E8083442311F064E8EF
S113309001C067E820914F0730915007842F99278A
S11330A0FC01EE0FFF1FE80FF91FE95FFB4F808162
S11330B08170890120E030E040E028C0E95FFB4FE7
S11330C0808181FD03C00E94A21A22C08695869544
S11330D08695837021F0842F0E941A1A19C080915A
S11330E05702843019F42D933C93E9CE85E0809304
S11330F0DC04442311F063E501C065E500E010E061
S11331002091090230910A0240E081E00E948B186C
S11331101F910F9108950F931F93782F862F642F7B
S11331208093E005C901880F892F881F990B919519
S11331308093E105220F812F9927282B2093E20504
S11331400093E3056C5F6093A202772339F08091CA
S1133150EA05882319F00E94B31802C00E943B1AA2
S11331601F910F91089581E0809313029598DB9845
S113317087ED0E94F6188FB7F894282F84E088BF53
S113318089B7846089BF959882E090E000000000D0
S11331900000000000000000000000000197181665
S11331A01906A4F3829B05C089B78B7F89BF80E091
S11331B001C081E02FBF8823C1F48091DC048830F2
S11331C061F4959A95980000000080E090E082995F
S11331D002C081E090E080937C0681E080935002FD
S11331E0DB9A84EB98E30E9497030895982F80E07C
S11331F02FB7F894422F552722B3277D22BB97FD82
S1133200939A959A8299806822BB96FD939A959A8F
S11332108299806422BB95FD939A959A82998062E3
S113322022BB94FD939A959A8299806122BB93FD67
S1133230939A959A8299886022BB92FD939A959A63
S11332408299846022BB91FD939A959A82998260B7
S113325022BB90FD939A959A829981604FBF9927DA
S11332600895809113022091DC04882309F44AC054
S113327090910A04892F8E7F80930A043091070469
S1133280832F8E7F809307041092EA051092130215
S1133290283039F520917C0680910F02222359F0C1
S11332A09927FC01EE0FFF1FE80FF91FE95FFB4FA1
S11332B08081877E9FC09927FC01EE0FFF1FE80FD6
S11332C0F91FE95FFB4F9081892F86958695869536
S11332D08370823010F49D7F4BC081E08093800620
S11332E026C0387111F4987151F02750223038F00B
S11332F080E0332309F481E00E941A1A08950E94A1
S11333003B1A0895822F992784309105B1F08530B6
S113331091051CF401975CF00CC08630910509F40A
S11333206BC0863091050CF44BC0079729F180E0FF
S113333001C081E00E946C10089581E08093EA0549
S11333408091E8019927FC01EE0FFF1FE80FF91F98
S1133350E95FFB4F90819360892F869586958695CA
S113336083708F5F8370880F880F880F937E982BEC
S113337090830E945D17089588E08093DC0481E0C7
S11333808093EA0580910F029927FC01EE0FFF1F3D
S1133390E80FF91FE95FFB4F8081816080838AE039
S11333A090E00000000000000000000000000000A9
S11333B00000019718161906A4F30E94B318089583
S11333C081E08093EA058091E80199279C01220F0E
S11333D0331F280F391FF901EB5FFB4F809109025E
S11333E090910A0280839183F901E95FFB4F808108
S11333F083608B7F8083BDCF41E04093EA05809159
S1133400E80199279C0102C0220F331F4A95E2F775
S1133410280F391FF901EB5FFB4F8091090290914E
S11334200A0280839183F901E95FFB4F8081866002
S113343080837FCF0F931F93282F87E08093DC0432
S113344020930F02822F9927FC01EE0FFF1FE80F34
S1133450F91FEB5FFB4F222311F060E601C061E628
S113346000E010E02081318140E081E00E948B186F
S11334701F910F910895CF92DF92EF92FF920F93D5
S11334801F93CF93DF9390E0C92E00EE15E0809157
S1133490A202C82FDD27EE24FF24D92E9598DB98AD
S11334A082E0D816A9F4E5ECF1E09F25990FF11D0F
S11334B0E90FF11DC8953E2D202D3196C895302574
S11334C07901219749F53093B7062093B60629C0B0
S11334D0DD2081F4F801C1908F012197E9F4D090A7
S11334E0DC040091F9061091FA06C0915802D091BB
S11334F0590212C0F1E0DF1631F4F80191938F0103
S1133500219751F40EC0F3E0DF1659F4209749F0E7
S1133510F801C1908F0121978C2D0E94F618982FE5
S1133520BFCF81E080935002DB9A84EB98E30E9442
S11335309703DF91CF911F910F91FF90EF90DF9050
S1133540CF9008950F931F9384E08093DC044091FF
S1133550E801242F3327C901880F991F820F931F75
S1133560DC01AB5FBB4FFC01E95FFB4F808182FF55
S113357006C0442311F068E807C069E805C0442385
S113358011F063E801C066E800E010E02D913C9181
S113359040E081E00E948B181F910F910895AF9233
S11335A0BF92CF92DF92EF92FF920F931F93AA24C0
S11335B0BB246501EE24FF249601850140E061E00F
S11335C086E00E949315882321F48FEC9AE10E94EF
S11335D097031F910F91FF90EF90DF90CF90BF90D2
S11335E0AF900895AF92BF92CF92DF92EF92FF9285
S11335F00F931F93AA24BB246501EE24FF24960194
S1133600850140E0642F86E00E949315882321F40D
S113361082EF9AE10E9497031F910F91FF90EF9020
S1133620DF90CF90BF90AF900895CF92DF92EF924A
S1133630FF920F931F93CF93DF93CDB7DEB72197FC
S11336400FB6F894DEBF0FBECDBF6EEFC62E6FE08F
S1133650D62E7E010894E11CF11C01E010E0A801C3
S1133660B701C6010E943C08898182608983A80150
S1133670B701C6010E94E90A21960FB6F894DEBF8D
S11336800FBECDBFDF91CF911F910F91FF90EF90AF
S1133690DF90CF9008950F931F9392E01092D50579
S11336A01092D405A6EDB5E02091D4053091D5054E
S11336B08D91E5ECF1E08327880FF11DE80FF11DF2
S11336C0C895322F202D3196C89530253093D505D5
S11336D02093D4059F5F9A3038F38091E3068823C2
S11336E011F584E08093E30680917004882319F037
S11336F080E090E005C08F5F8093700481E090E0EB
S1133700009761F00AE010E024ED35E040E050E07D
S113371060E071E083E00E941110992799278823C3
S113372029F48093E30680E090E002C081E090E019
S1133730892B21F48BE49BE10E9497031F910F9145
S113374008956F927F928F929F92AF92BF92CF9281
S1133750DF92EF92FF920F931F93CF93DF93CDB736
S1133760DEB722970FB6F894DEBF0FBECDBF90919F
S1133770CA01892F8250823008F0ACC0933009F519
S113378080E00E947F1C882309F4A0C082E00E948C
S11337906C0820916301E22FFF27EE0FFF1FEE0F4D
S11337A0FF1FEC52FA4F82819381909329068093F4
S11337B0280620932A068091640180932B06109298
S11337C02C0680912C06803308F05AC08E010F5FBE
S11337D01F4F992720E330E04EE354E0BC01C801B9
S11337E00E94A61C882379F420E330E04EE354E0E1
S11337F060E070E0C8010E94A61C882321F481E0E7
S11338000E946C0867C01981E8E2F6E01483B7E10E
S1133810EB2EF12C1F3219F4A5E1EA2EF12C809144
S11338202B069927AA27BB27BC01CD012EE434E03F
S113383040E050E00E9402473B014C01812F992750
S1133840AA27BB27BC01CD0127E130E040E050E0CE
S11338500E940247DC01CB01680E791E8A1E9B1E62
S113386040912A06C701AA27BB275C016D01FDE22E
S1133870EF2EF6E0FF2E9401830161E083E022C085
S113388090902A0680912B0699270196AA2797FDE6
S1133890A095BA2FBC01CD012EE434E040E050E005
S11338A00E940247DC01CB01E2E0AE2EB12CC12C18
S11338B0D12C72E4E72E76E0F72E8C019D01492D80
S11338C061E089E00E949315882321F480EC98E359
S11338D00E94970322960FB6F894DEBF0FBECDBFA9
S11338E0DF91CF911F910F91FF90EF90DF90CF90D8
S11338F0BF90AF909F908F907F906F900895282FE6
S11339008230A8F4869586958695E82FFF27E6539E
S1133910F94F6081862F99272770422F5527042E4F
S113392002C0959587950A94E2F780FF03C020E0D2
S113393030E00AC021E030E0C90102C0880F991FBD
S11339404A95E2F7682B6083C9010895CF92DF920C
S1133950EF92FF920F931F93CF93DF936C018B0130
S11339607A01E9012115310539F429C0F601608392
S1133970718321E030E023C0FB0183E0F695E795F5
S11339808A95E1F7EE0DFF1D8081282F3327CB01A7
S11339908770907002C0359527958A95E2F7F901F2
S11339A0E170F07020FDE2CF6F5F7F4FCB01BE016D
S11339B00E942147BC0180179107F1F69F01C901BC
S11339C0DF91CF911F910F91FF90EF90DF90CF90F7
S11339D00895CF92DF92EF92FF920F931F93CF93AC
S11339E0DF93D82E7B01042FE9012091310130911E
S11339F032018FEF2F3F380749F480913B019091BA
S1133A003C01806290933C0180933B012F5F3F4FC8
S1133A103093320120933101809124018823D9F419
S1133A2083E0D816C1F020913301309134018FEF37
S1133A302F3F380749F480913B0190913C019460F9
S1133A4090933C0180933B012F5F3F4F30933401AF
S1133A502093330174C010911307112309F058C047
S1133A6091E0C92EC09213070E31C0F020913501A8
S1133A70309136018FEF2F3F380749F480913B0195
S1133A8090913C01806490933C0180933B012F5FB3
S1133A903F4F30933601209335011DC08FEC99E3DD
S1133AA00E9497038823D1F4209137013091380183
S1133AB08FEF2F3F380749F480913B0190913C01EF
S1133AC0806890933C0180933B012F5F3F4F30937C
S1133AD03801209337011093130731C0D093540257
S1133AE0C09353020C83E882F982DA82E091530294
S1133AF0F091540283818F3F19F0809118018383E0
S1133B008C2D8E5F8C5F8B32E8F381E090E019C0DE
S1133B1020913701309138018FEF2F3F380749F456
S1133B2080913B0190913C01806890933C0180938B
S1133B303B012F5F3F4F309338012093370180E0E2
S1133B4090E0DF91CF911F910F91FF90EF90DF9064
S1133B50CF900895CF93C1E020E08FB7F894382F29
S1133B608091FB068823C9F580915107992781FF2D
S1133B7009C089E796E0909335048093340480E487
S1133B8090E01EC082FF12C0E091C701F091C8010D
S1133B90F0933504E093340482E490E09093CC01F4
S1133BA08093CB0184819927059610C083FF15C0AB
S1133BB083E092E090933504809334048FEF90E097
S1133BC09093CC018093CB0181E090E09093070225
S1133BD0809306022C2FC093FB063FBF2223F1F0F3
S1133BE08FB7F894992710926C0110926B01109280
S1133BF0900510928F058FBF8EE70E94121EC82F6A
S1133C00813061F08FB7F894282F332788E08093B0
S1133C10FB062FBF87E29EE10E9497038C2F992712
S1133C20CF910895482F8FB7F894282F3327909178
S1133C30E90581E08093E9052FBF992319F080E01D
S1133C4090E008954CB95E9A81E090E0089561E0B7
S1133C508FB7F894282F33278091FB06883019F406
S1133C6060E06093FB062FBF8091CB019091CC0163
S1133C70409151078034910551F48FB7F894282F5F
S1133C80332782E04827409351072FBF1BC08FB7CB
S1133C90F894282F332784E04827409351072FBFF7
S1133CA0E091C701F091C801809118018383CF018D
S1133CB00E94651E8FB7F89499271092C80110923C
S1133CC0C7018FBF0E94AA1D08950F931F93CF931E
S1133CD0DF93EC01109213078A81992785309105AF
S1133CE009F4E6C0863091054CF48330910579F1EE
S1133CF084309105D4F5019791F040C1823A910541
S1133D0009F4E6C0833A91052CF4813A910509F44B
S1133D10DBC034C1833A910509F40DC12FC1CE55DE
S1133D20D54009F02BC180913F01813009F026C1B3
S1133D3010923F0180913D01823019F40E942A20A3
S1133D401DC1833009F01AC10E94432017C1CE540B
S1133D50D64009F013C180914301813009F00EC1AE
S1133D600E94C2081092430109C10A85CE010E9433
S1133D70C51F182F8EA1882309F048C08881998116
S1133D808F5F9F4F09F442C090910D0480911D01F3
S1133D909817E0F5809158019091590101969093FC
S1133DA0590180935801602FCE010E94DA1F81309F
S1133DB069F5888199814C819E01BC0184E00E944F
S1133DC0E91C813031F480910D048F5F80930D04E0
S1133DD0D5C01F3F71F080914C0190914D01FFEFD0
S1133DE08F3F9F0799F0019690934D0180934C016A
S1133DF00DC080914801909149012FEF8F3F9207A8
S1133E0029F0019690934901809348018EA1813055
S1133E1029F0888199818F5F9F4F49F480915601E1
S1133E2090915701019690935701809356011092F7
S1133E300D04CE010E94C51F8F3F31F0E82FFF27EC
S1133E40EF51F94F10829AC0602F772765307105C2
S1133E5021F06B307105F1F091C0F6E0CE34DF074C
S1133E6091F48091D706882371F08091C606823040
S1133E7039F480E00E94042010924E0610924F06FE
S1133E801092D7061FC0CB58D64009F077C01092C5
S1133E90CE0174C0CE54D64009F070C08091C806DB
S1133EA0813009F06BC00E94C2081092C80666C037
S1133EB0CE54D64009F062C08FB7F8949927109277
S1133EC050018FBF81E001C080E00E94C20856C04B
S1133ED0DE0115968091CA01843009F04FC08091AB
S1133EE08E05409142071496EC911497E81709F057
S1133EF045C0FF27EE0FFF1FEE0FFF1FEC52FA4FD6
S1133F002281338112968D919C9113978217930786
S1133F10A9F515968C91841789F50E94750B9170FB
S1133F2080509E4FAA27BB279C01AD0161E0862FDC
S1133F300E94DF0823C0DE01159614962C91149775
S1133F40822F869586958695E82FFF27E25CFB4FA6
S1133F50277081E090E002C0880F991F2A95E2F74C
S1133F60982F909580818923808314968C9114973F
S1133F708F3211F414961C920E94A11B81E090E0F0
S1133F80DF91CF911F910F910895AC0160E020E083
S1133F9030E0E5E0F7E0819191918417950711F401
S1133FA0C90108956F5F2F5F3F4F6230A0F38FEF19
S1133FB09FEF0895FC01DC011596809154079091C0
S1133FC0550780839183809100019091010185833D
S1133FD0968314968C911497815014968C9388230D
S1133FE081F48091540190915501FFEF8F3F9F0719
S1133FF029F00196909355018093540180E090E05C
S1134000089581E090E00895992781309105D1F0D9
S1134010823091051CF4892B21F008950297B1F0A8
S113402008951092C60680915B01882391F08091D7
S11340303E0790913F079093CC068093CB06109255
S11340405B01089581E08093C606089582E0809321
S1134050C60608958FB7F894382F2091DF0620FF05
S113406006C08FB7F8949927DA9A2E7F05C08FB7C8
S1134070F8949927DA9821602093DF068FBF3FBF19
S113408081E090E0089580914101882349F020E087
S113409038E040E050E061E085E00E94DF080895E8
S11340A08FB7F894282F3327DA9A8091DF068E7F12
S11340B08093DF062FBFAA9A089561E180E00E94F1
S11340C09A0780911C04682F89E00E949A0760E097
S11340D08BE00E949A078AEF90E000000000000045
S11340E000000000000000000000019718161906E7
S11340F0A4F381E090E008958091CA01823071F4C4
S113410023E236E04CE16FEF7FEF83EA0E94E91C83
S1134110882321F48CE790E20E94970308956F921C
S11341207F928F929F92AF92BF92CF92DF92EF9243
S1134130FF920F931F93CF93DF9380918E05C82F27
S1134140DD274091420767E1F62E00917D06202F7E
S1134150332788E190E0289FF001299FF00D389FD4
S1134160F00D1124EF56FA4F10811F3211F455E16E
S1134170F52E103398F5842F9927AA27BB27BC0165
S1134180CD012EE434E040E050E00E9402473B01C0
S11341904C01812F9927AA27BB27BC01CD0127E118
S11341A030E040E050E00E940247DC01CB01680EA1
S11341B0791E8A1E9B1E88E1089F900111242E56A9
S11341C03A4F8F2D9927AA27BB275C016D017901EE
S11341D0940183014C2F61E085E022C088E1089FAF
S11341E08001112409551A4F842F99270196AA2773
S11341F097FDA095BA2FBC01CD012EE434E040E038
S113420050E00E940247DC01CB0132E0A32EB12C26
S1134210C12CD12C78018C019D014C2F61E08AE0E6
S11342200E949315882321F48FE890E20E9497035B
S1134230DF91CF911F910F91FF90EF90DF90CF907E
S1134240BF90AF909F908F907F906F900895AF92A2
S1134250BF92CF92DF92EF92FF920F931F938091C0
S1134260C9059091CA05AA27BB27F5E0880F991FB5
S1134270AA1FBB1FFA95D1F7E0E2AE2EB12CC12CD8
S1134280D12C70E3E72E72E0F72E8C019D014EEFE6
S113429060E085E00E949315882321F487E291E28F
S11342A00E9497031F910F91FF90EF90DF90CF90A2
S11342B0BF90AF9008952F923F924F925F926F926A
S11342C07F928F929F92AF92BF92CF92DF92EF92A2
S11342D0FF920F931F93CF93DF93CDB7DEB72E9743
S11342E00FB6F894DEBF0FBECDBF20E030E040E053
S11342F050E01A868091C9059091CA05AA27BB2768
S11343007C018D01E5E0EE0CFF1C001F111FEA95F6
S1134310D1F7AA84A9866624782E892E9A2E1301B1
S11343202401B9848B2D9927880F991F880F991F11
S1134330DC01A05EBE4FAD90BD90CD90DC90A98213
S1134340BA82CB82DC826C0184E191E0C80ED91E72
S1134350D6018D919D910D90BC91A02DA980BA801C
S1134360CB80DC808A199B09AC09BD098D839E83AF
S1134370AF83B887B4E0AB2EB12CC12CD12CA20EE4
S1134380B31EC41ED51EEA14FB040C051D0508F05B
S113439046C06A85603208F042C0CA01B90128EFFC
S11343A03FEF4FEF5FEF0E9402479B01AC01220DEC
S11343B0331D441D551D8A85682F7727605D7D4F09
S11343C02B8789819A81AB81BC81022E04C0B6956A
S11343D0A795979587950A94D2F7DB018C93BA85B4
S11343E0BF5FBA870894E11CF11C011D111D88E010
S11343F090E0A0E0B0E0280E391E4A1E5B1E680E55
S1134400791E8A1E9B1E280F391F4A1F5B1FEA1440
S1134410FB040C051D0518F49A85903260F2A60180
S11344209501A4E0AA2EB12CC12CD12CA20EB31E4E
S1134430C41ED51EEA14FB040C051D0508F046C075
S1134440AA85A03208F042C0CA01B90128EF3FEFA3
S11344504FEF5FEF0E9402479B01AC01260D371D11
S1134460481D591DBA856B2F7727605D7D4F2B87BB
S11344708D819E81AF81B885022E04C0B695A79523
S1134480979587950A94D2F7DB018C93BA85BF5F21
S1134490BA870894E11CF11C011D111D88E090E00D
S11344A0A0E0B0E0280E391E4A1E5B1E680E791E7D
S11344B08A1E9B1E280F391F4A1F5B1FEA14FB0428
S11344C00C051D0518F49A85903260F2A601950139
S11344D0AD80BE80CF80D884A20EB31EC41ED51E6C
S11344E0EA14FB040C051D05C8F5AA85A032B0F535
S11344F089819A81AB81BC81821B930BA40BB50B80
S11345009C01AD012E0D3F1D401F511F9A85A92FFF
S1134510BB27A05DBD4F9F5F9A874BBFF901879171
S11345208C930894E11CF11C011D111D88E090E09E
S1134530A0E0B0E0280E391E4A1E5B1E680E791EEC
S11345408A1E9B1E2F5F3F4F4F4F5F4FEA14FB04A1
S11345500C051D0518F49A859032C0F2A601950148
S1134560A985AF5FA987AA2321F4BA85B03208F4DC
S1134570D8CEE985EE2349F1D601C5010896A11DDF
S1134580B11DE816F9060A071B07B8F4FA85F032DC
S1134590A0F42A85E22FFF27E05DFD4F10822F5FF4
S11345A02A870894E11CF11C011D111DE816F90667
S11345B00A071B0710F4203260F3E816F9060A070D
S11345C01B0718F081E0809321062E960FB6F8940D
S11345D0DEBF0FBECDBFDF91CF911F910F91FF9032
S11345E0EF90DF90CF90BF90AF909F908F907F908F
S11345F06F905F904F903F902F9008950F931F936B
S1134600CF93DF93282FEB018A010A5F1F4F0E31EE
S11346101105B8F580914601909147013FEF8F3F16
S1134620930729F001969093470180934601FE0178
S1134630359680910001909101018D839E83828340
S1134640938380E184832583622FCE010E94DA1F45
S11346508130B9F4888199819E01402FBC0184E0A6
S11346600E94E91C813081F08091480190914901B8
S11346702FEF8F3F920729F0019690934901809381
S1134680480180E090E002C081E090E0DF91CF91AA
S11346901F910F9108959C0180E18FBD88E08EBD2C
S11346A010927A001DBC1CBC832F99278BBD2ABD98
S11346B081E090E008951F930E94560710929000A5
S11346C08FE089B982E08BB986E08093950088ED0C
S11346D08AB90E947823182F81E090E08093240106
S11346E0109213070E944F09812F99271F91089553
S11346F00F931F93CF938FB7F8949927C091050216
S11347008FBFC13009F0A3C08FB7F894482F552745
S1134710E091D105F091D205148262E06093050224
S11347201092CD011092E7018FEF9FEF90931A063C
S113473080931906809176049927880F991FFC01AC
S1134740E851FF4F24913327322F222787519F4F5F
S1134750FC0184919927282B392B3093290220932B
S113476028024FBF20917E06222309F04AC0E0911F
S1134770D105F091D20524838FB7F89499276093DB
S113478005028FBF6BE3822F0E949A0780ED97E0AA
S11347900000000000000000000000000000000015
S11347A0019718161906A4F369E380E00E949A079A
S11347B088EC90E000000000000000000000000011
S11347C000000000019718161906A4F3BB98BA98C4
S11347D00E945D2080918A058F3128F020E03AE024
S11347E040E050E004C020E830E040E050E060E009
S11347F082E00E94DF0880EC8DB9B8980E944F09CE
S113480026C0822F9927880F991FFC01EA50FF4F79
S113481024913327122F002789509F4FFC01849144
S11348209927082B192B8FB7F894282F332787E063
S1134830809305022FBF862F0E946109C801AA2711
S1134840BB279C01AD016C2F83E00E94DF0881E04F
S113485090E0CF911F910F9108958091DC048830EE
S113486061F4959A95980000000080E090E08299A8
S113487002C081E090E080937C0681E08093500246
S1134880DB9A84EB98E30E94970381E090E008951B
S113489078941F920F920FB60F9211242F933F9387
S11348A04F935F936F937F938F939F93AF93BF9334
S11348B0CF93DF93EF93FF938FB7F894282F332789
S11348C08091A402882369F08091C2058093D80660
S11348D088608093C20583BF8091A70381BF109233
S11348E0A4022FBF8FB7F894C82FDD278091C70586
S11348F09091C805892B21F483EC98E30E949703D7
S113490021B78091C7059091C805820F911D01962A
S11349109093C8058093C705CFBFFF91EF91DF91B6
S1134920CF91BF91AF919F918F917F916F915F9143
S11349304F913F912F910F900FBE0F901F9018959C
S1134940FF920F931F93CF93DF93CDB7DEB72397D7
S11349500FB6F894DEBF0FBECDBFF82E0E94F02430
S1134960882381F180E08B839FB7F89408E110E0FD
S11349700FB6F894A89501BD0FBE81BD0E94B00A80
S11349800E94151B6F2D82E00E94040A89839A837A
S113499042E050E0BE016F5F7F4F82EF9FE00E94D4
S11349A0E90A41E050E0BE016D5F7F4F80EF9FE078
S11349B00E94E90A89E00FB6F894A89501BD0FBEDC
S11349C081BDFFCF80E090E023960FB6F894DEBF60
S11349D00FBECDBFDF91CF911F910F91FF9008952E
S11349E0282F80913904813081F4223070F4E22F31
S11349F0FF27EE0FFF1FEE0FFF1FEC52FA4F9581BA
S1134A00992319F08481891711F02E3F19F481E05C
S1134A1090E0089580E090E00895CF9381E00E94B3
S1134A207F1C882329F48DE095E20E9497034CC0F3
S1134A308FB7F8949927C1E0C09350018FBF80913C
S1134A405407909155079093540680935306809190
S1134A500001909101019093560680935506209190
S1134A60D5063091D6068091730490917404280F72
S1134A70391F80917A0690917B06280F391F309355
S1134A8058062093570680915201909153019093B8
S1134A905A068093590680911E0180935B062EE48A
S1134AA036E04DE06FEF7FEF85E00E94E91C282F90
S1134AB03327222349F48FB7F89499272093500180
S1134AC08FBF8C2F0E94C208CF9108959C01D901F9
S1134AD0FB01415050408FEF4F3F580741F0819107
S1134AE08D93415050408FEF4F3F5807C1F7C90194
S1134AF00895CF93C82F8730C8F580917E06C817D4
S1134B00A9F18091E701882389F580910502873016
S1134B1021F0823011F0813049F583E00E9461096F
S1134B208FB7F894282F332790917E0680917604CE
S1134B30981711F4C0937604C0937E062FBF80911A
S1134B400502823039F481E0809305020E94BD257C
S1134B500E94782380910502873059F481E0809384
S1134B6005020E9478230E944F0903C080E090E070
S1134B7002C081E090E0CF9108951F938FB7F8941D
S1134B80282F332781E0809305022FBF82E00E9403
S1134B90610983E00E94610910E0612F8BE00E94AB
S1134BA09A076FE3812F0E949A070E94DB2581E018
S1134BB090E01F9108956F98B89AC0980E944F0989
S1134BC081E090E008958091E40587FD03C082E0D0
S1134BD08093E40510926F0480E00E946C0881E0E9
S1134BE090E00895CF93DF93DC01FB0181818F3F37
S1134BF011F413968C938081823010F0815080835D
S1134C0081E090E0DF91CF9108951F93CF93DF93DC
S1134C10122F0E94420BEC0181E00E943626882369
S1134C2019F480E090E01EC0888199819093540625
S1134C30809353061E5F2EE436E0412F6FEF7FEF23
S1134C4083E00E94E91C182F813029F48F8183703E
S1134C5084608F8305C081E00E94C20810924301E2
S1134C60812F9927DF91CF911F910895282F869541
S1134C7086958695E82FFF27E653F94F808199277B
S1134C80277002C0959587952A95E2F79C012170BB
S1134C90307080FF03C081E090E00895C901089559
S1134CA09C018091DF048823B1F430933304209372
S1134CB032047093DB066093DA064093D30589E9E6
S1134CC09CE30E949703882331F081E08093DF0402
S1134CD081E090E0089580E090E00895AC01AA9806
S1134CE024E630E0000000000000000000000000A6
S1134CF00000000021503040121613069CF3BE9AA7
S1134D0089E08EBD20E030E02417350768F4000008
S1134D1000000000000000000000000000002F5F01
S1134D203F4F2417350798F388E08EBDAA9A81E097
S1134D3090E00895CF9321E020933F018DE695E024
S1134D4090930A0780930907C0915A01CC2371F408
S1134D5020935A010E94BE2683E30E940727C09332
S1134D60AB030E945B2781E090E002C080E090E00A
S1134D70892B11F40E945228CF91089520E0D49AEF
S1134D80DC9A84EF91E000000000000000000000C5
S1134D90000000000000019718161906A4F3DC981F
S1134DA08CEF90E000000000000000000000000014
S1134DB000000000019718161906A4F3DC9AD49891
S1134DC0DC9A85E290E00000000000000000000092
S1134DD0000000000000019718161906A4F3CC9BEC
S1134DE021E088ED90E000000000000000000000D9
S1134DF0000000000000019718161906A4F32130E2
S1134E0019F481E090E0089580E090E00895382F4F
S1134E1020E0832F9927022E02C0959587950A9446
S1134E20E2F780FF21C0D49ADC9883E090E0000090
S1134E3000000000000000000000000000000197D6
S1134E4018161906A4F3D498DC9A82E290E00000C4
S1134E5000000000000000000000000000000197B6
S1134E6018161906A4F320C0D49ADC9880E290E0C6
S1134E70000000000000000000000000000000002E
S1134E80019718161906A4F3D498DC9A85E090E0EB
S1134E90000000000000000000000000000000000E
S1134EA0019718161906A4F32F5F283008F4B1CF20
S1134EB081E090E008951F93CF9310E0212F169581
S1134EC0D49ADC9883E090E0000000000000000029
S1134ED00000000000000000019718161906A4F352
S1134EE0D498DC9A84E090E0000000000000000008
S1134EF00000000000000000019718161906A4F332
S1134F00CC9910688DE190E00000000000000000E2
S1134F100000000000000000019718161906A4F311
S1134F202F5F283008F4CBCF80913D07823099F46D
S1134F308091AE03E82FFF27E550FE4F10838F5F6B
S1134F408093AE03883028F010923D0710925E01E2
S1134F5002C00E945B2780913D07833019F08530A1
S1134F6009F076C08091AE03843041F410931C079D
S1134F7081508093AE030E945B276AC0882351F05E
S1134F80E82FFF27EA57F94F108381508093AE032F
S1134F900E945B27C091AE03CC2309F059C0109343
S1134FA08606C0935E0180913D07833011F4C0935F
S1134FB03D0780913D07853009F04AC090911C0758
S1134FC09F7880911204982B90935F0180916101E6
S1134FD0882321F09068907F90935F018091600115
S1134FE0882329F080915F018C6080935F01809118
S1134FF06201882329F080915F018F7780935F019C
S11350000E94BE268CEC0E94072789E90E9407278C
S113501080915F010E9407279C2F80916001E92FF6
S1135020FF27C92FCF5F882319F0ED53FE4F02C02D
S1135030EA57F94F80810E9407279C2FC43068F3F8
S113504010926001109261011092620110923D076A
S11350508091AB03E0910907F0910A07E80FF11D75
S113506010838091AB038F5F8093AB03883018F477
S11350700E945B2712C010925A0180913F01813037
S113508011F40E94522880914001813031F4109231
S113509040018EED9BE30E94970381E090E0CF9165
S11350A01F9108956AE071E085E795E00E94EC465F
S11350B088E498E5A0EFBDEB8093630590936405C5
S11350C0A0936505B093660580EC9BE9A3E5B1E484
S11350D08093670590936805A0936905B0936A056A
S11350E0809100019091010190936C0580936B0570
S11350F02EE535E04CE16FEF7FEF81E00E94E91C83
S11351009927882311F480933F010895CF930E9437
S11351105B23882319F081E090E002C080E090E0F6
S1135120C82F90916F04992319F081E090E02EC06C
S11351308091FD06809304028091E40587FD03C0FD
S113514082E08093E40581E080936F04909375047A
S113515020E030E080913904882319F0823009F08E
S113516021E0232B89F00E940115809139048823C2
S113517039F482E08093390484ED95E00E94171598
S11351800E94EE0B0E9449158C2F9927CF91089508
S11351901F9311E0109344010E94750B9370AA278A
S11351A0BB279C01AD01612F86E00E94DF080E94AD
S11351B05B23882319F081E090E002C080E090E056
S11351C099271F9108950E94C8280E9400290E94CF
S11351D00C088BE00E941B0B8CE00E941B0B8DE0E3
S11351E00E941B0B8EE00E941B0B20E031E040E08C
S11351F050E060E088E00E94DF0881E090E00895DC
S11352001F938FB7F894992711E0109389058FBFE6
S11352100E945B230E94750B60E07CE70E9421479B
S1135220AA27BB279C01AD01612F8AE00E94DF08F9
S113523081E090E01F910895CF93DF93782F41E0B0
S113524050E061E0C82FDD270C2E02C0440F551F2B
S11352500A94E2F72091DD043091DE04CA0182232E
S11352609323892B11F060E014C0CA01822B932B85
S11352709093DE048093DD04232B59F4872F0E943E
S11352804E299927682F882321F0D0933D04C09399
S11352903C04862F9927DF91CF910895982F8FB7DB
S11352A0F894282F3327E6EEF6E0E90FF11D80810C
S11352B08F71806487B92FBF379A369A81E090E066
S11352C00895CF93DF93EC01809100019091010147
S11352D0888399838091CC059091CD058A839B83A3
S11352E0809104028C8320E030E08091390488238B
S11352F019F0823009F021E0232B51F01D82CE01F8
S1135300069648E050E066ED75E00E94662502C00E
S113531082E08D83CE010E9492298E879F87DF9140
S1135320CF91089520E030E060E0DC018D91E5EC60
S1135330F1E08327880FF11DE80FF11DC895522F66
S1135340402D3196C89550259A016F5F6E3070F3E9
S1135350CA0108956F927F928F929F92AF92BF92EB
S1135360CF92DF92EF92FF920F931F93CF93DF932D
S1135370CDB7DEB722970FB6F894DEBF0FBECDBF10
S11353805C0120912501309126014FEF2F3F340716
S113539049F480913B0190913C01816090933C01E0
S11353A080933B012F5F3F4F3093260120932501CB
S11353B0F50182A193A10197C1F0209127013091B9
S11353C02801FFEF2F3F3F0749F480913B01909163
S11353D03C01826090933C0180933B012F5F3F4FDF
S11353E03093280120932701CBC680912401882380
S11353F0E1F4F50182818330C1F0209129013091DB
S11354002A01FFEF2F3F3F0749F480913B01909120
S11354103C01926090933C0180933B012F5F3F4F8E
S113542030932A0120932901ABC6F5019381809121
S113543018019817D1F09F3FC1F020912B013091B2
S11354402C01FFEF2F3F3F0749F480913B019091DE
S11354503C01846090933C0180933B012F5F3F4F5C
S113546030932C0120932B018BC6D5012D913C91B7
S1135470BFEF2F3F3B07F9F08091000190910101AC
S113548028173907C1F020912D0130912E01EFEF3B
S11354902F3F3E0749F480913B0190913C01886085
S11354A090933C0180933B012F5F3F4F30932E013B
S11354B020932D0165C6F501428183E08C5F8B3218
S11354C0E8F320912F0130913001FFEF2F3F3F0788
S11354D049F480913B0190913C01806190933C019F
S11354E080933B012F5F3F4F3093300120932F0176
S11354F0842F99278530910509F4ABC28630910534
S11355005CF48330910509F445C0843091050CF0B6
S11355108EC2029791F030C6823A910509F49DC477
S1135520833A91052CF4813A910509F448C324C6C1
S1135530833A910509F466C51FC6F50125813681B4
S113554080910001909101012817390721F02F5F04
S11355503F4F09F011C680913E01882309F00CC623
S11355608FB7F894282F3327DA988091DF0681606B
S11355708093DF062FBF11E01093D9060E94750BAC
S11355809F70AA27BB279C01AD01612F85E00E9473
S1135590DF08F2C5850125E0E22EF12CEA0CFB1CA4
S11355A0F50185810E94420B3C01809144018823CE
S11355B029F4F5018581813009F0DEC56114710497
S11355C009F4DAC5F7018181F3019181891B8038DF
S11355D021F4191614F49F5F9183F7019181F3016B
S11355E02181892F821B18161CF0992309F011C2FE
S11355F0992369F4822F8F5FF3018183882311F447
S11356009F5F9183F3018181F701818302C0F301DC
S11356109183D7018C9192E0C92ED12CCE0CDF1C42
S1135620082F11270530110509F467C1063011054B
S1135630A4F40230110509F49FC00330110524F4C9
S113564001301105F9F0E3C10330110509F4E9C093
S11356500430110509F423C1DAC10C30110509F431
S1135660B9C10D3011052CF40B30110509F4A8C192
S1135670CEC10D30110509F4B7C10E30110509F47E
S1135680BDC1C5C1E6E0F0E0EE0EFF1E44E050E00F
S1135690B60184ED91E00E946625A801B7018AEF66
S11356A09FEFE80EF91E80ED95E00E946625C60185
S11356B00E94D630882309F4AAC1F7018681682F95
S11356C077276130710509F4A2C1623071051CF4B9
S11356D0672B41F09CC16230710591F16330710513
S11356E0C1F195C18FB7F894282F3327DA988091A8
S11356F0DF0681608093DF062FBF8FB7F894992768
S113570021E0209319018FBF209324010E94E328F4
S11357100E94C8280E9486280E94EE0B0E94EE0B6D
S113572080913904882339F482E08093390484ED2C
S113573095E00E94171520E030E140E050E004C0FD
S11357402FEF3FEF40E050E061E087E00E94DF0888
S11357505EC188E00E9461091092440186E00E94C3
S113576061090E94E3250E94BD258FB7F89499270B
S1135770109219018FBF4BC146E050E0E40EF51EB4
S113578044E050E0B60183EC95E00E94662541E0D8
S113579050E0B7018AEF9FEFE80EF91E89EC96E01E
S11357A00E946625C6010E94D630882309F42FC1C1
S11357B0109242011092D90610924101F70186819C
S11357C080FF0BC08FB7F894282F3327DA98809185
S11357D0DF0681608093DF062FBFF701868181FF9A
S11357E003C081E080934201F701868182FF03C0F8
S11357F081E08093D906F701868184FF03C081E0AC
S11358008093410180913E01882309F000C10E94E8
S1135810750B9F70AA27BB279C01AD0161E085E051
S113582095CF86E0882E912C8E0C9F1C44E050E08E
S1135830B60187E192E00E946625A801B40184E1E3
S113584092E00E946625F701818180938506C60156
S11358500E94D630882309F4DAC0F701668160FF1C
S113586004C011E010935C0110C0862F847062FFA5
S113587004C011E010935D0108C061FFC8C08093AB
S11358805C01F401828180930E048DE00E94610921
S11358902FEF3FEF40E050E061E08DE057CF46E06E
S11358A050E0E40EF51EA801B6018BE092E00E94E0
S11358B06625A801B7018DE196E00E946625C60120
S11358C00E94D630882309F4A2C08091520190919D
S11358D05301F701218132818217930721F02F5F51
S11358E03F4F09F094C08FB7F894282F3327F7015E
S11358F08381809318012FBF8AC087010A5F1F4FDD
S113590044E050E0B60185EE95E00E94662543E050
S113591050E0B80182E896E00E946625C6010E9424
S1135920D630882309F473C0F8018281682F772761
S11359306330710539F1643071053CF461307105EF
S113594059F062307105D1F062C064307105F1F034
S11359506530710521F15BC08CE00E9461090E94F1
S1135960750BF70126813781B9010E942147AA27C7
S1135970BB279C01AD0161E08CE0E8CE8CE00E9485
S1135980610904C08CE00E94610941C08091C6068F
S1135990882369F41092CC061092CB0638C020916B
S11359A04007309141078091C606882321F081E0A9
S11359B080935B012CC03093CC062093CB0627C088
S11359C060E0C6010E94E93080918E048460809377
S11359D08E041DC061E0C6010E94E9308091A704D5
S11359E084608093A70413C062E0C6010E94E9307A
S11359F08091C00484608093C00409C063E0C60140
S1135A000E94E9308091D90484608093D90485018F
S1135A1007C0921729F4F30187818160878305C049
S1135A20F3011282C3010E94520BC801A6C3A5014F
S1135A30F501628120813181809100019091010101
S1135A402817390721F4C5010E94A702AC01CA0135
S1135A5094C3B5E0CB2ED12CCA0CDB1CF6014085D7
S1135A60242F332750911E01852F992787FD909568
S1135A708217930714F04423D1F4442339F4852F77
S1135A808F5F80931E01882319F44F5F40931E019A
S1135A900E94750B60E07CE70E9421470196AA27CB
S1135AA0BB279C01AD0161E089E00E94DF08F6019B
S1135AB082809380809154079091550788169906A7
S1135AC0B1F486819781909353018093520184812C
S1135AD095819093D6068093D506F50184A195A16E
S1135AE090937404809373041092510145C3F6019A
S1135AF064807580730100271127F50164A175A1E5
S1135B00CB01AA27BB27E80EF91E0A1F1B1F8FE72C
S1135B1090E0A0E0B0E0E80EF91E0A1F1B1F809180
S1135B20D5069091D6069C0144275527809173048D
S1135B3090917404AA27BB27280F391F4A1F5B1FA3
S1135B4080917A0690917B06AA27BB27280F391FDC
S1135B504A1F5B1FE216F3060407150708F00CC37F
S1135B60D6012D913C9111978091000190910101F2
S1135B702817390709F400C316968D919C9117973D
S1135B809093530180935201909255078092540749
S1135B907092D6066092D506709374046093730471
S1135BA08FE790E090937B0680937A0610925701DA
S1135BB0109256011092590110925801DDC2A5E0CD
S1135BC0EA2EF12CEA0CFB1CC7010E9492299C01CD
S1135BD0F701868597852817390709F0CDC2858195
S1135BE0813061F5828193818F5F9F4F21F4F701AA
S1135BF084818F3F31F0C5010B960E944431882384
S1135C00E9F080E00E943626082F1127002309F0CE
S1135C10B3C288E296E00E946129D7018D919C91DC
S1135C2023E236E040E1BC0181EA0E94E91C8130B4
S1135C3009F0A2C2802F0E947F1C9EC280916F0433
S1135C40882309F499C28091E40587FD95C2F70180
S1135C508581813059F1228133818091CC059091E5
S1135C60CD052817390789F4948180910402981787
S1135C7061F4C70106960E944431882331F0809173
S1135C8075048F5F8093750411C08091C1058A30BB
S1135C9031F080916F04813011F40E944915809194
S1135CA0E40587FD03C082E08093E405F6E06F2EEF
S1135CB0712C6E0C7F1C882480913904813009F08A
S1135CC04EC0982CE4EDCE2EE5E0DE2E8301D80103
S1135CD02D913C91BFEF2F3F3B0749F1F6018281A3
S1135CE09381281B390B121613060CF5F8018281D7
