:10110000B240805A20013F4014183E4000023D404A
:1011100000020D9E0524FE4F00001E530E9DFB2B6A
:101120003F4000023D4004020D9F0524CF430000D4
:101130001F530F9DFB2B3040401130403E110013D8
:101140003140000A32C20343F2D010003200F2D024
:1011500020003200F2D040003200E2D31A00E2C296
:101160001A00F2D21A00F2D21E00F2D21D00F2D002
:1011700010001E00F2D010001D00F24007005700C2
:10118000F240E0FF5600B012F2160F433040EC1769
:101190000B120A124A4F7B4003004F4AB012C8118B
:1011A0006E423F433F53FE237E53FB234F43B01217
:1011B000C8116E423F433F53FE237E53FB237B53B4
:1011C000EC233A413B4130414E4F6FF31624F2F08D
:1011D000DFFF31006EB20D24F2F0BFFF31005EB3CD
:1011E0000424F2F0EFFF31003041F2D01000310062
:1011F0003041F2D040003100F23FF2D02000310007
:10120000E93F0B120A12091208127A4007007940CE
:101210000300484A12C348103B4000064F4AB01230
:10122000C8110F4B0B9302243F53FE234F48B012BB
:10123000C8113F4000060F8B02243F53FE232B8230
:101240001B93EC3779534A48E423384139413A41FA
:101250003B4130415E427F105F42FF107E930B2482
:101260007F9307240D434E8F02300F4D30411D43B5
:10127000FC3F0F4330411F4330410B120A12091249
:10128000081207120612318000020A4E0B4FB012EC
:1012900000164F9302201E43653C3A5090010B63A9
:1012A0000E4A0F4BB0127813B0129E14074E084F1F
:1012B000B0129E14094E0A4F0FDE0F9345240E47BD
:1012C0000F488E108F104EEF0EEF7FF312C30F10EA
:1012D0000E10064E399302203A9339240F473FF0FF
:1012E000FF010B410B5FB0127414CB4F000017537A
:1012F000086339533A63099302200A932A240E475C
:101300000F488E108F104EEF0EEF7FF312C30F10A9
:101310000E10069E04200993DD230A93DB234F461B
:10132000B012C8110F467FF38F100F5F0E4F0F439F
:101330003C4000020D41B0127A152E434F93122407
:101340000993BD230A93BB23F2D010001D000E4366
:10135000093CB0129E14074E084FB0129E14094E5D
:101360000A4FCD3F0F4E31500002364137413841D0
:1013700039413A413B4130410B120A1221820C4E55
:101380000D4F824E0002824F02022F413FF000FFBC
:101390003FD06800814F00000E4C0F4D8E108F1013
:1013A0004EEF0EEF7FF312C30F100E100F110E1041
:1013B0000F110E100F110E100F110E100F110E1035
:1013C0000F110E10C14E01000E4C0F4D12C30F1025
:1013D0000E100F110E100F110E100F110E100F1115
:1013E0000E100F110E100F110E105EC3C14E020031
:1013F000D14200020300F2C21900F2F0EFFF1D001B
:101400004A430B416F4B1B53B0123A145A536A9222
:10141000F92B4F43B0123A144F43B0123A144F43D2
:10142000B0123A144F43B0123A14F2D21900F2C279
:10143000190021523A413B4130414E4F4D434C43FC
:101440004E931334E2D31900F2D219004D5D5F427E
:1014500018006FF27FF34F9301245DD3F2C219009D
:101460005C534E5E7C92EC2B033CE2C31900EC3FD4
:101470004F4D3041C29300020920F2D010001D00F0
:101480001E4200021F420202B01278139253000261
:10149000826302024F43B0123A147FF330410B12C1
:1014A0000A1209120A430B434943B01274144E4FF7
:1014B0000F434D490D5D0D5D0D5D0D9304240E5ED2
:1014C0000F6F1D83FC230ADE0BDF59536992ED2B4E
:1014D0000E4A0F4B39413A413B4130410B120A123F
:1014E0000912081207120A4F074D094E3A50001010
:1014F000384000103B400010B01254124F93292482
:1015000038408010B24084A52A01B24000A52C01C9
:10151000B24002A52801CB430000B24040A52801FB
:101520000E430B9A04280F4A0F570B9F0E28EB48C7
:1015300000001E531B5318533E907F00F22B6F4840
:101540005F537F930B204F43093CEB490000195335
:10155000F03F3A5080003B408010D43FCB4F00001A
:10156000B24000A52801B24010A52C011F4337410D
:10157000384139413A413B4130410B120A120912BC
:101580000A4E0B4F094D0D4E3E80001A0F7307286F
:101590000E4C0F430E5A0F6B1E831F7302280F430E
:1015A0002B3CB24084A52A01B24000A52C01B240D8
:1015B00002A528018A430000B24040A528010E433D
:1015C00012C30C100E9C0C2C3D90FEFF11240F4EEC
:1015D0000F5F0F59AD4F00001E532D530E9CF42B7F
:1015E000B24000A52801B24010A52C011F43043CC5
:1015F000BD4000110000F03F39413A413B413041CC
:101600000B120A120912081207120612051204120E
:101610002183084E094F3E5007000F63B012781324
:10162000B0127414474FF2D010001D004F9356248F
:101630007F935424385010000963B140000100002A
:101640003B4050034443449F05280F4344974720A1
:101650001F43453C4A440F4A0F5F0E4F0F430E583D
:101660000F69B0127813B0127414464FB01274148C
:101670007FF38F1006DFF2D010001D002E410F43C4
:101680000E580F69B012781305430B931420F2D053
:1016900010001D001A533C4050040B430D43B01280
:1016A000F017814E00003B40500454534497CD2F17
:1016B0000695D027CA3FB01274147FF38F100FE540
:1016C0007E420F9309340F5F3FE021107E53F923D0
:1016D000054F3B53F023DB3F0F5FF83F0F43215390
:1016E0003441354136413741384139413A413B4136
:1016F00030410B1231800600B2403002A001B240EE
:101700000002A201F2409BFF80003F40FF353F50A6
:10171000E5FF3FB00080FB37A2D3A00192D3A00128
:1017200092B3A401FD27A2C3A0018243A0010F43ED
:10173000B290670E400101281F437FF34F933B2473
:101740003B407010B01254124F9302243B40F010F3
:101750000D410F4B3E400500ED4F00001F531D5340
:101760003E533E93F923D1530400E19304000E2825
:101770007F400700B01290110E430F43B0127A124F
:101780006F932120B2400F5A2001FF3F3D400600D9
:101790000E413F407000B012DC14C19305001320CD
:1017A0002E411F410200B0127A126F930C20B240FA
:1017B0000F5A2001FF3F5F43B0129011B012021286
:1017C0003040001ABD3FB0120212F1430400D14371
:1017D00005003D4006000E413F407000B012DC1491
:1017E0003040001A315006003B41304102DFFE3FDD
:1017F0003040F4170E430F43083C12C30D100C1079
:1018000002280E5A0F6B0A5A0B6B0C93F6230D939A
:04181000F42330414C
:0400000300001100E8
:00000001FF
