S015000062696E72656E65322F6D61696E2E7372656326
S11300000C9422000C943E000C943E000C94D401F9
S11300100C943E000C943E000C943E000C943E0064
S11300200C943E000C943E000C943E000C943E0054
S11300300C943E000C943E000C943E000C943E0044
S11300400C943E0011241FBE20E0A89521BD20E0A1
S113005025BFE8E6F4E0A0E6B0E020E002C00590A9
S11300600D92A436B207D9F7A4E6B0E020E001C0AF
S11300701D92A937B207E1F70C94FF010C944000DC
S11300801895109264000E945F00992787FD90954F
S1130090089564E080E80E94B601992787FD909551
S11300A00895809164008F5F80936400992787FD91
S11300B090950E946A00089581E090E008950E945E
S11300C088000E94D7000E9499000E94B80081E035
S11300D090E00895CF93DF93EC01C0FF11C00E941C
S11300E0CE00C1FF0AC00E94AF00C2FF03C00E943D
S11300F0900009C00E94990006C00E94B800F5CF84
S11301000E94D700EECF81E090E0DF91CF91089577
S113011010926500AD9AAB9AAC9A81E090E0089594
S1130120AD982091650021602093650081E090E006
S11301300895AD9A2091650026702093650081E0B2
S113014090E008952091650020FF03C00E9499006B
S113015002C00E949000992787FD90950895AC985D
S11301602091650022602093650081E090E008956D
S1130170AC9A2091650025702093650081E090E0A1
S113018008952091650021FF03C00E94B80002C0B9
S11301900E94AF00992787FD90950895AB98209110
S11301A0650024602093650081E090E00895AB9A97
S11301B02091650023702093650081E090E008950C
S11301C02091650022FF03C00E94D70002C00E9454
S11301D0CE00992787FD90950895AC9AAA98AD9A78
S11301E0AD98AA9A0895AC98AA98AD9AAD98AA9A8F
S11301F008951F93CF93DF93C82F0E94ED0011E061
S1130200173958F40E94ED000E94ED000E94ED00A1
S11302100E94ED001C5F1739A8F310E0DD27C7FD2D
S1130220D0951C161D0644F40E94F3001F5F212F75
S113023033272C173D07C4F3AC9AAD9ADF91CF91C5
S11302401F9108951F93182F0E94F90010936600C0
S113025081E090E01F9108951F93182F0E94F900E8
S1130260109366001F9108950E94F300AC9AAD9A12
S1130270209166002F5F2093660008950E94ED0090
S1130280AC9AAD9A2091660021502093660008959F
S113029080916600992787FD9095089510927800C3
S11302A010927700089520E030E05091770040915B
S11302B07800541709F421E0C9010895AC012FB75F
S11302C02078F894E0917800709178007F5F7093C3
S11302D0780030917800377030937800609178001E
S11302E030917700631781F0222309F07894FF2777
S11302F0EE0FFF1FA8E7B0E05197EA0FFB1F408302
S1130300518381E090E007C0E0937800222309F054
S1130310789480E090E008953091770020917800FF
S1130320321709F160917700A62FBB27A7FDB0957E
S1130330509177005F5F509377004091770047704A
S113034040937700AA0FBB1FE7E7F0E07097AE0F6A
S1130350BF1F2D913C9111971D921C92F901099593
S113036080E090E002C08FEF9FEF0895382F262F92
S1130370277028606FEB09B6062209BE5FE709B64D
S1130380052209BE48E002B4042A02BC25BD14BCFF
S113039033BD20E809B6022A09BE72B57770E9F7C1
S11303A0789481E090E0089578941F920F920FB6AC
S11303B00F9211242F933F934F935F936F937F93E7
S11303C08F939F93AF93BF93EF93FF930E9451003A
S11303D0FF91EF91BF91AF919F918F917F916F9119
S11303E05F914F913F912F910F900FBE0F901F90EF
S11303F0189580E090E0089580E090E00895CFE5BE
S1130400D4E0DEBFCDBF1ABA17BA14BA11BAA59A8E
S1130410A39AA49AA29A8E9A8D9ABB9ABC9AB89AD5
S1130420B99ABA9AAD9AAB9AAC9A8CE30E9422011B
S11304300E944E010E9441000E944900C0E40E94B3
S11304408C01892BE1F305B60C2A05BE88950000C2
S11304500000F5CFFFCF81E090E0089581E090E0C7
S10B0460089581E090E0089585
S10704680100660025
S9030000FC
