S015000062696E72656E65322F6D61696E2E7372656326
S11300000C9422000C943E000C943E000C947C0B47
S11300100C943E000C943E000C94DC0B0C943E00BB
S11300200C943E000C943E000C943E000C94E508A5
S11300300C943E000C9412090C948F0A0C943E000C
S11300400C943E0011241FBE20E0A89521BD20E0A1
S113005025BFE2E5F9E1A0E6B0E020E002C00590AA
S11300600D92AE36B207D9F7AEE6B0E021E001C09A
S11300701D92A036B207E1F70C94A70B0C94400034
S11300801895E0917000F091710081819927843076
S1130090910509F46CC0853091050CF054C0823090
S11300A0910531F0833091050CF045C0019741F082
S11300B08081803F09F47CC099270E94230178C085
S11300C02781222331F00E948E01E0917000F0918B
S11300D071008681882331F00E947001E0917000E4
S11300E0F091710085810E947501A0917000B0911A
S11300F0710014968C910E947A01A0917000B091C5
S1130100710013968C910E946B01A0917000B091C4
S1130110710012962C91222339F00E947F01E09104
S11301207000F0917100C4CF0E948901E0917000C9
S1130130F0917100BDCF82810E94E102E0917000D4
S1130140F0917100B5CF8630910509F4B1CF8630B6
S113015091050CF4ADCF079709F0AACF6381828192
S11301600E945E0BE0917000F0917100A1CF82813A
S11301708130B9F0823054F4882309F099CF0E9479
S11301803D05E0917000F091710092CF823009F04A
S11301908FCF83810E942B05E0917000F091710054
S11301A087CF0E943305E0917000F091710080CFF9
S11301B01092720061E080917000909171000E9431
S11301C0130108951092720081E090E0089581E097
S11301D090E008950F931F938C0104960E94F700FA
S11301E0C8011F910F91089581E090E00895FC01EA
S11301F020917200222319F080E090E013C031E0D6
S113020030937200F0937100E0937000208131818B
S113021030936F0020936E0081E490E00E942A0ADC
S113022081E090E00895862F992787FD90950895A1
S11302300E9487040E94D6040E9498040E94B70476
S113024081E090E00895CF93DF93EC01C0FF11C0EB
S11302500E94CD04C1FF0AC00E94AE04C2FF03C0C5
S11302600E948F0409C00E94980406C00E94B7042B
S1130270F5CF0E94D604EECF81E090E0DF91CF91DC
S113028008951092730031E0309374001092750059
S113029010927600109278001092770090917B0073
S11302A086E29802A001112440585F4F50937A00CF
S11302B04093790010927B001092C8003093C900DB
S11302C01092CA0030936100C49A81E090E00895CE
S11302D081E090E008958093C90081E090E0089562
S11302E08093740081E090E008958093750081E02C
S11302F090E008958093CA0081E090E0089521E0A1
S11303002093730063E080E20E945E0B81E090E042
S113031008951092730081E090E00895109278009F
S11303201092770081E090E00895BC01A0E0B0E075
S11303304091790050917A0030917600E32FFF27A5
S1130340E7FDF095EE0FFF1FE40FF51F668377833B
S1130350209176002F5F20937600209177003091D2
S113036078002F5F3F4F309378002093770021501F
S11303703040409176004A3009F07FC05091C80067
S1130380552351F05091760051505093760030939C
S113039078002093770071C07091CA00713009F41D
S11303A052C0E0917900F0917A008091C9009927B8
S11303B087FD909584839583E0917900F0917A008C
S11303C0609177007091780062837383E091790083
S11303D0F0917A0020916A0030916B002083318380
S11303E08091CA00882361F1823039F190917B00B9
S11303F086E29802F0011124E458FF4FAF016AE04D
S1130400CD010E94B402882329F0B091C800BF5FD7
S1130410B093C8001092760080917B00F1E08F27A2
S113042080937B0096E28902A001112440585F4F1B
S113043050937A004093790020C0AFEFBFEFD6CF3E
S1130440AEE7B0E0D3CFA0917900B0917A00EEE7A7
S1130450F0E01496ED93FC931597809179009091B8
S11304607A00049666E10E946709882399F29091C4
S1130470C8009F5F9093C800CDCF81E090E00895BD
S1130480BC0180917B0021E0822796E28902A001D1
S1130490112444585F4F6417750719F080E090E009
S11304A007C03091C80031503093C80081E090E01B
S11304B00895BC0180917B0021E0822796E28902A5
S11304C0A00111244C575F4F6417750719F080E0A1
S11304D090E007C03091C80031503093C80081E0EB
S11304E090E00895209173002130A1F420917500CB
S11304F0222361F03327409177005091780042170E
S1130500530720F020917600222321F08091C90026
S11305100E94200B08950F931F93CF93E091CF0077
S1130520F091D000008111810E37110539F0CF010F
S11305300E948803C82FCC2339F012C0CF010E9437
S11305404A09C82FCC2361F40091CF001091D00048
S1130550C8010E94F400C8010E944002C093CE006A
S1130560CF911F910F910895FF920F931F93CF93F3
S1130570DF938C01F62EEA012091CE00222319F09C
S113058080E090E018C08BE892E00E942A0A21E003
S11305902093CE00D093D000C093CF00088319835A
S11305A0FA82A091CF00B091D000F0906C00139625
S11305B0FC9281E090E0DF91CF911F910F91FF9029
S11305C008951F93182F0E94A903812F0E9489095F
S11305D081E090E01F9108950E94AA030E948A0975
S11305E01092CE0081E090E008950F931F938C0148
S11305F01092CE000E94F400C8010E94400281E0E3
S113060090E01F910F910895CF93DF93EC013B810C
S113061020916C00321799F4288139818FEF2F3F94
S1130620380739F040916A0050916B002417350760
S113063031F4BE018A810E942303009709F4CE019C
S1130640DF91CF910895883021F4CB010E94EA0014
S1130650BC01CB0108950F931F932091FD00022F3D
S1130660112707FD1095F8013297BF018091FB0017
S11306709091FC000E946204A091FB00B091FC00E8
S1130680A00FB11F12978C93A091FB00B091FC00B6
S1130690A00FB11F1197892F990F990B8C931F915C
S11306A00F9108950F931F931092D1002091FD0094
S11306B0022F112707FD1095D8011297BD018091D3
S11306C0F9009091FA000E946204DC016091F90043
S11306D07091FA00FB01E00FF11F82919927382FE6
S11306E0222782919927282B392BA217B30749F483
S11306F0CB010E940403009721F09093FA008093A9
S1130700F90084E290E08093FD001F910F91089519
S1130710FC012091D1002223C9F4F093FC00E09362
S1130720FB0021E02093D1002093D20080810E941D
S1130730DA05882339F08BE293E00E942A0A81E0EB
S113074090E006C08093D1008093D20080E090E0D6
S1130750089508950E94C90523ED30E03093FA000E
S11307602093F9001092D10084E290E08093FD0080
S113077081E090E00895282F362F332329F010923A
S1130780D10080E090E041C08091D100882369F1DC
S1130790853019F081E090E038C08091D20099272B
S11307A087FD9095A091F900B091FA00A80FB91FA8
S11307B02C934091D2004F5F4093D2002091FD00D2
S11307C0421741F7A091F900B091FA00E091FE00C0
S11307D0F091FF009496ED93FC93959782E593E056
S11307E00E942A0A80E090E010C065E06093D10086
S11307F031E03093D200A091F900B091FA002C932B
S11308005093FF004093FE00C5CF08950F931F93AC
S1130810CF93C82FCC2391F10091D100013019F06E
S113082081E090E03AC08091D2009091FD00891758
S113083094F4992787FD9095A091FB00B091FC005A
S1130840A80FB91F8C910E94DA050091D2000F5FA6
S11308500093D200E5CF891759F01092D10010927D
S1130860D20084E290E08093FD0080E090E015C027
S11308708F5F8093D20080E090E00FC00091FB0076
S11308801091FC00C8010E94F502C8010E9459029F
S1130890C093D100C093D200BFCFCF911F910F91CD
S11308A008950F931F930091FB001091FC00C80161
S11308B00E94F502C8010E94590281E090E01F9154
S11308C00F910895FC0120E030E061507040EAF09F
S11308D0A1E2B0E18191992787FD9095982F88270F
S11308E02827392748E0C90180709078892B51F076
S11308F0220F331F2A273B274150A9F7615070402C
S11309004AF703C0220F331FF7CFC901089510928D
S11309100001AD9AAB9AAC9A81E090E00895AD984D
S11309202091000121602093000181E090E008956E
S1130930AD9A2091000126702093000181E090E09F
S113094008952091000120FF03C00E94980402C072
S11309500E948F04992787FD90950895AC98209163
S1130960000122602093000181E090E00895AC9A98
S11309702091000125702093000181E090E008950A
S11309802091000121FF03C00E94B70402C00E940D
S1130990AE04992787FD90950895AB9820910001A6
S11309A024602093000181E090E00895AB9A2091A7
S11309B0000123702093000181E090E008952091CC
S11309C0000122FF03C00E94D60402C00E94CD048D
S11309D0992787FD90950895AC9AAA98AD9AAD98F9
S11309E0AA9A0895AC98AA98AD9AAD98AA9A08952F
S11309F01F93CF93DF93C82F0E94EC0411E01739A3
S1130A0058F40E94EC040E94EC040E94EC040E943E
S1130A10EC041C5F1739A8F310E0DD27C7FDD0955F
S1130A201C161D0644F40E94F2041F5F212F332775
S1130A302C173D07C4F3AC9AAD9ADF91CF911F9167
S1130A4008951F93182F0E94F8041093010181E068
S1130A5090E01F9108951F93182F0E94F80410939B
S1130A6001011F9108950E94F204AC9AAD9A20915D
S1130A7001012F5F2093010108950E94EC04AC9AB8
S1130A80AD9A209101012150209301010895809194
S1130A900101992787FD90950895A0916A00B0916E
S1130AA06B0061E577E3A69FF001A79FF00DB69F69
S1130AB0F00D11249F012F5A384C309303012093D9
S1130AC00201309305012093040145E85FE0A49FEF
S1130AD0B001A59F700DB49F700D11249B012B577D
S1130AE0304F309307012093060181E090E0089590
S1130AF02091020130910301C9018827990F881FB1
S1130B009927220F331F882321F04BE050E124273B
S1130B10352730930301209302014091060150913F
S1130B20070124273527C90108950E94E807209169
S1130B300E01243021F06AE060930E010EC052E0F1
S1130B40509308014AE6409309013DEC30930A01B1
S1130B5010920F012AE020930E0108950F931F9322
S1130B6000911701109118011092180110921701A9
S1130B700E943808A80160E00E94BB03882331F476
S1130B8080930E01809312010E945F0C1F910F91BC
S1130B90089510920E010E94760C0E944D050E9449
S1130BA0820A10921601109215011092120181E02E
S1130BB090E00895982F80910E01882379F0883071
S1130BC019F080E090E01FC029E020930E0190937B
S1130BD00B0185E995E00E942A0A13C090930B014A
S1130BE082E00E94210C82E00E945F0C0E94780542
S1130BF08F73907090931401809313012CE02093D1
S1130C000E0181E090E00895882369F081E00E945C
S1130C10210C0E94500C80E00E945F0C10920E0187
S1130C2010920F0104C080930E010E94210C81E0F8
S1130C3090E0089520910E012850233018F080E0B0
S1130C4090E048C080910A0181700E94100C2091AC
S1130C500A01259520930A0180910F018F5F8093EB
S1130C600F01883091F1803159F1823119F081E01E
S1130C7090E030C050910E015A3069F010920E018C
S1130C8081E00E9406040E9451040E94500C80E0FE
S1130C900E945F0CECCFA0910B01A09308019091EE
S1130CA00C019093090170910D0170930A01109247
S1130CB00F0168E060930E0181E00E940604D7CF23
S1130CC04091080140930A01D2CF30910901309339
S1130CD00A01CDCF0895CF93DF93C82F20910E0141
S1130CE0222309F448C1213009F4E4C0223009F474
S1130CF0C5C0233009F4A7C0253009F474C02630D8
S1130D0009F46BC0273009F460C02B3041F12C305A
S1130D1009F02EC1C0911501D09116012196D093EE
S1130D201601C09315016091130170911401C61747
S1130D30D70708F41DC181E00E94210C0E94500CC9
S1130D4080E00E945F0C109216011092150110921F
S1130D501401109213015BE050930E0109C1CC23DE
S1130D60A9F0109214011092130182E00E94210C48
S1130D7082E00E945F0C0E947805937090931401A6
S1130D80809313012CE020930E01F2C0A091130173
S1130D90B0911401AD011196B0931401A093130105
S1130DA04730510508F4E4C0109214011092130165
S1130DB00E94410C82E00E945F0C34E030930E01EB
S1130DC085E995E00E942A0AD3C0F3E0F0930E016E
S1130DD08EEA95E00E942A0ACBC0C0930B01E7E09B
S1130DE0E0930E01C5C0A0910F01AF5FA0930F0166
S1130DF080910901869580930901CC2339F080689C
S1130E0080930901809112018823B9F080910F0128
S1130E10883071F0803109F0ABC08F5F80930F018F
S1130E20C0910901C0930C01D6E0D0930E01A0C07B
S1130E30B0910901B0930D019BC00E94200B91E079
S1130E4090931201E3CF82E00E945F0C65E060930F
S1130E500E01D1E0D0930F01CC2369F070E87093B8
S1130E60090180911201882309F082C00E94200B9D
S1130E70D09312017DC0C09309017AC02091100162
S1130E80222371F0C0FF04C030910A01353321F0F0
S1130E9053E050930E016CC081E00E945F0CF8CFC8
S1130EA0C0FFF6CF40910D01453391F781E00E94D8
S1130EB05F0CEECF80911101815080931101882342
S1130EC009F454C040911001442341F110921001DF
S1130ED090910A01969590930A015091090150FF4F
S1130EE003C0906890930A016C2F617060930901AC
S1130EF06130F1F570910A017533D1F592E0909368
S1130F000E0190910D01969590930D01A0910C0105
S1130F10A0FF2EC0906890930D012AC02093100169
S1130F2090910D01969590930D01B0910C01B0FF35
S1130F3003C0906890930D01DC2FD170D0930C0105
S1130F40D130B1F4C0910D01C53391F4F2E0F093C6
S1130F500E0190910A01969590930A01E09109017E
S1130F60E0FF06C0906890930A0102C080930E01CE
S1130F7081E090E02AC080910901880F86708093F7
S1130F80090190910A0199231CF48160809309015D
S1130F90990FC1709C2B90930A013091090137304D
S1130FA039F79777973021F738E13093110120937F
S1130FB0090120930A0120930C0120930D0121E0E3
S1130FC02093100120930E01D3CFDF91CF91089588
S1130FD020E0422F322F90910B0190FF01C027E7B0
S1130FE091FF03C031E054E3252792FF04C062E07F
S1130FF0362752E3252793FF04C0A8E03A2771E37C
S1131000272794FF04C0E0E13E27B6E22B2795FF93
S113101004C050E63527F5E22F2796FF04C070E898
S1131020372763E1262799231CF441E097E0292719
S1131030A22FAC70A1F026FF0EC0B32FBA7049F0F6
S1131040E32FE07521F040FD0CC042600AC030621D
S1131050FACF3460F5CF30FDF0CF2068EECF2860B2
S1131060EACF40930B0130930C0120930D010895B6
S113107040910B014295407F407130910C01632FE8
S113108065956595659565956C70462B232F25951B
S1131090259525952370422B232F2295220F220F6D
S11310A0207C30910D01532F55955873252B3770A3
S11310B0232B342F90E020FF01C091E021FF02C0D8
S11310C072E0972722FF02C0A4E09A2723FF02C000
S11310D0B8E09B2724FF02C0E0E19E2725FF02C061
S11310E0FFE19F2726FF02C05CE19527222314F429
S11310F06AE1962730FF02C079E1972731FF02C0E9
S1131100A6E19A2742FF02C0B5E19B2743FF02C034
S1131110EBE09E27F42FF07111F057E09527992307
S113112091F1913079F1923069F1943059F198301C
S113113049F1903139F19F3111F19C31F1F09A313B
S1131140C9F09931A1F0963179F0953151F09B3085
S113115029F09730C1F430E1342715C038E0342742
S113116012C034E034270FC032E034270CC031E021
S1131170342709C060E8262706C090E403C040E293
S1131180242701C02927922F929596959770330FA3
S1131190330F330F932B892F992787FD909508954B
S11311A0909318018093170181E090E0089580E006
S11311B090E008952CE029B98CB128ED2AB97894EF
S11311C01092190181E090E008951F920F920FB6DA
S11311D00F9211242F933F934F935F936F937F93B9
S11311E08F939F93AF93BF93EF93FF932BB12223DE
S11311F034F4109219018CB160E00E949D091092A0
S11312001901FF91EF91BF91AF919F918F917F91C0
S11312106F915F914F913F912F910F900FBE0F905F
S11312201F90189578941F920F920FB60F92112465
S11312302F933F934F935F936F937F938F939F93DA
S1131240AF93BF93EF93FF931092190181E00E9433
S1131250D009FF91EF91BF91AF919F918F917F91B1
S11312606F915F914F913F912F910F900FBE0F900F
S11312701F901895982F20911901222319F080E0CE
S113128090E007C021E0209319015E9A9CB981E0A7
S113129090E00895CF93FC0120911A01222399F440
S11312A0C1E0C0931A01F0931C01E0931B018081FB
S11312B00E943A09882329F0C093470181E090E015
S11312C004C080931A0180E090E0CF910895CF93F9
S11312D0DF93FC01C62F20911A012223A9F4D1E047
S11312E0D0931A01F0931C01E0931B0180810E94AA
S11312F03A09882339F0C0934501D093470181E02E
S113130090E004C080931A0180E090E0DF91CF91D7
S11313100895089510921A0184E290E080934501A3
S1131320109246012FE131E030931E0120931D01FC
S11313300E94DA0881E090E00895282F662319F0CE
S1131340109246012AC080914601992787FD909505
S1131350A0911D01B0911E01A80FB91F2C933091CB
S113136046013F5F3093460120914501321719F041
S113137081E090E014C06093460184E290E08093A1
S1131380450180911D0190911E010E940403009764
S113139021F090931E0180931D0180E090E0089558
S11313A00F931F93CF93C82FCC2361F100911A019F
S11313B00130B9F5909147010091450190179CF4D3
S11313C0292F332727FD3095A0911B01B0911C01D3
S11313D0A20FB31F8C910E943A09109147011F5F1D
S11313E0109347011EC010921A01109247010091F8
S11313F01B0110911C01C8010E94F502C8010E9442
S113140059020FC000911B0110911C01C8010E94D8
S1131410F502C8010E945902C0931A01C093470102
S1131420C5CF81E090E0CF911F910F91089581E0A5
S113143090E008951092590110925801089520E007
S113144030E05091580140915901541709F421E0BA
S1131450C9010895AC012FB72078F894E09159019F
S1131460709159017F5F7093590130915901377020
S1131470309359016091590130915801631781F0FB
S1131480222309F07894FF27EE0FFF1FA9E5B1E0AE
S11314905197EA0FFB1F4083518381E090E007C01E
S11314A0E0935901222309F0789480E090E00895B4
S11314B03091580120915901321709F16091580176
S11314C0A62FBB27A7FDB095509158015F5F50939D
S11314D0580140915801477040935801AA0FBB1F0F
S11314E0E8E5F1E07097AE0FBF1F2D913C91119785
S11314F01D921C92F901099580E090E002C08FEFE3
S11315009FEF089524E026B93698339A379A80E0FD
S113151090E00895877086B981E090E008951F9265
S11315200F920FB60F9211240F921F932F933F9394
S11315304F935F936F937F938F939F93AF93BF93D7
S1131540CF93DF93EF93FF9310915B0190E0209191
S11315505A01222309F45FC00FB6F894C4B10FBE38
S1131560D5B1789420915A01213009F44FC0339AAF
S1131570369A112309F445C0113009F43DC01230E4
S1131580B1F1133079F1143041F1153009F116300D
S1131590D1F0173099F0183079F0193059F01091D2
S11315A05A011230C1F59923B1F590935A01379835
S11315B0339831C090E0F3CF90E0EFCFCE010E949A
S11315C09501982FE8CFCE010E949501982FE1CF85
S11315D0CE010E949501982FDACFCE010E94950189
S11315E0982FD3CFCE010E949501982FCCCFCE0156
S11315F00E949501982FC5CFCE010E949501982F86
S1131600BECFCE010E94D008982FB6CF10925A01B7
S113161037983398AECFFF91EF91DF91CF91BF917F
S1131620AF919F918F917F916F915F914F913F9176
S11316302F911F910F900F900FBE0F901F90189530
S1131640E82F90E02FB7F89430915A01332389F4AE
S113165041E040935A01E0935B01FF27E7FDF095D9
S1131660E05AFF4F308137B9349A379A339A369A11
S113167091E02FBF892F992787FD90950895E82F32
S113168090E02FB7F89430915A01332389F442E063
S113169040935A01E0935B01FF27E7FDF095E05A80
S11316A0FF4F308137B9349A379A339A369A91E09A
S11316B02FBF892F992787FD90950895382F262FBE
S11316C0277028606FEB09B6062209BE5FE709B6EA
S11316D0052209BE48E002B4042A02BC25BD14BC9C
S11316E033BD20E809B6022A09BE72B57770E9F75E
S11316F0789481E090E0089578941F920F920FB649
S11317000F9211242F933F934F935F936F937F9383
S11317108F939F93AF93BF93EF93FF930E947202B3
S1131720FF91EF91BF91AF919F918F917F916F91B5
S11317305F914F913F912F910F900FBE0F901F908B
S1131740189580E090E0089580E090E00895CFE55A
S1131750D4E0DEBFCDBF1ABA17BA14BA11BAA59A2B
S1131760A39AA49AA29A8E9A8D9ABB9ABC9AB89A72
S1131770B99ABA9AAD9AAB9AAC9A8CE30E942105B5
S11317800E941A0A0E949B0C0E94A60CC0E40E94AC
S1131790580A892BE1F305B60C2A05BE889500008A
S11317A00000F5CFFFCF81E090E0089581E090E064
S11317B0089581E090E008951F920F920FB60F9262
S11317C011242F933F934F935F936F937F938F9342
S11317D09F93AF93BF93EF93FF9380915C0181300C
S11317E061F0882361F480B386958695817099278A
S11317F087FD90950E946B0602C00E941A06FF9115
S1131800EF91BF91AF919F918F917F916F915F9174
S11318104F913F912F910F900FBE0F901F901895ED
S1131820982F20915C01213019F080E090E008C0ED
S113183090FF04C0C29A81E090E002C0C298FBCF3E
S11318400895882389F0813029F08230B9F4C09852
S1131850C19814C053E050935C0149E04EBD30E19F
S113186009B6032A09BE0AC0C098C1981EBC2FEE4F
S113187009B6022209BE22E020935C0181E090E0D7
S1131880089520915C01223041F0C09AC19821E072
S113189020935C0181E090E002C080E090E0089534
S11318A020915C01223041F0C09AC19AC2981092F2
S11318B05C0181E090E002C080E090E0089588231C
S11318C069F0813039F0823071F441E04BBD30E988
S11318D03ABD09C08BBD2CE22ABD05C01BBC28EC57
S11318E02ABD1DBC1CBC81E090E0089510925C01EF
S11318F0C09AC19AC2987FEE09B6072209BE6FED5D
S113190009B6062209BE5BEF09B6052209BE47EFF8
S113191009B6042209BE39E03EBD1FBC1BBC28EC3D
S11319202ABD20E109B6022A09BE1DBC1CBC78945C
S113193081E090E008950E9441010E94E2000E942B
S1131940EC0210925F0181E090E0089581E090E064
S10519500895F4
S11119520001020304050607080901006600EF
S9030000FC
