S015000062696E72656E65322F6D61696E2E7372656326
S11300000C9422000C943E000C943E000C943E0090
S11300100C943E000C943E000C94F5060C943E00A7
S11300200C943E000C943E000C943E000C942F055E
S11300300C943E000C945C050C943E000C943E0021
S11300400C943E0011241FBE20E0A89521BD20E0A1
S113005025BFE8E6F0E1A0E6B0E020E002C00590AC
S11300600D92A436B207D9F7A4E6B0E021E001C0AE
S11300701D92A231B207E1F70C94C0060C94400023
S1130080189510926400AD9AAB9AAC9A81E090E016
S11300900895AD982091640021602093640081E06C
S11300A090E00895AD9A2091640026702093640036
S11300B081E090E008952091640020FF03C00E9435
S11300C0520002C00E944900992787FD9095089527
S11300D0AC982091640022602093640081E090E059
S11300E00895AC9A2091640025702093640081E007
S11300F090E008952091640021FF03C00E947100E4
S113010002C00E946800992787FD90950895AB98D6
S11301102091640024602093640081E090E00895BD
S1130120AB9A2091640023702093640081E090E0F6
S113013008952091640022FF03C00E94900002C031
S11301400E948700992787FD90950895FC012091CE
S113015065002223A9F4F0939000E0938F0021E03E
S1130160209365002093660080810E9440028823CA
S113017019F081E090E006C08093650080936600EA
S113018080E090E0089508950E94350227E630E06B
S113019030938E0020938D001092650084E290E0ED
S11301A08093910081E090E00895282F662329F040
S11301B01092650080E090E03DC080916500882346
S11301C069F1853019F081E090E034C080916600D7
S11301D0992787FD9095A0918D00B0918E00A80F6E
S11301E0B91F2C93509166005F5F50936600209175
S11301F09100521741F76093650084E290E0809388
S1130200910080918D0090918E000E94C607009706
S113021089F290938E0080938D00CCCF45E040937B
S1130220650031E030936600A0918D00B0918E009E
S11302302C93C9CF0895CF93C82FCC2391F120914B
S11302406500213019F081E090E036C080916600AD
S113025090919100891794F4992787FD9095A09126
S11302608F00B0919000A80FB91F8C910E9440029A
S1130270209166002F5F20936600E5CF891759F01F
S1130280109265001092660084E290E080939100E1
S113029080E090E011C08F5F8093660080E090E082
S11302A00BC080918F00909190000E94F307C0933F
S11302B06500C0936600C3CFCF91089580918F00ED
S11302C0909190000E94F30781E090E00895AC9A29
S11302D0AA98AD9AAD98AA9A0895AC98AA98AD9A9E
S11302E0AD98AA9A08951F93CF93DF93C82F0E94C5
S11302F0670111E0173958F40E9467010E946701F1
S11303000E9467010E9467011C5F1739A8F310E07F
S1130310DD27C7FDD0951C161D0644F40E946D010F
S11303201F5F212F33272C173D07C4F3AC9AAD9AD6
S1130330DF91CF911F9108951F93182F0E9473018D
S11303401093920081E090E01F9108951F93182F5D
S11303500E947301109392001F9108950E946D01F1
S1130360AC9AAD9A209192002F5F20939200089549
S11303700E946701AC9AAD9A20919200215020937B
S11303809200089580919200992787FD9095089591
S1130390A0916000B091610061E577E3A69FF00150
S11303A0A79FF00DB69FF00D11249F012F5A384CD2
S11303B030939400209393003093960020939500FB
S11303C045E85FE0A49FB001A59F700DB49F700D38
S11303D011249B012B57304F3093980020939700A2
S11303E081E090E008952091930030919400C90138
S11303F08827990F881F9927220F331F882321F0FC
S11304004BE050E124273527309394002093930048
S1130410409197005091980024273527C9010895E9
S11304200E94390420919F00243021F06AE06093F7
S11304309F000EC052E0509399004AE640939A0000
S11304403DEC30939B001092A0002AE020939F0083
S113045008950E94890460E00E94D500882321F455
S113046080939F000E947807089510929F000E9435
S11304708F071092A6001092A50081E090E00895E5
S1130480982F80919F00882379F0883019F080E0BC
S113049090E01FC029E020939F0090939C0080E18E
S11304A092E00E94680613C090939C0082E00E9430
S11304B03A0782E00E9478070E94F3018F739070DC
S11304C09093A4008093A3002CE020939F0081E0EC
S11304D090E00895882369F081E00E943A070E9421
S11304E0690780E00E94780710929F001092A00094
S11304F004C080939F000E943A0781E090E0089531
S113050020919F002850233018F080E090E048C0EC
S113051080919B0081700E94290720919B00259562
S113052020939B008091A0008F5F8093A00088306F
S113053091F1803159F1823119F081E090E030C0BD
S113054050919F005A3069F010929F0081E00E9400
S11305501B010E945E010E94690780E00E947807E7
S1130560ECCFA0919C00A093990090919D00909352
S11305709A0070919E0070939B001092A00068E016
S113058060939F0081E00E941B01D7CF40919900A6
S113059040939B00D2CF30919A0030939B00CDCFF3
S11305A00895CF93C82F20919F00222309F435C1C9
S11305B0213009F4D1C0223009F4B2C0233009F447
S11305C09DC0253009F474C0263009F46BC027306F
S11305D009F460C02B3041F12C3009F01BC1A0910B
S11305E0A500B091A6001196B093A600A093A50013
S11305F0E091A300F091A400AE17BF0708F40AC16C
S113060081E00E943A070E94690780E00E9478070F
S11306101092A6001092A5001092A4001092A300BC
S11306207BE070939F00F6C0CC23A9F01092A40045
S11306301092A30082E00E943A0782E00E947807A9
S11306400E94F30193709093A4008093A3004CE064
S113065040939F00DFC0A091A300B091A400BD010E
S11306601196B093A400A093A3006730710508F419
S1130670D1C01092A4001092A3000E945A0782E0F5
S11306800E94780754E050939F0080E192E00E941A
S11306906806C0C033E030939F0089E292E00E9474
S11306A06806B8C0C0939C0027E020939F00B2C0A6
S11306B0B091A000BF5FB093A00080919A0086958E
S11306C080939A00CC2319F0806880939A008091DB
S11306D0A000883071F0803109F09CC08F5F809356
S11306E0A000F0919A00F0939D00C6E0C0939F0093
S11306F091C0E0919A00E0939E008CC082E00E9439
S11307007807A5E0A0939F0071E07093A000CC232C
S113071021F090E890939A007DC0C0939A007AC02B
S11307203091A100332371F0C0FF04C040919B00BD
S1130730453321F063E060939F006CC081E00E9428
S11307407807F8CFC0FFF6CF50919E00553391F74C
S113075081E00E947807EECF8091A20081508093BF
S1130760A200882309F454C04091A100442341F11C
S11307701092A10090919B00969590939B005091AC
S11307809A0050FF03C0906890939B006C2F617097
S113079060939A006130F1F570919B007533D1F547
S11307A092E090939F0090919E00969590939E0066
S11307B0A0919D00A0FF2EC0906890939E002AC037
S11307C02093A10090919E00969590939E00B091E5
S11307D09D00B0FF03C0906890939E00EC2FE170E1
S11307E0E0939D00E130B1F4C0919E00C53391F4D3
S11307F022E020939F0090919B00969590939B00FC
S1130800F0919A00F0FF06C0906890939B0002C09C
S113081080939F0081E090E02AC080919A00880F25
S1130820867080939A0090919B0099231CF48160B8
S113083080939A00990FC1709C2B90939B003091E8
S11308409A00373039F79777973021F738E13093AA
S1130850A20020939A0020939B0020939D00209354
S11308609E0021E02093A10020939F00D3CFCF913D
S1130870089520E0422F322F90919C0090FF01C0F8
S113088027E791FF03C031E054E3252792FF04C01A
S113089062E0362752E3252793FF04C0A8E03A27F5
S11308A071E3272794FF04C0E0E13E27B6E22B273B
S11308B095FF04C050E63527F5E22F2796FF04C0C4
S11308C070E8372763E1262799231CF441E097E079
S11308D02927A22FAC70A1F026FF0EC0B32FBA7047
S11308E049F0E32FE07521F040FD0CC042600AC0DE
S11308F03062FACF3460F5CF30FDF0CF2068EECF10
S11309002860EACF40939C0030939D0020939E0082
S1130910089540919C004295407F407130919D0024
S1130920632F65956595659565956C70462B232FAA
S11309302595259525952370422B232F2295220F4B
S1130940220F207C30919E00532F55955873252BF0
S11309503770232B342F90E020FF01C091E021FF5A
S113096002C072E0972722FF02C0A4E09A2723FF67
S113097002C0B8E09B2724FF02C0E0E19E2725FFC8
S113098002C0FFE19F2726FF02C05CE195272223D6
S113099014F46AE1962730FF02C079E1972731FF0A
S11309A002C0A6E19A2742FF02C0B5E19B2743FF9C
S11309B002C0EBE09E27F42FF07111F057E0952769
S11309C0992391F1913079F1923069F1943059F190
S11309D0983049F1903139F19F3111F19C31F1F0A6
S11309E09A31C9F09931A1F0963179F0953151F0ED
S11309F09B3029F09730C1F430E1342715C038E03A
S1130A00342712C034E034270FC032E034270CC03E
S1130A1031E0342709C060E8262706C090E403C00B
S1130A2040E2242701C02927922F9295969597702A
S1130A30330F330F330F932B892F992787FD90950D
S1130A40089580E090E008952CE029B98CB128ED58
S1130A502AB978941092A70081E090E008951F923B
S1130A600F920FB60F9211242F933F934F935F93DE
S1130A706F937F938F939F93AF93BF93EF93FF9362
S1130A802BB1222334F41092A7008CB160E00E94B1
S1130A90E7051092A700FF91EF91BF91AF919F914D
S1130AA08F917F916F915F914F913F912F910F9013
S1130AB00FBE0F901F90189578941F920F920FB647
S1130AC00F9211242F933F934F935F936F937F93D0
S1130AD08F939F93AF93BF93EF93FF931092A700CD
S1130AE081E00E941A06FF91EF91BF91AF919F910F
S1130AF08F917F916F915F914F913F912F910F90C3
S1130B000FBE0F901F901895982F2091A7002223B5
S1130B1019F080E090E007C021E02093A7005E9ADE
S1130B209CB981E090E00895CF93FC012091A80046
S1130B30222399F4C1E0C093A800F093AA00E093A3
S1130B40A90080810E948405882329F0C093D500E0
S1130B5081E090E004C08093A80080E090E0CF9111
S1130B600895CF93DF93FC01C62F2091A800222380
S1130B70A9F4D1E0D093A800F093AA00E093A900CF
S1130B8080810E948405882339F0C093D300D093D8
S1130B90D50081E090E004C08093A80080E090E05C
S1130BA0DF91CF91089508951092A80084E290E017
S1130BB08093D3001092D4002DEA30E03093AC003F
S1130BC02093AB000E94240581E090E00895282F33
S1130BD0662319F01092D4002AC08091D40099277A
S1130BE087FD9095A091AB00B091AC00A80FB91F00
S1130BF02C933091D4003F5F3093D4002091D300E4
S1130C00321719F081E090E014C06093D40084E2BC
S1130C1090E08093D3008091AB009091AC000E944F
S1130C200008009721F09093AC008093AB0080E023
S1130C3090E00895CF93C82FCC2341F12091A800D0
S1130C40213079F59091D5002091D30092179CF42E
S1130C50492F552747FD5095A091A900B091AA00AE
S1130C60A40FB51F8C910E9484053091D5003F5F7D
S1130C703093D50016C01092A8001092D500809130
S1130C80A9009091AA000E9427080BC08091A90096
S1130C909091AA000E942708C093A800C093D50091
S1130CA0CDCF81E090E0CF91089581E090E0089568
S1130CB01092E7001092E600089520E030E0509191
S1130CC0E6004091E700541709F421E0C9010895B2
S1130CD0AC012FB72078F894E091E7007091E70019
S1130CE07F5F7093E7003091E70037703093E7003F
S1130CF06091E7003091E600631781F0222309F048
S1130D007894FF27EE0FFF1FA7EEB0E05197EA0F8C
S1130D10FB1F4083518381E090E007C0E093E7002C
S1130D20222309F0789480E090E008953091E60061
S1130D302091E700321709F16091E600A62FBB2746
S1130D40A7FDB0955091E6005F5F5093E600409197
S1130D50E60047704093E600AA0FBB1FE6EEF0E002
S1130D607097AE0FBF1F2D913C9111971D921C924D
S1130D70F901099580E090E002C08FEF9FEF08959C
S1130D80CFE5D4E0DEBFCDBF1ABA17BA14BA11BA90
S1130D90A59AA39AA49AA29A8E9A8D9ABB9ABC9A5F
S1130DA0B89AB99ABA9AAD9AAB9AAC9A8CE30E9463
S1130DB09C010E9458060E94B4070E94C307C0E425
S1130DC00E949606892BE1F305B60C2A05BE889588
S1130DD000000000F5CFFFCF81E090E0089581E0AE
S1130DE090E0089581E090E008951F920F920FB66D
S1130DF00F9211242F933F934F935F936F937F939D
S1130E008F939F93AF93BF93EF93FF938091E800E9
S1130E10813061F0882361F480B386958695817072
S1130E20992787FD90950E94D10202C00E948002FA
S1130E30FF91EF91BF91AF919F918F917F916F91AE
S1130E405F914F913F912F910F900FBE0F901F9084
S1130E501895982F2091E800213019F080E090E057
S1130E6008C090FF04C0C29A81E090E002C0C2981A
S1130E70FBCF0895882389F0813029F08230B9F4BA
S1130E80C098C19814C053E05093E80049E04EBDA7
S1130E9030E109B6032A09BE0AC0C098C1981EBC35
S1130EA02FEE09B6022209BE22E02093E80081E079
S1130EB090E008952091E800223041F0C09AC19852
S1130EC021E02093E80081E090E002C080E090E01F
S1130ED008952091E800223041F0C09AC19AC29846
S1130EE01092E80081E090E002C080E090E0089574
S1130EF0882369F0813039F0823071F441E04BBDD0
S1130F0030E93ABD09C08BBD2CE22ABD05C01BBC2B
S1130F1028EC2ABD1DBC1CBC81E090E00895109211
S1130F20E800C09AC19AC2987FEE09B6072209BEAA
S1130F306FED09B6062209BE5BEF09B6052209BEAC
S1130F4047EF09B6042209BE39E03EBD1FBC1BBCF5
S1130F5028EC2ABD20E109B6022A09BE1DBC1CBC2E
S1130F60789481E090E008950E94C4000E94D40522
S1130F7029EE30E03093100120930F0110921101FB
S1130F8081E090E0089581E090E008950F931F932D
S1130F90CF93DF938C01E801209111012223E9F41E
S1130FA0D80113963C91209162003217B1F400915C
S1130FB00F0110911001D0931001C0930F014EE75F
S1130FC050E0488359830E947A00CE010E94940520
S1130FD0882319F051E050931101C801DF91CF919A
S1130FE01F910F910895AC0120910F0130911001D0
S1130FF02417350711F41092110181E090E008954F
S11310000F931F93CF93DF93EC018E012091110175
S11310102223B9F43B8120916200321791F4C091EC
S11310200F01D09110011093100100930F010E9441
S11310305B00C8010E94A600882319F001E0009318
S11310401101CE01DF91CF911F910F910895AC0151
S113105020910F01309110012417350711F41092DB
S10B1060110181E090E0089504
S10710680100660019
S9030000FC
