S015000062696E72656E65322F6D61696E2E7372656326
S11300000C9422000C943E000C943E000C943E0090
S11300100C943E000C943E000C94E10D0C943E00B4
S11300200C943E000C943E000C943E000C945B0B2C
S11300300C943E000C94880B0C94F90C0C943E0028
S11300400C943E0011241FBE20E0A89521BD20E0A1
S113005025BFE0E4FDE1A0E6B0E020E002C00590A9
S11300600D92AE36B207D9F7AEE6B0E021E001C09A
S11300701D92AD34B207E1F70C94AC0D0C94400022
S113008018950F931F93109273001FEF1093720033
S11300900FEF1FEF10936F0000936E0009E810E05C
S11300A01093B0000093AF000E943D060E94EB0243
S11300B021E0209373002FE020937000B801645175
S11300C0704080E090E00E94170681E090E01F916C
S11300D00F91089581E090E00895DC010E94B3023D
S11300E0992787FD909508950F931F93CF93DF93DE
S11300F08C01E801249620917300222309F04CC05E
S113010031E0309373000E94C7052C813D81309308
S11301106F0020936E00D80114968D919C911597D1
S11301200097B1F05E8150937400AA81BB81C091A5
S1130130AF00D091B000AE83BF83C091AF00D09127
S1130140B00028961496BE01CD010E94170624C063
S11301502A813B814091AF005091B000FA0134965E
S113016022833383EA018C839D83DF0114964FE05D
S113017050E0F9012F5F3F4F64916D93415050401F
S1130180C2F74091AF005091B00061E380916E00DE
S113019090916F000E94B302C801DF91CF911F912B
S11301A00F9108952FEE30E04EEB50E06DEA70E0D1
S11301B08EED90E00E94001E0895AC01A091AF0066
S11301C0B091B0009D012C5F3F4F80E04537580748
S11301D029F0F90134964E175F0751F4909170009D
S11301E0992309F449C0923009F43FC09F3019F0B3
S11301F081E090E064C010927000109273007091DE
S11302007500A72FBB2780917600992787FD9095CD
S1130210F82FEE27AE2BBF2BB0936B00A0936A0090
S113022040917700E42FFF2780917800992787FD7C
S11302309095382F2227E22BF32BF0938600E0933E
S1130240850030917900632F772780917A00992770
S113025087FD9095B82FAA276A2B7B2B7093880073
S1130260609387000E94EB02C3CF1092700010923B
S113027073000E947501BCCF4FEF50917400552359
S1130280E1F0F9013496219142239F5F9031D8F334
S1130290FD0141A3109274004F3F61F04091AF0003
S11302A05091B00061E380916E0090916F000E94C4
S11302B0B3029ECF109273009BCF492FEBCF0895CA
S11302C09C0140917300413021F0C9010E94D80D76
S11302D009C04091AF005091B00024173507A9F729
S11302E01092730080E090E00895CF93DF936FEA5B
S11302F070E0A091AF00B091B0001496ED014A8176
S11303005B81E09172002E2F332727FD3095EA019F
S1130310CC0FCD2FCC1FDD0BCE018770907028172A
S11303203907C9F041E040937000EF3F61F02C5F62
S11303303B4F6A537040C9010E94F1053C2F37704E
S11303403093720028C02C2F27702093720080E015
S11303500E94F20120C0FA01F595E795F595E7951D
S1130360F595E795EF70F070E60FF71FFA97CA015D
S11303708770907021E030E002C0220F331F8A950D
S1130380E2F76081622B608314964C5F5F4FBD017E
S1130390CA010E94F105DF91CF910895CF93DF93B5
S11303A0EC01AE018C819D81609185007091860085
S11303B08617970721F420917300222311F0CE01B0
S11303C00EC031E030937300C091AF00D091B00003
S11303D05093B0004093AF000E947501F0CFDF91BD
S11303E0CF9108950E94D90560E770E08091700074
S11303F0813029F1882301F180518430C0F4FB015C
S113040035968FE090E011920197EAF780917000A1
S1130410992787FD90958C509C4F6B5F7F4F0E946E
S1130420F105209170002F5F2093700016C0109288
S113043070001092730011C0809373000EC022E00C
S11304402093700080917200992787FD90958C5FAE
S11304509B4F6B5F7F4F0E94170681E090E00895E9
S11304600F931F938C010E94D200C8011F910F911A
S113047008950F931F93CF93DF938C01E801249683
S113048020917300222309F047C00E94A80530E19F
S113049030937000D80114966D917C9115977093E8
S11304A08600609385004A815B8150938800409365
S11304B087002C81222331F0ED81FE81F0936B00C3
S11304C0E0936A00C3E7D0E02296B0916A00B0934B
S11304D0750020916A0030916B00832F992787FD66
S11304E09A9580937600D8011496FC911497F09312
S11304F0770015969C9115979093780016967C91A9
S113050016977093790017965C9150937A00BE0108
S113051080E090E00E94F105C801DF91CF911F9126
S11305200F910895CF93E091B500F091B60020812A
S113053031812E37310539F0CF010E949E03C82F37
S1130540CC2339F00EC0CF010E94C00BC82FCC239E
S113055041F48091B5009091B6000E946001C0936F
S1130560B400CF910895FF920F931F93CF93DF931D
S11305708C01F62EEA012091B400222319F080E0C8
S113058090E018C082E992E00E94940C21E020934C
S1130590B400D093B600C093B50008831983FA82DF
S11305A0A091B500B091B600F0906C001396FC9247
S11305B081E090E0DF91CF911F910F91FF9008951A
S11305C01F93182F0E94BF03812F0E94FF0B81E00D
S11305D090E01F9108950E94C0030E94000C1092A5
S11305E0B40081E090E008951092B4000E9460018C
S11305F081E090E00895CF93DF93EC013B8120915B
S11306006C00321799F4288139818FEF2F3F380716
S113061039F040916A0050916B002417350731F48A
S1130620BE018A810E941A03009709F4CE01DF916A
S1130630CF910895CF93DF93C82FDD27CF32D10513
S1130640B9F0C033D10579F0C133D10539F0E2975F
S1130650A1F4CB010E947400BC010FC0CB010E9425
S1130660CE01BC01F4CFCB010E943002BC01ECCF1F
S1130670CB010E943902BC01E4CFCB01DF91CF91C1
S113068008950F931F932091E300022F112707FD74
S11306901095F8013297BF018091E1009091E2003A
S11306A00E946804A091E100B091E200A00FB11F84
S11306B012978C93A091E100B091E200A00FB11FBA
S11306C01197892F990F990B8C931F910F9108956E
S11306D00F931F931092B7002091E300022F11276C
S11306E007FD1095D8011297BD018091DF0090910C
S11306F0E0000E946804DC016091DF007091E0007A
S1130700FB01E00FF11F82919927382F2227829154
S11307109927282B392BA217B30749F4CB010E9440
S1130720FB02009721F09093E0008093DF0084E2C5
S113073090E08093E3001F910F910895FC012091B4
S1130740B7002223C9F4F093E200E093E10021E032
S11307502093B7002093B80080810E94500888231A
S113076039F081E493E00E94940C81E090E006C0AB
S11307708093B7008093B80080E090E008950895D6
S11307800E943F0829EB30E03093E0002093DF0023
S11307901092B70084E290E08093E30081E090E05F
S11307A00895282F362F332329F01092B70080E0C4
S11307B090E041C08091B700882369F1853019F039
S11307C081E090E038C08091B800992787FD90952A
S11307D0A091DF00B091E000A80FB91F2C934091C5
S11307E0B8004F5F4093B8002091E300421741F7EF
S11307F0A091DF00B091E000E091E400F091E50009
S11308009496ED93FC93959788E693E00E94940C5C
S113081080E090E010C065E06093B70031E0309371
S1130820B800A091DF00B091E0002C935093E50054
S11308304093E400C5CF0895CF93C82FCC2391F102
S11308402091B700213019F081E090E036C080910A
S1130850B8009091E300891794F4992787FD909547
S1130860A091E100B091E200A80FB91F8C910E9401
S113087050082091B8002F5F2093B800E5CF891766
S113088059F01092B7001092B80084E290E080937F
S1130890E30080E090E011C08F5F8093B80080E0B7
S11308A090E00BC08091E1009091E2000E94F4027C
S11308B0C093B700C093B800C3CFCF91089580917F
S11308C0E1009091E2000E94F40281E090E008953A
S11308D0FC0120E030E061507040EAF0A1E2B0E1B8
S11308E08191992787FD9095982F88272827392764
S11308F048E0C90180709078892B51F0220F331F92
S11309002A273B274150A9F7615070404AF703C09A
S1130910220F331FF7CFC9010895000008958C9862
S11309200E948D04939A0E948D0480B382958F70E7
S113093081709398992787FD90950895CF93DF93BD
S1130940C0E0D7E0CC0F0E948F04813019F0D15061
S1130950CAF702C0C160FBCF8C2F992787FD909501
S1130960DF91CF9108951F93CF93DF93182F8C9A23
S1130970C7E0D0E011239CF4949A0E948D04939ACA
S11309800E948D049398110F2197A2F70E948F045F
S113099020E030E0882329F421E030E002C094987C
S11309A0ECCFC901DF91CF911F910895949A939A46
S11309B08C9A0E948D0494980E948D0493980895B3
S11309C08C9A94980E948D04939A0E948D04939813
S11309D008958C9A949A0E948D04939A0E948D048F
S11309E0939808958C9A94980E948D04939A0E94E7
S11309F08D04949A0895CF93C091E6001092E60076
S1130A002C2F2F702130B9F0C23071F0C33039F07F
S1130A10C430E9F40E94F2040E940E0718C00E9438
S1130A20D6040E94EB0613C08091E7000E94B30431
S1130A300E947D060CC00E949E0460E00E944C0649
S1130A40C07F19F00E94E00402C00E94E904CF9123
S1130A500895939A949A8B9A8C9A1092E600109225
S1130A60E70081E090E00895982F2091E60022238A
S1130A7019F080E090E00EC021E02093E600992375
S1130A8019F031E13093E6008BEF94E00E94940C6E
S1130A9081E090E00895982F2091E600222319F038
S1130AA080E090E00BC022E02093E6009093E70002
S1130AB08BEF94E00E94940C81E090E008952091E3
S1130AC0E600222319F080E090E009C023E020939F
S1130AD0E6008BEF94E00E94940C81E090E008958E
S1130AE02091E600222319F080E090E009C024E080
S1130AF02093E6008BEF94E00E94940C81E090E058
S1130B0008951092E800AD9AAB9AAC9A81E090E017
S1130B100895AD982091E80021602093E80081E0D9
S1130B2090E00895AD9A2091E80026702093E800A3
S1130B3081E090E008952091E80020FF03C00E9426
S1130B40920502C00E948905992787FD9095089512
S1130B50AC982091E80022602093E80081E090E0C6
S1130B600895AC9A2091E80025702093E80081E074
S1130B7090E008952091E80021FF03C00E94B10590
S1130B8002C00E94A805992787FD90950895AB9807
S1130B902091E80024602093E80081E090E008952B
S1130BA0AB9A2091E80023702093E80081E090E064
S1130BB008952091E80022FF03C00E94D00502C0DE
S1130BC00E94C705992787FD90950895BC018091DF
S1130BD0E9009091EA000E94F105992787FD90951C
S1130BE008959C019091ED009923F1F47093EC0029
S1130BF06093EB004EE14093ED0022953295307FF7
S1130C003227207F32273093F0002093EF00909317
S1130C10EE000E945F05882319F081E090E006C091
S1130C208093ED008093EE0080E090E008959C01B5
S1130C309091ED009923F1F47093EC006093EB0034
S1130C404BE04093ED009093EE0022953295307F77
S1130C503227207F32273093F0002093EF000E9448
S1130C605F05882319F081E090E006C08093ED00D1
S1130C708093EE0080E090E008950E942905109290
S1130C80ED0024E030E03093EA002093E900109274
S1130C90EE0081E090E00895282F662319F0109269
S1130CA0ED0026C08091ED00882321F1823119F0F6
S1130CB081E090E021C08091EE00992787FD909516
S1130CC0A091EB00B091EC00A80FB91F2C93909168
S1130CD0EE009F5F9093EE00903139F09F3009F061
S1130CE061E0862F0E943405E3CF29E22093ED00D2
S1130CF00E94700580E090E00895882309F464C0A0
S1130D008091ED00813209F443C08F3191F180323A
S1130D1041F18D30D1F08E30A1F08F3061F081310E
S1130D2019F081E090E056C0E2E1E093ED0081E04B
S1130D300E943405F6CFB0E1B093ED000E945F0548
S1130D40F0CF9FE09093ED000FC07EE07093ED0034
S1130D506091EF007091F000872F992787FD9A9595
S1130D6013C051E25093ED008091EF000E944B05B7
S1130D70D8CF30E23093ED004091EF005091F00075
S1130D80852F992787FD9A958F770E944B05C9CFA8
S1130D908091EE00803194F4992787FD9095A0917D
S1130DA0EB00B091EC00A80FB91F8C910E944B0589
S1130DB02091EE002F5F2093EE00B3CF28E2209322
S1130DC0ED001092EE0002C08093ED000E947005C9
S1130DD080E090E008958091ED008E3169F08B30D1
S1130DE049F0803179F431E13093ED0081EA0E94D9
S1130DF04B0508C02DE001C02FE12093ED0080EAEF
S1130E000E944B0581E090E008953FE532BF24E065
S1130E1023BF21E009B6022A09BE08958091ED009E
S1130E201092ED00883251F08932E1F461E0809152
S1130E30EB009091EC000E94DD0014C0A091E90049
S1130E40B091EA001196B093EA00A093E900A15092
S1130E50B84030F024E030E03093EA002093E90019
S1130E600E94050780E090E0089578941F920F9205
S1130E700FB60F9211240F922F933F934F935F93CA
S1130E806F937F938F939F93AF93BF93EF93FF934E
S1130E9013BE2EEF09B6022209BE81E00E94F201C0
S1130EA0FF91EF91BF91AF919F918F917F916F913E
S1130EB05F914F913F912F910F900F900FBE0F9024
S1130EC01F901895AC9AAA98AD9AAD98AA9A0895CD
S1130ED0AC98AA98AD9AAD98AA9A08951F93CF9307
S1130EE0DF93C82F0E94620711E0173958F40E945B
S1130EF062070E9462070E9462070E9462071C5FE9
S1130F001739A8F310E0DD27C7FDD0951C161D0680
S1130F1044F40E9468071F5F212F33272C173D07D5
S1130F20C4F3AC9AAD9ADF91CF911F9108951F93AA
S1130F30182F0E946E071093F10081E090E01F913A
S1130F4008951F93182F0E946E071093F1001F91AC
S1130F5008950E946807AC9AAD9A2091F1002F5F22
S1130F602093F10008950E946207AC9AAD9A2091F3
S1130F70F10021502093F10008958091F100992708
S1130F8087FD90950895A0916A00B0916B0061E58A
S1130F9077E3A69FF001A79FF00DB69FF00D1124F3
S1130FA09F012F5A384C3093F3002093F200309372
S1130FB0F5002093F40045E85FE0A49FB001A59FED
S1130FC0700DB49F700D11249B012B57304F30933B
S1130FD0F7002093F60081E090E008952091F2005C
S1130FE03091F300C9018827990F881F9927220F90
S1130FF0331F882321F04BE050E124273527309319
S1131000F3002093F2004091F6005091F70024275A
S11310103527C90108950E945E0A2091FE002430FC
S113102021F06AE06093FE000EC052E05093F80095
S11310304AE64093F9003DEC3093FA001092FF0029
S11310402AE02093FE0008950F931F930091070157
S11310501091080110920801109207010E94AE0A33
S1131060A80160E00E94D103882331F48093FE003C
S1131070809302010E94640E1F910F9108951092B3
S1131080FE000E947B0E0E94C3070E94EC0C10928B
S11310900601109205011092020181E090E008958A
S11310A0982F8091FE00882379F0883019F080E031
S11310B090E01FC029E02093FE009093FB008BE09A
S11310C098E00E94940C13C09093FB0082E00E946D
S11310D0260E82E00E94640E0E94EE078F739070C9
S11310E090930401809303012CE02093FE0081E09F
S11310F090E00895882369F081E00E94260E0E9402
S1131100550E80E00E94640E1092FE001092FF00C3
S113111004C08093FE000E94260E81E090E00895B2
S11311202091FE002850233018F080E090E048C061
S11311308091FA0081700E94150E2091FA00259585
S11311402093FA008091FF008F5F8093FF00883026
S113115091F1803159F1823119F081E090E030C091
S11311605091FE005A3069F01092FE0081E00E9416
S11311701C040E945F040E94550E80E00E94640ECD
S1131180ECCFA091FB00A093F8009091FC00909309
S1131190F9007091FD007093FA001092FF0068E06E
S11311A06093FE0081E00E941C04D7CF4091F800B8
S11311B04093FA00D2CF3091F9003093FA00CDCFAA
S11311C00895CF93DF93C82F2091FE00222309F4C2
S11311D048C1213009F4E4C0223009F4C5C02330E9
S11311E009F4A7C0253009F474C0263009F46BC093
S11311F0273009F460C02B3041F12C3009F02EC1A6
S1131200C0910501D09106012196D0930601C093A7
S113121005016091030170910401C617D70708F412
S11312201DC181E00E94260E0E94550E80E00E949E
S1131230640E10920601109205011092040110929E
S113124003015BE05093FE0009C1CC23A9F0109286
S113125004011092030182E00E94260E82E00E94A3
S1131260640E0E94EE07937090930401809303012F
S11312702CE02093FE00F2C0A0910301B091040180
S1131280AD011196B0930401A093030147305105B9
S113129008F4E4C010920401109203010E94460E67
S11312A082E00E94640E34E03093FE008BE098E00C
S11312B00E94940CD3C0F3E0F093FE0084E298E023
S11312C00E94940CCBC0C093FB00E7E0E093FE00C7
S11312D0C5C0A091FF00AF5FA093FF008091F9000B
S11312E086958093F900CC2339F080688093F900C7
S11312F0809102018823B9F08091FF00883071F059
S1131300803109F0ABC08F5F8093FF00C091F9007A
S1131310C093FC00D6E0D093FE00A0C0B091F900C9
S1131320B093FD009BC00E946E0D91E0909302016A
S1131330E3CF82E00E94640E65E06093FE00D1E09A
S1131340D093FF00CC2369F070E87093F90080918A
S11313500201882309F082C00E946E0DD09302011D
S11313607DC0C093F9007AC020910001222371F05E
S1131370C0FF04C03091FA00353321F053E050939C
S1131380FE006CC081E00E94640EF8CFC0FFF6CF6F
S11313904091FD00453391F781E00E94640EEECF49
S11313A080910101815080930101882309F454C084
S11313B040910001442341F1109200019091FA0000
S11313C096959093FA005091F90050FF03C09068ED
S11313D09093FA006C2F61706093F9006130F1F51D
S11313E07091FA007533D1F592E09093FE009091DC
S11313F0FD0096959093FD00A091FC00A0FF2EC0E7
S113140090689093FD002AC0209300019091FD0004
S113141096959093FD00B091FC00B0FF03C09068D6
S11314209093FD00DC2FD170D093FC00D130B1F447
S1131430C091FD00C53391F4F2E0F093FE00909169
S1131440FA0096959093FA00E091F900E0FF06C047
S113145090689093FA0002C08093FE0081E090E0CF
S11314602AC08091F900880F86708093F9009091CA
S1131470FA0099231CF481608093F900990FC170DC
S11314809C2B9093FA003091F900373039F7977715
S1131490973021F738E1309301012093F90020932C
S11314A0FA002093FC002093FD0021E0209300012A
S11314B02093FE00D3CFDF91CF91089520E0422FF7
S11314C0322F9091FB0090FF01C027E791FF03C0EA
S11314D031E054E3252792FF04C062E0362752E34B
S11314E0252793FF04C0A8E03A2771E3272794FF38
S11314F004C0E0E13E27B6E22B2795FF04C050E686
S11315003527F5E22F2796FF04C070E8372763E1FB
S1131510262799231CF441E097E02927A22FAC70D9
S1131520A1F026FF0EC0B32FBA7049F0E32FE07587
S113153021F040FD0CC042600AC03062FACF346032
S1131540F5CF30FDF0CF2068EECF2860EACF40938E
S1131550FB003093FC002093FD0008954091FB00B4
S11315604295407F40713091FC00632F65956595ED
S1131570659565956C70462B232F259525952595A6
S11315802370422B232F2295220F220F207C30918F
S1131590FD00532F55955873252B3770232B342F6B
S11315A090E020FF01C091E021FF02C072E0972784
S11315B022FF02C0A4E09A2723FF02C0B8E09B27C1
S11315C024FF02C0E0E19E2725FF02C0FFE19F2720
S11315D026FF02C05CE19527222314F46AE19627D2
S11315E030FF02C079E1972731FF02C0A6E19A27B4
S11315F042FF02C0B5E19B2743FF02C0EBE09E27F8
S1131600F42FF07111F057E09527992391F191305F
S113161079F1923069F1943059F1983049F190316F
S113162039F19F3111F19C31F1F09A31C9F09931BE
S1131630A1F0963179F0953151F09B3029F0973033
S1131640C1F430E1342715C038E0342712C034E047
S113165034270FC032E034270CC031E0342709C0EE
S113166060E8262706C090E403C040E2242701C0B6
S11316702927922F929596959770330F330F330F36
S1131680932B892F992787FD9095089590930801AE
S11316908093070181E090E0089580E090E0089550
S11316A02CE029B98CB128ED2AB97894109209015B
S11316B081E090E008951F920F920FB60F921124CB
S11316C02F933F934F935F936F937F938F939F9346
S11316D0AF93BF93EF93FF932BB1222334F4109273
S11316E009018CB160E00E94130C10920901FF9172
S11316F0EF91BF91AF919F918F917F916F915F9186
S11317004F913F912F910F900FBE0F901F901895FE
S113171078941F920F920FB60F9211242F933F9338
S11317204F935F936F937F938F939F93AF93BF93E5
S1131730EF93FF931092090181E00E94460CFF9100
S1131740EF91BF91AF919F918F917F916F915F9135
S11317504F913F912F910F900FBE0F901F901895AE
S1131760982F20910901222319F080E090E007C00E
S113177021E0209309015E9A9CB981E090E00895EC
S1131780CF93FC0120910A01222399F4C1E0C09374
S11317900A01F0930C01E0930B0180810E94B00BCD
S11317A0882329F0C093370181E090E004C080933E
S11317B00A0180E090E0CF910895CF93DF93FC017C
S11317C0C62F20910A012223A9F4D1E0D0930A0163
S11317D0F0930C01E0930B0180810E94B00B8823ED
S11317E039F0C0933501D093370181E090E004C013
S11317F080930A0180E090E0DF91CF9108950895ED
S113180010920A0184E290E080933501109236012F
S11318102FE031E030930E0120930D010E94500B14
S113182081E090E00895282F662319F01092360184
S11318302AC080913601992787FD9095A0910D01CA
S1131840B0910E01A80FB91F2C93309136013F5F60
S11318503093360120913501321719F081E090E080
S113186014C06093360184E290E080933501809146
S11318700D0190910E010E94FB02009721F09093BC
S11318800E0180930D0180E090E00895CF93C82F5E
S1131890CC2341F120910A01213079F5909137014F
S11318A02091350192179CF4492F552747FD5095F7
S11318B0A0910B01B0910C01A40FB51F8C910E9453
S11318C0B00B309137013F5F3093370116C010924F
S11318D00A011092370180910B0190910C010E9432
S11318E0F4020BC080910B0190910C010E94F40250
S11318F0C0930A01C0933701CDCF81E090E0CF912E
S1131900089581E090E008951092490110924801F1
S1131910089520E030E05091480140914901541766
S113192009F421E0C9010895AC012FB72078F89497
S1131930E0914901709149017F5F709349013091B1
S11319404901377030934901609149013091480150
S1131950631781F0222309F07894FF27EE0FFF1F0D
S1131960A9E4B1E05197EA0FFB1F4083518381E062
S113197090E007C0E0934901222309F0789480E0C5
S113198090E008953091480120914901321709F1FE
S113199060914801A62FBB27A7FDB095509148013F
S11319A05F5F50934801409148014770409348015C
S11319B0AA0FBB1FE8E4F1E07097AE0FBF1F2D9193
S11319C03C9111971D921C92F901099580E090E0D9
S11319D002C08FEF9FEF089524E026B93698339A1A
S11319E0379A80E090E00895877086B981E090E0AE
S11319F008951F920F920FB60F9211240F922F93F6
S1131A003F934F935F936F937F938F939F93AF9382
S1131A10BF93CF93EF93FF93C0914B0120E030919C
S1131A204A01332309F447C00FB6F89444B10FBEFA
S1131A3055B1789430914A013130C1F1339A369AD4
S1131A40CC2379F1C13059F1C23039F1C33019F1E5
S1131A50C430F9F0C530D9F0C630B9F0C73099F0C8
S1131A60C83079F0C93059F040914A01423019F533
S1131A70222309F520934A01379833981CC020E0AB
S1131A80F3CF20E0EFCF20E0EBCF20E0E7CF20E062
S1131A90E3CF20E0DFCF20E0DBCF20E0D7CF20E092
S1131AA0D3CFCA010E94460B282FCCCF10924A01F3
S1131AB037983398C5CFFF91EF91CF91BF91AF91F4
S1131AC09F918F917F916F915F914F913F912F9152
S1131AD00F900F900FBE0F901F901895E82F90E075
S1131AE02FB7F89430914A01332389F441E04093AD
S1131AF04A01E0934B01FF27E7FDF095E05AFF4FC1
S1131B00308137B9349A379A339A369A91E02FBF95
S1131B10892F992787FD90950895E82F90E02FB796
S1131B20F89430914A01332389F442E040934A0106
S1131B30E0934B01FF27E7FDF095E05AFF4F30811A
S1131B4037B9349A379A339A369A91E02FBF892F4E
S1131B50992787FD90950895CFE5D4E0DEBFCDBFEA
S1131B601ABA17BA14BA11BAA59AA39AA49AA29A3D
S1131B708E9A8D9ABB9ABC9AB89AB99ABA9AAD9A27
S1131B80AB9AAC9A8CE30E9497070E94840C0E9443
S1131B9041000E946A00C0E40E94C20C892BE1F358
S1131BA005B60C2A05BE889500000000F5CFFFCFCE
S1131BB081E090E0089581E090E0089581E090E074
S1131BC008951F920F920FB60F9211242F933F93F3
S1131BD04F935F936F937F938F939F93AF93BF9331
S1131BE0EF93FF9380914C01813061F0882361F47D
S1131BF080B3869586958170992787FD90950E947C
S1131C00E10802C00E949008FF91EF91BF91AF914B
S1131C109F918F917F916F915F914F913F912F9100
S1131C200F900FBE0F901F901895982F20914C0184
S1131C30213019F080E090E008C090FF04C0C29AFF
S1131C4081E090E002C0C298FBCF0895882389F018
S1131C50813029F08230B9F4C098C19814C053E09F
S1131C6050934C0149E04EBD30E109B6032A09BE48
S1131C700AC0C098C1981EBC2FEE09B6022209BE44
S1131C8022E020934C0181E090E0089520914C01E2
S1131C90223041F0C09AC19821E020934C0181E0A8
S1131CA090E002C080E090E0089520914C01223041
S1131CB041F0C09AC19AC29810924C0181E090E020
S1131CC002C080E090E00895882369F0813039F003
S1131CD0823071F441E04BBD30E93ABD09C08BBD9F
S1131CE02CE22ABD05C01BBC28EC2ABD1DBC1CBCB3
S1131CF081E090E0089510924C01C09AC19AC29874
S1131D007FEE09B6072209BE6FED09B6062209BEA9
S1131D105BEF09B6052209BE47EF09B6042209BEE6
S1131D2039E03EBD1FBC1BBC28EC2ABD20E109B62E
S1131D30022A09BE1DBC1CBC789481E090E0089581
S1111D400001020304050607080901006600FD
S9030000FC
