S014000062696E6D6963612F6D61696E2E7372656369
S11300000C9430000C9450000C9450000C9450004C
S11300100C9450000C9450000C9450000C9450001C
S11300200C9450000C9414050C9450000C94500043
S11300300C944D0E0C94D90D0C9450000C9450005B
S11300400C9450000C94C3090C948A020C94500034
S11300500C94B7020C942E040C9450000C94500091
S113006011241FBE20E0A89521BD20E025BFEEE1AC
S1130070FBE330E0A0E6B0E020E005C03BBFD8954C
S11300803196311D0D92AA37B207C1F7AAE7B0E045
S113009028E001C01D92AD33B207E1F70C94940639
S11300A00C9452001895CF93DF93CDB7DEB7219708
S11300B00FB6F894DEBF0FBECDBF4C2F5D2F4F5F40
S11300C05F4F61E070E080E090E00E94D10689819A
S11300D00E940E0281E090E021960FB6F894DEBFF4
S11300E00FBECDBFDF91CF910895CF93DF93D92F6A
S11300F0C82F8E818130B1F0823034F48823F1F43A
S11301008F810E9418021AC08230C1F48C2F9D2F57
S11301100796482F592F61E070E080E090E00E943C
S1130120D1060CC08C2F9D2F0796482F592F61E0C4
S113013070E080E090E00E94F406E2CF8EEF9FEF43
S1130140888399838C2F9D2F0E9451178C2F9D2F6C
S1130150DF91CF910895CF93E0917E00F0917F00DD
S1130160808191818E37910541F08E2F9F2F0E94BF
S11301706F06C82FCC2341F00FC08E2F9F2F0E94F3
S1130180EF02C82FCC2341F480917E0090917F0030
S11301900E948617C0937D00CF910895FF920F931C
S11301A01F93CF93DF93082F192FF62ED52FC42F2B
S11301B080917D00882319F080E090E017C08BEADD
S11301C090E00E94C60381E080937D00D0937F007D
S11301D0C0937E0008831983FA82E0917E00F09137
S11301E07F0080916C00838381E090E0DF91CF9168
S11301F01F910F91FF9008951F93182F0E94660777
S1130200812F0E94300381E090E01F9108950E94A5
S113021067070E94310310927D0081E090E0089509
S113022010927D000E94861781E090E00895CF939C
S1130230DF93D92FC82F9B8180916C009817A1F46C
S1130240288139818FEF2F3F380739F080916A0078
S113025090916B002817390739F46C2F7D2F8A8110
S11302600E943901009711F48C2F9D2FDF91CF91BB
S11302700895CF93DF93C82FDD27C83CD10541F102
S1130280C93CD105F1F0C23DD105A1F0C33DD10572
S113029051F0C43DD10519F5972F862F0E94BD1347
S11302A0682F792F1CC0972F862F0E948213682FE6
S11302B0792FEFCF972F862F0E947500682F792F03
S11302C0E5CF972F862F0E942012682F792FDBCF3E
S11302D0972F862F0E948C10682F792FD1CF972FBC
S11302E0862FDF91CF91089510928000DA9AD89AE0
S11302F0D99A81E090E00895DA9880918000816035
S11303008093800081E090E00895DA9A80918000E3
S113031086708093800081E090E008958091800051
S113032080FF03C00E94850102C00E947C019927BE
S113033087FD90950895D99880918000826080937C
S1130340800081E090E00895D99A809180008570C2
S11303508093800081E090E008958091800081FF87
S113036003C00E94A40102C00E949B01992787FD3B
S113037090950895D898809180008460809380003F
S113038081E090E00895D89A8091800083708093F2
S1130390800081E090E008958091800082FF03C096
S11303A00E94C30102C00E94BA01992787FD90955B
S11303B00895D99A9598DA9ADA98959A0895D998D9
S11303C09598DA9ADA98959A08951F93CF93DF93C4
S11303D0C82F0E94D90111E0173958F40E94D9019D
S11303E00E94D9010E94D9010E94D9011C5F1739CA
S11303F0A8F310E0DD27C7FDD0951C161D0644F4B4
S11304000E94DF011F5F812F99278C179D07C4F37A
S1130410D99ADA9ADF91CF911F9108951F93182FDB
S11304200E94E5011093810081E090E01F910895FE
S11304301F93182F0E94E501109381001F910895C6
S11304400E94DF01D99ADA9A809181008F5F8093AC
S1130450810008950E94D901D99ADA9A8091810085
S1130460815080938100089580918100992787FDB0
S11304709095089520916A0030916B00932F822FFC
S113048061E577E30E94391D8F5A984C909383005D
S1130490809382009093850080938400932F822F11
S11304A065E87FE00E94391D8B57904F9093870039
S11304B08093860081E090E008952091820030913D
S11304C08300932F822F8827990F881F9927220F43
S11304D0331F882321F08BE090E1282739273093BC
S11304E083002093820080918600909187002827C2
S11304F03927932F822F089580E090E008958CE0AF
S113050089B98CB188ED8AB978941092880081E019
S113051090E008951F920F920FB60F9211242F931B
S11305203F934F935F936F937F938F939F93AF9377
S1130530BF93EF93FF938BB1882334F41092880018
S11305408CB160E00E94440310928800FF91EF9107
S1130550BF91AF919F918F917F916F915F914F91D7
S11305603F912F910F900FBE0F901F901895789484
S11305701F920F920FB60F9211242F933F934F9314
S11305805F936F937F938F939F93AF93BF93EF93F7
S1130590FF931092880081E00E947703FF91EF910E
S11305A0BF91AF919F918F917F916F915F914F9187
S11305B03F912F910F900FBE0F901F901895982F79
S11305C080918800882319F080E090E007C081E0E2
S11305D0809388005E9A9CB981E090E00895CF935F
S11305E0F92FE82F80918900882399F4C1E0C09302
S11305F08900F0938B00E0938A0080810E94DF02DF
S1130600882329F0C093F40081E090E004C0809333
S1130610890080E090E0CF910895CF93DF93F92F84
S1130620E82FC62F809189008823A9F4D1E0D093C4
S11306308900F0938B00E0938A0080810E94DF029E
S1130640882339F0C093F200D093F40081E090E065
S113065004C08093890080E090E0DF91CF910895F9
S113066008951092890082E690E08093F20010923F
S1130670F3008EE890E090938D0080938C000E94AC
S11306807F0281E090E00895282F662319F01092EC
S1130690F3002AC08091F300992787FD9095E0919B
S11306A08C00F0918D00E80FF91F20838091F300F6
S11306B08F5F8093F3009091F200891719F081E025
S11306C090E014C06093F30082E690E08093F2001F
S11306D080918C0090918D000E94FF14009721F06E
S11306E090938D0080938C0080E090E00895CF93E8
S11306F0C82FCC2341F180918900813079F5909104
S1130700F4008091F20098179CF4892F992787FDB3
S11307109095E0918A00F0918B00E80FF91F808199
S11307200E94DF028091F4008F5F8093F40016C072
S1130730109289001092F40080918A0090918B00AD
S11307400E94FA140BC080918A0090918B000E9441
S1130750FA14C0938900C093F400CDCF81E090E0F7
S1130760CF91089581E090E008951092360110929F
S11307703501089520E030E09091350180913601F3
S1130780981709F421E0932F822F0895482F592FA9
S11307902FB72078F894E0913601809136018F5F6D
S11307A080933601809136018F7180933601909148
S11307B0360180913501981789F0222309F0789445
S11307C0FF27EE0FFF1F86E391E081549040E80F6E
S11307D0F91F4083518381E090E007C0E093360124
S11307E0222309F0789480E090E0089590913501F7
S11307F080913601981711F180913501E82FFF2778
S1130800E7FDF095809135018F5F809335018091EC
S113081035018F7180933501EE0FFF1F85E391E061
S113082080549040E80FF91F8081918110821182D9
S1130830E82FF92F099580E090E002C08FEF9FEF39
S1130840089584E086B93698339A379A80E090E028
S11308500895877086B981E090E008951F920F9201
S11308600FB60F9211240F920F931F932F933F9360
S11308704F935F936F937F938F939F93AF93BF93A4
S1130880CF93EF93FF93C091380190E080913701AB
S1130890882309F44DC00FB6F89404B10FBE15B106
S11308A0789480913701813009F43DC0339A369AA7
S11308B0CC23B9F1C13079F1C23039F1C33019F127
S11308C0C430F9F0C530D9F0C630B9F0C73099F06A
S11308D0C83079F0C93059F080913701823041F540
S11308E0992331F5909337013798339821C090E0DC
S11308F0F3CF90E0EFCF90E0EBCF90E0E7CF90E044
S1130900E3CF90E0DFCF90E0DBCF912F802F0E94E8
S11309107913982FD3CF912F802F0E947013982F83
S1130920CBCF90E0C7CF1092370137983398C0CF20
S1130930FF91EF91CF91BF91AF919F918F917F9153
S11309406F915F914F913F912F911F910F910F9054
S11309500F900FBE0F901F901895E82F90E02FB7BF
S1130960F89480913701882389F481E080933701DA
S1130970E0933801FF27E7FDF095E05AFF4F8081AF
S113098087B9349A379A339A369A91E02FBF892FD0
S1130990992787FD90950895E82F90E02FB7F89454
S11309A080913701882389F482E080933701E093B2
S11309B03801FF27E7FDF095E05AFF4F808187B9A2
S11309C0349A379A339A369A91E02FBF892F992710
S11309D087FD909508958FEF9FEF90934101809349
S11309E040010E94F704992787FD9095089510927D
S11309F03D01979A969AC3989FE707B6092207BEC6
S1130A008FEB07B6082207BE07B6092207BE89E0A6
S1130A1085BD88EC83BD80E807B6082A07BE14BCF0
S1130A20BE9A81E090E008951F920F920FB60F9244
S1130A3011240F922F933F934F935F936F937F9360
S1130A408F939F93AF93BF93EF93FF9386B3869552
S1130A5086958170682F772767FD7095962F509142
S1130A600407552379F1513009F07BC04091070701
S1130A70E42FFF27EE0FFF1FE050F94F2081318153
S1130A80909108079150909308079923C1F0220F81
S1130A90331F31706111216081E02533380731F053
S1130AA0208331834527409307075BC08FE707B650
S1130AB0082207BE109204070E94760752C0909342
S1130AC004074FC02091000730910107220F331F04
S1130AD09170892F992787FD9095282B392B309376
S1130AE001072093000780914001909141014FEF4D
S1130AF08F3F940739F0019790934101809340010F
S1130B000197C1F080910007909101078777977052
S1130B108750974031F581E08093040710920307D2
S1130B201092020710920107109200078EE1809341
S1130B30080717C02F703070232B51F00E945D02FC
S1130B408F709070C2969093410180934001DACFE8
S1130B508FEF9FEF90934101809340010E948207A1
S1130B60D1CFFF91EF91BF91AF919F918F917F91E1
S1130B706F915F914F913F912F910F900F900FBE06
S1130B800F901F9018958FE707B6082207BE83E0E1
S1130B9080933D0181E090E008958FEF90E0909381
S1130BA03A018093390180914001909141018F5F16
S1130BB09F4F51F40E945D028F7390708C599F4F28
S1130BC0909341018093400181E090E00895F92FD2
S1130BD0E82F20E030E061507040F2F081919927D5
S1130BE087FD9095982F88272827392748E0932F49
S1130BF0822F80709078892B61F0220F331F81E25D
S1130C0090E128273927415091F76150704032F71D
S1130C1003C0220F331FF7CF932F822F08950F9312
S1130C201F93CF93DF93C0E0D0E0082F192F005A11
S1130C301F4F60E670E00E94E705282F392FF12F3F
S1130C40E02F808191818217930711F4C1E0D0E0F5
S1130C508C2F9D2FDF91CF911F910F9108950F93AA
S1130C601F938091420190914301082F192F005A3C
S1130C701F4F60E670E00E94E705F12FE02F8083AC
S1130C8091831F910F9108950E941001992787FD68
S1130C909095089581E08093440108951092440151
S1130CA0089580914401992787FD90950895CF93E5
S1130CB0DF93D92FC82F80914401882331F08C2FE2
S1130CC09D2F0E940F06882329F08C2F9D2F0E94B0
S1130CD0170102C08C2F9D2FDF91CF9108951F9390
S1130CE0CF93DF93D92FC82F0E944F07182F1123BA
S1130CF041F0D0934301C09342018FE296E00E94F9
S1130D00C603812F992787FD9095DF91CF911F917D
S1130D1008950E946607089581E0809344010E942B
S1130D20670781E090E00895CFEFDFE0DEBFCDBF3D
S1130D301ABA17BA11BA82E082B983B9D29AD09A90
S1130D40D19A8D9A179A8F9A8E9ABB9A1F9AB89AAB
S1130D50D79AD39AC09ADA9AD89AD99A149A1C9A9A
S1130D6015981D9A8AE00E940E020E94B5030E9403
S1130D70850F0E947F100E94F603892BE1F380E225
S1130D8005B6082A05BE889500000000F4CFFFCF01
S1130D9081E090E0089581E090E0089581E090E0A2
S1130DA00895282F392F80916D008823E1F481E084
S1130DB080936D008CB381FDFDCF161617068CF45D
S1130DC0F52FE42F2EBB832F992787FD9A958FBB90
S1130DD081E08CBB8DB381932F5F3F4F6150704096
S1130DE089F710926D000895282F392F80916D0096
S1130DF0882319F581E080936D00E0E0F0E0E617C8
S1130E00F707CCF4B52FA42F8CB381FDFDCFF89454
S1130E102EBB832F992787FD9A958FBB8D918DBB10
S1130E2084E08CBB82E08CBB78942F5F3F4F31967B
S1130E30E617F7074CF310926D000895BC9886B33B
S1130E4082FDFDCF81E48EBD80E206B6082A06BE8F
S1130E5086B785FFFDCFC69AC6980FB6F89486B5B7
S1130E600FBE97B50895109245018091AD01909100
S1130E70AE010E945706009721F09093AE01809333
S1130E80AD010E94F70408951092460110924501A5
S1130E908091AF019091B0010E9444060895282FDB
S1130EA0392F80914601882319F080E090E00DC02D
S1130EB03093B0012093AF0181E080934601809389
S1130EC047010E94CD0581E090E00895089589E4EA
S1130ED091E09093AE018093AD011092460110927F
S1130EE045010E94EB0481E090E0089510924801CE
S1130EF082E0809345010E941E070E94320A81E02D
S1130F0090E00895809146018130C1F41092B301BC
S1130F101092B4011092B901E091AF01F091B001C7
S1130F2080810E946B081092B1011092460186E004
S1130F308093450180916E000E94F10981E090E068
S1130F400895982F809145018823F1F0823019F09B
S1130F5081E090E01BC080914801E091AD01F091E7
S1130F60AE01E80FF11D9083809148018F5F80935B
S1130F704801843669F787E0809345010E94230A7B
S1130F8083E397E00E94C60380E090E00895982FE1
S1130F908091B401E82FFF27E7FDF095EB54FE4F55
S1130FA090838091B4018F5F83708093B4018091AA
S1130FB0B9018F5F8093B90181E090E00895909129
S1130FC04501963009F449C0933099F0943031F0DA
S1130FD0923009F058C00E94460855C0109245014D
S1130FE00E94230A0E94F70484E497E00E94C60347
S1130FF04AC08091B301E82FFF27E7FDF095EB5439
S1131000FE4F80810E94F1099091B3019F5F93701C
S11310109093B3018091B90181508093B9018230DA
S113102094F580914701853668F4E091AF01F09121
S1131030B001E80FF11D80810E946B088091470187
S11310408F5F1FC08091B401981719F00E9468083F
S11310501AC084E08093450116C080914701EEE6F2
S1131060F0E0E80FF11D80810E94F10980914701B1
S11310708F5F809347018C3031F483E08093450186
S113108081E08093470181E090E00895982F80915A
S1131090BF018823A9F0833069F0823019F080E021
S11310A090E015C081E08093BF019093BE010E943F
S11310B0D7080BC082E08093BF019093BD0105C0A7
S11310C083E08093BF019093BC0181E090E0089598
S11310D081E090E00895982F8091BF01882319F052
S11310E080E090E009C084E08093BF019093BC014C
S11310F00E947D0881E090E00895CF93DF93D0E0D3
S1131100CD2F9C2F2091BC0120FF41C09BE5D1E055
S113111021FF3BC088E59827D46022FF34C082E5D4
S11311209827D06123FF2DC081E59827D06424FF40
S113113026C08AE49827C16025FF1FC089E4982748
S1131140C46026FF18C083E19827C06122238CF471
S11311508BE09827C06496FF0AC0892F807529F018
S1131160892F8A70B1F4946014C09062F9CF9068AA
S1131170F4CFC068F0CFC062E9CFC860E2CFC260EC
S1131180DBCFD068D4CFD062CDCFD860C6CFD2E089
S1131190BFCF1092BF01892F0E94C7078C2F0E94D6
S11311A0C7078D2F0E94C707DF91CF91089560E094
S11311B040E050E02091BC019091BD018091BE01BE
S11311C080FF01C041E082FF01C0426084FF01C092
S11311D0446086FF01C0486090FF01C0406192FFF7
S11311E001C0406294FF01C0406496FF01C04068A2
S11311F0822F8370922F98719595892B2074259551
S11312002595822B95E0440F551F9A95E1F7992770
S113121087FD9095482B592B262F40FF01C021E0D4
S113122041FF02C082E0282742FF02C084E0282751
S113123043FF02C088E0282744FF02C080E128273A
S113124045FF02C08FE1282746FF02C08CE1282712
S1131250442314F48AE1282750FF02C089E1282797
S113126051FF02C086E1282752FF02C085E12827EA
S113127053FF02C08BE0282754FF02C087E02827D1
S11312806FEF222309F446C0213009F43FC0223015
S1131290D1F12430A9F1283081F1203159F160E0F5
S11312A02F3129F12C3101F12A31D9F02931B1F052
S11312B0263189F0253161F02B3039F0273011F0D7
S11312C061E028C080E090E123C080E098E020C085
S11312D080E094E01DC080E092E01AC080E091E0DC
S11312E017C080E890E014C080E490E011C080E270
S11312F090E00EC080E190E00BC088E090E008C070
S113130084E090E005C082E090E002C081E090E0DB
S1131310482759271092BF0185E0559547958A952E
S1131320E1F7842F0E94A107089581E08093C00112
S1131330159A1D9A80E090E008959FB79078F894EC
S11313408091C00181508093C001159A1D98992302
S113135009F0789480E090E00895CF93CFB7C078F7
S1131360F8948091C0018F5F8093C001181624F413
S1131370159A1D9A0E94EE09CC2309F0789480E016
S113138090E0CF9108951F920F920FB60F921124FF
S11313902F933F934F935F936F937F938F939F9379
S11313A0AF93BF93EF93FF938FB1909109079FB9C8
S11313B092E09093C1010E94DF07FF91EF91BF91EA
S11313C0AF919F918F917F916F915F914F913F91D9
S11313D02F910F900FBE0F901F90189580E090E012
S11313E00895CF93C82F9091C101923019F1992398
S11313F019F080E090E025C082E08093C101892F3C
S11314000E94DF070E949D09C798C098BF9A80EC8C
S11314108DB9CFB99798969A8FEB07B6082207BE75
S11314208FE707B6082207BE14BC82E383BD89E1B7
S113143085BD05C0C093090781E08093C10181E0A7
S113144090E0CF9108951DB815BC0E94AD09BB9AD8
S1131450C398979896981092C1011092090781E059
S113146090E00895CF93DF93D92FC82F9091C101B5
S1131470992319F080E090E02CC083E08093C101AF
S11314809093FF060E949D091DB8C798BF9A15BC8A
S113149081E084BD82E383BDC358DE4F8FEFC13F3B
S11314A0D80710F0C0EFDFEF89E185BD8EE184BD80
S11314B086B38823ECF301C014BC8CB59DB58C179E
S11314C09D07D0F380EC8DB91FB8C69AC69881E009
S11314D090E0DF91CF9108950E94800D1092ED016C
S11314E008950E94B80B1092EE0108950F931F9374
S11314F0CF93DF938091E201682F772716161706A2
S113150024F5A091E001B091E101F72FE62F319786
S11315100AF449C00E2F1F2F15950795F12FE02FC0
S1131520EE0FFF1FEE53FE4FC081D181FB2FEA2F38
S113153022813381448155818A819B81AC81BD8123
S1131540281739074A075B0710F1F72FE62FEE0F2C
S1131550FF1FEE53FE4FA091E001B091E101A08383
S1131560B1836C938091E2018F5F8093E2011092CA
S1131570E1011092E0018091ED018823B9F48CE639
S11315809AE00E94C60381E08093ED010FC0F72F1B
S1131590E62FEE0FFF1FEE53FE4FC083D183688307
S11315A0712F602FABCFF72FE62FB4CF1092EC0141
S11315B0DF91CF911F910F910895A091E001B09117
S11315C0E1018C91E82FFF27EE0FFF1FEE53FE4F32
S11315D080819181A817B90709F045C08A2F9B2FF4
S11315E00E94250CE091E001F091E10180E090E09F
S11315F026813781408551852115310541055105E5
S113160009F081E0882319F0818180FF1CC0818169
S113161082608183E091E001F091E10181818E7F1C
S113162081831092EC011092E1011092E00180910B
S1131630ED018823C1F48CE69AE00E94C60381E0A0
S11316408093ED0110C082819381A481B581820FC2
S1131650931FA41FB51F82839383A483B58386E756
S11316609AE00E94C60308951092E2011092E301E9
S11316701092F4010E94280E81E090E00895EF9208
S1131680FF920F931F93CF93DF93D92FC82FE42E8C
S1131690F52E062F172F8091EC01882319F080E096
S11316A090E01CC0898181FFFACF0E949A0E80913C
S11316B0E4019091E501A091E601B091E7018E0D5E
S11316C09F1DA01FB11F8A839B83AC83BD838C2F76
S11316D09D2F0E94750B992787FD9095DF91CF91DF
S11316E01F910F91FF90EF900895CF93F92FE82F5A
S11316F0F8948091F401882391F1789480E090E04B
S1131700882351F18091EC018823A1F0C0E08091FD
S1131710ED01882339F01092F4018C2F992787FD6D
S1131720909524C08CE69AE00E94C60381E08093E1
S1131730ED01F1CF818181FFE9CFC1E0C093EC01DC
S113174081818D7F8183F093E101E093E00186E75D
S11317509AE00E94C603DFCF80E090E007C081E0FA
S11317608093F401789481E090E0CACFCF910895FA
S11317700F931F93E091C201F091C3010285138579
S1131780F093E101E093E0018DED9AE00E94C6033D
S1131790E02FF12F09951F910F910895CF93B92F41
S11317A0A82FF8948091F401882309F445C0789413
S11317B080E090E08823E9F18091EC018823A1F096
S11317C0C0E08091ED01882339F01092F4018C2F50
S11317D0992787FD909537C08CE69AE00E94C6034E
S11317E081E08093ED01F1CFFB2FEA2F818181FD10
S11317F0E7CF8C91E82FFF27EE0FFF1F8CEE91E0CF
S11318008A97E80FF91F80819181A817B907C1F65B
S1131810C1E0C093EC01B093E101A093E001FB2F80
S1131820EA2F81818C2B81838DED9AE00E94C6037F
S1131830CCCF80E090E007C081E08093F4017894FD
S113184081E090E0B7CFCF910895AF92BF92CF924D
S1131850DF92EF92FF920F931F93CF93DF93F92FB1
S1131860E82F8081082F112732EEC32E31E0D32ECA
S11318706091E201E62FFF278E2F9F2F0197081713
S1131880190709F42DC1101611060CF088C0EE0FCB
S1131890FF1F32979D2D8C2D8097E80FF91FA08193
S11318A0B181F12FE02F31970AF417C1EE7FE80FD1
S11318B0F91F0190F081E02DDB2FCA2F2A813B8193
S11318C04C815D8182819381A481B5812817390778
S11318D04A075B0708F063C0B12FA02FAA0FBB1FF4
S11318E0AE53BE4F912F802F0197282F392F0AF422
S11318F053C0732F622F75956795D72FC62FCC0FC2
S1131900DD1FFD2FEC2FEE53FE4F0190F081E02DF3
S1131910ED93FC930083062F172F101611062CF558
S11319208091E201E82FFF27EE0FFF1FE054FE4FE6
S1131930A081B181F12FE02F31975AF1EE7FEE5360
S1131940FE4F80819181FB2FEA2F228133814481D4
S11319505581F92FE82F82819381A481B5812817BD
S113196039074A075B0708F4B7CF22EC31E0C20F0E
S1131970D31F8091E201E82FFF27EE0FFF1F32975C
S1131980E20FF31F0190F081E02DE883F983608377
S1131990A7C0F12FE02FD2CF312F202FAACF912F24
S11319A0802F880F991F0296AC2CBD2CE62F70C097
S11319B06E2F772761507040E02EF12EEE0CFF1C45
S11319C0EE0CFF1CDB2DCA2DA097FF2DEE2DEC0F86
S11319D0FD1FA281B381F72FE62FEE0FFF1FEC0F3F
S11319E0FD1F80819181FB2FEA2F22813381448165
S11319F05581F92FE82F82819381A481B58128171D
S1131A0039074A075B0730F4712F602F660F771F81
S1131A106F5F7F4FFF2DEE2DEC0FFD1FA481B5816D
S1131A20F72FE62FEE0FFF1FEC0FFD1F8081918132
S1131A30FB2FEA2F2281338144815581F92FE82F2E
S1131A4082819381A481B581281739074A075B07EE
S1131A5030F4712F602F660F771F6E5F7F4FB12FA9
S1131A60A02FAA0FBB1FAC0FBD1F972F862F880F67
S1131A70991FF92FE82FEC0FFD1F0190F081E02D45
S1131A80ED93FC930083062F172F0296E091E20159
S1131A902E2F3327821793070CF48ACF8091E2010B
S1131AA0A82FBB278A2F9B2F019708171907C1F06E
S1131AB0F12FE02FEE0FFF1F9D2D8C2D8097E80F47
S1131AC0F91FAA0FBB1F1297A80FB91F0D90BC9145
S1131AD0A02DA083B1830C9303C0F12FE02FE6CE99
S1131AE08091E20181508093E201DF91CF911F91B7
S1131AF00F91FF90EF90DF90CF90BF90AF9008953B
S1131B008091E201882309F453C00E949A0EE09167
S1131B10C201F091C30122813381448155818091B6
S1131B20E4019091E501A091E601B091E701281B41
S1131B30390B4A0B5B0B253284EF380780E04807EA
S1131B4080E05807ACF555236CF0BB2757FDBA95D8
S1131B50A52F942F832F89BD28BD88E007B6082AB6
S1131B6007BE26C0F8948091F4018823D1F07894BC
S1131B7080E090E08823E1F08091EC01882319F063
S1131B801092F40115C08091EE018823C9F781E712
S1131B909AE00E94C60381E08093EE018093EC01F9
S1131BA0EFCF81E08093F401789481E090E0E2CF7C
S1131BB0089578941F920F920FB60F9211240F92EA
S1131BC02F933F934F935F936F937F938F939F9341
S1131BD0AF93BF93EF93FF9387EF07B6082207BE37
S1131BE0F8948091F4018823D1F0789480E090E017
S1131BF08823E1F08091EC01882319F01092F4011C
S1131C0015C08091EE018823C9F781E79AE00E940C
S1131C10C60381E08093EE018093EC01EFCF81E075
S1131C208093F401789481E090E0E2CFFF91EF910A
S1131C30BF91AF919F918F917F916F915F914F91E0
S1131C403F912F910F900F900FBE0F901F901895FA
S1131C508FEE07B6082207BE87EF07B6082207BE35
S1131C608FED07B6082207BE8BEF07B6082207BE22
S1131C7081E08EBD1FBC80E090E099BD88BD84EFFB
S1131C808BBD84E28ABD80E090E09DBD8CBD80E187
S1131C9007B6082A07BE7894089578941F920F9285
S1131CA00FB60F9211240F922F933F934F935F938C
S1131CB06F937F938F939F93AF93BF93EF93FF9310
S1131CC00FB6F8948AB50FBE9BB5282F392F442739
S1131CD055278091E8019091E901A091EA01B09122
S1131CE0EB01820F931FA41FB51F8093E80190930B
S1131CF0E901A093EA01B093EB018091ED018823FF
S1131D0039F48CE69AE00E94C60381E08093ED01E9
S1131D10FF91EF91BF91AF919F918F917F916F91BF
S1131D205F914F913F912F910F900F900FBE0F90A5
S1131D301F9018958091E8019091E901A091EA0122
S1131D40B091EB018093E4019093E501A093E60147
S1131D50B093E701F8948CB59DB5AA27BB272091D1
S1131D60E4013091E5014091E6015091E701280F2B
S1131D70391F4A1F5B1F2093E4013093E501409310
S1131D80E6015093E70186B782FF10C08AB59BB580
S1131D90AA27BB27280F391F4A1F5B1F2093E40182
S1131DA03093E5014093E6015093E7017894089558
S1131DB00F931F9325E032E080910502813031F1C9
S1131DC0022F132F0B5F1E4F84E6F12FE02F119289
S1131DD08A95E9F787E380930C0380916A009091D8
S1131DE06B0090930B0380930A038DE780930D039C
S1131DF0932F822F855F9E4F0E941B16912F802F59
S1131E000E94EF02813011F4809305021F910F911B
S1131E10089580917F049927AA27BB2720E032E107
S1131E204AE750E0682F792F8A2F9B2F0E944B1D81
S1131E30B92FA82F972F862F8050984BA741BE4FBC
S1131E40482F592F6A2F7B2F82E192E00E943F0B8B
S1131E50882321F489E09FE00E94C603089540E0AE
S1131E605CE66CED72E08EE192E00E943F0B882309
S1131E7021F48FE29FE00E94C603089540E251EAF4
S1131E8067E070E086E092E00E943F0B882321F433
S1131E908EE39FE00E94C603089540E05CE16EE497
S1131EA07EE08AE292E00E943F0B882321F48DE4D5
S1131EB09FE00E94C603089580916A0090916B0090
S1131EC0CC96AA2797FDA095BA2F20E039E04DE3E0
S1131ED050E0682F792F8A2F9B2F0E944B1DB92F1A
S1131EE0A82F972F862F482F592F6A2F7B2F86E3F1
S1131EF092E00E943F0B882321F48CE59FE00E942E
S1131F00C60308950E948B120895DF92EF92FF9208
S1131F100F931F93CF93DF930E9474010E94340B9D
S1131F200E9419170E9431030E9421040E94530049
S1131F300E9437190E942D18CFEFD1E01092FF01B3
S1131F4093E3D92ED0920102D092000280E18093D3
S1131F50FE011092FB0112E01093070220E231EA25
S1131F6047E050E020930C0230930D0240930E02A0
S1131F7050930F028FED95E190931102809310021C
S1131F80752F642F532F422F8C2F9D2F07960E945D
S1131F903F0B882309F49DC020916A0030916B00A7
S1131FA0E4E6F0E0932F822F6E2F7F2F0E94661DB0
S1131FB0972F862F8093F501932F822F6E2F7F2FDB
S1131FC00E94661D8093F60180916A00992787FD1F
S1131FD090950E9444171093130210931F021093BC
S1131FE02B021093370210921802109219021092C9
S1131FF01A0210921B0210922402109225021092CF
S1132000260210922702E12C8CE1F82E8EE4082F90
S11320108EE0182FE0923002F092310200933202E7
S11320201093330210923C0210923D0210923E0231
S113203010923F0281EF95E190931D0280931C0260
S113204084EF95E1909329028093280287EF95E12C
S113205090933502809334028CEF95E19093410282
S11320608093400280916A0090916B00CC96AA27DD
S113207097FDA095BA2F20E039E04DE350E0682F9A
S1132080792F8A2F9B2F0E944B1DB92FA82F972F92
S1132090862F482F592F6A2F7B2F8C2F9D2FC79661
S11320A00E943F0B882381F0712F602F5F2D4E2DEE
S11320B08C2F9D2F8B960E943F0B882379F48DE4FF
S11320C09FE00E94C6030AC08CE59FE00E94C603FD
S11320D0EBCF8EE39FE00E94C6035ECF10927C0498
S11320E081E080937D04D0927E0481E090E0DF91D2
S11320F0CF911F910F91FF90EF90DF90089581E0B1
S113210090E008950E948B120E94C8130E94621BE3
S113211008950E94B5170895CF93DF93D92FC82F40
S1132120288139818FEF2F3F380761F080916A0051
S113213090916B002817390749F48C2F9D2F0E942A
S1132140531104C08C2F9D2F0E94AB108C2F9D2FF8
S1132150DF91CF9108958F929F92AF92BF92CF92C9
S1132160DF92EF92FF920F931F93CF93DF93882E0A
S1132170992E10E0D92DC82D26968091880490912F
S1132180890401969093890480938804F92DE82D9D
S113219086810E94431BA82EB92EA114B10409F410
S11321A065C02C814B816A8189810E94E71AC82EFF
S11321B0D92E4F816E818D810E94181BE82EF92E35
S11321C0C114D10409F443C0E114F10491F15F2D69
S11321D04E2D7D2D6C2D9B2D8A2D0E94A419892BAB
S11321E0D1F0113019F080E090E050C08FEF9FEFF4
S11321F0F92DE82D8083918388EC828380916A0095
S113220090916B008A879B870E94AD01992D882D40
S11322100E945117E8CF11E0098528855F2D4E2DC6
S11322207D2D6C2D9B2D8A2D0E94111C892BC9F6A6
S11322302BC00E94C91BE82EF92EE114F10421F1F0
S11322402F814E816D810E94E21C11E0C0CF0E945B
S1132250B01BC82ED92EC114D104B1F00C812B812E
S11322604A8169810E94B21C11E0AECF0E94971B83
S1132270A82EB92EA114B10439F0F92DE82D6681E8
S11322800E949D1C11E08DCF81E090E0DF91CF9101
S11322901F910F91FF90EF90DF90CF90BF90AF9080
S11322A09F908F9008958F929F92AF92BF92CF92FA
S11322B0DF92EF92FF920F93CF93DF93882E992EA4
S11322C0D92DC82D2696F92DE82D86810E94431B11
S11322D0A82EB92EA114B10409F497C02A8149810A
S11322E0622F842F0E94E71AC82ED92E4F816E8147
S11322F08D810E94181BE82EF92EC114D10409F413
S113230076C0E114F10409F465C05F2D4E2D7D2DD6
S11323106C2D9B2D8A2D0E94A419F92FE82F30973C
S113232009F448C089858783888580870F812E8139
S11323304D816A8189810E94A218F92FE82F309774
S1132340E1F08185282F332780916A0090916B00FA
S11323502817390791F0F92DE82D2083318388EC73
S1132360828380916A0090916B008A879B870E9488
S1132370AD01992D882D0E9451178981992764E612
S113238070E00E94391D2A81820F911D20916A00FC
S113239030916B008217930719F080E090E044C0FD
S11323A080918A0490918B04019690938B0480937E
S11323B08A04F3CF098528855F2D4E2D7D2D6C2D44
S11323C09B2D8A2D0E94111CF92FE82FEF2B09F069
S11323D0ADCF28C00E94C91BE82EF92EE114F104E8
S11323E009F12F814E816D810E94E21C8ECF0E94E3
S11323F0B01BC82ED92EC114D104A1F00A812981A1
S1132400402F622F0E94B21C7CCF0E94971BA82EE3
S1132410B92EA114B10431F0F92DE82D66810E9482
S11324209D1C5CCF81E090E0DF91CF910F91FF90F4
S1132430EF90DF90CF90BF90AF909F908F900895D2
S11324400F931F93CF93DF93082F192FD12FC02FF2
S113245026960E947C15209749F14885453030F531
S1132460842F9927A5E3B0E06A2F7B2F0E94391DA2
S1132470282F392FEB85FC85E20FF31FEC58FC4F16
S11324808081882399F4F32FE22FED58FC4F408389
S1132490888599276A2F7B2F0E94391DEB85FC853F
S11324A0E80FF91FEC58FC4F8B85808380918C04D6
S11324B090918D04019690938D0480938C04912FB8
S11324C0802FDF91CF911F910F910895B92FA82FDD
S11324D0FB2FEA2F369680916A0090916B008587D6
S11324E0968787818F5F878389ECFB2FEA2F82830E
S11324F08FEF9FEF8D939C9311978A2F9B2F0E94B0
S113250051178091840490918504019690938504D9
S1132510809384040895AF92BF92CF92DF92EF929A
S1132520FF920F931F93CF93DF9308E412E0BB2431
S1132530EE24FF24CE2CDF2CDD2DCC2DCE0DDF1D83
S1132540CC52D84F8C2F9D2F0E94881CA82EAA20D5
S113255061F089E090E0C80ED91E0894E11CF11CDA
S1132560B39494E09B1540F76AC08F81882389F364
S11325708985815089878F3F61F74091F601609189
S1132580F5018B819C810E94BF1C882311F320914B
S11325900102409100026091FF018D819E810E94A1
S11325A0EB1C8823B1F26B2D8C2F9D2F0E942A13D4
S11325B0282F2F3F09F443C0E981FA818081F12F4C
S11325C0E02F80838091F50181838091F6018283DD
S11325D08091F7019091F801A091F901B091FA016D
S11325E083839483A583B6830196A11DB11D809333
S11325F0F7019093F801A093F901B093FA01809147
S1132600000281878091010282878091FF01808787
S1132610822F99278387948780916A0090916B0019
S113262085879687A78289EC809344028FEF9FEF7A
S11326309093430280934202888589878ACFDF91F1
S1132640CF911F910F91FF90EF90DF90CF90BF90AB
S1132650AF9008950F931F93CF93DF93082F192FF3
S1132660862FD12FC02FAD81BE819C91482F552735
S1132670F52FE42FE259FC4FDB2FCA2F398120813B
S1132680230F233318F48A81281758F0DB2FCA2F1D
S11326908A81381731F01082912F802F0E944F1CAD
S11326A018C0F52FE42FE259FC4F80818F5F80839F
S11326B0892F992765E370E00E94391DF92FE82FCF
S11326C0E20FF11DEC58FC4F8081882311F099270B
S11326D002C08FEF90E0DF91CF911F910F91089589
S11326E095958795959587958093FD0181E090E078
S11326F0089595958795959587958093FC0181E03C
S113270090E00895CF93DF93D92FC82F0E94AD0195
S113271080916A0090916B008F5F9F4F49F58E8185
S11327209F8190936B0080936A008C2F9D2F0E9451
S1132730511780916A00992787FD90950E9444174C
S113274020916A0030916B00E4E6F0E0932F822F31
S11327506E2F7F2F0E94661D972F862F8093F50181
S1132760932F822F6E2F7F2F0E94661D8093F60178
S11327708C2F9D2FDF91CF9108950F931F93082FD6
S1132780192F0E94850F912F802F1F910F9108956B
S113279080910202882331F0D89A90E0882321F4B2
S11327A091E002C0D898F9CF9093020208958091E5
S11327B00302882331F0D89A90E0882321F491E031
S11327C002C0DA98F9CF909303020895809104022D
S11327D0882331F0D99A90E0882321F491E002C053
S11327E0D998F9CF909304020895CF93DF93C6EA62
S11327F0D2E08FEF9FEF9093A7028093A60288EC1C
S11328008093A8028DE78093A9020E940215809309
S11328108E048F3F09F465C0823309F462C064E01A
S11328208C2F9D2F06960E94FF158C2F9D2F0E94A2
S11328309B16882309F450C040E05CE66CED72E01E
S11328408C2F9D2F885890400E943F0B8823F9F1CC
S113285090917E0480917D04981B90937F0499232A
S113286009F43FC0892F9927AA27BB2720E032E12A
S11328704AE750E0682F792F8A2F9B2F0E944B1D27
S1132880B92FA82F972F862F8050984BA741BE4F62
S1132890482F592F6A2F7B2F8C2F9D2F84599040BE
S11328A00E943F0B882371F08091800490918104F1
S11328B00196909381048093800488ED9EE00E94A9
S11328C0C6030FC089E09FE00E94C603EDCF8FE2EC
S11328D09FE00E94C603BCCF8C2F9D2F0E945117EE
S11328E0ABCFDF91CF9108950F931F93CF93DF93D5
S11328F040917E0460917D0480917C040E94E018E4
S1132900D92FC82F209709F470C00CEA12E00650A2
S11329101040898599279093A7028093A60288EC9A
S11329208093A8028DE78093A9020E9402158093E8
S11329308E0480917E0490917D04891B80937F0492
S1132940882309F452C083E08093AC028881809389
S1132950AD0288818093AF0289818093AE02898120
S11329608093B0028881992764E670E00E94391D43
S11329702981280F80918F04281739F080919004C1
S11329808F5F8093900420938F0480917C048093C4
S1132990B10280917D048093B20280917E04809381
S11329A0B3021092B40280917F048F5F8093B502CA
S11329B080916A0090916B009093B7028093B60265
S11329C0912F802F0E949B16912F802F0E945117C8
S11329D08091820490918304019690938304809360
S11329E0820488ED9EE00E94C603DF91CF911F917F
S11329F00F9108951092050281E090E0089580E01F
S1132A0090E00895CF9330E0B32FC32FAC2F4091C3
S1132A107C044F3F09F46CC080917D048F3F09F41E
S1132A2067C080917E048F3F09F462C021E02333A4
S1132A30C8F190917D0480917E04891728F4923323
S1132A4018F49B5F90937E043323C9F0C23319F0CA
S1132A508C2F99274FC0842F992765E370E00E943B
S1132A60391DF92FE82FE955FC4F81E08083D89870
S1132A7088ED9EE00E94C6038C2F99273BC0842FCB
S1132A80992765E370E00E94391DF92FE82FE95575
S1132A90FC4F81E08083D8988093000283E3809385
S1132AA00102E6CF842F992765E370E00E94391D67
S1132AB0F92FE82FE20FF11DEC58FC4F8081882399
S1132AC089F0CF5FBB2351F0313011F02F5FAFCFCE
S1132AD0AA23E1F720937E04A32FF8CF20930002CA
S1132AE0B1E0F2CF332391F720937D0431E0EECFB0
S1132AF08FEF90E0CF9108956F927F928F92AF9273
S1132B00CF92DF92EF92FF920F93CF93DF93682ED1
S1132B10792ED72DC62D2696EA84098528854A81E3
S1132B206981F72DE62D86810E94431A892B21F1B4
S1132B302B8548856A8189810E946818F92FE82FBE
S1132B403097E9F090858F819817B0F08481958152
S1132B50A681B7812B813C814D815E8182179307C9
S1132B60A407B50748F424833583468357838F81AC
S1132B7080878D85818711C080E090E014C00E9419
S1132B8046188D84AF80CB80DC80ED80FE800B8581
S1132B9028854A8169810E940E19972D862D0E94ED
S1132BA0661281E090E0DF91CF910F91FF90EF905A
S1132BB0DF90CF90AF908F907F906F900895809129
S1132BC0FE01882311F0815005C082E890E10E9443
S1132BD0C60380E18093FE0189E890E10E94C60368
S1132BE008950E94F51308950E947414089588EDC1
S1132BF09EE00E94C60308950E94F5130895F92FDC
S1132C00E82F962F83E08083118284E683831282E7
S1132C10848380917C04858380917D048683809164
S1132C207E0487831086918780916A0090916B005F
S1132C30828793870895CF93DF93F92FE82F3097F6
S1132C4009F476C08091800490918104892F99279A
S1132C508083809180048183809182049091830495
S1132C60892F9927828380918204838380918604AB
S1132C7090918704892F9927848380918604858382
S1132C808091840490918504892F9927868380916B
S1132C90840487838091880490918904892F9927DB
S1132CA0808780918804818780918A0490918B0425
S1132CB0892F9927828780918A04838780918C0445
S1132CC090918D04892F9927848780918C0485871E
S1132CD080917C04868780917C048F3F31F1992711
S1132CE065E370E00E94391DD92FC82F83E3AE2F0E
S1132CF0BF2F1F96CC58DC4F09900D928A95E1F7AF
S1132D00EE5BFF4F80917D04819380917E048193DB
S1132D1080910002819380910102819380918E04BD
S1132D20819380919004808303C08091FF01D7CF69
S1132D30DF91CF910895AF92BF92CF92DF92EF923D
S1132D40FF920F931F93CF93DF93082F192FD12F47
S1132D50C02F2696F12FE02F86810E94431BA82EB8
S1132D60B92EA114B10409F44AC02C814B816A81A3
S1132D7089810E94E71AC82ED92E4F816E818D81D8
S1132D800E94181BE82EF92EC114D10451F1E1144C
S1132D90F104D1F05F2D4E2D7D2D6C2D9B2D8A2DB0
S1132DA00E94A419892B19F080E090E037C00985AE
S1132DB028855F2D4E2D7D2D6C2D9B2D8A2D0E94F7
S1132DC0111C892B89F728C00E94C91BE82EF92EF3
S1132DD0E114F10409F12F814E816D810E94E21CFE
S1132DE0D9CF0E94B01BC82ED92EC114D104A1F092
S1132DF00C812B814A8169810E94B21CC8CF0E9438
S1132E00971BA82EB92EA114B10431F0F12FE02F95
S1132E1066810E949D1CA9CF81E090E0DF91CF9153
S1132E201F910F91FF90EF90DF90CF90BF90AF90E4
S1132E3008951092920410929404109293041092A4
S1132E4091041092950410929A0410929604109290
S1132E50970410929804109299044091920427EADE
S1132E6034E08AE090E0F92FE82FEF56FB4F2083FF
S1132E7031832C593F4F02964F5F4630A0F30E9496
S1132E80070180E090E008958F709070AA27BB2717
S1132E908093960490939704A0939804B093990414
S1132EA00895CF93DF93482F592F22E934E080917E
S1132EB09204863030F5D32FC22F2196809193044B
S1132EC0E82FFF27EE0FFF1FE20FF31F84E6A18513
S1132ED0B285F52FE42F01900D928A95E1F72091A8
S1132EE09304822F9927019606974CF4822F8F5FC3
S1132EF08883809192048F5F8093920402C080E063
S1132F00F7CF80E090E0DF91CF9108950F931F9366
S1132F10082F192F0E941E1822E934E08091920490
S1132F20815080939204B32FA22F1296809194041F
S1132F30E82FFF27EE0FFF1FE20FF31F0187128711
S1132F4020919404822F9927019606971CF4822FCE
S1132F508F5F01C080E08C93109291040E94EC1763
S1132F6080E090E01F910F9108958091920488234E
S1132F7051F080919A04882321F0815080939A041F
S1132F8002C00E94EC1708958091960490919704D2
S1132F90A0919804B09199042DE63EE446EC51E4E6
S1132FA0682F792F8A2F9B2F0E944B1DB92FA82F92
S1132FB0972F862F875C9F4CAF4FBF4FBF7780936F
S1132FC0960490939704A0939804B0939904682F5F
S1132FD0792F8A2F9B2F089580919104882369F576
S1132FE080919204882349F180919A04882329F5D9
S1132FF081E08093910480919404E82FFF27EE0FE1
S1133000FF1FE556FB4F0190F081E02D4E2F5F2FFF
S11330106281808191810E94CE000E94C417B92FE1
S1133020A82F972F862F25E0B695A7959795879576
S11330302A95D1F7837080939A040895809195041A
S1133040882331F0DA9890E0882321F491E002C0DB
S1133050DA9AF9CF90939504089510920B0783E1BF
S113306080930A0720E030E0532F422FF52FE42FFE
S1133070E20FF31FEC5EF84F8FEF8083475F5F4FE3
S11330802F5F3F4F243131058CF3089580910B0756
S1133090843118F48F5F80930B0720910A07822FE5
S11330A099270196449714F42F5F01C020E02093E0
S11330B00A073327932F822F43E0880F991F4A95DD
S11330C0E1F7820F931F820F931F845F984F089537
S11330D0782F30E050910B073517B8F4832F9927D8
S11330E0B92FA82FE3E0AA0FBB1FEA95E1F7A80FB9
S11330F0B91FA80FB91FFB2FEA2FE45FF84F808197
S1133100871731F03F5F351748F380E090E019C02E
S1133110FB2FEA2FE35FF84F8081861799F7FB2F87
S1133120EA2FE25FF84F8081841761F7FB2FEA2FC3
S1133130E15FF84F8081821729F7A45FB84F8A2F87
S11331409B2F08950F93782F30E050910B0735177C
S1133150B8F4832F9927B92FA82FF3E0AA0FBB1F28
S1133160FA95E1F7A80FB91FA80FB91FFB2FEA2F93
S1133170E45FF84F8081871731F03F5F351748F3DC
S113318080E090E01BC0FB2FEA2FE35FF84F8081C3
S1133190861799F7FB2FEA2FE25FF84F8081841797
S11331A061F7FB2FEA2FE15FF84FE081E21728F384
S11331B00E1718F3A45FB84F8A2F9B2F0F91089511
S11331C0A82F50E070910B075717B8F4852F992753
S11331D0282F392FB3E0220F331FBA95E1F7280FB8
S11331E0391F280F391FF32FE22FE25FF84F808138
S11331F08A1731F05F5F571748F380E090E00DC005
S1133200F32FE22FE15FF84FE081E61798F34E17B2
S113321088F3245F384F932F822F08958F92AF92B3
S1133220CF92DF92EF92FF920F93CF93DF93CDB7BC
S1133230DEB7F92FE82F362F502FBF2DAE2D9D2D41
S11332408C2D6A2D782D308341832283538384838C
S11332509583A683B78360877187DF91CF910F91A0
S1133260FF90EF90DF90CF90AF908F9008950F93E1
S11332701F93CF93DF9306E018E0D12FC02F289639
S1133280912F802F0E94A31C0E5F1F4FC017D107E0
S1133290BCF7C0E0D0E00C2F1D2F912F802F8C0F96
S11332A09D1F8C52984F0E947F1C075F1F4F2196D1
S11332B0C530D10594F300E118E0D12FC02F6496F6
S11332C0912F802F0E94DE1C0B5F1F4FC017D10768
S11332D0BCF7C0E0D0E009E218E0912F802F0E94F3
S11332E0081D0C5F1F4F2196C530D105B4F3DF9143
S11332F0CF911F910F910895CF93DF93D92FC82FAA
S1133300A0E020E030E0532F422FF52FE42FE20F0E
S1133310F31FEC52F84F818192818C179D0751F075
S1133320475F5F4F2F5F3F4FAF5FA53070F380E083
S113333090E007C0838194818617970789F78E2FC1
S11333409F2FDF91CF9108950F931F93CF93DF9316
S1133350082F192FD72FC62F60E020E030E0B32FBD
S1133360A22FFB2FEA2FE20FF31FEC52F84F8181BB
S113337092818017910749F019962F5F3F4F6F5F35
S1133380653078F380E090E00CC0838194818C17E1
S11333909D0791F7858196818417950769F78E2F8C
S11333A09F2FDF91CF911F910F9108956F927F927C
S11333B08F929F92AF92BF92CF92DF92EF92FF9241
S11333C00F931F93CF93DF93662E742E0E94431B9B
S11333D0882E992EAA2480E1C82E88E0D82E9D2D0F
S11333E08C2D0E94D31CC82FCC2359F085E090E08B
S11333F0C80ED91EA39494E09A1588F780E090E053
S113340033C0472D662D9D2D8C2D0E94BF1C882313
S113341069F3BC2E00E010E0E02EF12EDF2DCE2D5E
S1133420C00FD11FCC52D84F8C2F9D2F0E94881CC7
S1133430882359F089E090E0E80EF91E0F5F1F4FD2
S1133440B39494E09B1550F7D1CF8F81882391F3E7
S113345089819A818815990569F78B819C818C15DE
S11334609D0541F78C2F9D2FDF91CF911F910F91D7
S1133470FF90EF90DF90CF90BF90AF909F908F9090
S11334807F906F9008952F923F924F925F926F9228
S11334907F928F929F92AF92BF92CF92DF92EF92E0
S11334A0FF920F931F93CF93DF93CDB7DEB723978C
S11334B00FB6F894DEBF0FBECDBF6983242E322E23
S11334C0402E5E2C0E94431B682E792E882429E20C
S11334D0A22E28E0B22E90E1C92E98E0D92E9D2D7F
S11334E08C2D0E94D31C882379F0E4E0F0E0AE0E2A
S11334F0BF1E85E090E0C80ED91E839494E0981511
S113350070F780E090E04AC0422D69819D2D8C2D9A
S11335100E94BF1C882349F39B2D8A2D0E94FD1C09
S1133520182F112311F7252D442D632D9B2D8A2D42
S11335300E94EB1C8823C9F2912E00E010E0E02EDB
S1133540F12E9F2D8E2D800F911F8C52984F8A83C0
S11335509B830E94881C882359F089E090E0E80E40
S1133560F91E0F5F1F4F939494E0991550F7BDCF48
S1133570EA81FB818781882381F381819281861589
S1133580970559F7838194818C159D0531F78581C1
S113359096818A159B0509F78E2F9F2F23960FB6C8
S11335A0F894DEBF0FBECDBFDF91CF911F910F9175
S11335B0FF90EF90DF90CF90BF90AF909F908F904F
S11335C07F906F905F904F903F902F900895DF927F
S11335D0EF92FF920F931F93CF93DF93D82EE62E93
S11335E0F42E022F10E0C0E1D8E08C2F9D2F0E9412
S11335F0D31C882339F025961F5F1530B0F380E083
S113360090E00EC088818D15B1F789818E1599F7E8
S11336108A818F1581F78B81801769F78C2F9D2FF5
S1133620DF91CF911F910F91FF90EF90DF9008955C
S1133630EF92FF920F931F93CF93DF93E82EF62E12
S1133640042F10E0C9E2D8E08C2F9D2F0E94FD1CAE
S1133650882339F024961F5F1530B0F380E090E0A2
S11336600BC088818E15B1F789818F1599F78A81EE
S1133670801781F78C2F9D2FDF91CF911F910F9190
S1133680FF90EF9008950F931F93CF93DF93082F2C
S113369010E0C6E0D8E08C2F9D2F0E94A71C882341
S11336A039F022961F5F1530B0F380E090E005C03A
S11336B088818017B1F78C2F9D2FDF91CF911F91B7
S11336C00F910895DF92EF92FF920F931F93CF9380
S11336D0DF93DD2400E010E0E02EF12EDF2DCE2D6F
S11336E0C00FD11FCC52D84F8C2F9D2F0E94881C05
S11336F0882321F08F8181508F8307C08F81882395
S1133700C9F78C2F9D2F0E944F1C89E090E0E80E92
S1133710F91E0F5F1F4FD39494E09D15F8F6DF91C7
S1133720CF911F910F91FF90EF90DF9008951F9319
S1133730CF93DF9310E0C6E0D8E08C2F9D2F0E943A
S1133740A71C882339F422961F5F1530B0F380E05C
S113375090E002C08C2F9D2FDF91CF911F9108958F
S11337601F93CF93DF9310E0C0E1D8E08C2F9D2FFF
S11337700E94D31C882339F425961F5F1530B0F3BB
S113378080E090E002C08C2F9D2FDF91CF911F919C
S113379008951F93CF93DF9310E0C9E2D8E08C2FF4
S11337A09D2F0E94FD1C882339F424961F5F153039
S11337B0B0F380E090E002C08C2F9D2FDF91CF9179
S11337C01F910895DF92EF92FF920F931F93CF936F
S11337D0DF93DD2400E010E0E02EF12EDF2DCE2D6E
S11337E0C00FD11FCC52D84F8C2F9D2F0E94881C04
S11337F0882369F489E090E0E80EF91E0F5F1F4FFB
S1133800D39494E09D1550F780E090E002C08C2F93
S11338109D2FDF91CF911F910F91FF90EF90DF903B
S113382008958F929F92AF92BF92CF92DF92EF92C0
S11338300F931F93CF93DF93D92FC82FA62EB72EA4
S1133840842E952E122FE02E0E94E21BC82ED92E14
S1133850C114D104B1F0012F392D282D5B2D4A2D2F
S11338606C2F7D2F0E946B1C89818F5F8983FB2DB8
S1133870EA2D84818F5F8483F92DE82D83818F5F06
S113388083839D2D8C2DDF91CF911F910F91EF900C
S1133890DF90CF90BF90AF909F908F900895CF937B
S11338A0DF93B92FA82FDB2FCA2FE981FA818181F9
S11338B081508183EB81FC81848181508483ED81FB
S11338C0FE818381815083838A2F9B2F0E947F1CDA
S11338D0DF91CF910895EF920F93F92FE82F972F4F
S11338E0862F702F6E2D8183928343835483258387
S11338F036836783708771870F91EF900895F92F4E
S1133900E82F11821282138214821582168208957E
S1133910F92FE82F20E030E081819281892B51F446
S113392083819481892B31F485819681892B11F4CB
S113393021E030E0932F822F0895F92FE82F862F6E
S1133940808311820895F92FE82F11820895F92FA9
S1133950E82F20E030E08181882309F421E0932FCF
S1133960822F08950F93F92FE82F862F942F302F4D
S1133970808391832283338314820F910895F92FD6
S1133980E82F20E030E08081681750F082818617AC
S113399038F08181481720F08381841708F021E0F2
S11339A0932F822F0895F92FE82F20E030E08481AF
S11339B0882309F421E0932F822F0895F92FE82F0B
S11339C014820895F92FE82F862F942F80839183F2
S11339D0228313820895F92FE82F962F60E070E078
S11339E08081891739F48281841720F08181281716
S11339F008F061E0972F862F0895F92FE82F20E033
S1133A0030E08381882309F421E0932F822F0895E5
S1133A10F92FE82F138208951F93CF93DF93D92FA3
S1133A20C82F142F2097F9F02117E8F02433D8F485
S1133A306883421788F0822F9927212F3327821B0E
S1133A40930B63E370E00E94661D972F862F8CAB67
S1133A50411B842F992709C0FD2FEC2FE40FF11D82
S1133A6041834F5FE6CF80E090E0DF91CF911F91DB
S1133A7008955527002480FF02C0060E571F660FC5
S1133A80771F6115710521F096958795009799F731
S1133A90952F802D0895FF27EE27BB27AA2760FFC7
S1133AA004C0A20FB31FE41FF51F220F331F441FCE
S1133AB0551F969587957795679589F700977607AB
S1133AC071F79F2F8E2F7B2F6A2F089597FB092E56
S1133AD007260AD077FD04D00CD006D000201AF4B3
S1133AE0709561957F4F0895F6F7909581959F4F56
S1133AF00895AA1BBB1B51E107C0AA1FBB1FA61731
S1133B00B70710F0A61BB70B881F991F5A95A9F782
S1113B1080959095682F792F8A2F9B2F08950A
S1133B1E0001020304050607080907007D00F0F002
S10D3B2EF0FF00FF0F00FF0F0F0F60
S9030000FC
