S01600006275696C642F78736D2F6D61696E2E73726563A3
S11300000C94E3010C9400020C9400020C9417026B
S11300100C9400020C9400020C9400020C94000254
S11300200C9400020C9400020C9400020C94000244
S11300300C9400020C9400020C9400020C944824CA
S11300400C9400020C941F030C9448030C940002BB
S11300500C9472030C94B2300C9400020C940002C1
S11300600C9400020C9400020C9400020C94000204
S11300700C9400020C9400020C9400020C940002F4
S11300800C9400020C9400020C940002C941DD415E
S1130090F141054219422D42414255426A427F4292
S11300A09442AD42B942BE42C642CB42D642E64237
S11300B0F6420A431E43324346435A435F43644372
S11300C069436E43734378437D438243874390433C
S11300D09E43A743B043B943C243D543DA43DF4306
S11300E0F243F943034417440008005E00FA017325
S11300F001EA04BC0A5E000000140055008700B940
S113010001E5043D000808080808083158000057B4
S1130110F685035544020F60E0261C6B5570010000
S113012000000000000000008101317C00007BF928
S1130130AE02388C3280401026A16B5510010000AD
S113014000000000000000F3013151000050F74F9F
S1130150030E44020F58E026A16B55700100000005
S11301600000000000008101315CE0005CDB420122
S1130170AA8C3280301026A16B55100100000000BB
S11301800000000000F301314560004555BB039CAD
S113019080020F68E026A16B54700100000000008B
S11301A00000000081013158000057F68503559086
S11301B0020F60E026A16B557001000000000000F2
S11301C0000000810100002110422063308440A51A
S11301D050C660E770088129914AA16BB18CC1AD0A
S11301E0D1CEE1EFF13112100273325222B55294A2
S11301F042F772D662399318837BB35AA3BDD39C5A
S1130200C3FFF3DEE36224433420040114E664C72D
S113021074A44485546AA54BB528850995EEE5CFA9
S1130220F5ACC58DD55336722611163006D776F641
S1130230669556B4465BB77AA719973887DFF7FEF9
S1130240E79DD7BCC7C448E5588668A778400861CD
S11302501802282338CCC9EDD98EE9AFF948896949
S1130260990AA92BB9F55AD44AB77A966A711A50E1
S11302700A333A122AFDDBDCCBBFFB9EEB799B5899
S11302808B3BBB1AABA66C877CE44CC55C222C036D
S11302903C600C411CAEED8FFDECCDCDDD2AAD0BE9
S11302A0BD688D499D977EB66ED55EF44E133E3281
S11302B02E511E700E9FFFBEEFDDDFFCCF1BBF3A39
S11302C0AF599F788F8891A981CAB1EBA10CD12D28
S11302D0C14EF16FE18010A100C230E3200450252B
S11302E04046706760B9839893FBA3DAB33DC31C9F
S11302F0D37FE35EF3B1029012F322D2323542147B
S11303005277625672EAB5CBA5A89589856EF54FEA
S1130310E52CD50DC5E234C324A0148104667447CA
S11303206424540544DBA7FAB79987B8975FE77E3E
S1130330F71DC73CD7D326F2369106B0165766761A
S113034076154634564CD96DC90EF92FE9C899E98A
S1130350898AB9ABA94458654806782768C018E16A
S1130360088238A3287DCB5CDB3FEB1EFBF98BD8DE
S11303709BBBAB9ABB754A545A376A167AF10AD0BA
S11303801AB32A923A2EFD0FED6CDD4DCDAABD8B2A
S1130390ADE89DC98D267C076C645C454CA23C830A
S11303A02CE01CC10C1FEF3EFF5DCF7CDF9BAFBA7E
S11303B0BFD98FF89F176E367E554E745E932EB25A
S11303C03ED10EF01E0011241FBECFEFD0E1DEBFE0
S11303D0CDBF11E0A0E0B1E0E0E0FDE800E00BBF3C
S11303E002C007900D92A032B107D9F717E0A0E23E
S11303F0B1E001C01D92AD33B107E1F70C94BD0328
S11304000C940000E8ECF6E0ACEEB6E08BE993E087
S11304109F012F5F3F4F8D939D9311928B962E17C3
S11304203F07CCF71092F2061092760508951F92BA
S11304300F920FB60F9211242F933F934F935F9314
S11304406F937F938F939F93AF93BF93EF93FF9398
S113045089B78B7F89BF89E098E30E949703FF9156
S1130460EF91BF91AF919F918F917F916F915F9128
S11304704F913F912F910F900FBE0F901F901895A1
S1130480AF92BF92CF92DF92EF92FF920F931F939E
S1130490CF93DF9306EEA090FF06B0900007C090C4
S11304A00107D0900207A114B104C104D104C9F119
S11304B010E06BEC74E0EE24FF2481E090E0A0E017
S11304C0B0E00E2C04C0880F991FAA1FBB1F0A940A
S11304D0D2F78A219B21AC21BD210097A105B1054A
S11304E079F0202F332744275527FB0185819681F6
S11304F0A781B08582179307A407B5070CF405817B
S11305001F5F0894E11CF11C675F7F4F1E30A8F247
S11305108FB7F894992712B71D5F011728F4012F9C
S113052003C08FB7F89499270093710601BF109206
S1130530C9058FBF0E944F09DF91CF911F910F9181
S1130540FF90EF90DF90CF90BF90AF900895EF921F
S1130550FF921F93CF93DF93EC017C01E0E0A8ECC2
S1130560B6E090E08FB7F894282F33278C91882336
S113057019F481E08C93982F2FBF9130C1F0EF5F75
S11305801196E23070F3EFEFFFEF1E2FEF3F99F477
S113059080914E0190914F012FEF8F3F920709F404
S11305A047C0019690934F0180934E0141C0FF27AD
S11305B0E7FDF095EACF80914A0190914B012FEF2E
S11305C08F3F920729F0019690934B0180934A0143
S11305D0CE010E94DA1F813031F0E12FFF27E8536A
S11305E0F94F108225C0888199814C819E01BC01FC
S11305F084E00E94E91CE12FFF27813049F4EE0FCB
S1130600FF1FE451F94FE080F180C083D18310C013
S1130610E853F94F108280914C0190914D012FEFD6
S11306208F3F920729F0019690934D0180934C01DE
S1130630C701DF91CF911F91FF90EF9008951F9212
S11306400F920FB60F9211242F933F934F935F9302
S11306506F937F938F939F93AF93BF93EF93FF9386
S11306609FB18091FD038FB9892F0E944F32FF9172
S1130670EF91BF91AF919F918F917F916F915F9116
S11306804F913F912F910F900FBE0F901F9018958F
S11306901F920F920FB60F9211242F933F934F93F3
S11306A05F936F937F938F939F93AF93BF93EF93D6
S11306B0FF935F9B06C08CB140E050E060E00E9475
S11306C05435FF91EF91BF91AF919F918F917F919D
S11306D06F915F914F913F912F910F900FBE0F90AB
S11306E01F90189578941F920F920FB60F921124B1
S11306F02F933F934F935F936F937F938F939F9326
S1130700AF93BF93EF93FF930E942037FF91EF9134
S1130710BF91AF919F918F917F916F915F914F9115
S11307203F912F910F900FBE0F901F901895BC0111
S11307308FB7F894482F55272091B605E22FFF274D
S1130740EE0FFF1FEC56FD4F80819181892B51F4F0
S11307502F5F2F772093B605608371834FBF81E0AD
S113076090E00895809162048F3F19F08F5F809329
S113077062044FBF80E090E00895CDEFD0E1DEBF8A
S1130780CDBFD29AD09AD19AD698A79AA69AA59A6A
S1130790A49AA39AA29AA19AA09A8C9A8F9A8E9AB2
S11307A0BB98BF98D498AA9ADC9AD79ADF98D39A20
S11307B08B9A8D9ADB9ADA9AD89AD99ABC9ABD9A6E
S11307C0BE9ABF9A14981598169817981298D59AA5
S11307D01398C49AC79AA898A99AAD9AAC98DD9A26
S11307E080916400816080936400809164008260E1
S11307F0809364008091640084608093640080919D
S113080065008E7F8093650080916500826080938F
S113081065008091650084608093650083E08C5F4F
S11308208739E8F390E08AE08093FE019093B6055F
S113083090932104909362040E9460050E948F05A6
S11308400E94A9090E94410A0E94A9091092240445
S11308508FB7F89499271092C606D29AD09AD19A53
S1130860DA9AD89AD99A8FBF0E948F050E94A90953
S11308700E94410A0E94A9091092240481E08093F5
S11308800006809301068093020688E080930306A5
S11308900E94600541E050E060E776E082EC9FE072
S11308A00E943C08809170068F3F11F0882319F450
S11308B081E08093700683E00E941B0B1091700608
S11308C083E00E94420BFC01892B11F0111111836A
S11308D082E08093F6058093F7058093F805809372
S11308E0F9058093FA058093FC058093FB0581E06C
S11308F00E941B0B81E08093E7050E94980B0E94E5
S1130900AC0B0E94980B0E94DB0B0E9460051092B6
S1130910B1061092C4011092260710922507109276
S1130920B3061092B20682E08093FD058093FE0523
S113093085E00E941B0B00E010E420E030E040E082
S113094051E064E070E081E00E94180A8093CE01D7
S11309500E94D2090E9460050E94DB0B0E94980B42
S11309608FB7F89499271092290710922A071092AA
S11309702B0710922C0710922D0710922E0710921D
S11309802F07109230078FBF0E94600581E080938B
S1130990FF0584E00E941B0B82E00E941B0B81E098
S11309A08093E2058AE08093E30584E08093E40584
S11309B08093E50588E08093E6050E9460050E9427
S11309C0DF050E94EE0B41E050E0BE01640F751F8D
S11309D08EEF9FE00E943C08898199279C01217039
S11309E0307080FD02C0C9010EC010920C06109236
S11309F0B5051092B4050E945B2187E291E20E9442
S1130A00970381E090E0892B91F541E050E0BE012D
S1130A106E5F7F4F8CEE9FE00E943C088A8199278D
S1130A2087709070069799F082E080933D0189E089
S1130A3080933E0120E031E040E050E061E085E059
S1130A400E94DF0889E993E00E944B230EC082E0F4
S1130A5080933D0181E080933E0120E031E040E05D
S1130A6050E0682F85E00E94DF080E945B237894A1
S1130A708FB7F894482F552790912104E92FFF2729
S1130A80EE0FFF1FEC56FD4F2081318121153105FA
S1130A9019F44FBFF9010BC0108211829F5F9F7739
S1130AA0909321044FBFF9010995E1E0F0E0EE23B2
S1130AB0F9F685B7806285BF889500000000D8CF1D
S1130AC01092FF061092000710920107109202077D
S1130AD01092C9058FEF809328078093BF0110926D
S1130AE0900283E08093CA0596EE909371068FB7C7
S1130AF0F894282F332787B78E7F87BF87B78D7FDA
S1130B0087BF80B7886080BF8BE083BF12BE91BF70
S1130B1087B7826087BF2FBF81E090E008950F936D
S1130B201F93CF93DF930E946005182F0E94DF0567
S1130B30112311F0992702C080E090E01092B106D1
S1130B40882319F081E090E002C080E090E0082F53
S1130B5042E050E067EB75E086ED9FE00E943C08C0
S1130B608091CF0587FD03C082E08093CF0510926A
S1130B705A04109224040E946005182F80E00E94F9
S1130B806C0810922404112319F0C1E0D0E002C0D3
S1130B90C0E0D0E00E94A909CC2311F0992702C03B
S1130BA080E090E0882319F0802F992702C080E02C
S1130BB090E09927DF91CF911F910F9108951F9392
S1130BC0CF93DF930E9460050E9456078FB7F89475
S1130BD099271092D4058FBF8FB7F894282F332705
S1130BE081E090E08093F30182E08093610148E02A
S1130BF04093F6018FE294E09093BD058093BC0589
S1130C001092330482E290E0909378058093770504
S1130C10109242021092750510921C0710921B0745
S1130C2010921C0210921B021092960310929503CC
S1130C30109231071092DD011092C30110927405D5
S1130C408FEF9FEF90930506809304069093070619
S1130C50809306061092970310926104109269061D
S1130C6088E391E090935D0480935C042FBFEFEDE3
S1130C70F1E088E391E081939193415047FFF9CFEC
S1130C808FB7F8949927B998BB98BA986B986A98D3
S1130C906F9A6E9A8FBFD6988C9A8E9A8F9A949ADE
S1130CA0979A969A6AE380E00E949A076BE380E041
S1130CB00E949A0780ED97E0000000000000000009
S1130CC00000000000000000019718161906A4F3A4
S1130CD080E880930904682F8BE00E949A0780E9DA
S1130CE080930B04682F84E00E949A0710920D04ED
S1130CF08FE680930E0485E580930F0460910D04C4
S1130D008FE00E949A0780910E04682F80E10E9470
S1130D109A0780910F04682F81E10E949A0711E0DD
S1130D2010931104612F83E10E949A0710931C040D
S1130D308EEF93E0DC011196ECE0F1E09C01225E81
S1130D403F4F84918D9331962A173B07D4F711E0D6
S1130D50CFEFD3E08991682F812F0E949A071F5FFC
S1130D601D30C0F380911004682F82E10E949A071D
S1130D7060E08BE00E949A076FE382E40E949A0786
S1130D8061E180E00E949A0766EA8EE00E949A0779
S1130D908EE00E94BE0783FFFBCF66E28EE00E94D6
S1130DA09A0761EE80E00E949A0780911B04682FE5
S1130DB089E00E949A0760E08BE00E949A0766EA45
S1130DC08EE00E949A07CEE08C2F0E94BE0783FF1C
S1130DD0FACF66E28C2F0E949A0780E980930B0475
S1130DE0682F8DE00E949A0780911C048093E3068B
S1130DF00E94F1078FB7F89499271092CD068FBF00
S1130E008FB7F894282F33271092280410922704C0
S1130E101092BA051092B90510923807109237074C
S1130E201092C9041092C8048DE791E0A0E0B0E0EC
S1130E308093170790931807A0931907B0931A0784
S1130E402FBF0E94F1078FB7F8949927C6B917B836
S1130E508FBF0E940C080E94600580910001909150
S1130E6001019093F6068093F5061092FA0682E04B
S1130E708093D6058093D7058093D8058093DA05AF
S1130E808093D9058093DB058093DC058093DD0591
S1130E908093DE058093DF058093E0058093E10570
S1130EA081E090E0DF91CF911F9108958FB7F8947E
S1130EB0682F80E090E047E651E09C01F901E80FDB
S1130EC0F91FE156F94F448355831282138211822C
S1130ED001962B5F3F4F455D5F4F8230910574F360
S1130EE01092E20610927B0510927A051092F50199
S1130EF01092F40110926601109265011092BE01E5
S1130F001092BD011092DB0610920D061092E906B4
S1130F10109214021092130210929A0310929903E1
S1130F208091A3069091A4069093C4068093C3066F
S1130F306FBF0895880F949896E087FF02C0979A30
S1130F4001C097989698969A880F915097FFF5CF7D
S1130F50979A9698969A949A97E067FF02C0979A00
S1130F6001C097989698969A660F915097FFF5CF7F
S1130F70949A979A969A81E090E0089590E0880F69
S1130F80949826E030E087FF02C0979A01C09798B2
S1130F909698969A880F2150304037FFF4CF27E077
S1130FA030E097989698969A8F98949A969840E0FD
S1130FB050E0879941E0892F9927215030404423FC
S1130FC029F0880F991F982F916002C0982F990FCC
S1130FD0969A37FFEBCF949A8F9A979A892F9927ED
S1130FE008958FB7F894282F80910802882391F4EC
S1130FF080E090E0EDECF6E0819301968C30910571
S1131000DCF38EE18093D7068FE18093D80681E0EC
S1131010809308022FBF08958FB7F894482F55275F
S1131020209100013091010181E597E3289FB001EF
S1131030299F700D389F700D1124CB018F5A984C45
S11310409093AC068093AB0690933307809332075A
S113105085E89FE0289FB001299F700D389F700D8F
S11310601124CB018B57904F909300028093FF0182
S11310704FBF81E090E00895CF92DF92EF92FF920C
S11310800F931F93CF93DF938A01EC016B01840FBD
S1131090951F8150904118F080E090E014C0EE2438
S11310A0FF24E416F50668F4CE010E940246F60118
S11310B081936F0121960894E11CF11CE016F1065E
S11310C098F381E090E0DF91CF911F910F91FF9011
S11310D0EF90DF90CF900895CF93C82F2091C00157
S11310E0281709F44BC0222309F448C099278330F8
S11310F09105A1F18430910524F4029708F03EC0D3
S113110003C0059759F13AC0223011F0243019F484
S113111080E00E94C208C13089F580915A04882376
S113112069F18091CF0587FD03C082E08093CF05EC
S1131130C0935A0481E090E00090AC0502C0880F8F
S1131140991F0A94E2F7AA2797FDA095BA2F9C014C
S1131150AD016C2F80E00E94DF0810C080915A041A
S1131160882361F092E08091CF0587FD02C09093BF
S1131170CF0590935A0480E00E946109C093C00196
S1131180CF910895982F823018F020E030E015C0F8
S1131190869586958695E82FFF27EF54F94F97702B
S11311A021E030E0A90102C0440F551F9A95E2F7EF
S11311B0942F9095808189238083C9010895EF92AB
S11311C0FF920F931F93CF93DF93962F79018A0198
S11311D08E3050F4623044F4662349F423E0E2167E
S11311E0F1040105110518F480E090E051C0682F66
S11311F07727FB0153E0EE0FFF1F5A95E1F7E60F47
S1131200F71FE553FB4FE182F2820383148390833B
S11312108FB7F894C82FDD2782B7E80EF11C011DA3
S1131220111DE582F6820783108721E030E040E05B
S113123050E004C0220F331F441F551F6A95D2F794
S11312408091FF0690910007A0910107B0910207D9
S1131250822B932BA42BB52B8093FF06909300072E
S1131260A0930107B0930207809171069927AA27DA
S1131270BB27E816F9060A071B0738F4E092710643
S1131280E1BE1092C9050E944F09CFBF81E090E0F2
S1131290DF91CF911F910F91FF90EF90089580916E
S11312A01901882329F483EE98E30E94970306C06A
S11312B085B7837E85BF85B7806285BF80E090E077
S11312C00895CF93DF938E3008F03EC041E050E0A4
S11312D060E070E004C0440F551F661F771F8A95B5
S11312E0D2F7C091FF06D0910007E0910107F09179
S11312F00207CE01DF0184239523A623B723009799
S1131300A105B10509F18FB7F894282F3327DB0124
S1131310CA0180959095A095B0958C239D23AE230A
S1131320BF238093FF0690930007A0930107B09317
S113133002072FBF0097A105B10519F481E080933E
S1131340C90581E090E002C080E090E0DF91CF9198
S113135008950F931F93CF930E94D209C82F81E061
S113136090E08093CA0662E080E00E94040AAA2703
S1131370BB27BA2FA92F982F88278C019D0140E005
S113138050E060E070E080E00E94180A882319F0C1
S11313908C2F992702C080E090E09927CF911F916C
S11313A00F9108951092440210923D02109201028E
S11313B081E08093D50580E098E09093F5038093D5
S11313C0F4039093F2038093F1038091F6039091D8
S11313D0F30382609260827E8093F603927E909300
S11313E0F303D39ADB9A95988D9A939A8B9A929851
S11313F08A9889B78B7F89BF80916A0080638093C4
S11314006A0081E090E008956E3F19F480E090E076
S11314100895262F332780E891E0289FA001299F73
S1131420500D389F500D1124CA018F5F9E4F0895AF
S11314300F931F939AE0899FF0011124ED5FF84FF9
S11314408091F406882339F401151105210531052D
S113145011F0442319F080E090E010C040835183E0
S113146062837383400F511F621F731F448355832C
S113147066837783E087F18781E090E01F910F9185
S11314800895CF93DF93CDB7DEB726970FB6F894C0
S1131490DEBF0FBECDBF42E050E0BE016F5F7F4FA5
S11314A084EF9FE00E943C0842E050E0BE016D5F83
S11314B07F4F80ED9FE00E943C0841E050E0BE0178
S11314C06B5F7F4F82ED9FE00E943C0841E050E05B
S11314D0BE016A5F7F4F84ED9FE00E943C082B8130
S11314E03C814D81842F820F80959E81891759F408
S11314F0409318018FB7F8949927309301012093F2
S113150000018FBF02C00E94B00A89819A812FEF27
S11315108F3F920711F48FEF16C0009719F48EEFE6
S113152090E011C0AA27BB2781509140A040B04051
S1131530BC01CD0120E831E040E050E00E945E466D
S1131540DA01C90199278093E40681E090E02696A8
S11315500FB6F894DEBF0FBECDBFDF91CF910895D3
S11315600F931F93CF93DF93CDB7DEB721970FB6B9
S1131570F894DEBF0FBECDBF8091000190910101B0
S113158020911801280F2095298301E010E0A8017B
S113159068E171E082ED9FE00E94E90A42E050E0D8
S11315A060E071E080ED9FE00E94E90AA801BE01BD
S11315B0600F711F84ED9FE00E94E90A21960FB627
S11315C0F894DEBF0FBECDBFDF91CF911F910F9175
S11315D00895CF92DF92EF92FF920F931F93CF93D0
S11315E0DF938A01EC016B01840F951F81509041B8
S11315F018F080E090E016C0EE24FF24E416F5060F
S113160068F4F60161916F01CE010E940A462196A9
S11316100894E11CF11CE016F10698F3E199FECF61
S113162081E090E0DF91CF911F910F91FF90EF90B7
S1131630DF90CF900895CF93C82F0E94420B892B3F
S113164019F01CC0F9010FC090E027E432E0F90161
S1131650808138968823B1F39F5F285F3F4F99308C
S1131660B8F3E0E0F0E0309711F4CF0109C0C08393
S113167081E081831282CF010E94520B81E090E0CD
S1131680CF910895282F90E0E7E4F2E0808182175B
S113169011F4CF0108959F5F38969930B8F380E034
S11316A090E00895CF93DF93EC0181E090E00A800D
S11316B002C0880F991F0A94E2F78D839E830497D2
S11316C018F41B821C820BC00E94750B2D813E8175
S11316D036952795B9010E944A468B839C838F8156
S11316E082708F83DF91CF9108958FB7F894482F3C
S11316F055272091AB063091AC06832F881F88278D
S1131700881F220F331F882321F08BE090E12827C4
S113171039272F5F3F4F3093AC062093AB0680915F
S1131720FF0190910002282739274FBFC90108956E
S11317300F931F931092B1060E94DF05082F112703
S11317400E946005002311F0992702C080E090E018
S113175099271F910F9108958FEF9FEF90933A0768
S1131760809339078FEF9FE79093BD068093BC0663
S11317708FEF90E090935F0480935E048FE790E096
S1131780909366068093650682E08093ED058093CE
S1131790EE058093EF058093F0058093F10591E0C9
S11317A09093F2058093F3058093F4058093F505F7
S11317B081E090E008950E9402020E94DF0582E029
S11317C08093E8058093E9058093EA058093EB050F
S11317D08093EC050E94AC0B992708956F927F9239
S11317E08F929F92BF92CF92DF92EF92FF920F93CC
S11317F01F93CF93DF938091F406882309F047C1A8
S1131800B82ECC24DD24C3E0D7E088859985892BC4
S113181009F489C068EF76E020E030E040E050E071
S11318208091F8069091F906892B99F1DB01ED91ED
S1131830FC91E080F1800281138188819981AA81E1
S1131840BB8182179307A407B50798F08E159F05EF
S1131850A007B10770F48C819D81AE81BF8182178E
S11318609307A407B50728F0E816F9060A071B072B
S1131870A8F5248135814681578121503F4F4F4F30
S11318805F4F2070BF01685F7F4F80859185892BF2
S113189069F688819981AA81BB8182179307A4077D
S11318A0B50720F180509040A840B040F8F48C81F6
S11318B09D81AE81BF8182179307A407B507B0F05D
S11318C081509040A840B04088F4DB018D919C91F8
S11318D0119788879987CD93DC9305C0E887F987AA
S11318E0FB01C083D18321E030E00AC01C821D8249
S11318F01E821F82188219821A821B8220E030E025
S1131900C114D10429F0F1E0CF16D10431F00BC099
S1131910213049F41092CA0606C0222321F086E938
S11319209CE30E949703B3942A960894C11CD11C8B
S113193021E02B1508F069CFBB24CC24DD2403E07F
S113194017E0F80180819181A281B3818F5F9F4F5D
S1131950AF4FBF4F09F08FC0B8EFEB2EB6E0FB2EB0
S113196020E030E040E050E08091F8069091F906E4
S1131970892B49F1D7016D917C91FB018081918183
S1131980A281B381821B930BA40BB50BF801648075
S113199075808680978086159705A805B905C0F5DA
S11319A0FB01248135814681578121503F4F4F4FA0
S11319B05F4F2070A8E0EA2EF12CE60EF71E80851A
S11319C09185892BB9F680E090E0A8E0B0E0821B15
S11319D0930BA40BB50BF801648075808680978007
S11319E086159705A805B90540F120833183428304
S11319F05383260D371D481D591D24833583468383
S1131A005783D7018D919C9111978087918710C03E
S1131A10F8012083318342835383260D371D481DEB
S1131A20591D248335834683578360877187D70183
S1131A300D931C9321E030E00BC0F8011482158251
S1131A4016821782108211821282138220E030E003
S1131A50C114D10429F0B1E0CB16D10431F00BC08C
S1131A60213049F41092CA0606C0222321F086E9E7
S1131A709CE30E949703B394065F1F4F0894C11C14
S1131A80D11CE1E0EB1508F05CCFE093F40681E0B3
S1131A9090E0DF91CF911F910F91FF90EF90DF9035
S1131AA0CF90BF909F908F907F906F9008950F93E9
S1131AB01F93182F8091AE06882319F0E0E0F0E020
S1131AC006C010936C06812F0E94C60DFC0130974E
S1131AD011F4CF0158C085E08093AE0680819181D6
S1131AE0A281B381892F9A2FAB2FBB278093B40691
S1131AF09093B506A093B606B093B70684819581FA
S1131B00A681B7810197A109B109892F9A2FAB2F1B
S1131B10BB278093170290931802A0931902B093E5
S1131B201A02E12FFF27EE0FFF1FEE0FFF1FE75FE3
S1131B30FD4F81E090E0A0E0B0E080839183A28338
S1131B40B383609117027091180280915B0488231B
S1131B5019F080E090E005C082E080935B0481E0AE
S1131B6090E0009741F000E010E09801A80184E0C3
S1131B700E9411109927882321F48EE99CE30E9486
S1131B80970381E090E01F910F910895682F809151
S1131B90F4068823E9F06230D8F4862F9927FC01F3
S1131BA033E0EE0FFF1F3A95E1F7E80FF91FE80F56
S1131BB0F91FED5FF84F2081318142815381848187
S1131BC09581A681B781281739074A075B0719F45D
S1131BD080E090E008958AE0689FC00111248D5F41
S1131BE0984F0895CF92DF92EF92FF920F931F9335
S1131BF0CF93DF93CDB7DEB722970FB6F894DEBF4D
S1131C000FBECDBF182F8091AE061092AE06992755
S1131C108330910509F46DC0843091050CF08FC0B8
S1131C20019709F08CC080916C06813009F087C05F
S1131C30AE014F5F5F4F69E376E085E00E94AE0E30
S1131C406C018091BE06882309F479C08091AD06A9
S1131C5099278130910519F0029731F170C0809174
S1131C60B2069091B3060996AC0166277727F60170
S1131C7080859927AA27BB277C018D0189E090E004
S1131C80C80ED91E960181E00E94B60E082F1127B6
S1131C90002321F082E00E94042051C0802F0E9482
S1131CA004200093BE0621C01123D1F0F6018085E3
S1131CB099270996AC0169E376E085E00E94FE224B
S1131CC0882371F0F60120858091B2069091B306C5
S1131CD0820F911D09969093B3068093B2062FC08C
S1131CE080E00E9404201092BE0681E00E94C20897
S1131CF026C01123F1F080916C06E82FFF27EE0F28
S1131D00FF1FEE0FFF1FE75FFD4F80819181A281CE
S1131D10B3812091FB063091FC064091FD06509161
S1131D20FE06820F931FA41FB51F80839183A28395
S1131D30B38380916C06813011F41092C401229611
S1131D400FB6F894DEBF0FBECDBFDF91CF911F91C8
S1131D500F91FF90EF90DF90CF900895CB01FA019F
S1131D6027E130E0208331830B9608954F925F92F0
S1131D706F927F928F929F92AF92BF92CF92DF9297
S1131D80EF92FF920F931F93CF93DF93982F5A01F3
S1131D906B012901370148018091AE06882319F0AF
S1131DA0A0E0B0E006C090936C06892F0E94C60D97
S1131DB0DC01109711F4CD015DC00D911D912D91A1
S1131DC03C911397B901A8014A0D5B1D6C1D7D1D43
S1131DD04093B4065093B5066093B6067093B70665
S1131DE05A016B01A60CB71CC81CD91CA09217027F
S1131DF0B0921802C0921902D0921A0240175107E9
S1131E0062077307A8F014968D919D910D90BC9173
S1131E10A02D481759076A077B0750F40A151B05BC
S1131E202C053D0528F48A159B05AC05BD0518F461
S1131E3080E090E01FC020E0A816B906CA06DB06C1
S1131E4009F421E0209343026092FB067092FC06A1
S1131E508092FD069092FE06509212024092110268
S1131E601092E5061092E6061092E7061092E80634
S1131E7081E090E0882319F480E090E007C081E0DD
S1131E808093AE060E94570F81E090E0DF91CF91DE
S1131E901F910F91FF90EF90DF90CF90BF90AF9084
S1131EA09F908F907F906F905F904F900895EF92E6
S1131EB0FF920F931F93CF93DF93E090B406F090BB
S1131EC0B5060091B6061091B706BB27A12F902F37
S1131ED08F2DBC01209117023091180240911902F4
S1131EE050911A02BB27A52F942F832FE216F306D5
S1131EF00407150729F48AE99CE30E9497038AC022
S1131F002091B4063091B506A9015070681779077D
S1131F1039F4C0911702D0911802C21BD30B04C02C
S1131F20C0E0D1E0C41BD50B8091AE06E82FFF279B
S1131F30E130F10539F0E130F1050CF440C034979B
S1131F40F4F51AC020911102309112028091E50635
S1131F509091E606280F391F80915B04882319F0BD
S1131F6080E090E004C082E080935B04CF0100979E
S1131F7001F18E0181E01AC0209111023091120208
S1131F808091E5069091E606280F391F80915B0445
S1131F90882319F080E090E005C082E080935B0420
S1131FA081E090E0009729F08E0183E00E941110F7
S1131FB09927882321F48EE99CE30E949703CE019C
S1131FC0AA27BB272091E5063091E6064091E70653
S1131FD05091E806280F391F4A1F5B1F2093E5061E
S1131FE03093E6064093E7065093E8062091B40642
S1131FF03091B5064091B6065091B706280F391FA7
S11320004A1F5B1F2093B4063093B5064093B6066F
S11320105093B706DF91CF911F910F91FF90EF90EE
S113202008950F931F93E82F88E06030780790F4A9
S1132030F1E048305F0770F481E00930180750F48C
S1132040CA01800F911F8950914020F4809144026D
S1132050882319F080E090E03CC0E0934402E091D2
S11320606B06EE2329F08CEF97E30E9497032FC0B1
S11320703093260420932504109363010093620196
S11320807093F8016093F701509335074093340738
S11320908091F1039091F2036817790719F4E093A2
S11320A0DE0113C08091F4039091F503681779075A
S11320B021F481E08093DE0108C09E2F8091DE012F
S11320C0882309F491E09093DE010E945D1781E07A
S11320D090E01F910F910895CF92DF92EF92FF92BB
S11320E00F931F93CF93282F8091440210924402A0
S11320F099278430910509F481C1853091055CF4F8
S11321008230910509F480C0833091050CF07FC0C2
S1132110019749F0C4C1873091050CF424C1099793
S11321200CF0BDC143C180915B0410925B048150EB
S11321309927009721F0019709F462C0B0C12223C6
S113214009F431C18091CA0699278730910509F4B1
S113215035C08830910524F4029709F41FC149C0A1
S11321608830910521F0099709F043C017C1C0E0F8
S11321701DC02091C7013091C801E091C501F091C3
S1132180C601E00FF11F8081E5ECF1E08327880FA1
S1132190F11DE80FF11DC895322F202D3196C895F9
S11321A030253093C8012093C701CF5F0C2F11272E
S11321B00E94E81608171907E0F21BC0E091C50158
S11321C0F091C6018081282F33274091C701509197
S11321D0C801CA0190702817390709F0E4C0818149
S11321E0282F3327852F99272817390709F4D8C0B2
S11321F0DAC081E00E94D315882309F050C1D3C00E
S1132200222309F00FC108C110925B0448C18091D8
S11322105B0410925B0481509927009719F0019791
S113222081F13DC1222309F4BEC08091CA069927D9
S113223085309105F9F0863091051CF4049721F05E
S11322402EC10A9709F02BC180915B04882319F0F1
S113225080E090E005C08F5F80935B0481E090E0B4
S1132260009721F086E00E9424179927882309F01B
S113227016C199C081E00E94D315882309F00FC1CB
S113228092C0222309F4C8C08091AE06833009F0BD
S1132290C9C08091B406882309F0C4C08091430268
S11322A08823B1F02091B4063091B5064091B6066A
S11322B05091B7068091170290911802A0911902CB
S11322C0B0911A02281739074A075B0709F4AAC014
S11322D08091B4069091B506A091B606B091B70668
S11322E0892F9A2FAB2FBB279C012150304082E0CD
S11322F080935B0487E08093440240916B064423FF
S113230019F08CEF97E317C08091F1039091F203D9
S11323108217930719F44093DE0110C08091F403EF
S11323209091F5038217930721F481E08093DE01F5
S113233005C088EF97E30E9497030FC08091DE01E8
S11323409927FC01EE0FFF1FE80FF91FED50FC4F1A
S11323508081877E80830E945D1781E090E0892BD5
S113236009F09DC098C080915B0410925B04815079
S11323709927009721F0019709F44EC090C08091ED
S1132380CA0699278630910549F0873091051CF4D7
S1132390049721F084C00A9709F081C0213019F410
S11323A080EF97E37AC084EF97E377C080915B0472
S11323B010925B0481509927009709F470C001972B
S11323C009F06DC08091B4069091B506A091B6064F
S11323D0B091B706C92EDA2EEB2EFF2482E080934B
S11323E05B0400E010E0980142E050E0B60184E0B4
S11323F00E941110882309F052C04DC080915B04E3
S113240010925B0481509927009709F448C0019702
S113241009F045C0222311F4822F1DC08091AE061D
S1132420833019F40E94570F3AC08091B4069091FA
S1132430B506A091B606B091B70620911702309167
S113244018024091190250911A0282179307A407A7
S1132450B50721F481E00E94F20D21C021503040E3
S113246040405040209317023093180240931902C1
S113247050931A02809117029091180222E020933F
S11324805B0400E010E09801A801BC0184E00E9414
S11324901110882321F48EE99CE30E949703CF91C5
S11324A01F910F91FF90EF90DF90CF9008958F923E
S11324B09F92AF92BF92CF92DF92EF92FF920F93CF
S11324C01F93CF93DF93CDB7DEB725970FB6F8945C
S11324D0DEBF0FBECDBFD82E8091CA061092CA06A9
S11324E099278630910509F476C08730910594F4D4
S11324F08330910509F442C1843091051CF402979C
S1132500A9F0F6C18430910509F461C0059709F476
S113251066C1EEC18930910509F430C18930910555
S11325200CF4D7C00A9709F45AC1E2C120E030E0A4
S1132530A2E001EC15E0F80181918F0145EC51E036
S1132540FA018327880FF11DE80FF11DC895722F3A
S1132550602D3196C89570259B01AF5FAA3058F362
S11325608091BF059091C0058617970771F1A0E08F
S1132570EFEBF5E08FEF9FEF828393831582148254
S1132580AF5F3496A230B0F3A2E01092C00510926F
S1132590BF0561EC75E02091BF053091C005FB01DA
S11325A08191BF01FA018327880FF11DE80FF11D06
S11325B0C895322F202D3196C89530253093C0050B
S11325C02093BF05AF5FAA3030F30E948B148D2D8A
S11325D00E94A1148DC18091BB06E82EFF24F1E076
S11325E0EF16F10409F44BC042E0E416F1040CF0D8
S11325F07FC1E114F10409F07BC1DD2009F40BC1B2
S11326008E010F5F1F4F41E050E0B8018EEF9FE055
S11326100E943C0889818E7F898341E050E0B801A3
S11326208EEF9FE00E94E90A85E0898341E050E053
S1132630B80181EF9FE00E94E90AEA82FB8242E04E
S113264050E0BE01640F751F82EF9FE00E94E90A0B
S11326508FB7F89408E110E080E00FB6F894A895DD
S113266001BD0FBE81BD0E94B00A0E94151B89E006
S11326700FB6F894A89501BD0FBE81BDFFCF809120
S11326807905882E9924209127079091680688E17E
S1132690989F8001112403581A4F822F9927AA2743
S11326A0BB27BC01CD012EE434E040E050E00E94A1
S11326B02B46DC01CB0159016A0178018C019D0193
S11326C0482D61E088E00E949315882309F010C129
S11326D00BC18091BB06813009F00AC181E0D81694
S11326E049F580912404813029F5E0917905EF3F83
S11326F009F1FF27EE0FFF1FEE0FFF1FE154FA4F02
S113270085818F5F85830E948B14E0917905EF3F6B
S113271051F0FF27EE0FFF1FEE0FFF1FE154FA4F9A
S11327208581837039F483E0809324048BE49BE1F6
S11327300E9497032FEF30E0EDE1F7E085E090E0B1
S1132740219301974FEF8F3F9407D1F78091C001F8
S1132750882319F081E00E946C0881E0D81609F002
S1132760C7C01092600482E08093640180915A048F
S1132770813009F0BDC00E947F15BAC08091BB06AC
S1132780813009F0B5C08091C001823009F0B0C039
S1132790E1E0DE1601F5809117068F3231F480E313
S11327A0809317060E94A11BA3C0803319F48FE203
S11327B08093170683E196E09C01255030404CE15C
S11327C06FEF7FEF83EA0E94E91C882309F090C031
S11327D08CE790E28BC081E00E946C0889C08091F4
S11327E0BB06992781309105B9F1823091050CF02F
S11327F07FC0892B09F07CC0DD2059F18091B4059C
S11328009091B50501969093B5058093B405809198
S11328100C06882319F082EF9AE168C08091B40510
S11328209FB7F89487708093C60681FF02C0D99839
S113283001C0D99A8091C60682FF02C0D89801C00F
S1132840D89A80FF02C0DA9801C0DA9A9FBF0E942A
S11328505B2187E291E24AC0DD20A1F08091680605
S1132860282F332788E190E0289FF001299FF00D5D
S1132870389FF00D1124E458FA4F80818F3229F4E7
S11328808F5F80838FE890E231C04091C706442374
S113289061F02F5F3F4FC9012E7F3370821B930B72
S11328A08093680641504093C7068091C7068823E9
S11328B049F720E330E04DE157E060E070E0CE01FD
S11328C004960E94A61C482F5527442389F4AA2461
S11328D0BB246501EE24FF249601850161E086E0B6
S11328E00E949315882321F48FEC9AE10E949703A8
S11328F025960FB6F894DEBF0FBECDBFDF91CF9102
S11329001F910F91FF90EF90DF90CF90BF90AF9009
S11329109F908F90089520E0EFEBF5E084819581FE
S1132920891729F0209379059093270708952F5F3D
S11329303496223098F38FEF80937905809327079C
S11329400895CF939091240481E080932404892FE7
S113295099278330910511F1843091051CF4029775
S113296021F04BC00497E9F048C080915A048823B1
S113297089F00E94011580912404882339F482E0AF
S1132980809324048FEB95E00E9417150E94EE0BB0
S11329900E94491581E0882349F52BC081E090E02D
S11329A02EC021E030E0C22F80915A048823E1F048
S11329B08091CF0587FD03C082E08093CF052093EB
S11329C05A04109260040E947F150E9401158091A0
S11329D02404882339F482E0809324048FEB95E067
S11329E00E9417150E94EE0BCC2319F081E090E0B1
S11329F002C080E090E0992702C080E090E0CF918F
S1132A0008951092C706109268062FEF30E0EDE1AA
S1132A10F7E085E090E0219301974FEF8F3F940713
S1132A20D1F781E00E946C0881E090E008950F9353
S1132A301F939C018091CA06882319F582E0809334
S1132A40CA0680915B04882319F040E050E005C079
S1132A508F5F80935B0441E050E04115510511F410
S1132A60CA010AC00AE010E040E050E060E071E012
S1132A7081E00E94111099279927882329F48093D3
S1132A80CA0680E090E002C081E090E01F910F91BF
S1132A900895EF92FF920F931F9380E00E946109C3
S1132AA081E090E00090AC0502C0880F991F0A9461
S1132AB0E2F77C010027F7FC0095102F0E94750BAC
S1132AC0AA27BB270894E108F108010911098E21FE
S1132AD09F21A023B1230894E11CF11C011D111DA9
S1132AE0E80EF91E0A1F1B1FA801970161E080E090
S1132AF00E94DF081F910F91FF90EF90089580E0EE
S1132B000E9461090E94750BAA27BB279370A070CD
S1132B10B0704096A11DB11D9C01AD0161E080E043
S1132B200E94DF080895AF92BF92CF92DF92EF9296
S1132B30FF920F931F93982F8091CA06882329F53B
S1132B40423010F04E3F09F56093BB064093C90133
S1132B50F092C601E092C5010093DC061093DD06F5
S1132B602093DE063093DF06B092BA06A092B9062F
S1132B701092C8011092C7019093CA0680E00E9487
S1132B80D315882329F48093CA0680E090E002C01C
S1132B9081E090E01F910F91FF90EF90DF90CF9034
S1132BA0BF90AF900895BF92CF92DF92EF92FF92C1
S1132BB00F931F93CF93DF93182F0E94E816BC0145
S1132BC0BB24112309F43FC08091B9069091BA0641
S1132BD0E091CA066817790768F0E83021F487E0C5
S1132BE08093CA0630C080EF97E30E94970381E088
S1132BF090E0E4C0861B970B9093BA068093B906C5
S1132C009B01442755278091DC069091DD06A09115
S1132C10DE06B091DF06820F931FA41FB51F8093B9
S1132C20DC069093DD06A093DE06B093DF06E83061
S1132C3051F08091C5019091C601860F971F909322
S1132C40C6018093C5016091C9018091BB060E94B1
S1132C50040AEC018091DC069091DD06A091DE0669
S1132C60B091DF06292F3A2F4B2F5527C20FD31FC0
S1132C703FEFE32EF12C012D112DE822F9220A2336
S1132C801B2367018091CA0699278730910589F132
S1132C90883091055CF48530910509F444C0863090
S1132CA091050CF076C0039759F086C089309105E0
S1132CB001F18930910524F00A9709F44FC07CC0D2
S1132CC0E090C501F090C6010E94E8168C012091A5
S1132CD05B04222319F020E030E005C02F5F20932D
S1132CE05B0421E030E02115310599F19701A6013B
S1132CF017C02091C5013091C60180915B048823DF
S1132D0019F080E090E005C08F5F80935B0481E060
S1132D1090E0009709F44FC002E010E040E051E079
S1132D20BE0181E033C0C090C501D090C6010E94AD
S1132D30E816A70120915B04222319F020E030E07B
S1132D4005C02F5F20935B0421E030E0211531059D
S1132D5011F4C90130C08C01960116C02091C5013F
S1132D603091C60180915B04882319F080E090E0E3
S1132D7005C08F5F80935B0481E090E00097D9F0F9
S1132D8002E010E040E051E0BE0183E00E94111037
S1132D9011C080915B04882319F080E090E005C0A5
S1132DA08F5F80935B0481E090E0009721F086E0E0
S1132DB00E9424179927B82E8B2D9927DF91CF9144
S1132DC01F910F91FF90EF90DF90CF90BF900895E7
S1132DD0EF92FF920F931F938091DC069091DD0692
S1132DE0A091DE06B091DF069070A070B070FC0177
S1132DF06091B9067091BA067B01002711279C01E6
S1132E004427552780E091E0A0E0B0E0821B930BBB
S1132E10A40BB50BE816F9060A071B0710F49B016F
S1132E2004C020E031E02E1B3F0B8091CA0688309D
S1132E3029F42831310510F027E130E0C9011F9150
S1132E400F91FF90EF900895982F8091440288236A
S1132E5019F080E090E008959093440280916B060D
S1132E60882319F08CEF97E313C08091F303982F14
S1132E70927081FD03C09093DE010FC08091F60330
S1132E8081FD04C081E08093DE0107C088EF97E3F1
S1132E900E94970381E090E008958091DE019927D4
S1132EA0FC01EE0FFF1FE80FF91FED50FC4F80816E
S1132EB0877E80830E945D17EDCF0F931F9340910F
S1132EC0DE01842F9927FC01EE0FFF1FE80FF91F85
S1132ED0DF01AF50BC4F2091F7013091F8018D9183
S1132EE09C9111972817390709F0E8C050914402C2
S1132EF0852F992784309105B1F08530910564F4CC
S1132F008230910509F488C0833091050CF0A5C086
S1132F10019709F458C0FCC08730910574F10997F2
S1132F200CF0F6C035C0809134079091350781309C
S1132F30910599F08130910518F0029749F0E8C0A5
S1132F4086E08093C70400E010E040E061E8DDC063
S1132F50ED50FC4F808184608083842F9927FC018D
S1132F60EE0FFF1FE80FF91FED50FC4F80818260C8
S1132F70808381E00E946C10CBC0ED50FC4F8081B7
S1132F8081FF06C0869586958695837009F0A3C057
S1132F90842F9927FC01EE0FFF1FE80FF91FED5056
S1132FA0FC4F808181FF8FC0573011F0553029F4D8
S1132FB088EF97E30E949703ABC010924402852FD9
S1132FC00E942417A5C08091250490912604909313
S1132FD0E1068093E00680916201909163019093F1
S1132FE046028093450281E08093C704442311F094
S1132FF064ED01C066ED2091340730913507842FCC
S11330009927FC01EE0FFF1FE80FF91FED50FC4F4D
S11330108081817089011DC080916201909163015A
S1133020909346028093450282E08093C704442330
S113303011F064ED01C066ED842F9927FC01EE0FB9
S1133040FF1FE80FF91FED50FC4F8081817000E0F5
S113305010E020E030E042E059C0809125049091D6
S113306026049093E1068093E0068091620190919A
S11330706301909346028093450283E08093C704E2
S1133080ED50FC4F8081857E8083442311F064E8F9
S113309001C067E82091340730913507842F9927C0
S11330A0FC01EE0FFF1FE80FF91FED50FC4F80816C
S11330B08170890120E030E040E028C0ED50FC4FF1
S11330C0808181FD03C00E94A21A22C08695869544
S11330D08695837021F0842F0E941A1A19C080915A
S11330E04402843019F42D933C93E9CE85E0809317
S11330F0C704442311F063E501C065E500E010E076
S11331002091F7013091F80140E081E00E948B1892
S11331101F910F9108950F931F93782F862F642F7B
S11331208093CB05C901880F892F881F990B91952E
S11331308093CC05220F812F9927282B2093CD052E
S11331400093CE056C5F60938F02772339F08091F2
S1133150D505882319F00E94B31802C00E943B1AB7
S11331601F910F91089581E0809301029598DB9857
S113317087ED0E94F6188FB7F894282F84E088BF53
S113318089B7846089BF959882E090E000000000D0
S11331900000000000000000000000000197181665
S11331A01906A4F3829B05C089B78B7F89BF80E091
S11331B001C081E02FBF8823C1F48091C704883007
S11331C061F4959A95980000000080E090E082995F
S11331D002C081E090E08093670681E080933D0225
S11331E0DB9A80E098E30E9497030895982F80E08B
S11331F02FB7F894422F552722B3277D22BB97FD82
S1133200939A959A8299806822BB96FD939A959A8F
S11332108299806422BB95FD939A959A82998062E3
S113322022BB94FD939A959A8299806122BB93FD67
S1133230939A959A8299886022BB92FD939A959A63
S11332408299846022BB91FD939A959A82998260B7
S113325022BB90FD939A959A829981604FBF9927DA
S11332600895809101022091C704882309F44AC07B
S11332709091F603892F8E7F8093F6033091F303A8
S1133280832F8E7F8093F3031092D5051092010251
S1133290283039F5209167068091FD01222359F0E9
S11332A09927FC01EE0FFF1FE80FF91FED50FC4FAB
S11332B08081877E9FC09927FC01EE0FFF1FE80FD6
S11332C0F91FED50FC4F9081892F86958695869540
S11332D08370823010F49D7F4BC081E080936B0635
S11332E026C0387111F4987151F02750223038F00B
S11332F080E0332309F481E00E941A1A08950E94A1
S11333003B1A0895822F992784309105B1F08530B6
S113331091051CF401975CF00CC08630910509F40A
S11333206BC0863091050CF44BC0079729F180E0FF
S113333001C081E00E946C10089581E08093D5055E
S11333408091DE019927FC01EE0FFF1FE80FF91FA2
S1133350ED50FC4F90819360892F869586958695D4
S113336083708F5F8370880F880F880F937E982BEC
S113337090830E945D17089588E08093C70481E0DC
S11333808093D5058091FD019927FC01EE0FFF1F65
S1133390E80FF91FED50FC4F8081816080838AE043
S11333A090E00000000000000000000000000000A9
S11333B00000019718161906A4F30E94B318089583
S11333C081E08093D5058091DE0199279C01220F2D
S11333D0331F280F391FF901EF50FC4F8091F7017B
S11333E09091F80180839183F901ED50FC4F808125
S11333F083608B7F8083BDCF41E04093D50580916E
S1133400DE0199279C0102C0220F331F4A95E2F77F
S1133410280F391FF901EF50FC4F8091F70190916B
S1133420F80180839183F901ED50FC4F808186601F
S113343080837FCF0F931F93282F87E08093C70447
S11334402093FD01822F9927FC01EE0FFF1FE80F47
S1133450F91FEF50FC4F222311F060E601C061E632
S113346000E010E02081318140E081E00E948B186F
S11334701F910F910895CF92DF92EF92FF920F93D5
S11334801F93CF93DF9390E0C92E0BEC15E080914E
S11334908F02C82FDD27EE24FF24D92E9598DB98C0
S11334A082E0D816A9F4E5ECF1E09F25990FF11D0F
S11334B0E90FF11DC8953E2D202D3196C895302574
S11334C07901219749F530939E0620939D0629C0E2
S11334D0DD2081F4F801C1908F012197E9F4D090A7
S11334E0C7040091E0061091E106C0914502D09115
S11334F0460212C0F1E0DF1631F4F80191938F0116
S1133500219751F40EC0F3E0DF1659F4209749F0E7
S1133510F801C1908F0121978C2D0E94F618982FE5
S1133520BFCF81E080933D02DB9A80E098E30E9464
S11335309703DF91CF911F910F91FF90EF90DF9050
S1133540CF9008950F931F9384E08093C704409114
S1133550DE01242F3327C901880F991F820F931F7F
S1133560DC01AF50BC4FFC01ED50FC4F808182FF69
S113357006C0442311F068E807C069E805C0442385
S113358011F063E801C066E800E010E02D913C9181
S113359040E081E00E948B181F910F910895AF9233
S11335A0BF92CF92DF92EF92FF920F931F93AA24C0
S11335B0BB246501EE24FF249601850140E061E00F
S11335C086E00E949315882321F48FEC9AE10E94EF
S11335D097031F910F91FF90EF90DF90CF90BF90D2
S11335E0AF900895AF92BF92CF92DF92EF92FF9285
S11335F00F931F93AA24BB246501EE24FF24960194
S1133600850140E0642F86E00E949315882321F40D
S113361082EF9AE10E9497031F910F91FF90EF9020
S1133620DF90CF90BF90AF900895CF92DF92EF924A
S1133630FF920F931F93CF93DF93CDB7DEB72197FC
S11336400FB6F894DEBF0FBECDBF6EEFC62E6FE08F
S1133650D62E7E010894E11CF11C01E010E0A801C3
S1133660B701C6010E943C08898182608983A80150
S1133670B701C6010E94E90A21960FB6F894DEBF8D
S11336800FBECDBFDF91CF911F910F91FF90EF90AF
S1133690DF90CF9008950F931F9392E01092C0058E
S11336A01092BF05A1ECB5E02091BF053091C00593
S11336B08D91E5ECF1E08327880FF11DE80FF11DF2
S11336C0C895322F202D3196C89530253093C005EA
S11336D02093BF059F5F9A3038F38091CA068823F0
S11336E011F584E08093CA0680915B04882319F065
S11336F080E090E005C08F5F80935B0481E090E000
S1133700009761F00AE010E02FEB35E040E050E074
S113371060E071E083E00E941110992799278823C3
S113372029F48093CA0680E090E002C081E090E032
S1133730892B21F48BE49BE10E9497031F910F9145
S113374008956F927F928F929F92AF92BF92CF9281
S1133750DF92EF92FF920F931F93CF93DF93CDB736
S1133760DEB722970FB6F894DEBF0FBECDBF90919F
S1133770C001892F8250823008F0ACC0933009F523
S113378080E00E947F1C882309F4A0C082E00E948C
S11337906C0820915D01E22FFF27EE0FFF1FEE0F53
S11337A0FF1FE154FA4F8281938190931406809312
S11337B013062093150680915E01809316061092DD
S11337C0170680911706803308F05AC08E010F5FE8
S11337D01F4F992720E330E049E254E0BC01C801BF
S11337E00E94A61C882379F420E330E049E254E0E7
S11337F060E070E0C8010E94A61C882321F481E0E7
S11338000E946C0867C01981E3E1F6E01483B7E114
S1133810EB2EF12C1F3219F4A5E1EA2EF12C809144
S113382016069927AA27BB27BC01CD012EE434E054
S113383040E050E00E942B463B014C01812F992728
S1133840AA27BB27BC01CD0127E130E040E050E0CE
S11338500E942B46DC01CB01680E791E8A1E9B1E3A
S113386040911506C701AA27BB275C016D01F8E149
S1133870EF2EF6E0FF2E9401830161E083E022C085
S1133880909015068091160699270196AA2797FD10
S1133890A095BA2FBC01CD012EE434E040E050E005
S11338A00E942B46DC01CB01E2E0AE2EB12CC12CF0
S11338B0D12C7DE2E72E76E0F72E8C019D01492D77
S11338C061E089E00E949315882321F48CE098E359
S11338D00E94970322960FB6F894DEBF0FBECDBFA9
S11338E0DF91CF911F910F91FF90EF90DF90CF90D8
S11338F0BF90AF909F908F907F906F900895282FE6
S11339008230A8F4869586958695E82FFF27EF5494
S1133910F94F6081862F99272770422F5527042E4F
S113392002C0959587950A94E2F780FF03C020E0D2
S113393030E00AC021E030E0C90102C0880F991FBD
S11339404A95E2F7682B6083C9010895CF92DF920C
S1133950EF92FF920F931F93CF93DF936C018B0130
S11339607A01E9012115310539F429C0F601608392
S1133970718321E030E023C0FB0183E0F695E795F5
S11339808A95E1F7EE0DFF1D8081282F3327CB01A7
S11339908770907002C0359527958A95E2F7F901F2
S11339A0E170F07020FDE2CF6F5F7F4FCB01BE016D
S11339B00E944A46BC0180179107F1F69F01C90194
S11339C0DF91CF911F910F91FF90EF90DF90CF90F7
S11339D00895CF92DF92EF92FF920F931F93CF93AC
S11339E0DF93D82E7B01042FE9012091310130911E
S11339F032018FEF2F3F380749F480913B019091BA
S1133A003C01806290933C0180933B012F5F3F4FC8
S1133A103093320120933101809124018823D9F419
S1133A2083E0D816C1F020913301309134018FEF37
S1133A302F3F380749F480913B0190913C019460F9
S1133A4090933C0180933B012F5F3F4F30933401AF
S1133A502093330174C01091FA06112309F058C061
S1133A6091E0C92EC092FA060E31C0F020913501C2
S1133A70309136018FEF2F3F380749F480913B0195
S1133A8090913C01806490933C0180933B012F5FB3
S1133A903F4F30933601209335011DC08BE199E3EC
S1133AA00E9497038823D1F4209137013091380183
S1133AB08FEF2F3F380749F480913B0190913C01EF
S1133AC0806890933C0180933B012F5F3F4F30937C
S1133AD03801209337011093FA0631C0D093410284
S1133AE0C09340020C83E882F982DA82E0914002BA
S1133AF0F091410283818F3F19F0809118018383F3
S1133B008C2D8E5F8C5F8B32E8F381E090E019C0DE
S1133B1020913701309138018FEF2F3F380749F456
S1133B2080913B0190913C01806890933C0180938B
S1133B303B012F5F3F4F309338012093370180E0E2
S1133B4090E0DF91CF911F910F91FF90EF90DF9064
S1133B50CF900895CF93C1E020E08FB7F894382F29
S1133B608091E2068823C9F580913607992781FF61
S1133B7009C084E696E09093200480931F0480E4B7
S1133B8090E01EC082FF12C0E091BD01F091BE0121
S1133B90F0932004E0931F0482E490E09093C20128
S1133BA08093C10184819927059610C083FF15C0B5
S1133BB081EF91E09093200480931F048FEF90E0B5
S1133BC09093C2018093C10181E090E09093F5014C
S1133BD08093F4012C2FC093E2063FBF2223F1F01F
S1133BE08FB7F8949927109266011092650110928C
S1133BF07B0510927A058FBF8EE70E94121EC82F94
S1133C00813061F08FB7F894282F332788E08093B0
S1133C10E2062FBF87E29EE10E9497038C2F99272B
S1133C20CF910895482F8FB7F894282F3327909178
S1133C30D40581E08093D4052FBF992319F080E047
S1133C4090E008954CB95E9A81E090E0089561E0B7
S1133C508FB7F894282F33278091E206883019F41F
S1133C6060E06093E2062FBF8091C1019091C20190
S1133C70409136078034910551F48FB7F894282F7A
S1133C80332782E04827409336072FBF1BC08FB7E6
S1133C90F894282F332784E04827409336072FBF12
S1133CA0E091BD01F091BE01809118018383CF01A1
S1133CB00E94651E8FB7F89499271092BE01109246
S1133CC0BD018FBF0E94AA1D08950F931F93CF9328
S1133CD0DF93EC011092FA068A81992785309105C9
S1133CE009F4E6C0863091054CF48330910579F1EE
S1133CF084309105D4F5019791F040C1823A910541
S1133D0009F4E6C0833A91052CF4813A910509F44B
S1133D10DBC034C1833A910509F40DC12FC1C954E4
S1133D20D54009F02BC180913F01813009F026C1B3
S1133D3010923F0180913D01823019F40E942A20A3
S1133D401DC1833009F01AC10E94432017C1C95311
S1133D50D64009F013C180914301813009F00EC1AE
S1133D600E94C2081092430109C10A85CE010E9433
S1133D70C51F182F8EA1882309F048C08881998116
S1133D808F5F9F4F09F442C09091F90380911D0108
S1133D909817E0F5809158019091590101969093FC
S1133DA0590180935801602FCE010E94DA1F81309F
S1133DB069F5888199814C819E01BC0184E00E944F
S1133DC0E91C813031F48091F9038F5F8093F9030A
S1133DD0D5C01F3F71F080914C0190914D01FFEFD0
S1133DE08F3F9F0799F0019690934D0180934C016A
S1133DF00DC080914801909149012FEF8F3F9207A8
S1133E0029F0019690934901809348018EA1813055
S1133E1029F0888199818F5F9F4F49F480915601E1
S1133E2090915701019690935701809356011092F7
S1133E30F903CE010E94C51F8F3F31F0E82FFF2701
S1133E40E853F94F10829AC0602F772765307105C7
S1133E5021F06B307105F1F091C0F6E0C933DF0752
S1133E6091F48091BE06882371F08091AD06823072
S1133E7039F480E00E9404201092390610923A0628
S1133E801092BE061FC0C257D64009F077C01092E8
S1133E90C40174C0C953D64009F070C08091AF0604
S1133EA0813009F06BC00E94C2081092AF0666C050
S1133EB0C953D64009F062C08FB7F894992710927D
S1133EC050018FBF81E001C080E00E94C20856C04B
S1133ED0DE0115968091C001843009F04FC08091B5
S1133EE07905409127071496EC911497E81709F087
S1133EF045C0FF27EE0FFF1FEE0FFF1FE154FA4FDF
S1133F002281338112968D919C9113978217930786
S1133F10A9F515968C91841789F50E94750B9170FB
S1133F2080509E4FAA27BB279C01AD0161E0862FDC
S1133F300E94DF0823C0DE01159614962C91149775
S1133F40822F869586958695E82FFF27E75DFB4FA0
S1133F50277081E090E002C0880F991F2A95E2F74C
S1133F60982F909580818923808314968C9114973F
S1133F708F3211F414961C920E94A11B81E090E0F0
S1133F80DF91CF911F910F910895AC0160E020E083
S1133F9030E0ECEEF6E0819191918417950711F4ED
S1133FA0C90108956F5F2F5F3F4F6230A0F38FEF19
S1133FB09FEF0895FC01DC011596809139079091DB
S1133FC03A07808391838091000190910101858358
S1133FD0968314968C911497815014968C9388230D
S1133FE081F48091540190915501FFEF8F3F9F0719
S1133FF029F00196909355018093540180E090E05C
S1134000089581E090E00895992781309105D1F0D9
S1134010823091051CF4892B21F008950297B1F0A8
S113402008951092AD0680915B01882391F08091F0
S11340302307909124079093B3068093B2061092BD
S11340405B01089581E08093AD06089582E080933A
S1134050AD0608958FB7F894382F2091C60620FF37
S113406006C08FB7F8949927DA9A2E7F05C08FB7C8
S1134070F8949927DA9821602093C6068FBF3FBF32
S113408081E090E0089580914101882349F020E087
S113409038E040E050E061E085E00E94DF080895E8
S11340A08FB7F894282F3327DA9A8091C6068E7F2B
S11340B08093C6062FBFAA9A089561E180E00E940A
S11340C09A0780910704682F89E00E949A0760E0AC
S11340D08BE00E949A078AEF90E000000000000045
S11340E000000000000000000000019718161906E7
S11340F0A4F381E090E008958091C001823071F4CE
S11341002EE036E04CE16FEF7FEF83EA0E94E91C7A
S1134110882321F48CE790E20E94970308956F921C
S11341207F928F929F92AF92BF92CF92DF92EF9243
S1134130FF920F931F93CF93DF9380917905C82F3C
S1134140DD274091270767E1F62E00916806202FAE
S1134150332788E190E0289FF001299FF00D389FD4
S1134160F00D1124E458FA4F10811F3211F455E177
S1134170F52E103398F5842F9927AA27BB27BC0165
S1134180CD012EE434E040E050E00E942B463B0198
S11341904C01812F9927AA27BB27BC01CD0127E118
S11341A030E040E050E00E942B46DC01CB01680E79
S11341B0791E8A1E9B1E88E1089F900111242358B2
S11341C03A4F8F2D9927AA27BB275C016D017901EE
S11341D0940183014C2F61E085E022C088E1089FAF
S11341E0800111240E561A4F842F99270196AA276D
S11341F097FDA095BA2FBC01CD012EE434E040E038
S113420050E00E942B46DC01CB0132E0A32EB12CFE
S1134210C12CD12C78018C019D014C2F61E08AE0E6
S11342200E949315882321F48FE890E20E9497035B
S1134230DF91CF911F910F91FF90EF90DF90CF907E
S1134240BF90AF909F908F907F906F900895AF92A2
S1134250BF92CF92DF92EF92FF920F931F938091C0
S1134260B4059091B505AA27BB27F5E0880F991FDF
S1134270AA1FBB1FFA95D1F7E0E2AE2EB12CC12CD8
S1134280D12C7DE1E72E72E0F72E8C019D014EEFDB
S113429060E085E00E949315882321F487E291E28F
S11342A00E9497031F910F91FF90EF90DF90CF90A2
S11342B0BF90AF9008952F923F924F925F926F926A
S11342C07F928F929F92AF92BF92CF92DF92EF92A2
S11342D0FF920F931F93CF93DF93CDB7DEB72E9743
S11342E00FB6F894DEBF0FBECDBF20E030E040E053
S11342F050E01A868091B4059091B505AA27BB2792
S11343007C018D01E5E0EE0CFF1C001F111FEA95F6
S1134310D1F7AA84A9866624782E892E9A2E1301B1
S11343202401B9848B2D9927880F991F880F991F11
S1134330DC01A05EBE4FAD90BD90CD90DC90A98213
S1134340BA82CB82DC826C0184E191E0C80ED91E72
S1134350D6018D919D910D90BC91A02DA980BA801C
S1134360CB80DC808A199B09AC09BD098D839E83AF
S1134370AF83B887B4E0AB2EB12CC12CD12CA20EE4
S1134380B31EC41ED51EEA14FB040C051D0508F05B
S113439046C06A85603208F042C0CA01B90128EFFC
S11343A03FEF4FEF5FEF0E942B469B01AC01220DC4
S11343B0331D441D551D8A85682F7727635E7D4F05
S11343C02B8789819A81AB81BC81022E04C0B6956A
S11343D0A795979587950A94D2F7DB018C93BA85B4
S11343E0BF5FBA870894E11CF11C011D111D88E010
S11343F090E0A0E0B0E0280E391E4A1E5B1E680E55
S1134400791E8A1E9B1E280F391F4A1F5B1FEA1440
S1134410FB040C051D0518F49A85903260F2A60180
S11344209501A4E0AA2EB12CC12CD12CA20EB31E4E
S1134430C41ED51EEA14FB040C051D0508F046C075
S1134440AA85A03208F042C0CA01B90128EF3FEFA3
S11344504FEF5FEF0E942B469B01AC01260D371DE9
S1134460481D591DBA856B2F7727635E7D4F2B87B7
S11344708D819E81AF81B885022E04C0B695A79523
S1134480979587950A94D2F7DB018C93BA85BF5F21
S1134490BA870894E11CF11C011D111D88E090E00D
S11344A0A0E0B0E0280E391E4A1E5B1E680E791E7D
S11344B08A1E9B1E280F391F4A1F5B1FEA14FB0428
S11344C00C051D0518F49A85903260F2A601950139
S11344D0AD80BE80CF80D884A20EB31EC41ED51E6C
S11344E0EA14FB040C051D05C8F5AA85A032B0F535
S11344F089819A81AB81BC81821B930BA40BB50B80
S11345009C01AD012E0D3F1D401F511F9A85A92FFF
S1134510BB27A35EBD4F9F5F9A874BBFF90187916D
S11345208C930894E11CF11C011D111D88E090E09E
S1134530A0E0B0E0280E391E4A1E5B1E680E791EEC
S11345408A1E9B1E2F5F3F4F4F4F5F4FEA14FB04A1
S11345500C051D0518F49A859032C0F2A601950148
S1134560A985AF5FA987AA2321F4BA85B03208F4DC
S1134570D8CEE985EE2349F1D601C5010896A11DDF
S1134580B11DE816F9060A071B07B8F4FA85F032DC
S1134590A0F42A85E22FFF27E35EFD4F10822F5FF0
S11345A02A870894E11CF11C011D111DE816F90667
S11345B00A071B0710F4203260F3E816F9060A070D
S11345C01B0718F081E080930C062E960FB6F89422
S11345D0DEBF0FBECDBFDF91CF911F910F91FF9032
S11345E0EF90DF90CF90BF90AF909F908F907F908F
S11345F06F905F904F903F902F9008950F931F936B
S1134600CF93DF93282FEB018A010A5F1F4F0E31EE
S11346101105B8F580914601909147013FEF8F3F16
S1134620930729F001969093470180934601FE0178
S1134630359680910001909101018D839E83828340
S1134640938380E184832583622FCE010E94DA1F45
S11346508130B9F4888199819E01402FBC0184E0A6
S11346600E94E91C813081F08091480190914901B8
S11346702FEF8F3F920729F0019690934901809381
S1134680480180E090E002C081E090E0DF91CF91AA
S11346901F910F9108959C0180E18FBD88E08EBD2C
S11346A010927A001DBC1CBC832F99278BBD2ABD98
S11346B081E090E008951F930E94560710929000A5
S11346C08FE089B982E08BB986E08093950088ED0C
S11346D08AB90E947823182F81E090E08093240106
S11346E01092FA060E944F09812F99271F9108956D
S11346F00F931F93CF938FB7F8949927C091F30129
S11347008FBFC13009F0A3C08FB7F894482F552745
S1134710E091BC05F091BD05148262E06093F30161
S11347201092C3011092DD018FEF9FEF9093050665
S113473080930406809161049927880F991FFC01D6
S1134740E851FF4F24913327322F222787519F4F5F
S1134750FC0184919927282B392B3093160220933E
S113476015024FBF20916906222309F04AC0E09147
S1134770BC05F091BD0524838FB7F8949927609305
S1134780F3018FBF6BE3822F0E949A0780ED97E0BD
S11347900000000000000000000000000000000015
S11347A0019718161906A4F369E380E00E949A079A
S11347B088EC90E000000000000000000000000011
S11347C000000000019718161906A4F3BB98BA98C4
S11347D00E945D20809175058F3128F020E03AE039
S11347E040E050E004C020E830E040E050E060E009
S11347F082E00E94DF0880EC8DB9B8980E944F09CE
S113480026C0822F9927880F991FFC01EA50FF4F79
S113481024913327122F002789509F4FFC01849144
S11348209927082B192B8FB7F894282F332787E063
S11348308093F3012FBF862F0E946109C801AA2724
S1134840BB279C01AD016C2F83E00E94DF0881E04F
S113485090E0CF911F910F9108958091C704883003
S113486061F4959A95980000000080E090E08299A8
S113487002C081E090E08093670681E080933D026E
S1134880DB9A80E098E30E94970381E090E008952A
S113489078941F920F920FB60F9211242F933F9387
S11348A04F935F936F937F938F939F93AF93BF9334
S11348B0CF93DF93EF93FF938FB7F894282F332789
S11348C080919102882369F08091AD058093BF06A1
S11348D088608093AD0583BF8091940381BF10925B
S11348E091022FBF8FB7F894C82FDD278091B205AE
S11348F09091B305892B21F48FE098E30E949703EC
S113490021B78091B2059091B305820F911D019654
S11349109093B3058093B205CFBFFF91EF91DF91E0
S1134920CF91BF91AF919F918F917F916F915F9143
S11349304F913F912F910F900FBE0F901F9018959C
S1134940FF920F931F93CF93DF93CDB7DEB72397D7
S11349500FB6F894DEBF0FBECDBFF82E0E94F02430
S1134960882381F180E08B839FB7F89408E110E0FD
S11349700FB6F894A89501BD0FBE81BD0E94B00A80
S11349800E94151B6F2D82E00E94040A89839A837A
S113499042E050E0BE016F5F7F4F82EF9FE00E94D4
S11349A0E90A41E050E0BE016D5F7F4F80EF9FE078
S11349B00E94E90A89E00FB6F894A89501BD0FBEDC
S11349C081BDFFCF80E090E023960FB6F894DEBF60
S11349D00FBECDBFDF91CF911F910F91FF9008952E
S11349E0282F80912404813081F4223070F4E22F46
S11349F0FF27EE0FFF1FEE0FFF1FE154FA4F9581C3
S1134A00992319F08481891711F02E3F19F481E05C
S1134A1090E0089580E090E00895CF9381E00E94B3
S1134A207F1C882329F48DE095E20E9497034CC0F3
S1134A308FB7F8949927C1E0C09350018FBF80913C
S1134A40390790913A0790933F0680933E068091F0
S1134A5000019091010190934106809340062091BA
S1134A60BC063091BD0680915E0490915F04280FCE
S1134A70391F8091650690916606280F391F30937F
S1134A8043062093420680915201909153019093E2
S1134A9045068093440680911E018093460629E3CF
S1134AA036E04DE06FEF7FEF85E00E94E91C282F90
S1134AB03327222349F48FB7F89499272093500180
S1134AC08FBF8C2F0E94C208CF9108959C01D901F9
S1134AD0FB01415050408FEF4F3F580741F0819107
S1134AE08D93415050408FEF4F3F5807C1F7C90194
S1134AF00895CF93C82F8730C8F580916906C817E9
S1134B00A9F18091DD01882389F58091F301873033
S1134B1021F0823011F0813049F583E00E9461096F
S1134B208FB7F894282F33279091690680916104F8
S1134B30981711F4C0936104C09369062FBF809144
S1134B40F301823039F481E08093F3010E94BD25A2
S1134B500E9478238091F301873059F481E0809397
S1134B60F3010E9478230E944F0903C080E090E083
S1134B7002C081E090E0CF9108951F938FB7F8941D
S1134B80282F332781E08093F3012FBF82E00E9416
S1134B90610983E00E94610910E0612F8BE00E94AB
S1134BA09A076FE3812F0E949A070E94DB2581E018
S1134BB090E01F9108956F98B89AC0980E944F0989
S1134BC081E090E008958091CF0587FD03C082E0E5
S1134BD08093CF0510925A0480E00E946C0881E013
S1134BE090E00895CF93DF93DC01FB0181818F3F37
S1134BF011F413968C938081823010F0815080835D
S1134C0081E090E0DF91CF9108951F93CF93DF93DC
S1134C10122F0E94420BEC0181E00E943626882369
S1134C2019F480E090E01EC08881998190933F063A
S1134C3080933E061E5F29E336E0412F6FEF7FEF3E
S1134C4083E00E94E91C182F813029F48F8183703E
S1134C5084608F8305C081E00E94C20810924301E2
S1134C60812F9927DF91CF911F910895282F869541
S1134C7086958695E82FFF27EF54F94F8081992771
S1134C80277002C0959587952A95E2F79C012170BB
S1134C90307080FF03C081E090E00895C901089559
S1134CA09C018091CA048823B1F430931E0420939C
S1134CB01D047093C2066093C1064093BE0585EE41
S1134CC09BE30E949703882331F081E08093CA0418
S1134CD081E090E0089580E090E00895AC01AA9806
S1134CE024E630E0000000000000000000000000A6
S1134CF00000000021503040121613069CF3BE9AA7
S1134D0089E08EBD20E030E02417350768F4000008
S1134D1000000000000000000000000000002F5F01
S1134D203F4F2417350798F388E08EBDAA9A81E097
S1134D3090E0089521E020933F0188E595E0909369
S1134D40F1068093F00680915A01882309F098C0F7
S1134D5020935A01D49ADC9A84EF91E00000000079
S1134D600000000000000000000000000197181679
S1134D701906A4F3DC988CEF90E00000000000001A
S1134D80000000000000000000000197181619063A
S1134D90A4F3DC9AD498DC9A85E290E00000000049
S1134DA00000000000000000000000000197181639
S1134DB01906A4F389B388ED90E000000000000018
S1134DC000000000000000000000019718161906FA
S1134DD0A4F320E083E390E0022E02C0959587952A
S1134DE00A94E2F780FF21C0D49ADC9883E090E033
S1134DF000000000000000000000000000000000AF
S1134E00019718161906A4F3D498DC9A82E290E06C
S1134E10000000000000000000000000000000008E
S1134E20019718161906A4F320C0D49ADC9880E2DE
S1134E3090E00000000000000000000000000000FE
S1134E400000019718161906A4F3D498DC9A85E09B
S1134E5090E00000000000000000000000000000DE
S1134E600000019718161906A4F32F5F283008F4E0
S1134E70B1CF109298030E94472781E090E002C0CE
S1134E8080E090E0892B11F40E94A627089520E089
S1134E90322F2695D49ADC9883E090E0000000003D
S1134EA00000000000000000000000000197181638
S1134EB01906A4F3D498DC9A84E090E00000000082
S1134EC00000000000000000000000000197181618
S1134ED01906A4F3CC9920688DE190E0000000004D
S1134EE000000000000000000000000001971816F8
S1134EF01906A4F33F5F383008F4CBCF80919803B0
S1134F00E091F006F091F106E80FF11D2083809105
S1134F1098038F5F80939803883018F40E94472782
S1134F2012C010925A0180913F01813011F40E9405
S1134F30A62780914001813031F4109240018AE229
S1134F409BE30E94970381E090E008956AE071E09A
S1134F5080E695E00E94154688E498E5A0EFBDEB55
S1134F6080934E0590934F05A0935005B09351053F
S1134F708EEA9BE5AFE4B1E4809352059093530528
S1134F80A0935405B09355058091000190910101BF
S1134F90909357058093560529E435E04CE16FEF73
S1134FA07FEF81E00E94E91C9927882311F4809304
S1134FB03F010895CF930E945B23882319F081E079
S1134FC090E002C080E090E0C82F90915A049923A9
S1134FD019F081E090E02EC08091E4068093F20104
S1134FE08091CF0587FD03C082E08093CF0581E0E7
S1134FF080935A049093600420E030E0809124046C
S1135000882319F0823009F021E0232B89F00E94D3
S1135010011580912404882339F482E080932404C8
S11350208FEB95E00E9417150E94EE0B0E94491524
S11350308C2F9927CF9108951F9311E01093440169
S11350400E94750B9370AA27BB279C01AD01612FA9
S113505086E00E94DF080E945B23882319F081E028
S113506090E002C080E090E099271F9108950E948B
S11350701C280E9454280E940C088BE00E941B0BE1
S11350808CE00E941B0B8DE00E941B0B8EE00E94A3
S11350901B0B20E031E040E050E060E088E00E943B
S11350A0DF0881E090E008951F938FB7F894992763
S11350B011E0109374058FBF0E945B230E94750B4F
S11350C060E07CE70E944A46AA27BB279C01AD0109
S11350D0612F8AE00E94DF0881E090E01F9108952B
S11350E0CF93DF93782F41E050E061E0C82FDD27B4
S11350F00C2E02C0440F551F0A94E2F72091C804F5
S11351003091C904CA0182239323892B11F060E0F2
S113511014C0CA01822B932B9093C9048093C804B2
S1135120232B59F4872F0E94A2289927682F8823BC
S113513021F0D0932804C0932704862F9927DF9168
S1135140CF910895982F8FB7F894282F3327EDEC3B
S1135150F6E0E90FF11D80818F71806487B92FBF5C
S1135160379A369A81E090E00895CF93DF93EC016B
S11351708091000190910101888399838091B70502
S11351809091B8058A839B838091F2018C8320E0FF
S113519030E080912404882319F0823009F021E062
S11351A0232B51F01D82CE01069648E050E061ECBD
S11351B075E00E94662502C082E08D83CE010E94C4
S11351C0E6288E879F87DF91CF91089520E030E015
S11351D060E0DC018D91E5ECF1E08327880FF11D9F
S11351E0E80FF11DC895522F402D3196C8955025D2
S11351F09A016F5F6E3070F3CA0108956F927F92C7
S11352008F929F92AF92BF92CF92DF92EF92FF92D2
S11352100F931F93CF93DF93CDB7DEB722970FB6CB
S1135220F894DEBF0FBECDBF5C0120912501309103
S113523026014FEF2F3F340749F480913B019091B1
S11352403C01816090933C0180933B012F5F3F4F71
S11352503093260120932501F50182A193A10197A2
S1135260C1F02091270130912801FFEF2F3F3F0724
S113527049F480913B0190913C01826090933C0100
S113528080933B012F5F3F4F3093280120932701E8
S1135290C4C6809124018823E1F4F501828183301E
S11352A0C1F02091290130912A01FFEF2F3F3F07E0
S11352B049F480913B0190913C01926090933C01B0
S11352C080933B012F5F3F4F30932A0120932901A4
S11352D0A4C6F5019381809118019817D1F09F3FDE
S11352E0C1F020912B0130912C01FFEF2F3F3F079C
S11352F049F480913B0190913C01846090933C017E
S113530080933B012F5F3F4F30932C0120932B015F
S113531084C6D5012D913C91BFEF2F3F3B07F9F097
S1135320809100019091010128173907C1F0209163
S11353302D0130912E01EFEF2F3F3E0749F480916C
S11353403B0190913C01886090933C0180933B0128
S11353502F5F3F4F30932E0120932D015EC6F50140
S1135360428183E08C5F8B32E8F320912F013091EE
S11353703001FFEF2F3F3F0749F480913B019091AB
S11353803C01806190933C0180933B012F5F3F4F30
S11353903093300120932F01842F99278530910574
S11353A009F4A4C2863091055CF48330910509F4B4
S11353B045C0843091050CF087C2029791F029C64C
S11353C0823A910509F496C4833A91052CF4813A02
S11353D0910509F441C31DC6833A910509F45FC5DB
S11353E018C6F50125813681809100019091010153
S11353F02817390721F02F5F3F4F09F00AC6809123
S11354003E01882309F005C68FB7F894282F332767
S1135410DA988091C60681608093C6062FBF11E09A
S11354201093C0060E94750B9F70AA27BB279C018E
S1135430AD01612F85E00E94DF08EBC5850185E0A1
S1135440E82EF12CEA0CFB1CF50185810E94420B2D
S11354504C0180914401882329F4F5018581813030
S113546009F0D7C58114910409F4D3C5F7018181EA
S1135470F4019181891B803821F4191614F49F5F7B
S11354809183F7019181F4012181892F821B1816E0
S11354901CF0992309F00AC2992369F4822F8F5FC3
S11354A0F4018183882311F49F5F9183F401818146
S11354B0F701818302C0F4019183D7018C9112E03A
S11354C0C12ED12CCE0CDF1C082F1127053011055D
S11354D009F460C106301105A4F40230110509F481
S11354E09FC00330110524F401301105F9F0DCC12B
S11354F00330110509F4E9C00430110509F41CC195
S1135500D3C10C30110509F4B2C10D3011052CF4CE
S11355100B30110509F4A1C1C7C10D30110509F4FF
S1135520B0C10E30110509F4B6C1BEC1E6E0F0E029
S1135530EE0EFF1E44E050E0B6018AEC91E00E94BA
S11355406625A801B7018AEF9FEFE80EF91E8BEBE1
S113555095E00E946625C6010E942330882309F441
S1135560A3C1F7018681682F77276130710509F49B
S11355709BC1623071051CF4672B41F095C1623008
S1135580710591F163307105C1F18EC18FB7F89443
S1135590282F3327DA988091C60681608093C60647
S11355A02FBF8FB7F894992721E0209319018FBF5B
S11355B0209324010E9437280E941C280E94DA2785
S11355C00E94EE0B0E94EE0B80912404882339F490
S11355D082E0809324048FEB95E00E94171520E06D
S11355E030E140E050E004C02FEF3FEF40E050E0F6
S11355F061E087E00E94DF0857C188E00E946109EA
S11356001092440186E00E9461090E94E3250E94F1
S1135610BD258FB7F8949927109219018FBF44C103
S113562046E050E0E40EF51E44E050E0B6018EEA98
S113563095E00E94662541E050E0B7018AEF9FEFB4
S1135640E80EF91E80EB96E00E946625C6010E94D2
S11356502330882309F428C1109242011092C00615
S113566010924101F701868180FF0BC08FB7F89437
S1135670282F3327DA988091C60681608093C60666
S11356802FBFF701868181FF03C081E0809342012F
S1135690F701868182FF03C081E08093C006F70191
S11356A0868184FF03C081E08093410180913E01A3
S11356B0882309F0F9C00E94750B9F70AA27BB27A5
S11356C09C01AD0161E085E095CF87010A5F1F4F22
S11356D044E050E0B60184E092E00E94662542E096
S11356E050E0B80182E092E00E946625F7018181D2
S11356F080937006C6010E942330882309F4D4C025
S1135700F7016681862F817060FF04C011E0109359
S11357105C0108C061FFC8C080935C01F80181810D
S11357208093FA038DE00E9461092FEF3FEF40E080
S113573050E061E08DE05ECF46E050E0E40EF51EFF
S1135740A801B60189EF91E00E946625A801B7017E
S113575088E096E00E946625C6010E9423308823D3
S113576009F4A2C08091520190915301F701218163
S113577032818217930721F02F5F3F4F09F094C0C5
S11357808FB7F894282F3327F7018381809318016A
S11357902FBF8AC087010A5F1F4F44E050E0B60163
S11357A080ED95E00E94662543E050E0B8018DE667
S11357B096E00E946625C6010E942330882309F4DE
S11357C073C0F8018281682F77276330710539F13E
S11357D0643071053CF46130710559F06230710533
S11357E0D1F062C064307105F1F06530710521F1CA
S11357F05BC08CE00E9461090E94750BF701268151
S11358003781B9010E944A46AA27BB279C01AD01F2
S113581061E08CE0EFCE8CE00E94610904C08CE072
S11358200E94610941C08091AD06882369F41092F9
S1135830B3061092B20638C020912507309126078E
S11358408091AD06882321F081E080935B012CC018
S11358503093B3062093B20627C060E0C6010E94CD
S11358603630809179048460809379041DC061E0AE
S1135870C6010E9436308091920484608093920421
S113588013C062E0C6010E9436308091AB0484608C
S11358908093AB0409C063E0C6010E943630809156
S11358A0C40484608093C404850107C0921729F45A
S11358B0F40187818160878305C0F4011282C401E9
S11358C00E94520BC801A6C3A501F5016281208183
S11358D0318180910001909101012817390721F449
S11358E0C5010E94A702AC01CA0194C3B5E0CB2E46
S11358F0D12CCA0CDB1CF6014085242F3327509190
S11359001E01852F992787FD90958217930714F020
S11359104423D1F4442339F4852F8F5F80931E01EF
S1135920882319F44F5F40931E010E94750B60E0B9
S11359307CE70E944A460196AA27BB279C01AD0139
S113594061E089E00E94DF08F60182809380809103
S1135950390790913A0788169906B1F486819781A0
S11359609093530180935201848195819093BD0655
S11359708093BC06F50184A195A190935F04809364
S11359805E041092510145C3F60164807580730171
S113599000271127F50164A175A1CB01AA27BB2714
S11359A0E80EF91E0A1F1B1F8FE790E0A0E0B0E08D
S11359B0E80EF91E0A1F1B1F8091BC069091BD06BC
S11359C09C014427552780915E0490915F04AA2787
S11359D0BB27280F391F4A1F5B1F809165069091D2
S11359E06606AA27BB27280F391F4A1F5B1FE2162A
S11359F0F3060407150708F00CC3D6012D913C915A
S1135A00119780910001909101012817390709F439
S1135A1000C316968D919C91179790935301809390
S1135A20520190923A07809239077092BD066092B3
S1135A30BC0670935F0460935E048FE790E09093DC
S1135A4066068093650610925701109256011092D3
S1135A50590110925801DDC2A5E0EA2EF12CEA0C9E
S1135A60FB1CC7010E94E6289C01F70186859785E7
S1135A702817390709F0CDC28581813061F582810B
S1135A8093818F5F9F4F21F4F70184818F3F31F021
S1135A90C5010B960E9490308823E9F080E00E94B3
S1135AA03626082F1127002309F0B3C283E196E0BC
S1135AB00E94B528D7018D919C912EE036E040E1FB
S1135AC0BC0181EA0E94E91C813009F0A2C2802F46
S1135AD00E947F1C9EC280915A04882309F499C2B3
S1135AE08091CF0587FD95C2F7018581813059F1F9
S1135AF0228133818091B7059091B8052817390721
S1135B0089F494818091F201981761F4C701069693
S1135B100E949030882331F0809160048F5F8093DD
S1135B20600411C08091AC058A3031F080915A0430
S1135B30813011F40E9449158091CF0587FD03C07F
S1135B4082E08093CF05F6E06F2E712C6E0C7F1CE3
S1135B50882480912404813009F04EC0982CEFEB06
S1135B60CE2EE5E0DE2E8301D8012D913C91BFEFCE
S1135B702F3F3B0749F1F60182819381281B390BA2
S1135B80121613060CF5F80182819927AA27BB2760
S1135B90BC01CD012EE434E040E050E00E942B46ED
S1135BA0DC01CB0181509048A140B04068F4F80179
S1135BB080819181A281B381F60182839383A4833E
S1135BC0B583158271E0872E93940C5F1F4F44E0D8
S1135BD050E0C40ED51E51E0591530F6882061F00E
S1135BE084E0809324040E948B148BE49BE10E9444
S1135BF0970381E090E002C080E090E0813051F4AE
S1135C0080E00E94610980E00E946C0846C081E047
S1135C1090E01DC040E0AFEBB5E0B301FB01208193
S1135C20318112968D919C9113972817390739F475
S1135C30FB01938115968C911597891740F34F5F5B
S1135C406C5F7F4F1496423048F380E090E0892BDC
S1135C5021F100916401002301F5D701CD90DC907E
S1135C60809179058F3FC9F01091C0011130A9F4DA
S1135C7085E00E946C08D0925E01C0925D010093A1
S1135C8060010E94750B93704096AA27BB279C0164
S1135C90AD01612F812F0E94DF08F701228133813A
S1135CA08091B7059091B805A901481B590B1416AA
S1135CB015060CF0AEC12F5F3F4F09F4AAC18481D1
S1135CC00E94F024882309F4A4C18AE08093AC05DF
S1135CD0F701828193819093B8058093B7058481FD
S1135CE08093F2018CEF8093CF05109260040E94A0
