:100000000C94B5010C94D2010C94D2010C94D20141
:100010000C94D2010C94D2010C94D2010C94D20114
:100020000C94D2010C94D2010C94D2010C94D20104
:100030000C94D2010C94D2010C94D2010C949E0920
:100040000C94D2010C943B020C9464020C94D201E7
:100050000C948E020C9499070C94D2010C94D2014A
:100060000C94D2010C94D2010C94D2010C94D201C4
:100070000C94D2010C94D2010C94D2010C94D201B4
:100080000C94D2010C94D2010C94D2010008005EB1
:1000900000FA017301EA04BC0A5E00000014005576
:1000A000008700B901E5043D000808080808083188
:1000B00058000057F685035544020F60E0261C6B7C
:1000C0005570010000000000000000008101317C3B
:1000D00000007BF9AE02388C3280401026A16B55AF
:1000E0001001000000000000000000F30131510089
:1000F0000050F74F030E44020F58E026A16B5570D5
:10010000010000000000000000008101315CE000FF
:100110005CDB4201AA8C3280301026A16B551001A5
:10012000000000000000000000F3013145600045C0
:1001300055BB039C80020F68E026A16B5470010040
:10014000000000000000000081013158000057F657
:1001500085035590020F60E026A16B5570010000E9
:100160000000000000000081010000211042206317
:10017000308440A550C660E770088129914AA16B80
:10018000B18CC1ADD1CEE1EFF13112100273325218
:1001900022B5529442F772D662399318837BB35AD0
:1001A000A3BDD39CC3FFF3DEE362244334200401E8
:1001B00014E664C774A44485546AA54BB528850920
:1001C00095EEE5CFF5ACC58DD553367226111630B8
:1001D00006D776F6669556B4465BB77AA719973870
:1001E00087DFF7FEE79DD7BCC7C448E5588668A7F8
:1001F000784008611802282338CCC9EDD98EE9AFC0
:10020000F9488969990AA92BB9F55AD44AB77A9657
:100210006A711A500A333A122AFDDBDCCBBFFB9E0F
:10022000EB799B588B3BBB1AABA66C877CE44CC527
:100230005C222C033C600C411CAEED8FFDECCDCD5F
:10024000DD2AAD0BBD688D499D977EB66ED55EF4F7
:100250004E133E322E511E700E9FFFBEEFDDDFFCAF
:10026000CF1BBF3AAF599F788F8891A981CAB1EB54
:10027000A10CD12DC14EF16FE18010A100C230E37D
:10028000200450254046706760B9839893FBA3DA39
:10029000B33DC31CD37FE35EF3B1029012F322D2CD
:1002A000323542145277625672EAB5CBA5A89589C9
:1002B000856EF54FE52CD50DC5E234C324A014811D
:1002C000046674476424540544DBA7FAB79987B8D9
:1002D000975FE77EF71DC73CD7D326F2369106B06D
:1002E0001657667676154634564CD96DC90EF92FD9
:1002F000E9C899E9898AB9ABA944586548067827BD
:1003000068C018E1088238A3287DCB5CDB3FEB1E78
:10031000FBF98BD89BBBAB9ABB754A545A376A160C
:100320007AF10AD01AB32A923A2EFD0FED6CDD4D08
:10033000CDAABD8BADE89DC98D267C076C645C455C
:100340004CA23C832CE01CC10C1FEF3EFF5DCF7C18
:10035000DF9BAFBABFD98FF89F176E367E554E74AC
:100360005E932EB23ED10EF01E0011241FBECFEFC1
:10037000D0E1DEBFCDBF11E0A0E0B1E0E2E4FCE2FD
:1003800000E00BBF02C007900D92A830B107D9F76B
:1003900013E0A8E0B1E001C01D92A838B107E1F771
:1003A0000C94D2020C940000AF92BF92CF92DF92D5
:1003B000EF92FF920F931F93CF93DF9306EEA090DF
:1003C0007503B0907603C0907703D0907803A114A2
:1003D000B104C104D104C9F110E06CED72E0EE2467
:1003E000FF2481E090E0A0E0B0E00E2C04C0880F74
:1003F000991FAA1FBB1F0A94D2F78A219B21AC2107
:10040000BD210097A105B10579F0202F332744279E
:100410005527FB0185819681A781B08582179307B7
:10042000A407B5070CF405811F5F0894E11CF11CBB
:10043000675F7F4F1330A8F28FB7F894992712B7F0
:100440001D5F011728F4012F03C08FB7F894992777
:100450000093450301BF109231038FBF0E943F07F5
:10046000DF91CF911F910F91FF90EF90DF90CF9090
:10047000BF90AF9008951F920F920FB60F92112464
:100480002F933F934F935F936F937F938F939F939C
:10049000AF93BF93EF93FF939FB1809182028FB987
:1004A000892F0E94460AFF91EF91BF91AF919F91D2
:1004B0008F917F916F915F914F913F912F910F900D
:1004C0000FBE0F901F9018951F920F920FB60F92AC
:1004D00011242F933F934F935F936F937F938F9349
:1004E0009F93AF93BF93EF93FF935F9B06C08CB135
:1004F00040E050E060E00E945C0EFF91EF91BF9100
:10050000AF919F918F917F916F915F914F913F91AB
:100510002F910F900FBE0F901F90189578941F92F7
:100520000F920FB60F9211242F933F934F935F9327
:100530006F937F938F939F93AF93BF93EF93FF93AB
:100540000E94C110FF91EF91BF91AF919F918F9148
:100550007F916F915F914F913F912F910F900FBEBF
:100560000F901F901895BC018FB7F894482F55270E
:1005700020910003E22FFF27EE0FFF1FE859FD4FE8
:1005800080819181892B51F42F5F27702093000384
:10059000608371834FBF81E090E008954FBF80E09A
:1005A00090E00895CFEFD0E1DEBFCDBFD29AD09AD0
:1005B000D19AD698A79AA69AA59AA49AA39AA29AEB
:1005C000A19AA09A8C9A8F9A8E9ABB98BF98D49829
:1005D000AA9ADC9AD79ADF98D39A8B9A8D9ADB9A4B
:1005E000DA9AD89AD99ABC9ABD9ABE9ABF9A1498A8
:1005F0001598169817981298D59A1398C49AC79A6E
:10060000A898A99AAD9AAC98DD9A8091640081600F
:100610008093640080916400826080936400809184
:100620006400846080936400809165008E7F809375
:10063000650080916500826080936500809165000F
:1006400084608093650083E08C5F8739E8F310E075
:100650008AE080938201109300031093A4020E9409
:10066000160585E891E0FC013496ABE3B3E0108217
:10067000BB968D939D931F5F8B961530C0F31092A0
:1006800072031092030310920A0386E093E09093A2
:10069000A6028093A502109273030E9445058FB7AE
:1006A000F8949927109233038FBF8FB7F894282FAF
:1006B000332781E090E080937E0182E080930801FF
:1006C00048E0409381018CEA92E090930503809387
:1006D00004031092B00282E290E09093FA028093B9
:1006E000F902109265021092F80210927E031092A5
:1006F0007D03109262021092610210927A021092AF
:1007000079021092800310926A0110926601109291
:10071000F7028FEF9FEF909335038093340390930C
:1007200037038093360310927B021092D902109205
:100730003A0388E391E09093D8028093D7022FBFC9
:10074000EBE6F1E088E391E081939193415047FF1C
:10075000F9CF8FB7F8949927B998BB98BA986B9846
:100760006A986F9A6E9A8FBFD6988C9A8E9A8F9A43
:10077000949A979A969A6AE380E00E9489056BE3BF
:1007800080E00E94890580ED97E0000000000000F5
:100790000000000000000000000001971816190674
:1007A000A4F380E880938E02682F8BE00E94890575
:1007B00080E980939002682F84E00E94890510925E
:1007C00092028FE68093930285E580939402609174
:1007D00092028FE00E94890580919302682F80E148
:1007E0000E94890580919402682F81E10E94890509
:1007F00011E010939602612F83E10E948905109306
:10080000A10283E892E0DC011196E0EBF0E09C01AC
:10081000225E3F4F84918D9331962A173B07D4F780
:1008200011E0C4E8D2E08991682F812F0E948905E8
:100830001F5F1D30C0F380919502682F82E10E94F6
:10084000890560E08BE00E9489056FE382E40E94E5
:10085000890561E180E00E94890566EA8EE00E94D8
:1008600089058EE00E94AD0583FFFBCF66E28EE036
:100870000E94890561EE80E00E9489058091A002B6
:10088000682F89E00E94890560E08BE00E9489055D
:1008900066EA8EE00E948905CEE08C2F0E94AD05AD
:1008A00083FFFACF66E28C2F0E94890580E980934E
:1008B0009002682F8DE00E9489058091A1028093AB
:1008C0006B030E94E0058FB7F894992710925D039F
:1008D0008FBF8FB7F894282F33271092AA02109257
:1008E000A902109202031092010310928503109244
:1008F00084031092DB021092DA028DE791E0A0E00F
:10090000B0E08093790390937A03A0937B03B09334
:100910007C032FBF0E94E0058FB7F8949927C6B9D2
:1009200017B88FBF8FB7F894482F55272091000133
:100930003091010181E597E3289FB001299F700D57
:10094000389F700D1124CB018F5A984C909353030C
:1009500080935203909382038093810385E89FE004
:10096000289FB001299F700D389F700D1124CB0175
:100970008B57904F90938401809383014FBF0E94C7
:10098000160580910001909101019093710380936D
:1009900070038FB7F894992710925903D29AD09A7E
:1009A000D19ADA9AD89AD99A8FBF8FB7F894282F0C
:1009B000332781E090E08093F7022FBF0E94450526
:1009C000109290008FE089B982E08BB986E0809325
:1009D000950088ED8AB90E94FB0578948FB7F8944A
:1009E000482F55279091A402E92FFF27EE0FFF1FF4
:1009F000E859FD4F208131812115310519F44FBF90
:100A0000F9010BC0108211829F5F97709093A4022E
:100A10004FBFF9010995E1E0F0E0EE23F9F685B763
:100A2000806285BF889500000000D8CF10927503C2
:100A3000109276031092770310927803109231038C
:100A40008FEF80937F03809363011092660283E0AF
:100A50008093320396EE909345038FB7F894282F36
:100A6000332787B78E7F87BF87B78D7F87BF80B7D4
:100A7000886080BF8BE083BF12BE91BF87B7826062
:100A800087BF2FBF81E090E008958FB7F894682F5B
:100A900080E090E04BE051E09C01F901E80FF91F84
:100AA000EA5BFC4F448355831282138211820196C4
:100AB0002B5F3F4F455D5F4F8230910574F310927D
:100AC0006A031092FC021092FB02109280011092B5
:100AD0007F0110920A011092090110926201109296
:100AE0006101109269031092380310926C03109206
:100AF0005E0210925D0210927D0210927C02809143
:100B00004A0390914B0390935703809356036FBF12
:100B10000895880F949896E087FF02C0979A01C0C5
:100B200097989698969A880F915097FFF5CF979A35
:100B30009698969A949A97E067FF02C0979A01C098
:100B400097989698969A660F915097FFF5CF949A3A
:100B5000979A969A81E090E0089590E0880F949893
:100B600026E030E087FF02C0979A01C097989698D8
:100B7000969A880F2150304037FFF4CF27E030E0BD
:100B800097989698969A8F98949A969840E050E005
:100B9000879941E0892F992721503040442329F03B
:100BA000880F991F982F916002C0982F990F969ADD
:100BB00037FFEBCF949A8F9A979A892F99270895A8
:100BC0008FB7F894282F80915C02882391F480E0FD
:100BD00090E0EDE5F3E0819301968C309105DCF334
:100BE0008EE1809367038FE18093680381E08093B7
:100BF0005C022FBF08950F931F93CF938FB7F89484
:100C00009927C0917E018FBFC13009F0A3C08FB773
:100C1000F894482F5527E0910403F09105031482BE
:100C200062E060937E011092660110926A018FEF7C
:100C30009FEF90933503809334038091D9029927D5
:100C4000880F991FFC01E457FF4F24913327322F5F
:100C5000222783579F4FFC0184919927282B392BFA
:100C60003093600220935F024FBF20913A0322230A
:100C700009F04AC0E0910403F091050324838FB783
:100C8000F894992760937E018FBF6BE3822F0E94B7
:100C9000890580ED97E000000000000000000000E2
:100CA000000000000000019718161906A4F369E37C
:100CB00080E00E94890588EC90E0000000000000C0
:100CC000000000000000000000000197181619063F
:100CD000A4F3BB98BA980E94B0068091F8028F31B5
:100CE00028F020E03AE040E050E004C020E830E0A6
:100CF00040E050E060E0862F0E94CF0680EC8DB986
:100D0000B8980E943F0726C0822F9927880F991F05
:100D1000FC01E656FF4F24913327122F00278556FA
:100D20009F4FFC0184919927082B192B8FB7F894BA
:100D3000282F332787E080937E012FBF80E00E9419
:100D40005107C801AA27BB279C01AD016C2F8C2F2E
:100D50000E94CF0681E090E0CF911F910F910895FE
:100D600061E180E00E94890580918C02682F89E012
:100D70000E94890560E08BE00E9489058AEF90E07F
:100D80000000000000000000000000000000000063
:100D9000019718161906A4F381E090E00895EF92E8
:100DA000FF920F931F93CF93DF93962F79018A01C0
:100DB000833050F4623044F4662349F423E0E216B1
:100DC000F1040105110518F480E090E051C0682F8E
:100DD0007727FB01A3E0EE0FFF1FAA95E1F7E60FCF
:100DE000F71FE452FD4FE182F28203831483908364
:100DF0008FB7F894C82FDD2782B7E80EF11C011DCC
:100E0000111DE582F6820783108721E030E040E083
:100E100050E004C0220F331F441F551F6A95D2F7BC
:100E20008091750390917603A0917703B091780338
:100E3000822B932BA42BB52B809375039093760371
:100E4000A0937703B0937803809145039927AA274D
:100E5000BB27E816F9060A071B0738F4E09245039A
:100E6000E1BE109231030E943F07CFBF81E090E0C6
:100E7000DF91CF911F910F91FF90EF900895809196
:100E80000601882329F481E993E10E94B30206C098
:100E900085B7837E85BF85B7806285BF80E090E09F
:100EA0000895CF93DF93833008F03EC041E050E0D7
:100EB00060E070E004C0440F551F661F771F8A95DD
:100EC000D2F7C0917503D0917603E0917703F0914A
:100ED0007803CE01DF0184239523A623B72300974F
:100EE000A105B10509F18FB7F894282F3327DB014D
:100EF000CA0180959095A095B0958C239D23AE2333
:100F0000BF238093750390937603A0937703B093E8
:100F100078032FBF0097A105B10519F481E08093F4
:100F2000310381E090E002C080E090E0DF91CF915A
:100F300008951F920F920FB60F921124DF92EF9235
:100F4000FF920F931F932F933F934F935F936F9352
:100F50007F938F939F93AF93BF93CF93DF93EF9341
:100F6000FF93C4B1D5B1D370349A37987894EFEF2A
:100F700000E011E08091A9029091AA020A9759F429
:100F8000CE01AA27BB278093790390937A03A0937D
:100F90007B03B0937C038FB7F894F82FD090A9020D
:100FA000ED2CFF2461E070E00E2C02C0660F771F6D
:100FB0000A94E2F740918403509185034623572316
:100FC0004115510551F48091DA029091DB02862798
:100FD00097279093DB028093DA02209101033091EE
:100FE0000203CB0182239323892B49F0012F452B48
:100FF00031F42627372730930203209301034091D1
:10100000DA025091DB024115510501F12091A9024C
:101010003091AA022F5F3F4F2C30310511F0C901EA
:1010200002C080E090E09C0181E090E0022E02C0CE
:10103000880F991F0A94E2F784239523892B51F393
:101040003093AA022093A902E091A902FFBFEF3FCB
:1010500019F08E2F0E9407098AE0D81609F4A3C060
:10106000002311F010E09FC0E114F10409F099C0D1
:101070008FB7F894992740917E01209181018FBF0D
:10108000842F99278330910539F1843091051CF420
:10109000029721F084C0059781F081C02230B9F415
:1010A0008FB7F8949927D0938102C09380028FBFA5
:1010B0008FEE91E10E94B3020AC0253041F48FB750
:1010C000F8949927D0933703C09336038FBF8FB717
:1010D000F894282F332733C0809180038F5F80934B
:1010E00080038091D7029091D8028C179D0760F5FC
:1010F000233051F51AEA8FB7F8949927109382029A
:101100008FBF0E941A09BB9ABA9A8FB7F894282FFA
:101110003327D0933703C093360385E08093800351
:10112000F0926E03E0926D03F0927F02E0927E02F5
:1011300000937E0182E0809308011093580388E0B9
:10114000809381012FBF2BC08FB7F894282F3327AE
:1011500088E0809381012FBF80918003853089F4DE
:101160008FB7F894082F11270E9449098F7090704B
:101170000196909335038093340382E080937E013F
:101180000DC08FB7F8949927409381018FBF8FB717
:10119000F894082F112780E00E946C090FBF81E0AE
:1011A00001C080E0182F8FB7F894682F41E050E01D
:1011B00002C0440F551FDA94E2F720918403309166
:1011C0008503C90184239523892B41F0112331F430
:1011D0002427352730938503209384036FBFFF9125
:1011E000EF91DF91CF91BF91AF919F918F917F91BF
:1011F0006F915F914F913F912F911F910F91FF90B0
:10120000EF90DF900F900FBE0F901F901895982FC2
:101210008FB7F894282F3327EDE5F3E0E90FF11DA0
:1012200080818F71806487B92FBF379A369A81E0A9
:1012300090E0089561EE80E00E9489058091A0020F
:10124000682F89E00E9489058AEF90E00000000085
:1012500000000000000000000000000001971816C8
:101260001906A4F380918E02682F8BE00E948905F5
:1012700084E190E000000000000000000000000099
:1012800000000000019718161906A4F381E090E011
:1012900008958FB7F894482F552720915203309125
:1012A0005303832F881F8827881F220F331F88230B
:1012B00021F08BE090E1282739272F5F3F4F3093B3
:1012C0005303209352038091830190918401282736
:1012D00039274FBFC9010895CF93DF93782F41E09D
:1012E00050E061E0C82FDD270C2E02C0440F551FCF
:1012F0000A94E2F72091DA023091DB02CA018223DC
:101300009323892B11F060E014C0CA01822B932B28
:101310009093DB028093DA02232B59F4872F0E94EB
:1013200007099927682F882321F0D093AA02C09338
:10133000A902862F9927DF91CF91089578941F9263
:101340000F920FB60F9211242F933F934F935F93F9
:101350006F937F938F939F93AF93BF93CF93DF93BD
:10136000EF93FF938FB7F894282F3327809167026C
:10137000882369F08091FD028093550388608093F3
:10138000FD0283BF8091780281BF109267022FBF58
:101390008FB7F894C82FDD278091FE029091FF024D
:1013A000892B21F48DEB92E10E94B30221B7809149
:1013B000FE029091FF02820F911D01969093FF0211
:1013C0008093FE02CFBFFF91EF91DF91CF91BF914C
:1013D000AF919F918F917F916F915F914F913F91CD
:1013E0002F910F900FBE0F901F9018951F93909103
:1013F0003A0380915C03981709F43EC081E00E9493
:1014000051078FB7F894282F332790913A03809192
:10141000D902981721F480915C038093D9028091BE
:101420005C0380933A032FBF80917E018230C9F420
:1014300011E010937E018FB7F89499278FBF80E059
:101440000E945107812F0E94510760E08BE00E94AB
:1014500089056FE380E00E9489050E943E0A0E9490
:10146000FB0580917E01873039F481E080937E0115
:101470000E94FB050E943F071F9108956F98B89A3C
:10148000C0980E943F0781E090E008950F931F935A
:10149000CF93DF93682F80916B03811160958091CA
:1014A0007E01C82FDD27C330D10509F464C1C430E3
:1014B000D1055CF4C130D10509F4C2C2C230D105F6
:1014C0000CF00BC1209769F0BBC2C530D10509F4FF
:1014D000B2C1C530D1050CF45DC1269709F468C2CC
:1014E000AFC2209158038FB7F894992720938202B6
:1014F0008FBF40916D0350916E034F5F5F4F5093CC
:101500006E0340936D038091080199278530910502
:1015100009F462C0863091054CF483309105F9F0EE
:10152000843091054CF5029769F0C4C0873091056D
:1015300009F47BC0873091050CF45EC0089709F46C
:101540008EC0B8C080915F02909160024817590721
:1015500008F476C283E38093580383E062C28CEC84
:101560008093580384E0809308018FEF9FEF90935E
:101570006E0380936D0364C280916D03282F33271F
:10158000809163029091640228173907F8F4E09182
:101590005A03F0915B03E40FF51F20812093580359
:1015A00080917E0290917F02E9E6F1E02927220FE7
:1015B000F11DE20FF11DC895982F802D3196C89529
:1015C000902590937F0280937E023AC280917E02A2
:1015D0008093580385E025C280917E0290917F021E
:1015E000892F99278093580386E080930801D09330
:1015F0006E03C0936D0324C24430510508F420C229
:101600008091F702882309F40BC2E0915A03F0910C
:101610005B03808191818F5F9F4F09F401C2D0935A
:101620006E03C0936D0387E0FCC14130510521F486
:10163000BB98BA980E94B00680916D0390916E039A
:10164000049708F4FDC188E080930801D0936E03ED
:10165000C0936D03D0938703C0938603F1C120E04C
:101660008091860390918703880F991F9093870339
:101670008093860367FF05C0816090938703809302
:101680008603660F809186039091870383589A4B57
:1016900009F4C0C12F5F283018F380916D03909139
:1016A0006E03429709F0CCC1E0915A03F0915B03BD
:1016B00016A2B6C110926A0188E992E10E94B302B3
:1016C000882309F4BDC1BB98BA980E94B00682E095
:1016D00080937E018093810145C06A3A11F065359F
:1016E00021F580917D0390917E03019690937E0376
:1016F00080937D03039708F4A3C1109274031092A2
:101700007E0310927D031092A8021092A7021092FD
:10171000650210927F0210927E0282E290E0909326
:10172000FA028093F90284E0E2C080916A01882382
:1017300009F486C180913403909135030197909309
:10174000350380933403181619060CF479C183E02D
:1017500080937E01809381011092800310927E031A
:1017600010927D038FB7F894082F112780E00E9414
:101770006C090FBF65C16A3A19F0653509F060C19F
:101780000E9449098F709070019690933503809361
:101790003403ACC06A3A11F0653519F460937A02EB
:1017A0004FC1809174039927009719F00397D4F5DE
:1017B00006C06093790239C00E94F30D33C02091B6
:1017C000790230917A02922F882790937A0280933F
:1017D000790260937902C0E0220F331F67FD216018
:1017E000660F83E32C3C3807C9F4E0910403F091C1
:1017F00005039481992301F785E080937E0180930E
:1018000081018FB7F894082F1127892F0E946C0946
:101810000FBF87E08C1B8093650207C0CF5FC83085
:10182000D8F203C082E080937E01809174038F5FC1
:101830008093740305C18091790290917A02982F68
:10184000882790937A02809379026093790220919D
:10185000790230917A020090650202C03695279590
:101860000A94E2F7622FE0910403F091050380915E
:10187000A7029091A802E80FF91F20834091A702C8
:101880005091A8024F5F5F4F5093A8024093A70268
:101890008091F9029091FA024817590788F58091D2
:1018A0007E0290917F02E9E6F1E06927660FF11D63
:1018B000E60FF11DC895982F802D3196C89590257B
:1018C00090937F0280937E024530510509F0B8C0A5
:1018D000E0910403F0910503848199279093FA0223
:1018E0008093F9028E31910528F0148282E0809372
:1018F0007E01A6C005969093FA028093F902A0C0DB
:1019000048175907E1F480917E0290917F02E9E641
:10191000F1E06927660FF11DE60FF11DC895982FBC
:10192000802D3196C895902590937F0280937E02FA
:1019300082E290E09093A8028093A70281C0443293
:10194000510508F47DC0E0910403F091050322A144
:1019500033A180917E0290917F022817390729F5E3
:1019600081E090E082A393A38091F702882381F124
:101970002081318180910001909101012817390760
:1019800039F586E080937E010E941A09BB9ABA9AC3
:101990008FB7F894282F33278AEA809382022FBFCB
:1019A0001092A8021092A7024BC012A213A210C05C
:1019B000E091A702F091A8023196F093A802E0937B
:1019C000A702E031F10580F10E94B006BB98BA98F9
:1019D0000E943E0AC2E0C0937E01E0910403F091B0
:1019E0000503809136039091370384A395A38CE07F
:1019F0009EE00E94B302882319F5E0910403F09160
:101A000005038483C0937E0180EC8DB9B8980E9451
:101A10003F0716C0E0915A03F0915B0381E086A373
:101A200089E0809308010CC0EB30F10548F0E850E4
:101A3000FF4F20818FB7F8949927209382028FBFA0
:101A400081E090E0DF91CF911F910F910895382FA1
:101A500091E08FB7F8942091830321FD06C02260A6
:101A6000209383033093390301C090E08FBF9130FE
:101A700019F40E943F0D982F892F99270895CF932D
:101A8000C1E020E08FB7F894382F80916A03882353
:101A9000C9F580918303992781FF09C089E393E009
:101AA0009093A3028093A20280E490E01EC082FF84
:101AB00012C0E0916101F0916201F093A302E09302
:101AC000A20282E490E09093650180936401848196
:101AD0009927059610C083FF15C08DE791E090937C
:101AE000A3028093A2028FEF90E090936501809310
:101AF000640181E090E09093800180937F012C2F1E
:101B0000C0936A033FBF2223F1F08FB7F89499275F
:101B100010920A01109209011092FC021092FB022D
:101B20008FBF8EE70E94A70DC82F813061F08FB75D
:101B3000F894282F332788E080936A032FBF8CEB1B
:101B40009DE00E94B3028C2F9927CF910895482FD2
:101B50008FB7F894282F33279091330381E0809337
:101B600033032FBF992319F080E090E008954CB91A
:101B70005E9A81E090E008958FB7F894282F33277C
:101B800080916A03883011F410926A032FBF80910C
:101B9000640190916501409183038034910551F473
:101BA0008FB7F894282F332782E048274093830388
:101BB0002FBF16C08FB7F894282F332784E048270B
:101BC000409383032FBFE0916101F0916201148281
:101BD0008FB7F894992710926201109261018FBF1C
:101BE0000E943F0D08958FB7F894382F2091590324
:101BF00020FF06C08FB7F8949927DA9A2E7F05C088
:101C00008FB7F8949927DA982160209359038FBFF2
:101C10003FBF81E090E00895CF93DF938FB7F894B2
:101C20009927A0910403B091050397961D921C92E9
:101C300098978FBF92968D919C919397892B21F1C4
:101C40008FB7F894282F90917203E92FFF27EE0F9A
:101C5000FF1FE55CFC4FC081D1818C81882351F44A
:101C6000A083B1839F5F892F65E00E94F315909355
:101C7000720302C0C0E0D0E02FBF209729F081E9B5
:101C800091E10E94B30201C0ED018FB7F89499274A
:101C9000209721F0D0930503C0930403E09104033F
:101CA000F091050314828FBF80EC8DB9B8980E9423
:101CB0003F07DF91CF910895382F809169039927CD
:101CC0008230910509F46BC0833091052CF40097A4
:101CD00059F0019781F1B7C18330910509F49CC097
:101CE000049709F459C1AFC13E3709F0AEC18091E4
:101CF00038039927FC01EE0FFF1FEE0FFF1FE80FBF
:101D0000F91FE80FF91FEA5BFC4F8281938100976E
:101D100009F09BC1118290937D0280937C02909385
:101D20005E0280935D028481958190935703809336
:101D3000560381E085C13E3709F487C1809138039D
:101D40009927FC01EE0FFF1FEE0FFF1FE80FF91F91
:101D5000E80FF91FEA5BFC4F308380917C02909181
:101D60007D02E9E6F1E0232F2927220FF11DE20F82
:101D7000F11DC895982F802D3196C8959025909388
:101D80007D0280937C02832F99278134910529F06D
:101D90008234910509F453C156C182E051C13E37E6
:101DA00009F451C1609138033D3781F4862F99279A
:101DB000FC01EE0FFF1FEE0FFF1FE80FF91FE80FEA
:101DC000F91FEA5BFC4F80E281833FC1862F992790
:101DD000FC01EE0FFF1FEE0FFF1FE80FF91FE80FCA
:101DE000F91FEA5BFC4F21812327218380917C022C
:101DF00090917D02E9E6F1E02927220FF11DE20F23
:101E0000F11DC895982F802D3196C89590259093F7
:101E10007D0280937C0213C140915D0250915E026D
:101E20004C32510508F0BAC03D3711F484E008C1C6
:101E30003E3709F07FC04230510508F45FC0E091A1
:101E40005603F0915703E40FF51F82919927382F1D
:101E5000222782919927282B392B80917C029091FF
:101E60007D026091380328173907E1F4862F9927FE
:101E7000FC01EE0FFF1FEE0FFF1FE80FF91FE80F29
:101E8000F91FEA5BFC4F425050404283538389EC78
:101E900093E10E94B302809138038F5F8170809339
:101EA000380310C0862F9927FC01EE0FFF1FEE0F9D
:101EB000FF1FE80FF91FE80FF91FEA5BFC4F1282C2
:101EC00013821182809138039927FC01EE0FFF1FC6
:101ED000EE0FFF1FE80FF91FE80FF91FEA5BFC4F39
:101EE00082819381892BD9F48481958190935703C2
:101EF0008093560381E08093690313C08091380377
:101F00009927FC01EE0FFF1FEE0FFF1FE80FF91FCF
:101F1000E80FF91FEA5BFC4F1282138211821092C4
:101F2000690310927D0210927C0210925E02109260
:101F30005D028BC0E0915603F0915703E40FF51F4B
:101F4000308340915D0250915E0242305105E8F0CD
:101F500020917C0230917D02E0915603F09157036D
:101F6000E40FF51F32978081E9E6F1E08327880FBF
:101F7000F11DE80FF11DC895322F202D3196C8951F
:101F8000302530937D0220937C024F5F5F4F50934A
:101F90005E0240935D0259C03E37D1F410927D023B
:101FA00010927C0210925E0210925D0280913803C2
:101FB0009927FC01EE0FFF1FEE0FFF1FE80FF91F1F
:101FC000E80FF91FEA5BFC4F1282138211823BC0BB
:101FD00080E28327E0915603F091570320915D0240
:101FE00030915E02E20FF31F808340915D025091B9
:101FF0005E0242305105E8F020917C0230917D0272
:10200000E0915603F0915703E40FF51F329780815A
:10201000E9E6F1E08327880FF11DE80FF11DC8956F
:10202000322F202D3196C895302530937D02209394
:102030007C024F5F5F4F50935E0240935D0283E0EE
:102040008093690302C01092690381E090E00895D3
:102050001F93CF93E091A502F091A6028091020117
:102060008383E091A502F091A60211E090E08FB782
:10207000F894C82F80916601882311F0192F19C098
:1020800010936601F0935B03E0935A0396A3848157
:102090009927059690936402809363020E944909F0
:1020A0008F71907001969093350380933403109351
:1020B0006A0190917E01CFBF112309F454C097307B
:1020C00009F051C081E00E9451076BE380E00E945B
:1020D000890580ED97E0000000000000000000008E
:1020E000000000000000019718161906A4F369E328
:1020F00080E00E94890588EC90E00000000000006C
:1021000000000000000000000000019718161906EA
:10211000A4F30E94B006BB98BA9880EC8DB9B89829
:102120000E943F078091F8028F3128F020E03AE0CA
:1021300040E050E004C020E830E040E050E060E0E3
:10214000862F0E94CF0620E230E040E050E061E0C0
:10215000862F0E94CF068FB7F894282F332782E06E
:1021600080937E012FBF112339F48FB7F8949927FC
:10217000109273038FBF02C00E94F30DCF911F9185
:1021800008958FB7F8949927209133031092330361
:102190008FBF222309F4A4C080916A03873031F4F1
:1021A00010926A038CEB9DE00E94B30221E08091C3
:1021B0006A0399278430910509F46EC08530910532
:1021C00054F48230910561F1833091050CF058C0D0
:1021D000019749F07CC08630910509F471C00697DB
:1021E0000CF463C074C082E080936A0320910901FB
:1021F00030910A0180916401E9E6F1E08327880FBC
:10220000F11DE80FF11DC895322F202D3196C8958C
:10221000302530930A01209309018091640154C054
:10222000E091A202F091A3022091FB023091FC0206
:10223000E20FF31F50818091090190910A01E9E6B4
:10224000F1E0452F4927440FF11DE40FF11DC8951A
:10225000982F802D3196C895902590930A018093F0
:1022600009012F5F3F4F3093FC022093FB028091C6
:102270007F01909180012817390798F084E00FC002
:1022800080916F0390E289270E94A70D282F8091EB
:10229000540380936A031BC05091090185E0809329
:1022A0006A03852F0E94731111C0809109019091DA
:1022B0000A01292F332786E080936A03822FF2CF09
:1022C00087E080936A038EE70E94A70D282F2130B4
:1022D00039F088E080936A038CEB9DE00E94B302A2
:1022E00081E090E00895982F8D57823078F48FB771
:1022F000F894282F332780916A038093540383E056
:1023000080936A0390936F032FBF9DE7892F0E94EC
:10231000A70D992708958FBF08958FB7F89499272F
:102320000895CF93DF938FB7F894282F33278091A8
:102330000303E82FFF27EE0FFF1FE55CFC4FC08172
:10234000D1818F5F65E00E94F315909303032FBF47
:1023500031E08FB7F8949091830392FD08C09460A8
:1023600090938303D0936201C093610101C030E078
:102370008FBF313019F40E943F0D382F209159033F
:102380003130B1F08FB7F894382F22FF06C08FB7E5
:10239000F8949927D89A2B7F05C08FB7F89499277E
:1023A000D8982460209359038FBF3FBF1C8214C06C
:1023B0008FB7F894382F21FF06C08FB7F89499276C
:1023C000D99A2D7F05C08FB7F8949927D9982260A4
:1023D000209359038FBF3FBFDF91CF9108950F9393
:1023E0001F93CF93DF93CDB7DEB762970FB6F89404
:1023F000DEBF0FBECDBF8FB7F894482F5527209171
:102400007B02E22FFF27EE0FFF1FE559FE4F809161
:1024100080029091810280839183822F8F5F8093CD
:102420007B02893010F010927B028091F8028F318C
:1024300018F48F5F8093F8024FBF48E0ABE6B1E03D
:1024400020E030E0FE01E20FF31F8D919D9181832A
:10245000928341502E5F3F4F47FFF4CF50E0A52FAE
:1024600041E022E030E0BE016F5F7F4FF901E60FEF
:10247000F71F80819181EFEF8F3F9E0791F0EA2F48
:10248000FF27E7FDF095EE0FFF1FE60FF71F019006
:10249000F081E02DE817F90718F0EF5FFF4F09F41E
:1024A000A42F4F5F2E5F3F4F4930ECF2EA2FFF27FA
:1024B000E7FDF095EE0FFF1FE60FF71F60817181BA
:1024C0008FEF9FEF808391835F5F53304CF2809159
:1024D000D7029091D802A5E0880F991FAA95E1F73D
:1024E0009C0144275527660F771FCB01AA27BB27DE
:1024F000280F391F4A1F5B1F8FB7F894082F112729
:10250000CA01B90122E230E040E050E00E94FF152C
:102510003093D8022093D7020FBF62960FB6F8947B
:10252000DEBF0FBECDBFDF91CF911F910F910895F8
:102530008FB7F8949927E0915A03F0915B0317A2A3
:1025400010A68FBF8091730381FF05C089EC94E1D1
:102550000E94B3020BC08FB7F8949927E091A502AF
:10256000F091A6021482109273038FBF8FB7F89474
:102570009927109266018FBF08959F92AF92BF92E4
:10258000CF92DF92EF92FF920F931F93CF93DF933F
:1025900081E0809331038FB7F8949927C090FE02B1
:1025A000D090FF021092FF021092FE028FBF809126
:1025B000750390917603A0917703B091780300970B
:1025C000A105B10509F495C09924CCEDD2E0AA2467
:1025D000BB24B1E0EB2EF12C012D112D0A2C04C0EF
:1025E000EE0CFF1C001F111F0A94D2F78091750397
:1025F00090917603A0917703B09178038E219F216B
:10260000A023B1230097A105B10509F469C0960183
:10261000442755278D819E81AF81B885821B930BFE
:10262000A40BB50B8D839E83AF83B8870397A10559
:10263000B1050CF055C089ED94E10E94B3028823E6
:1026400009F445C08881882389F48D819E81AF81FA
:10265000B88529813A814B815C81820F931FA41F29
:10266000B51F8D839E83AF83B8871AC0A8019701D9
:102670002095309540955095809175039091760303
:10268000A0917703B091780382239323A423B523E9
:102690008093750390937603A0937703B0937803A8
:1026A00080917F03823019F48FEF80937F039091A4
:1026B0007F039F5F90937F03809166028F5F80937B
:1026C0006602E92FFF27E959FE4F908209C08091E9
:1026D00045039927AA27BB278D839E83AF83B8879D
:1026E00093940894A11CB11C299682E0891508F0E6
:1026F00070CF8FB7F8949927C090FE02D090FF0258
:102700008FBFCD2811F40E94D401DF91CF911F918A
:102710000F91FF90EF90DF90CF90BF90AF909F9080
:10272000089587B799278C7F009719F080E090E093
:102730001AC06F9918C0379B03C088E090E013C09F
:1027400087B7992783709070892B59F081B792B71A
:10275000891B803118F48CE190E005C088E190E09D
:1027600002C080E190E0382F25B7237E8C3121F024
:10277000883111F008C0000080B7992787709070E9
:10278000892BC9F7237E232B25BF85B7806285BFA0
:102790000895CF92DF92EF92FF920F931F93CF9302
:1027A000DF9390916C0386E0989F7001112486E47A
:1027B00093E0E80EF91EF701C481D58182819381EF
:1027C000059708F4C9C02081822F9927813491058B
:1027D00069F0823491052CF48034910509F4BCC071
:1027E000B5C08234910509F48DC0B0C081E090E09D
:1027F0008AA39BA3F701C1808A81882309F05FC067
:102800008E010B5F1F4F8D8180FF0CC08FB7F89436
:10281000282F3327F80181819281909301018093C1
:1028200000012FBF8D8181FF09C08FB7F894282F39
:102830003327F8018381809302012FBF8D8182FFAE
:1028400004C0F801848180938E028D8183FF1CC0B7
:102850008FB7F894D82EF80195819730A0F4809125
:102860003A03981781F090935C0380916A01882362
:1028700051F480917E01873021F0823011F0813057
:1028800011F40E94F609DFBEF801808184FF0FC0B9
:102890002681213031F48FB7F89499272093F702DD
:1028A00005C08FB7F89499271092F7028FBFC09296
:1028B000AB0289EC94E10E94B302CE0121C08FB734
:1028C000F8949091730390FF03C000E010E00DC0F6
:1028D0000091A5021091A602936090937303D09388
:1028E000A602C093A502C092AB028FBF01151105CD
:1028F00011F48E0104C088E290E10E94B302C80185
:10290000EC012AC081E090E08AA39BA38FB7F894E2
:102910009091730390FF03C000E010E00BC00091A2
:10292000A5021091A602916090937303D093A60222
:10293000C093A5028FBF0115110511F48E0104C0CB
:1029400088E290E10E94B302E80106C020937D0175
:1029500089ED95E10E94B3028FB7F894282F3327B1
:10296000209719F0F701C483D583F70112821382EF
:10297000118280916C038F5F817080936C032FBFF5
:10298000DF91CF911F910F91FF90EF90DF90CF904B
:1029900008958091AB020E94270D8FB7F894992774
:1029A000E091A502F091A6021482109273038FBFEA
:1029B0000895FF920F931F93CF93DF939091660238
:1029C000992319F483E090E015C08091630182306F
:1029D00019F48FEF80936301809163018F5F80937F
:1029E0006301915090936602E82FFF27E959FE4F4B
:1029F00080819927833008F0D6C0992781309105CE
:102A000011F1823091051CF4892B29F0CCC002977A
:102A100009F4C5C0C8C08FB7F894992720917E01EA
:102A20008FBF223009F0BFC08FB7F8949927209349
:102A300081018FBF8FB7F894082F112780E00E9483
:102A40006C090FBFB0C0E0913A03EE2309F4ABC0AC
:102A50008FB7F894992720917E01F0906A018FBF7B
:102A600033272230310529F02730310509F43CC0E5
:102A70008DC08E2F9927880F991FFC01E656FF4FB6
:102A800024913327D22FCC2785569F4FFC01849168
:102A90009927C82BD92BFF2009F078C08FB7F8945D
:102AA000082F11270E94F6090FBF8FB7F894282F1F
:102AB000332787E080937E012FBFCE01AA27BB2753
:102AC0009C01AD0161E0862F0E94CF068F2D0E94F0
:102AD00051076F2D8BE00E9489056FE38F2D0E94B7
:102AE00089050E943E0A5FC0FF27E855FF4F849189
:102AF000C82FDD278FB7F894282F332782E08093E3
:102B00007E012FBF6BE380E00E94890580ED97E096
:102B100000000000000000000000000000000000B5
:102B2000019718161906A4F369E380E00E9489054D
:102B300088EC90E0000000000000000000000000B1
:102B400000000000019718161906A4F3BB98BA9864
:102B50000E94B00680EC8DB9B8980E943F07809122
:102B6000F8028F3128F020E03AE040E050E004C065
:102B700020E830E040E050E060E0862F0E94CF0681
:102B8000CE01AA27BB279C01AD0104C020E230E0A2
:102B900040E050E061E0862F0E94CF0604C086EE40
:102BA00095E10E94B302DF91CF911F910F91FF90A9
:102BB00008958FB7F894282F332780918303886076
:102BC000809383032FBF0E943F0D08950F931F939F
:102BD0008FB7F894082F11278AE00E946C090FBF65
:102BE0001F910F910895991B79E004C0991F9617C2
:102BF00008F0961B881F7A95C9F780950895A1E281
:102C00001A2EAA1BBB1BFD010DC0AA1FBB1FEE1F66
:102C1000FF1FA217B307E407F50720F0A21BB30BB1
:102C2000E40BF50B661F771F881F991F1A9469F72D
:102C300060957095809590959B01AC01BD01CF0189
:022C40000895F5
:082C420001007DABBA83010023
:00000001FF
