S014000062696E6D6963612F6D61696E2E7372656369
S11300000C9430000C9450000C9450000C9450004C
S11300100C9450000C9450000C9450000C9450001C
S11300200C9450000C9450000C9450000C9450000C
S11300300C9450000C9450000C9450000C94AF029B
S11300400C9461040C9450000C9450000C945000D7
S11300500C9450000C94D3010C9450000C94500058
S113006011241FBE20E0A89521BD20E025BFEEEAA3
S1130070F9E030E0A0E6B0E020E005C03BBFD89551
S11300803196311D0D92AE36B207C1F7AEE6B0E03F
S113009020E001C01D92A43BB207E1F70C94DA0200
S11300A00C945200189510926E00DA9AD89AD99A44
S11300B081E090E00895DA9820916E002160209309
S11300C06E0081E090E00895DA9A20916E00267027
S11300D020936E0081E090E0089520916E0020FF4F
S11300E003C00E94640002C00E945B00992787FD40
S11300F090950895D99820916E00226020936E0007
S113010081E090E00895D99A20916E0025702093A3
S11301106E0081E090E0089520916E0021FF03C0FD
S11301200E94830002C00E947A00992787FD90955F
S11301300895D89820916E00246020936E0081E089
S113014090E00895D89A20916E00237020936E0059
S113015081E090E0089520916E0022FF03C00E9488
S1130160A20002C00E949900992787FD90950895E6
S1130170D99A9598DA9ADA98959A0895D99895988B
S1130180DA9ADA98959A08951F93CF93DF93C82F3C
S11301900E94B80011E0173958F40E94B8000E9478
S11301A0B8000E94B8000E94B8001C5F1739A8F379
S11301B010E0DD27C7FDD0951C161D0644F40E94EF
S11301C0BE001F5F212F33272C173D07C4F3D99A94
S11301D0DA9ADF91CF911F9108951F93182F0E94EF
S11301E0C40010936F0081E090E01F9108951F9365
S11301F0182F0E94C40010936F001F9108950E944D
S1130200BE00D99ADA9A20916F002F5F20936F0075
S113021008950E94B800D99ADA9A20916F0021506B
S113022020936F00089580916F00992787FD909522
S11302300895A0916A00B0916B008A2F9B2F61E50D
S113024077E30E94C5048F5A984C90937100809371
S1130250700090937300809372008A2F9B2F65E83F
S11302607FE00E94C5048B57904F90937500809354
S1130270740081E090E00895209170003091710045
S1130280932F822F8827990F881F9927220F331FB6
S1130290882321F04BE050E1242735273093710067
S11302A020937000409174005091750024273527E5
S11302B0932F822F0895109287001092860008953C
S11302C020E030E05091860040918700541709F4F3
S11302D021E0932F822F0895482F592F2FB720788C
S11302E0F894E0918700709187007F5F7093870096
S11302F03091870037703093870060918700309188
S11303008600631781F0222309F07894FF27EE0F0B
S1130310FF1FA7E8B0E05197EA0FFB1F408351830A
S113032081E090E007C0E0938700222309F07894ED
S113033080E090E008953091860020918700321784
S113034011F160918600A62FBB27A7FDB0955091AF
S113035086005F5F5093860040918600477040930B
S11303608600AA0FBB1FE6E8F0E07097AE0FBF1F30
S11303702D913C9111971D921C92E22FF32F099518
S113038080E090E002C08FEF9FEF089524E026B94B
S11303903698339A379A80E090E00895877086B94A
S11303A081E090E008951F920F920FB60F921124EE
S11303B00F920F931F932F933F934F935F936F93DA
S11303C07F938F939F93AF93BF93CF93EF93FF93B9
S11303D0C091890090E000918800002309F451C085
S11303E00FB6F89404B10FBE15B17894209188002B
S11303F0213009F441C0339A369ACC23D9F1C13063
S113040099F1C23059F1C33019F1C430F9F0C53053
S1130410D9F0C630B9F0C73099F0C83079F0C93096
S113042059F000918800023061F5992351F59093B9
S113043088003798339825C090E0F3CF90E0EFCF51
S113044090E0EBCF90E0E7CF90E0E3CF90E0DFCF18
S1130450912F802F0E943603982FD7CF912F802F72
S11304600E94DC03982FCFCF912F802F0E94C503C9
S1130470982FC7CF90E0C3CF109288003798339855
S1130480BCCFFF91EF91CF91BF91AF919F918F918D
S11304907F916F915F914F913F912F911F910F9198
S11304A00F900F900FBE0F901F901895E82F90E0BB
S11304B02FB7F89430918800332389F441E04093B6
S11304C08800E0938900FF27E7FDF095E05AFF4F8D
S11304D0308137B9349A379A339A369A91E02FBFDC
S11304E0892F992787FD90950895E82F90E02FB7DD
S11304F0F89430918800332389F442E040938800D3
S1130500E0938900FF27E7FDF095E05AFF4F308123
S113051037B9349A379A339A369A91E02FBF892F94
S1130520992787FD90950895382F262F27702860E6
S11305306EEF07B6062207BE5DEF07B6052207BEBB
S113054048E000B6042A00BE23BF12BE31BF22E039
S113055007B6022A07BE789481E090E00895789463
S11305601F920F920FB60F9211242F933F934F9324
S11305705F936F937F938F939F93AF93BF93EF9307
S1130580FF930E949503FF91EF91BF91AF919F91CB
S11305908F917F916F915F914F913F912F910F9028
S11305A00FBE0F901F90189580E090E0089580E0B2
S11305B090E00895CFEFDFE0DEBFCDBF1ABA17BADF
S11305C011BA22E022B923B9D29AD09AD19A8D9A3B
S11305D0179A8F9A8E9ABB9A1F9AB89AD79AD39AD7
S11305E0C09ADA9AD89AD99A149A1C9A15981D9A8C
S11305F08AE00E94ED000E945B010E946E030E944B
S1130600B4030E94E2030E9419010E94F2030E94B3
S1130610CB030E948703C0E20E949B01892BE1F374
S113062005B60C2A05BE889500000000F5CFFFCF63
S113063081E090E0089581E090E0089581E090E009
S113064008950E94BD0308950E94D40308950E9452
S1130650EB03089580E490E00E94F70308950E945C
S1130660960381E293E00E946C0108959093A100A7
S11306708093A0008AE293E00E946C0180E090E005
S1130680089590939F0080939E0087E293E00E94D8
S11306906C0180E090E0089590939D0080939C000D
S11306A084E293E00E946C0180E090E008958FE280
S11306B093E00E946C01A091A200B091A300119656
S11306C0B093A300A093A20080E090E008958AE292
S11306D093E00E946C0180E090E008952AE830E005
S11306E030939B0020939A001092A3001092A200D2
S11306F01092A5001092A4001092A7001092A600D8
S11307001092A9001092A80081E090E008958FE56E
S11307100E94F70066E080E80E94940281E293E080
S11307200E946C0181E090E008950895A091A800D2
S1130730B091A900AB2B59F00E9464000E94830081
S11307400E94A2001092A9001092A8000CC00E945E
S11307505B000E947A000E94990021E030E030930F
S1130760A9002093A800089526E0209361000E9428
S1130770C601992787FD90950895A99A81E00E9462
S11307805602992787FD90950895A9980E944C03D5
S113079080E090E0089525E0209362000E94C60165
S11307A0992787FD90950895AA9A82E00E9456029F
S11307B0992787FD90950895AA980E94410380E0A7
S11307C090E0089527E0209363000E94C6019927D2
S11307D087FD9095089583E00E945602992787FD2E
S11307E0909508951092AA0081E090E00895282F32
S11307F0392FF8946BB36093AB0058B35093AC00AB
S113080045B34093AD00F2B3F093AE00EAB3E09386
S1130810AF00B7B3B093B000A1B3A093B10092B14D
S11308209093B20073B77093B3006DEF07B60622CE
S113083007BE58E000B6052A00BE4FE043BF832F31
S11308409927880F8093AA00322F319532BF21E077
S113085007B6022A07BE20B72770E9F71ABA17BAF3
S113086011BA12B8AFEFABBBA8BBA5BBA2BB8F9AA2
S113087097988E9A9698BB9AC3988D9A959A179A38
S11308801F98D69ADE98B89AC09A159A1D9A149A07
S11308901C98AF98AE98AD98AC98AB98AA98A998C4
S11308A0A89890E105B6092A05BE78E005B6072A9E
S11308B005BE30E205B6032A05BE789481E090E0D7
S11308C008951F920F920FB60F9211240F922F9337
S11308D03F934F935F936F937F938F939F93AF93C4
S11308E0BF93EF93FF938091AA0018164CF48150A4
S11308F08093AA0040E842BF50B75770E9F733C06D
S113090027EF05B6022205BEFFEE05B60F2205BE8F
S1130910E091AB00EBBBB091AC00B8BBA091AD00D3
S1130920A5BB9091AE0092BB7091AF007ABB609171
S1130930B00067BB5091B10051BB4091B20042B9C5
S11309403091B30033BF2EEF07B6022207BE22E078
S113095007B6022A07BE12BE30B73770E9F7149AF9
S11309601C9A0E945703FF91EF91BF91AF919F9101
S11309708F917F916F915F914F913F912F910F9044
S11309800F900FBE0F901F9018955527002480FFDD
S113099002C0060E571F660F771F6115710521F0FF
S11109A096958795009799F7952F802D0895C9
S11109AE0001020304050607080901007D008C
S9030000FC
