:020000021000EC
:10F000000C9446F80C9463F80C9463F80C9463F831
:10F010000C9463F80C9463F80C9463F80C9463F804
:10F020000C9463F80C9463F80C9463F80C9463F8F4
:10F030000C9463F80C9463F80C9463F80C9463F8E4
:10F040000C9463F80C9463F80C9463F80C9463F8D4
:10F050000C9463F80C9463F80C9463F80C9463F8C4
:10F060000C9463F80C9463F80C9463F80C9463F8B4
:10F070000C9463F80C9463F80C9463F80C9463F8A4
:10F080000C9463F80C9463F80C9463F811241FBE7D
:10F09000CFEFD0E1DEBFCDBF11E0A0E0B1E0E2E80C
:10F0A000F9EF01E00BBF02C007900D92A030B1074D
:10F0B000D9F711E0A0E0B1E001C01D92A430B10782
:10F0C000E1F70C94F2FB0C9400F8992781FF02C041
:10F0D000D99801C0D99A82FF02C0D89801C0D89AA5
:10F0E00080FF02C0DA980895DA9A08951F93CF93AB
:10F0F000182FC3E0812F0E9465F884E02FEF3FEFC7
:10F1000021503040E9F78150C9F70E9465F884E04A
:10F110002FEF3FEF21503040E9F78150C9F7C15040
:10F1200049F7CF911F910895FF920F931F93CF93AB
:10F13000DF9317E003E0F12EF694C0E0D6E0812FD4
:10F140000E9465F8CE01209711F00197F1F78F2DFD
:10F150000E9465F880E096E08C1B9D0B009711F0F3
:10F160000197FCCF24971C161D064CF301501F2D50
:10F1700011F7DF91CF911F910F91FF90089590E0CB
:10F1800027E087FF02C0939A01C09398959A990F40
:10F190008299916095982150880F27FFF2CF892F8F
:10F1A00099270895EF92FF921F93CF93DF93CDB7E6
:10F1B000DEB724970FB6F894DEBF0FBECDBF9B011C
:10F1C000AC01609300017093010180930201909360
:10F1D000030188E68983FE013196DA01C9016FE0F7
:10F1E000B695A795979587956A95D1F7818387E01E
:10F1F00056954795379527958A95D1F7822F8E7F1B
:10F200008B83809100018C839598DB987F0113E0BC
:10F21000F70181917F010E94BFF8115017FFF8CFCD
:10F2200013E080E00E94BFF8115017FFFACF959AC3
:10F23000959824960FB6F894DEBF0FBECDBFDF9130
:10F24000CF911F91FF90EF90089580910001882346
:10F2500069F4DB9A8091000190910101A091020173
:10F26000B0910301BC01CD010E94D2F88091000150
:10F2700090910101A0910201B09103010196A11D9D
:10F28000B11D8093000190930101A0930201B093FE
:10F29000030180E00E94BFF899270895DF92EF9262
:10F2A000FF920F931F93CF93DF93EE24FF248701E8
:10F2B000C0E0D0E073E0D72E0E9425F99927AA2755
:10F2C000BB270C2E04C0880F991FAA1FBB1F0A94CE
:10F2D000D2F7E82AF92A0A2B1B2BDA942896D7FEB4
:10F2E000EBCFC801B701DF91CF911F910F91FF9034
:10F2F000EF90DF9008952F923F924F925F926F921E
:10F300007F928F929F92AF92BF92CF92DF92EF92B5
:10F31000FF920F931F93CF93DF93CDB7DEB7CA5001
:10F32000D1400FB6F894DEBF0FBECDBF6B017C019C
:10F33000DC01CB010796A11DB11DBC01CD010E94CE
:10F34000D2F80E9425F99927C95FDE4F8883C750FC
:10F35000D140DB9A882309F4EAC0C95FDE4F2881D7
:10F36000C750D1402F3F09F4E2C0F0E12F2E312CDD
:10F37000412C512C2C0C3D1C4E1C5F1C40E051E0DC
:10F38000CB5FDE4F48835983C550D140E0E56E2EF8
:10F39000E3E07E2EC85FDE4F1882C850D140C85FC0
:10F3A000DE4F5881C850D140521708F082C0C85F64
:10F3B000DE4F8881C850D140082F1127C801800F27
:10F3C000911FAA27BB27820D931DA41DB51DBC014B
:10F3D000CD010E94D2F80E9425F9A82EBB240E94DC
:10F3E00025F99927982F8827A82AB92ADB9ACB5F75
:10F3F000DE4FE881F981C550D140CF01AA27BB2754
:10F40000820D931DA41DB51DBC01CD010E94D2F833
:10F410008824992461147104E1F00E9425F9992748
:10F42000982F88278825992548E061E270E19C01A2
:10F43000220F331F415097FF04C0C9018627972729
:10F4400001C0C901442399F74C010894610871086F
:10F45000E1CFDB9A0F5F1F4FC801AA27BB27BC0172
:10F46000CD0120E534E040E050E00E94A1FCDC0149
:10F47000CB01CB5FDE4F88839983C550D14010E527
:10F48000612E14E0712EC85FDE4FF881C850D14064
:10F49000FF5FC85FDE4FF883C850D140C95FDE4FC1
:10F4A0002881C750D140F21720F4A814B90409F4F8
:10F4B0007ECFC85FDE4F3881C850D140C95FDE4F74
:10F4C0004881C750D140341791F5B0E92B2EB1E0F7
:10F4D0003B2E412C512C2C0C3D1C4E1C5F1CC201A0
:10F4E000B1010E94D2F80E944EF9CF5FDE4F6883CF
:10F4F00079838A839B83C150D1400E944EF95B017E
:10F500006C0188E090E0A0E0B0E0280E391E4A1EB1
:10F510005B1ECF5FDE4F288139814A815B81C150FC
:10F52000D140205030404240504039F0DB9A81E0D9
:10F5300090E01DC182E090E01AC1A114B104C104A1
:10F54000D10409F412C1CF5FDE4F288139814A818D
:10F550005B81C150D140BB27A52F942F832F7C0105
:10F56000C201B1010E94D2F83FEFA3163FEFB306EC
:10F570003FEFC3063FEFD30609F4F7C0CF5FDE4F7E
:10F5800088819981C150D1404E010894811C911C01
:10F590008401080F111D0E9425F9D8018C93CF5FBB
:10F5A000DE4F288139814A815B81C150D1402F5F74
:10F5B0003F4F4F4F5F4FCF5FDE4F288339834A83E2
:10F5C0005B83C150D1400894211C311C411C511C4B
:10F5D0000894A108B108C108D108A114B104C1045C
:10F5E000D104B1F40E944EF9CF5FDE4F6883798376
:10F5F0008A839B83C150D1400E944EF95B016C010C
:10F6000088E090E0A0E0B0E0280E391E4A1E5B1EA4
:10F61000CF5FDE4F288139814A815B81C150D14063
:10F62000BB27A52F942F832FE816F90631F4A114D8
:10F63000B104C104D10409F097CFDB9A8E2D0E944A
:10F6400065F89E2D88277C0100271127C75FDE4FB4
:10F6500088829982C950D140D801C70180509F4FFC
:10F66000AF4FBF4F8150904FA140B04018F080E0A5
:10F6700090E077C08091680080FDFCCFE199FECFDB
:10F6800083E0F70100935B0080936800E895809128
:10F69000680086FF0EC091E18091680080FDFCCF7C
:10F6A000E199FECF90936800E8958091680086FD0F
:10F6B000F3CF66247724430161E0A801970180918C
:10F6C000680080FDFCCFE199FECFC75FDE4FA881C7
:10F6D000B981C950D1408D919D91C75FDE4FA883FC
:10F6E000B983C950D1400C01F90140935B0060938C
:10F6F0006800E895112482E090E0A0E0B0E0680E98
:10F70000791E8A1E9B1E280F391F4A1F5B1F90E01F
:10F71000691691E0790690E0890690E0990678F202
:10F720008091680080FDFCCFE199FECF85E0F70174
:10F7300000935B0080936800E8958091680086FFE5
:10F740000EC091E18091680080FDFCCFE199FECF71
:10F7500090936800E8958091680086FDF3CF81E082
:10F7600090E0892B09F4E6CEE8CE80E090E0C65F19
:10F77000DE4F0FB6F894DEBF0FBECDBFDF91CF9145
:10F780001F910F91FF90EF90DF90CF90BF90AF90BF
:10F790009F908F907F906F905F904F903F902F90B1
:10F7A0000895EF92FF920F931F93CF93DF93EA0197
:10F7B0008C017B01209759F0F70121917F01C8014D
:10F7C0000F5F1F4F622F0E9496FC2197F3CFE199A4
:10F7D000FECF81E090E0DF91CF911F910F91FF90DC
:10F7E000EF900895C9EFD0E1DEBFCDBFF894D29A73
:10F7F000D09AD19AA79AA69AA59AA49AA39AA29ABD
:10F80000A19AA09AD498DC98D39A8B9A8D9ADB9A75
:10F81000D39ADB9A8D9A95988B9A939A8A98929814
:10F8200084E086B9349A8EE187B9379A369A349B48
:10F83000FECF20E030E084B195B18F5C914010F4B0
:10F8400021E030E0232B39F481E00E9476F80E9419
:10F8500094F80C9400005E010894A11CB11CA6E071
:10F86000EA2EF12C00EF1FE06501C8010F5F1F4F6A
:10F870000E948EFCF60181936F010894E108F10863
:10F88000E114F10491F78D818F5F8D838230A8F0B0
:10F8900087E00E9476F860E070E080E090E00E94EF
:10F8A0007BF9823031F588E190E029E00FB6F894D9
:10F8B000A89581BD0FBE21BDFFCF46E050E0B50148
:10F8C00080EF9FE00E94D1FB8E81882391F46981B3
:10F8D0007A818B819C810E947BF9823051F488E18E
:10F8E00090E029E00FB6F894A89581BD0FBE21BD28
:10F8F000FFCF0E9494F88FEF8D8381E08E8346E0E6
:10F9000050E0BE016F5F7F4F80EF9FE00E94D1FB10
:10F910000C94000080E090E00C94C0FCE199FECFD4
:10F920009FBB8EBBE09A99278DB30895E199FECFD6
:10F930009FBB8EBB6DBB0FB6F894E29AE19A0FBEE7
:10F940000895629FD001739FF001829FE00DF11D29
:10F95000649FE00DF11D929FF00D839FF00D749F49
:10F96000F00D659FF00D9927729FB00DE11DF91FF5
:10F97000639FB00DE11DF91FBD01CF011124089552
:02F98000FFCFB7
:040000031000F000F9
:00000001FF
