:020000021000EC
:10F000000C9446F80C9463F80C9463F80C9463F831
:10F010000C9463F80C9463F80C9463F80C9463F804
:10F020000C9463F80C9463F80C9463F80C9463F8F4
:10F030000C9463F80C9463F80C9463F80C9463F8E4
:10F040000C9463F80C9463F80C9463F80C9463F8D4
:10F050000C9463F80C9463F80C9463F80C9463F8C4
:10F060000C9463F80C9463F80C9463F80C9463F8B4
:10F070000C9463F80C9463F80C9463F80C9463F8A4
:10F080000C9463F80C9463F80C9463F811241FBE7D
:10F09000CFEFD0E1DEBFCDBF11E0A0E0B1E0E8E30B
:10F0A000F9EF01E00BBF02C007900D92A030B1074D
:10F0B000D9F711E0A0E0B1E001C01D92A430B10782
:10F0C000E1F70C9465F80C9400F8C9EFD0E1DEBFCD
:10F0D000CDBFF894D29AD19AD09AA79AA69AA59A17
:10F0E000A49AA39AA29AA19AA09AD498DC98D39AA7
:10F0F0008B9A8D9ADB9AD59ADD9A84E086B9349AF8
:10F1000087E087B9379A369A349BFECF20E030E00B
:10F1100084B195B18F5C914008F421E0232B39F440
:10F1200081E00E94FAF80E9429F90C9400005E0127
:10F130000894A11CB11C86E0E82EF12C00EF1FE022
:10F140006501C8010F5F1F4F0E9469FCF6018193A2
:10F150006F010894E108F108E114F10491F78D8141
:10F160008F5F8D838230A8F087E00E94FAF860E01C
:10F1700070E080E090E00E9453F9823031F588E140
:10F1800090E029E00FB6F894A89581BD0FBE21BD8F
:10F19000FFCF46E050E0B50180EF9FE00E9448FCC1
:10F1A0008E81882391F469817A818B819C810E9470
:10F1B00053F9823051F488E190E029E00FB6F894D9
:10F1C000A89581BD0FBE21BDFFCF0E9429F98FEF09
:10F1D0008D8381E08E8346E050E0BE016F5F7F4FFC
:10F1E00080EF9FE00E9448FC0C94000080E090E0DB
:10F1F0000C949BFC1F93CF93182FC3E0812F0E9488
:10F2000018F984E02FEF3FEF21503040E9F78150AB
:10F21000C9F70E9418F984E02FEF3FEF21503040EA
:10F22000E9F78150C9F7C15049F7CF911F9108956F
:10F23000992781FF02C0D99801C0D99A82FF02C0E4
:10F24000D89801C0D89A80FF02C0DA980895DA9A57
:10F250000895FF920F931F93CF93DF9317E003E07E
:10F26000F12EF694C0E0D6E0812F0E9418F9CE016D
:10F27000209711F00197F1F78F2D0E9418F980E087
:10F2800096E08C1B9D0B11F00197F1F724971C164B
:10F290001D0654F301501F2D19F7DF91CF911F91D7
:10F2A0000F91FF9008952F923F924F925F926F922D
:10F2B0007F928F929F92AF92BF92CF92DF92EF9206
:10F2C000FF920F931F93CF93DF93CDB7DEB7CA5052
:10F2D000D1400FB6F894DEBF0FBECDBF7B018C01CD
:10F2E000CB5FDE4F18821982C550D140DC01CB01C3
:10F2F0000796A11DB11DBC01CD010E948CFB0E948F
:10F30000F2FB9927C95FDE4F8883C750D140DB9A53
:10F31000882339F0C95FDE4F2881C750D1402F3F85
:10F3200039F4CB5FDE4F88819981C550D140DCC074
:10F33000D801C7014096A11DB11DCF5FDE4F888364
:10F340009983AA83BB83C150D140A12CF1E0BF2E89
:10F35000C12CD12CE0E56E2EE3E07E2E812C912C89
:10F36000C85FDE4F1882C850D140C85FDE4F988119
:10F37000C850D140C95FDE4FA881C750D1409A170D
:10F3800008F0A3C0C85FDE4FB881C850D1404B2EF3
:10F390005524C201840D951DAA27BB27CF5FDE4FE0
:10F3A000288139814A815B81C150D140820F931FEE
:10F3B000A41FB51FBC01CD010E948CFB0E94F2FB73
:10F3C000482F5527CB5FDE4F48835983C550D14026
:10F3D0000E94F2FB9927982F8827CB5FDE4FA881E8
:10F3E000B981C550D140A82BB92BCB5FDE4FA88384
:10F3F000B983C550D140DB9ACF5FDE4F2881398178
:10F400004A815B81C150D140A20EB31EC41ED51EDD
:10F41000C601B5010E948CFB2224332461147104BF
:10F420008104910409F10E94F2FB9927982F882703
:10F430008225932548E09C01220F331F415097FFFE
:10F4400005C081E290E18227932701C0C9014423CE
:10F4500091F71C01089461087108810891086114F2
:10F46000710481049104F9F6DB9A0894411C511C43
:10F47000C201AA2797FDA095BA2FBC01CD0120E5B6
:10F4800034E040E050E00E947CFC5B016C013901FB
:10F490004A01C85FDE4F3881C850D1403F5FC85F26
:10F4A000DE4F3883C850D140C95FDE4F4881C75016
:10F4B000D140341750F4CB5FDE4F88819981C5501D
:10F4C000D1408215930509F45DCF80E090E0C85FDC
:10F4D000DE4FA881C850D140C95FDE4FB881C75008
:10F4E000D140AB1709F481E0882331F481E090E04A
:10F4F000F9C082E090E0F6C020E931E040E050E061
:10F50000E20EF31E041F151FC801B7010E948CFBF9
:10F510000E941BFC1B012C010E941BFC5B016C0167
:10F52000611571058105910509F4D9C0BB27A52D89
:10F53000942D832D7C013FEFA3163FEFB3063FEFE1
:10F54000C3063FEFD30609F4CBC04E010894811CDB
:10F55000911C8401020D111D0E94F2FBD8018C93B5
:10F560000894211C311C411C511C0894A108B108AD
:10F57000C108D108A114B104C104D10441F40E940E
:10F580001BFC1B012C010E941BFC5B016C01BB27B7
:10F59000A52D942D832DE816F90629F4A114B104A4
:10F5A000C104D10441F68E2D0E9418F99E2D8827A2
:10F5B0007C0100271127C75FDE4F88829982C950DE
:10F5C000D140D801C70180509F4FAF4FBF4F8150EE
:10F5D000904FA140B04018F080E090E077C080915B
:10F5E000680080FDFCCFE199FECF83E0F701009336
:10F5F0005B0080936800E8958091680086FF0EC0EC
:10F600008091680080FDFCCFE199FECF81E180937D
:10F610006800E8958091680086FDF2CF6624772423
:10F620004301B801A7018091680080FDFCCFE199FA
:10F63000FECF21E0C75FDE4FA881B981C950D1401C
:10F640008D919D91C75FDE4FA883B983C950D1408A
:10F650000C01FA0160935B0020936800E895112487
:10F6600082E090E0A0E0B0E0680E791E8A1E9B1E4A
:10F67000480F591F6A1F7B1F90E0691691E07906B9
:10F6800090E0890690E0990670F28091680080FD14
:10F69000FCCFE199FECF85E0F70100935B008093FA
:10F6A0006800E8958091680086FF0EC08091680030
:10F6B00080FDFCCFE199FECF81E180936800E89561
:10F6C0008091680086FDF2CF81E090E0892B09F4FB
:10F6D00010CFA114B104C104D10409F027CFDB9AE3
:10F6E00080E090E0C65FDE4F0FB6F894DEBF0FBE3D
:10F6F000CDBFDF91CF911F910F91FF90EF90DF90E1
:10F70000CF90BF90AF909F908F907F906F905F90C1
:10F710004F903F902F900895EF92FF921F93CF93B9
:10F72000DF93CDB7DEB724970FB6F894DEBF0FBED8
:10F73000CDBF9B01AC0160930001709301018093E8
:10F7400002019093030188E68983FE013196DA0174
:10F75000C9011FE0B695A795979587951A95D1F79A
:10F760008183A7E05695479537952795AA95D1F7B8
:10F77000822F8E7F8B83809100018C839598DB98FC
:10F7800010E07F01F70181917F010E94DFFB1F5F85
:10F790001430C0F310E080E00E94DFFB1F5F1430E4
:10F7A000D0F3959A959824960FB6F894DEBF0FBEC5
:10F7B000CDBFDF91CF911F91FF90EF90089590E022
:10F7C000292F87FF02C0939A01C09398959A990FA9
:10F7D0008299916095982F5F880F283090F3892F38
:10F7E0009927089580910001882369F4DB9A80911C
:10F7F000000190910101A0910201B0910301BC01AF
:10F80000CD010E948CFB8091000190910101A0919B
:10F810000201B09103010196A11DB11D8093000169
:10F8200090930101A0930201B093030180E00E9434
:10F83000DFFB99270895DF92EF92FF920F931F93BA
:10F84000CF93DF93EE24FF248701DD24C0E0D0E0D6
:10F850000E94F2FB9927AA27BB270C2E04C0880F11
:10F86000991FAA1FBB1F0A94D2F7E82AF92A0A2B6C
:10F870001B2BD394289683E08D1550F7C801B70150
:10F88000DF91CF911F910F91FF90EF90DF9008953E
:10F89000EF92FF920F931F93CF93DF93EA018C01B6
:10F8A0007B01452B59F0F70121917F01C8010F5FC2
:10F8B0001F4F622F0E9471FC2197A9F7E199FECF9B
:10F8C00081E090E0DF91CF911F910F91FF90EF9039
:10F8D0000895E199FECF9FBB8EBBE09A99278DB327
:10F8E0000895E199FECF9FBB8EBB6DBB0FB6F89418
:10F8F000E29AE19A0FBE0895629FD001739FF001D2
:10F90000829FE00DF11D649FE00DF11D929FF00DAF
:10F91000839FF00D749FF00D659FF00D9927729FE6
:10F92000B00DE11DF91F639FB00DE11DF91FBD0171
:08F93000CF0111240895FFCF5F
:040000031000F000F9
:00000001FF
