S014000062696E72656E652F6D61696E2E7372656359
S113000010C02BC02AC03AC728C027C091C725C03A
S113001024C070CE22C021C020C01FC0ADC61DC0E8
S11300201CC011241FBE20E0A89521BD20E025BFDF
S1130030EEE6FDE1A0E6B0E020E003C0C89531960D
S11300400D92A436B207D1F7A4E6B0E021E001C0D6
S11300501D92AE31B207E1F73BC700C01895CF93AC
S1130060DF93C5E6D0E088819981EADB882339F4FF
S1130070FD2FEC2F31978083888199816BDBDF9191
S1130080CF910895DF92EF92FF920F931F93CF9336
S1130090DF93E82EF92ED62ED52FC42F04E610E0D8
S11300A0F12FE02F8081882319F080E090E01AC0BE
S11300B08FE290E0ECD581E080936400F12FE02F93
S11300C0C183D283E0916500F0916600E082F18201
S11300D0D282E0916500F091660080916200838392
S11300E081E090E0DF91CF911F910F91FF90EF900D
S11300F0DF900895CDDB1092640081E090E00895D4
S1130100C8DB1092640081E090E0089510926400CE
S113011021DB81E090E00895CF93DF93D92FC82F9E
S11301209B8180916200981799F4288139818FEF1F
S11301302F3F380739F080916000909161002817B3
S1130140390731F46C2F7D2F8A8107D0009711F481
S11301508C2F9D2FDF91CF910895863029F4972F0E
S1130160862F4DD8682F792F972F862F089500005A
S113017008958C98FCDF939AFADF80B382958F7090
S113018081709398992787FD90950895CF93DF9375
S1130190C0E0D7E0CC0FEDDF813019F0D150D2F7B9
S11301A002C0C160FBCF8C2F992787FD9095DF910A
S11301B0CF9108951F93CF93DF93182F8C9AC7E0A4
S11301C0D0E0112384F4949AD2DF939AD0DF9398E9
S11301D0110F2197B2F7CDDF20E030E0882329F416
S11301E021E030E002C09498EFCF932F822FDF916B
S11301F0CF911F910895949A939A8C9AB8DF94980A
S1130200B6DF939808958C9A9498B1DF939AAFDFF0
S1130210939808958C9A949AAADF939AA8DF939856
S113022008958C9A9498A3DF939AA1DF949A0895E1
S1130230CF93E7E6F0E0C08110828C2F8F7081307D
S113024081F0C23051F0C33029F0C43091F4E9DFB9
S113025039DD0FC0D0DF16DD0CC08181ABDFABDC34
S113026008C094DF60E074DCC07F11F0CCDF01C013
S1130270D1DFCF910895939A949A8B9A8C9AE7E65A
S1130280F0E01192108281E090E00895982F80911F
S11302906700882319F080E090E00DC081E080932E
S11302A06700992319F081E18093670088E191E068
S11302B0EED481E090E00895982FE7E6F0E08081A5
S11302C0882319F080E090E009C082E08093670001
S11302D0918388E191E0DBD481E090E008958091FE
S11302E06700882319F080E090E008C083E08093E1
S11302F0670088E191E0CBD481E090E0089580919B
S11303006700882319F080E090E008C084E08093BF
S1130310670088E191E0BBD481E090E008951092F9
S11303206900AD9AAB9AAC9A81E090E00895AD98DB
S1130330E9E6F0E080818160808381E090E00895C7
S1130340AD9AE9E6F0E080818670808381E090E0F8
S113035008958091690080FF02C0F2DF01C0E7DFE9
S1130360992787FD90950895AC98E9E6F0E080819F
S11303708260808381E090E00895AC9AE9E6F0E041
S113038080818570808381E090E008958091690088
S113039081FF02C0F2DF01C0E7DF992787FD909556
S11303A00895AB98E9E6F0E080818460808381E081
S11303B090E00895AB9AE9E6F0E080818370808351
S11303C081E090E008958091690082FF02C0F2DF2D
S11303D001C0E7DF992787FD90950895AC9AAA9804
S11303E0AD9AAD98AA9A0895AC98AA98AD9AAD988A
S11303F0AA9A08951F93CF93DF93C82F10E0EEDFDE
S1130400EDDFECDFEBDFEADFE9DFE8DFE7DFE6DFA4
S1130410E5DFE4DFE3DFE2DFE1DFE0DFDFDFDEDFD4
S1130420DDDFDCDFDBDFDADFD9DFD8DFD7DFD6DF04
S1130430D5DFD4DFD3DFD2DFD1DFD0DFCFDFCEDF34
S1130440CDDFCCDFCBDFCADFC9DFC8DFC7DF185D94
S1130450183CA8F210E0DD27C7FDD0951C161D0638
S11304603CF4C2DF1F5F812F99278C179D07CCF3C3
S1130470AC9AAD9ADF91CF911F9108951F93182FD5
S1130480B9DF10936A0081E090E01F9108951F93F3
S1130490182FB0DF10936A001F910895A5DFAC9A5E
S11304A0AD9AEAE6F0E080818F5F8083089596DF5D
S11304B0AC9AAD9AEAE6F0E0808181508083089599
S11304C080916A00992787FD90950895EF92FF9295
S11304D00F931F930BE610E0E0906000F090610032
S11304E061E577E39F2D8E2D31DCF12FE02F819391
S11304F09193808391830C5F1F4F65E87FE09F2D6C
S11305008E2D24DCF12FE02F8083918381E090E015
S11305101F910F91FF90EF900895EBE6F0E020819A
S11305203181932F822F8827990F881F9927220FB3
S1130530331F882321F08BE090E12827392730935B
S11305406C0020936B008481958128273927932F91
S1130550822F089595D2A7E7B0E08C91843091F46E
S1130560FB2FEA2F369782E08083FB2FEA2F359703
S11305708AE68083FB2FEA2F34978DEC8083FB2F50
S1130580EA2F11828AE08C9308950F931F93CF93DF
S1130590DF93C0E8D0E00881198118821982C2D2A1
S11305A0512F402F60E08AD9882349F4FD2FEC2F86
S11305B039978083FD2FEC2F359780833AD5DF91CF
S11305C0CF911F910F9108950F931F9307E710E0A8
S11305D0F12FE02F108244D579DFC6D3F12FE02F1D
S11305E017821086148281E090E01F910F91089584
S11305F00F931F93CF93DF93982FC7E7D0E08881A1
S1130600882379F0883019F080E090E021C089E0F7
S11306108883FD2FEC2F339790838AEA92E037D3B7
S113062015C0FD2FEC2F3397908382E0C4D482E071
S113063000D50C2F1D2F0B5F1F4F6FDF8F73907032
S1130640F12FE02F808391838CE0888381E090E018
S1130650DF91CF911F910F910895882351F081E08C
S1130660AAD4D8D480E0E5D4E7E7F0E01192108270
S113067003C0809377009FD481E090E008950F93A6
S11306801F93CF93DF9307E710E0F12FE02F8081D2
S11306908850833018F080E090E04FC0D12FC02FF5
S11306A024978881817076D4888185958883312FB9
S11306B0202F2F5F3F4FF32FE22F80818F5F8083A6
S11306C08830A9F1803179F1823119F081E090E02C
S11306D034C0F12FE02F80818A3041F0108281E014
S11306E034D985D997D480E0A4D4F0CFB12FA02FEA
S11306F01697339780818C93B12FA02F1597F12FE4
S1130700E02F329780818C93F12FE02F31978081F5
S11307108883F32FE22F108288E0F12FE02F80836B
S113072081E013D9D3CFF12FE02F369703C0F12FF7
S1130730E02F359780818883C9CFDF91CF911F91B6
S11307400F910895EF92FF920F931F93CF93DF932E
S1130750C82F87E7E82E80E0F82EFF2DEE2D2081AC
S1130760222309F45AC1213009F4EFC0223009F4DC
S1130770D1C0233009F4B0C0253009F472C026304A
S113078009F466C0273009F45BC02B3029F12C3002
S113079009F040C11F2D0E2D095F1F4FF12FE02FCF
S11307A0208131812F5F3F4F20833183DF2DCE2D78
S11307B02596888199812817390708F42BC181E08F
S11307C0FAD328D480E035D4F12FE02F108211829F
S11307D0188219828BE01BC1CC23B9F01F2D0E2D7A
S11307E00B5F1F4FF12FE02F1082118282E0E3D3C1
S11307F082E01FD492DE9370D12FC02F8883998317
S11308008CE0FF2DEE2D808305C1FF2DEE2D359656
S113081080819181282F392F0196808391832730FD
S1130820310508F4F7C010821182E5D382E001D4C7
S113083084E0DF2DCE2D88838AEA92E028D2EAC0B4
S113084083E0DF2DCE2D888385EC92E020D2E2C0B8
S1130850FF2DEE2D3397C08387E0FF2DEE2D80838F
S1130860D9C0FF2DEE2D319680818F5F8083FF2DBF
S1130870EE2D3597808186958083CC2341F0806866
S11308808083DF2DCE2D24968881882309F1C8E743
S1130890D0E08881883099F0803109F0BBC08F5F47
S11308A08883AC2FBD2F1397FD2FEC2F36978081B3
S11308B08C93FD2FEC2F319786E08083ABC0FD2F06
S11308C0EC2F3297AC2FBD2F16978C918083A2C04A
S11308D09FD281E08883DBCF82E0ABD3FF2DEE2D66
S11308E085E0819311E01083CC2379F0FF2DEE2D68
S11308F0359780E88083DF2DCE2D24968881882348
S113090009F088C085D2188385C0FF2DEE2D359758
S1130910C08380C0FF2DEE2D8281882359F0C0FF53
S113092004C034978081853311F083E070C081E086
S113093080D3FBCFC0FFF9CFFF2DEE2D31978081FF
S1130940853399F781E075D3F0CFFF2DEE2D3396E3
S1130950808181508083882309F459C0FF2DEE2DB6
S113096032968081882349F11082BF2DAE2D1497D1
S11309709C9196959C93FF2DEE2D3597808180FF59
S113098002C090689C938C2F81708083813009F021
S113099041C08C918533F1F582E0FF2DEE2D8083EB
S11309A0BF2DAE2D11979C9196959C933297808183
S11309B080FF30C090689C932DC02083BF2DAE2D46
S11309C011979C9196959C93FF2DEE2D32978081E3
S11309D080FF02C090689C938C2F8170808381304B
S11309E0C9F48C918533B1F482E0DF2DCE2D888358
S11309F0BF2DAE2D14979C9196959C93FF2DEE2DB3
S1130A003597808180FF06C090689C9303C0DF2DDA
S1130A10CE2D888381E090E02CC035979081990F8A
S1130A2096709083BF2DAE2D14978C91882314F467
S1130A30916090839C91990FC1709C2B9C938081B1
S1130A40873041F79777973029F788E1DF2DCE2D4E
S1130A508B8320832C93FF2DEE2D32972083FF2D43
S1130A60EE2D3197208381E0FF2DEE2D828380834C
S1130A70D1CFDF91CF911F910F91FF90EF90089507
S1130A8020E0422F322FA4E7B0E09C9190FF01C0F8
S1130A9027E791FF03C031E084E3282792FF04C0D5
S1130AA082E0382782E3282793FF04C088E03827B0
S1130AB081E3282794FF04C080E1382786E22827B1
S1130AC095FF04C080E6382785E2282796FF04C0F6
S1130AD080E8382783E1282799231CF441E087E044
S1130AE02827822F8C70A1F026FF0EC0832F8A70D6
S1130AF049F0832F807521F040FD0CC042600AC08C
S1130B003062FACF3460F5CF30FDF0CF2068EECFFD
S1130B102860EACFFB2FEA2F41933083FB2FEA2F83
S1130B2022830895A4E7B0E0FB2FEA2F4191429578
S1130B30407F40719081892F859585958595859510
S1130B408C70482B892F8595859585958370482BC6
S1130B50292F2295220F220F207CFB2FEA2F92812E
S1130B60892F85958873282B9770292B342F90E033
S1130B7020FF01C091E021FF02C082E0982722FFFC
S1130B8002C084E0982723FF02C088E0982724FF4E
S1130B9002C080E1982725FF02C08FE1982726FF35
S1130BA002C08CE19827222314F48AE1982730FFAD
S1130BB002C089E1982731FF02C086E1982742FFED
S1130BC002C085E1982743FF02C08BE09827842F59
S1130BD0807111F087E09827992399F1913081F180
S1130BE0923071F1943061F1983051F1903141F1CA
S1130BF09F3119F19C31F1F09A31C9F09931A1F08A
S1130C00963179F0953151F09B3029F09730C9F441
S1130C1030E1342716C038E0342713C034E03427D9
S1130C2010C032E034270DC031E034270AC080E818
S1130C30282707C080E4282704C080E2282701C0B1
S1130C402927922F929596959770330F330F330F70
S1130C50932B892F992787FD909508959093810070
S1130C608093800081E090E00895EFE8F0E0108246
S1130C7031971082089520E030E0EEE8F0E09191A1
S1130C808081981709F421E0932F822F0895CF9340
S1130C90DF93D92FC82F72E06FB76078AFE8B0E068
S1130CA05C91452F4F5F463041F1242F3327FB2FB2
S1130CB0EA2F31978081992787FD90952817390766
S1130CC0D1F0F8948C91581731F0662309F0789498
S1130CD07230A9F4E1CF4C93E52FFF27E7FDF0959F
S1130CE0EE0FFF1F8A2F9B2F0D97E80FF91FC0836C
S1130CF0D18371E0EACF70E0EBCF40E0D6CF872F0D
S1130D00992787FD9095DF91CF9108950F931F93B5
S1130D10AEE8B0E0FB2FEA2F8191282F332727FD7F
S1130D2030959C9180819817D1F08C918530A9F0F1
S1130D308C918F5F8C93022F132F020F131F0E576A
S1130D401F4FB12FA02FED91FC910995F12FE02FAA
S1130D501082118280E090E004C080E0EBCF8FEF3E
S1130D609FEF1F910F91089583E086B93698339AC7
S1130D70379A80E090E008951F920F920FB60F9279
S1130D8011240F921F932F933F934F935F936F936D
S1130D907F938F939F93AF93BF93CF93DF93EF93FF
S1130DA0FF93E1E9F0E01081319780818823D9F045
S1130DB010820FB6F894C4B10FBED5B137983398EA
S1130DC07894112361F0123031F0133061F48C2FD8
S1130DD09D2FCBD108C08C2F9D2FB5D1F6CF8C2F52
S1130DE09D2F3CDFF0CFFF91EF91DF91CF91BF9129
S1130DF0AF919F918F917F916F915F914F913F91AF
S1130E002F911F910F900F900FBE0F901F90189568
S1130E10282F90E03FB7F894E0E9F0E08081882340
S1130E2061F481E08093900027703196208327B984
S1130E30349A379A339A369A91E03FBF892F99278B
S1130E4087FD90950895282F962F977098608FEBC3
S1130E5009B6082209BE8FE709B6082209BE88E050
S1130E6002B4082A02BC95BD14BC23BD80E809B6AF
S1130E70082A09BE789481E090E0089578941F923E
S1130E800F920FB60F9211242F933F934F935F93BA
S1130E906F937F938F939F93AF93BF93EF93FF933E
S1130EA048D1FF91EF91BF91AF919F918F917F9125
S1130EB06F915F914F913F912F910F900FBE0F90C3
S1130EC01F90189580E090E0089580E090E00895E8
S1130ED0CFE5D2E0DEBFCDBF1ABA17BA14BA11BA41
S1130EE0A59AA39AA49AA29A8E9A8D9ABB9ABC9A0E
S1130EF0B89AB99ABA9AAD9AAB9AAC9A84E1BEDA26
S1130F00B4DED3D013D102DF892BE9F380E405B634
S1130F10082A05BE889500000000F5CFFFCF81E0C8
S1130F2090E0089581E090E0089581E090E00895D4
S1130F301F920F920FB60F9211242F933F934F934A
S1130F405F936F937F938F939F93AF93BF93EF932D
S1130F50FF9380919200813059F0882351F480B33B
S1130F60869586958170992787FD9095EBDB01C066
S1130F7086DBFF91EF91BF91AF919F918F917F910C
S1130F806F915F914F913F912F910F900FBE0F90F2
S1130F901F901895982F80919200813019F080E06D
S1130FA090E008C090FF04C0C29A81E090E002C0C3
S1130FB0C298FBCF0895882389F0813029F08230CC
S1130FC0B9F4C098C19814C083E08093920089E07A
S1130FD08EBD80E109B6082A09BE0AC0C098C1982E
S1130FE01EBC8FEE09B6082209BE82E080939200EF
S1130FF081E090E0089580919200823041F0C09A9F
S1131000C19881E08093920081E090E002C080E08A
S113101090E0089580919200823041F0C09AC19A84
S1131020C2981092920081E090E002C080E090E0CB
S11310300895882369F0813039F0823071F481E0B9
S11310408BBD80E98ABD09C08BBD8CE28ABD05C019
S11310501BBC88EC8ABD1DBC1CBC81E090E00895DB
S113106010929200C09AC19AC2988FEE09B60822D3
S113107009BE8FED09B6082209BE8BEF09B6082216
S113108009BE87EF09B6082209BE89E08EBD1FBCE0
S11310901BBC88EC8ABD80E109B6082A09BE1DBCC8
S11310A01CBC789481E090E00895A3E9B0E0FB2FA4
S11310B0EA2F11921082FB2FEA2F12AA13AA81E0C1
S11310C084AB15AA16AA128214AE15AE16AE17AECC
S11310D011AE12AE13AE14A610AA11AA87A7E05C33
S11310E0FF4F1082FB2FEA2FEF5BFF4F1082FB2F85
S11310F0EA2FEE5BFF4F1082FB2FEA2FED5BFF4FD1
S113110010828A2F9B2F0396FB2FEA2F81A792A789
S113111013A6A6DFDBD928DE95D4F2D762E080E4FB
S113112092DEC39AAD9A81E090E0089581E090E068
S113113008958091C700882321F00BD982E068DEEE
S113114001C0AD9A0895A1EDB0E0ED91FC91119725
S1131150EE0FFF1FEE0FFF1FEA0FFB1F868397831F
S113116083E056DE81E090E00895CF93DF93C1EDF4
S1131170D0E0E881F981EE0FFF1FEE0FFF1FEC0FA7
S1131180FD1F80879187888199810196888399833F
S11311900497E8F0FD2FEC2F3C97E081E13019F043
S11311A01882198214C0AC2FBD2FDC978C91882330
S11311B0B9F7EC93FD2FEC2F39978081918101963B
S11311C0808391838C2F9D2F069657D4E9CF81E09D
S11311D090E0DF91CF910895CF93DF93C5E9D0E0FC
S11311E01882D4D88BA99CA9805098401CF018AAC6
S11311F01AAAAC9A81E090E0DF91CF910895EF9222
S1131200FF920F931F93CF93DF93D92FC82F8EEBA9
S1131210E82E80E0F82EFF2DEE2D8081882309F042
S1131220CBC088858C3309F4F2C14885483009F471
S11312302DC1403209F4DFC0888199818F5F9F4FAF
S113124009F0BAC0A3E9B0E09C818C9198171CF412
S11312509150909393009C8180919300981709F486
S1131260ABC09093930081E0FB2FEA2F84A78D817C
S113127081838D818F5F8D836885613009F4B4C06B
S1131280662309F49CC06930A9F09DD8ECEBF0E02A
S1131290E080F180C193D1930E2F1F2F4C2F5D2F2F
S11312A066E08FEF9FEFEED6F12FE02F80839F2D26
S11312B08E2DB9C18F81282F332727FD309580913A
S11312C060009091610028173907F9F640E050E07A
S11312D0E091BC00F091BD00809193008F5F8093FA
S11312E093008483E091BC00F091BD001582E091ED
S11312F0BC00F091BD00A0E6B0E08C918783E09142
S1131300BC00F091BD006087E091BC00F091BD008D
S11313108C91818706E410E064E470E0E091BC0005
S1131320F091BD00E40FF51F23E930E0B72FA62F9D
S1131330A20FB31F8C9182874F5F5F4FE091BC0077
S1131340F091BD00E40FF51F8D919C91892F990FA9
S1131350990B82874F5F5F4FE091BC00F091BD0015
S1131360E40FF51FB12FA02FA20FB31F8C9182871A
S11313704F5F5F4FE091BC00F091BD00E40FF51F9B
S11313808D919C91892F990F990B82874F5F5F4FA5
S11313900C5F1F4F6C5F7F4F403151050CF4BECF83
S11313A081E0FF2DEE2D80835F2D4E2D485250405D
S11313B066E08FEF9FEF66D68C2F9D2F34C1FB2FF5
S11313C0EA2FF2968081813031F06083FB2FEA2F7F
S11313D064ABAC9A5ACF898586878A8587878B8543
S11313E0808B8C85818BF1CF62AB64AB15AA16AA76
S11313F0128237D34ACF288139818091600090913D
S113140061002817390709F017CF2AE030E0FD2FD3
S1131410EC2F3E968191853579F62F5F3F4F25312C
S11314203105C4F3AB988985882329F1E0ECF0E019
S11314301082118280E090E282879387A1EDB0E070
S11314401D921C921197FB2FEA2F72971082FB2F8B
S1131450EA2F359710821182FB2FEA2F33971082DF
S1131460FB2FEA2F71976A2F7B2F6A5F7F4F808152
S1131470918144D3A1CFE0ECF0E010821182808509
S11314809185880F991F880F991FD6CF288139819C
S113149080916000909161002817390709F0C9CE46
S11314A0E091BC00F091BD00A3E9B0E08C918F5FA6
S11314B08C938483E091BC00F091BD008C918F5F8C
S11314C08C938483E091BC00F091BD0015826091FF
S11314D0BC007091BD0020E630E0F32FE22F808144
S11314E0F72FE62F8783E091BC00F091BD00408781
S11314F04091BC005091BD00F32FE22F8081F52F65
S1131500E42F81872091BC003091BD00FB2FEA2F8E
S113151082A9F32FE22F82872091BC003091BD0075
S1131520FB2FEA2F84A9F32FE22F83872091BC009D
S11315303091BD004A2F5B2F4B5C5F4FF52FE42F9A
S11315408081880F880FF32FE22F84872091BC00BD
S11315503091BD00F52FE42F8081918106E09595AF
S113156087950A95E1F7F32FE22F85872091BC0038
S11315703091BD00FB2FEA2FE05CFF4F8081F32FF9
S1131580E22F86872091BC003091BD00FB2FEA2F0B
S1131590EF5BFF4F8081F32FE22F87872091BC0000
S11315A03091BD00FB2FEA2FEE5BFF4F8081F32FBC
S11315B0E22F808B2091BC003091BD00FB2FEA2FDD
S11315C0ED5BFF4F8081F32FE22F818B2091BC00D4
S11315D03091BD00FB2FEA2F8181F32FE22F828B04
S11315E081E0FB2FEA2F84A70A2F1B2F055D1F4FD5
S11315F0F12FE02F8083FB2FEA2F41A552A566E04F
S11316008EE790E03FD5F12FE02F8083D5CE28815F
S1131610398180916000909161002817390709F0A1
S113162004CEFFDF02CEDF91CF911F910F91FF9087
S1131630EF900895E0ECF0E0208131812F5F3F4F7F
S1131640208331838285938501972817390739F0E0
S11316506E2F7F2F695E7F4F932F822F4FD2089575
S11316600F931F93CF93DF93082F192FACD6C1ED9F
S1131670D0E088819981892B09F440C0B12FA02F33
S11316802A2F3B2F2D5F3F4F8091BC009091BD00CE
S1131690E881F981E80FF91F8D918483888199810C
S11316A00196888399832A173B0774F7FD2FEC2F43
S11316B0339780818F5F8083873034F48AE19BE0A5
S11316C0E6DA81E090E041C0FD2FEC2F779780911E
S11316D060009091610080839183FD2FEC2F7397BC
S11316E081E08083FD2FEC2F75974081518166E066
S11316F08EE790E0C7D481E090E027C02C2F3D2FE7
S113170025503040F32FE22F808191810196808310
S11317109183A091BC00B091BD008081FB2FEA2F82
S11317208483A091BC00B091BD00F32FE22F80818F
S11317309181892F990F990BFB2FEA2F858388813B
S1131740998102968883998399CFDF91CF911F91D4
S11317500F910895AEEBB0E01C92FB2FEA2F329765
S113176080839183FB2FEA2F31968081882311F0A7
S1131770108208C0FB2FEA2F808B138A148A8AE117
S11317809BE085DA81E090E00895EF92FF920F9359
S11317901F93E3E1F1E08081E82EFF24E7FCF0945D
S11317A09F2D8E2D02970E2F1F2F02501040682F51
S11317B0792FB12FA02F8D919C911CD1B12FA02FE7
S11317C0ED91FC911197EE0DFF1D32978083ED9101
S11317D0FC91EE0DFF1D3197892F990F990B808392
S11317E01F910F91FF90EF9008950F931F93CF9344
S11317F0DF93E7EEF0E010820E2F1F2F045D1F4FE2
S1131800B12FA02F8C91992787FD90950297CE2F09
S1131810DF2FA896682F792F88819981EBD0888152
S113182099817AD4009711F08883998384E290E0B7
S1131830F12FE02F8083DF91CF911F910F910895B5
S1131840CF93DF93282F392FE7EEF0E080818823B0
S1131850D1F422A733A781E08093E700CE2FDF2FB6
S113186021968883E0911101F09112018081C0D604
S1131870882331F085EC9BE00ADA81E090E005C032
S11318808093E700888380E090E0DF91CF91089512
S113189008959AD6AFE0B1E08A2F9B2F86978D9357
S11318A09C931197FB2FEA2FB897108284E290E063
S11318B0FB2FEA2F848381E090E00895CF93DF9398
S11318C0282F862F882329F01092E70080E090E0EB
S11318D039C0C7EED0E08881882339F1853019F00A
S11318E081E090E02FC0AC2FBD2F11968C919927E9
S11318F087FD9095E0910F01F0911001E80FF91F19
S113190020838C918F5F8C939CA5891749F7E09174
S11319100F01F09110018DA59EA584A395A385EFD9
S11319209BE0B5D980E090E00DC085E08093E700AE
S113193081E08983E0910F01F091100120834DA78C
S11319405EA7CECFDF91CF9108950F931F93CF93CE
S1131950DF93C82FCC23B1F1A7EEB0E08C91813096
S113196019F081E090E03EC0DB2FCA2F2196FB2FB7
S1131970EA2FBC968881908189177CF4992787FD8A
S11319809095E0911101F0911201E80FF91F808107
S11319902FD688818F5F8883E4CF891771F01092E6
S11319A0E700188284E290E08083FB2FEA2F82A56F
S11319B093A5ACD380E090E015C08F5F888380E06E
S11319C090E010C001E111E0F12FE02F80819181BE
S11319D09DD3F12FE02FBA97C083F12FE02FB99751
S11319E0C083BACFDF91CF911F910F91089581E009
S11319F090E00895F92FE82F20E030E06150704026
S1131A00F2F48191992787FD9095982F88272827AC
S1131A10392748E0932F822F80709078892B61F0CA
S1131A20220F331F81E290E128273927415091F793
S1131A306150704032F703C0220F331FF7CF932F4A
S1131A40822F089518D4AAE1B1E01C92FB2FEA2F4B
S1131A50349710821182FB2FEA2F118281E090E0EB
S1131A600895AAE1B1E01C92FB2FEA2F349710826B
S1131A701182FB2FEA2F11820895282F392FE6E1D6
S1131A80F1E080819181019680839183732F622F8D
S1131A9004D0992787FD909508950F931F93CF93B2
S1131AA0DF93282F392F0AE111E0F12FE02F408135
S1131AB04423E9F43297608371838EE1F12FE02FA0
S1131AC0808322833383349780819181019780833B
S1131AD09183D12FC02F2196488301D4882319F0F4
S1131AE081E090E006C0F12FE02F8083888380E0BE
S1131AF090E0DF91CF911F910F9108950F931F9361
S1131B00CF93DF93482F592F0AE111E0F12FE02FF3
S1131B1020812223B1F4329760837183D12FC02FA7
S1131B208BE089932883F12FE02F42835383D7D30B
S1131B30882319F081E090E006C0F12FE02F808324
S1131B40888380E090E0DF91CF911F910F910895F9
S1131B50CF93DF93282F662319F010921A0125C022
S1131B60CAE1D1E08881882309F1823119F081E04A
S1131B7090E01EC0AC2FBD2F11968C91992787FD44
S1131B809095E0911801F0911901E80FF91F208355
S1131B909C919F5F9C93943031F0933009F061E005
S1131BA0862F74D3E4CF89E28883A9D380E090E0C0
S1131BB0DF91CF910895CF93DF93882309F45AC01E
S1131BC0EAE1F1E080818132E1F18F3171F180321B
S1131BD029F18D30C9F08E3081F08F3051F0813190
S1131BE019F081E090E04BC082E1808381E04ED324
S1131BF0F8CF80E1808373D3F4CF8FE08083828138
S1131C00880F880F59D3EDCF8EE080838281938132
S1131C1026E0959587952A95E1F710C081E28083A7
S1131C2082818295807F48D3DCCF80E28083828169
S1131C30938134E0959587953A95E1F78F773CD376
S1131C40D0CFCE2FDF2F2196888180317CF4992745
S1131C5087FD9095E0911801F0911901E80FF91FA3
S1131C6080812AD388818F5F8883BBCF88E2808379
S1131C70188202C080931A0142D380E090E0DF9181
S1131C80CF910895EAE1F1E080818E3159F08B30F3
S1131C9039F0803159F481E1808381EA0DD306C0A3
S1131CA08DE001C08FE1808380EA06D381E090E07B
S1131CB008958FE582BF84E083BF81E009B6082AD6
S1131CC009BE0895EAE1F1E080811082883241F092
S1131CD0893269F4329761E080819181C1DC07C067
S1131CE0349780819181019680839183E2DF80E043
S1131CF090E0089578941F920F920FB60F921124DA
S1131D000F922F933F934F935F936F937F938F9390
S1131D109F93AF93BF93EF93FF9313BE8EEF09B6D8
S1131D20082209BE81E058DAFF91EF91BF91AF918B
S1131D309F918F917F916F915F914F913F912F91DF
S1131D400F900F900FBE0F901F90189555274427A2
S1131D5080FF02C0460F571F660F771F610521F0F1
S1111D60969587959105A1F7952F842F0895E8
S1071D6E1E0013003C
S9030000FC
